:020000040000FA
:100C0000B3EF2BF0C1EF33F0D1EF2FF00F0EC16E29
:060C1000070EB46E120095
:080C180082EF30F000C0E5FF9F
:100C200001C0E5FF02C0E5FF03C0E5FF04C0E5FF2A
:100C300005C0E5FF06C0E5FF0701376B1E0E070183
:100C4000375DD8B066D09E0E3725006E016A060E5D
:100C5000012200C0E9FF01C0EAFFEF683751050D2E
:100C6000F450016EF3CF00F0000E0026050E0122B5
:100C700000C0E9FF01C0EAFFEF6A3751050DF450EB
:100C8000016EF3CF00F0000E0026050E0122004A8F
:100C9000012A00C0E9FF01C0EAFFEF6A3751050DE4
:100CA000F450016EF3CF00F0000E0026050E012275
:100CB000020E0026D8B0012A00C0E9FF01C0EAFFF9
:100CC000EF6A3751050DF450016EF3CF00F0000EBE
:100CD0000026050E0122030E0026D8B0012A00C00E
:100CE000E9FF01C0EAFFEF6A3751050DF450016ECC
:100CF000F3CF00F0000E0026050E0122040E0026A0
:100D0000D8B0012A00C0E9FF01C0EAFFEF6A372B23
:100D100095D70701376B050E0701375D0DE2FB0E16
:100D20003725006E016A060E012200C0E9FF01C0EE
:100D3000EAFFEF6A372BEFD70701386B0701376BF4
:100D40001E0E0701385DD8B021EF0DF0010E07012E
:100D5000396F07013A6B1E0E07013A5DD8B09DEF5F
:100D60000CF0080E3A25006E016A590E0122026A43
:100D7000000E022200C0F6FF01C0F7FF02C0F8FF1C
:100D80000900F5CF00F0050E005CD8B099EF0CF02B
:100D9000FA6AFB6A0034FA36E834FA36FC0BAE0F16
:100DA000E56E0D0EFA22000EFB22E450F96EE1EF23
:100DB00006F002EF08F027EF09F050EF0AF076EFA7
:100DC0000BF0EA0E07013A25006E016A580E012267
:100DD000026A000E022200C0F6FF01C0F7FF02C047
:100DE000F8FF0900F5CF00F00601FB5100160601DF
:100DF000F65100160050D8A499EF0CF0800E0701B0
:100E00003A25006E016A060E012200C0E9FF01C00A
:100E1000EAFFEFCF00F09E0E07013725016E026A50
:100E2000060E022201C0E9FF02C0EAFFEFCF01F087
:100E30000150005CD8B08DD09E0E3725006E016A3F
:100E4000060E0122800E07013A25026E036A060E85
:100E5000032202C0E9FF03C0EAFFEFCF02F000C0A7
:100E6000E9FF01C0EAFF02C0EFFF07013751050D9E
:100E7000F450016EF3CF00F0000E0026050E0122A3
:100E8000EA0E07013A25026E036A580E0322046A2D
:100E9000000E042202C0F6FF03C0F7FF04C0F8FFF3
:100EA0000900F5CF02F000C0E9FF01C0EAFF02C06F
:100EB000EFFF07013751050DF450016EF3CF00F03D
:100EC000000E0026050E0122004A012A00C0E9FF9B
:100ED00001C0EAFFEF6A3751050DF450016EF3CF00
:100EE00000F0000E0026050E0122020E0026D8B0EA
:100EF000012A00C0E9FF01C0EAFFEF6A3751050D82
:100F0000F450016EF3CF00F0000E0026050E012212
:100F1000030E0026D8B0012A00C0E9FF01C0EAFF95
:100F2000EF6A3751050DF450016EF3CF00F0000E5B
:100F30000026050E0122040E0026D8B0012A00C0AA
:100F4000E9FF01C0EAFFEF6A010E0701396F99EF6F
:100F50000CF0800E07013A25006E016A060E012290
:100F600000C0E9FF01C0EAFFEFCF00F09E0E0701CD
:100F70003725016E026A060E022201C0E9FF02C097
:100F8000EAFFEFCF01F00050011802E099EF0CF0FA
:100F900007013751050DF450016EF3CF00F0000E3C
:100FA0000026050E01223751050DF450036EF3CFD4
:100FB00002F0000E0226050E0322EA0E07013A2572
:100FC000046E056A580E0522066A000E062204C049
:100FD000F6FF05C0F7FF06C0F8FF0900F5CF04F0E3
:100FE00002C0E9FF03C0EAFFEFCF02F00250041293
:100FF00000C0E9FF01C0EAFF04C0EFFF0701392B81
:1010000099EF0CF0EA0E07013A25006E016A580EBE
:101010000122026A000E022200C0F6FF01C0F7FFA3
:1010200002C0F8FF0900F5CF00F00601FC510016E0
:101030000601F75100160050D8A499EF0CF0800E6D
:1010400007013A25006E016A060E012200C0E9FF81
:1010500001C0EAFFEFCF00F09E0E07013725016EB9
:10106000026A060E022201C0E9FF02C0EAFFEFCFCA
:1010700001F00150005CD8B08DD09E0E3725006E77
:10108000016A060E0122800E07013A25026E036AEC
:10109000060E032202C0E9FF03C0EAFFEFCF02F011
:1010A00000C0E9FF01C0EAFF02C0EFFF07013751AE
:1010B000050DF450016EF3CF00F0000E0026050E72
:1010C000012200C0E9FF01C0EAFFEF6A3751050DB8
:1010D000F450016EF3CF00F0000E0026050E012241
:1010E000004A012AEA0E07013A25026E036A580EE9
:1010F0000322046A000E042202C0F6FF03C0F7FFB9
:1011000004C0F8FF0900F5CF02F000C0E9FF01C0FC
:10111000EAFF02C0EFFF07013751050DF450016EE1
:10112000F3CF00F0000E0026050E0122020E00266D
:10113000D8B0012A00C0E9FF01C0EAFFEF6A3751C9
:10114000050DF450016EF3CF00F0000E0026050EE1
:101150000122030E0026D8B0012A00C0E9FF01C019
:10116000EAFFEF6A3751050DF450016EF3CF00F03E
:10117000000E0026050E0122040E0026D8B0012A1A
:1011800000C0E9FF01C0EAFFEF6A010E0701396FF5
:1011900099EF0CF0800E07013A25006E016A060EE9
:1011A000012200C0E9FF01C0EAFFEFCF00F09E0E70
:1011B00007013725016E026A060E022201C0E9FF0F
:1011C00002C0EAFFEFCF01F00050011802E099EFF2
:1011D0000CF007013751050DF450016EF3CF00F00C
:1011E000000E0026050E0122004A012A3751050D86
:1011F000F450036EF3CF02F0000E0226050E032218
:10120000024A032AEA0E07013A25046E056A580EBF
:101210000522066A000E062204C0F6FF05C0F7FF8D
:1012200006C0F8FF0900F5CF04F002C0E9FF03C0D3
:10123000EAFFEFCF02F00250041200C0E9FF01C044
:10124000EAFF04C0EFFF0701392B99EF0CF0EA0E1B
:1012500007013A25006E016A580E0122026A000E4B
:10126000022200C0F6FF01C0F7FF02C0F8FF09002C
:10127000F5CF00F00601FD5100160601F8510016E9
:101280000050D8A499EF0CF0800E07013A25006EAB
:10129000016A060E012200C0E9FF01C0EAFFEFCF9C
:1012A00000F09E0E07013725016E026A060E02222B
:1012B00001C0E9FF02C0EAFFEFCF01F00150005C7E
:1012C000D8B08DD09E0E3725006E016A060E012221
:1012D000800E07013A25026E036A060E032202C041
:1012E000E9FF03C0EAFFEFCF02F000C0E9FF01C051
:1012F000EAFF02C0EFFF07013751050DF450016E00
:10130000F3CF00F0000E0026050E012200C0E9FF19
:1013100001C0EAFFEF6A3751050DF450016EF3CFBB
:1013200000F0000E0026050E0122004A012A00C02E
:10133000E9FF01C0EAFFEF6A3751050DF450016E75
:10134000F3CF00F0000E0026050E0122020E00264B
:10135000D8B0012AEA0E07013A25026E036A580E38
:101360000322046A000E042202C0F6FF03C0F7FF46
:1013700004C0F8FF0900F5CF02F000C0E9FF01C08A
:10138000EAFF02C0EFFF07013751050DF450016E6F
:10139000F3CF00F0000E0026050E0122030E0026FA
:1013A000D8B0012A00C0E9FF01C0EAFFEF6A375157
:1013B000050DF450016EF3CF00F0000E0026050E6F
:1013C0000122040E0026D8B0012A00C0E9FF01C0A6
:1013D000EAFFEF6A010E0701396F99EF0CF0800EFA
:1013E00007013A25006E016A060E012200C0E9FFDE
:1013F00001C0EAFFEFCF00F09E0E07013725016E16
:10140000026A060E022201C0E9FF02C0EAFFEFCF26
:1014100001F00050011802E099EF0CF0070137517C
:10142000050DF450016EF3CF00F0000E0026050EFE
:101430000122020E0026D8B0012A3751050DF450C2
:10144000036EF3CF02F0000E0226050E0322020EF9
:101450000226D8B0032AEA0E07013A25046E056A6F
:10146000580E0522066A000E062204C0F6FF05C0CB
:10147000F7FF06C0F8FF0900F5CF04F002C0E9FF4E
:1014800003C0EAFFEFCF02F00250041200C0E9FFF0
:1014900001C0EAFF04C0EFFF0701392B99EF0CF000
:1014A000EA0E07013A25006E016A580E0122026A0F
:1014B000000E022200C0F6FF01C0F7FF02C0F8FFD5
:1014C0000900F5CF00F00601FE5100160601F951A2
:1014D00000160050D8A499EF0CF0800E07013A25B1
:1014E000006E016A060E012200C0E9FF01C0EAFF9A
:1014F000EFCF00F09E0E07013725016E026A060E3F
:10150000022201C0E9FF02C0EAFFEFCF01F0015063
:10151000005CD8B08CD09E0E3725006E016A060E96
:101520000122800E07013A25026E036A060E03228D
:1015300002C0E9FF03C0EAFFEFCF02F000C0E9FFFD
:1015400001C0EAFF02C0EFFF07013751050DF4505B
:10155000016EF3CF00F0000E0026050E012200C040
:10156000E9FF01C0EAFFEF6A3751050DF450016E43
:10157000F3CF00F0000E0026050E0122004A012ADA
:1015800000C0E9FF01C0EAFFEF6A3751050DF450D2
:10159000016EF3CF00F0000E0026050E0122020EB0
:1015A0000026D8B0012A00C0E9FF01C0EAFFEF6AB7
:1015B0003751050DF450016EF3CF00F0000E0026F8
:1015C000050E0122030E0026D8B0012AEA0E0701FB
:1015D0003A25026E036A580E0322046A000E0422A2
:1015E00002C0F6FF03C0F7FF04C0F8FF0900F5CF03
:1015F00002F000C0E9FF01C0EAFF02C0EFFF0701EF
:101600003751050DF450016EF3CF00F0000E0026A7
:10161000050E0122040E0026D8B0012A00C0E9FF01
:1016200001C0EAFFEF6A010E0701396F82D1800E17
:1016300007013A25006E016A060E012200C0E9FF8B
:1016400001C0EAFFEFCF00F09E0E07013725016EC3
:10165000026A060E022201C0E9FF02C0EAFFEFCFD4
:1016600001F00050011801E064D107013751050D68
:10167000F450016EF3CF00F0000E0026050E01229B
:10168000030E0026D8B0012A3751050DF450036E21
:10169000F3CF02F0000E0226050E0322030E0226EF
:1016A000D8B0032AEA0E07013A25046E056A580EDF
:1016B0000522066A000E062204C0F6FF05C0F7FFE9
:1016C00006C0F8FF0900F5CF04F002C0E9FF03C02F
:1016D000EAFFEFCF02F00250041200C0E9FF01C0A0
:1016E000EAFF04C0EFFF0701392B23D1EA0E0701FF
:1016F0003A25006E016A580E0122026A000E02228B
:1017000000C0F6FF01C0F7FF02C0F8FF0900F5CFE7
:1017100000F00601FF5100160601FA5100160050B4
:10172000D8A407D1800E07013A25006E016A060E83
:10173000012200C0E9FF01C0EAFFEFCF00F09E0EDA
:1017400007013725016E026A060E022201C0E9FF79
:1017500002C0EAFFEFCF01F00150005CD8B08BD09F
:101760009E0E3725006E016A060E0122800E0701CB
:101770003A25026E036A060E032202C0E9FF03C087
:10178000EAFFEFCF02F000C0E9FF01C0EAFF02C0AC
:10179000EFFF07013751050DF450016EF3CF00F054
:1017A000000E0026050E012200C0E9FF01C0EAFF7D
:1017B000EF6A3751050DF450016EF3CF00F0000EC3
:1017C0000026050E0122004A012A00C0E9FF01C0DF
:1017D000EAFFEF6A3751050DF450016EF3CF00F0C8
:1017E000000E0026050E0122020E0026D8B0012AA6
:1017F00000C0E9FF01C0EAFFEF6A3751050DF45060
:10180000016EF3CF00F0000E0026050E0122030E3C
:101810000026D8B0012A00C0E9FF01C0EAFFEF6A44
:101820003751050DF450016EF3CF00F0000E002685
:10183000050E0122040E0026D8B0012AEA0E070187
:101840003A25026E036A580E0322046A000E04222F
:1018500002C0F6FF03C0F7FF04C0F8FF0900F5CF90
:1018600002F000C0E9FF01C0EAFF02C0EFFF010E75
:101870000701396F5ED0800E07013A25006E016ABC
:10188000060E012200C0E9FF01C0EAFFEFCF00F021
:101890009E0E07013725016E026A060E022201C064
:1018A000E9FF02C0EAFFEFCF01F00050011801E0AC
:1018B00040D007013751050DF450016EF3CF00F011
:1018C000000E0026050E0122040E0026D8B0012AC3
:1018D0003751050DF450036EF3CF02F0000E0226CF
:1018E000050E0322040E0226D8B0032AEA0E0701D1
:1018F0003A25046E056A580E0522066A000E062275
:1019000004C0F6FF05C0F7FF06C0F8FF0900F5CFD9
:1019100004F002C0E9FF03C0EAFFEFCF02F002507B
:10192000041200C0E9FF01C0EAFF04C0EFFF070195
:10193000392B07013A2BABEF06F007013751050DA4
:10194000F450016EF3CF00F0000E0026050E0122C8
:1019500000C0E9FF01C0EAFFEFCF00F00601FB5134
:1019600000120050FB6F07013751050DF450016E56
:10197000F3CF00F0000E0026050E0122004A012AD6
:1019800000C0E9FF01C0EAFFEFCF00F00601FC5103
:1019900000120050FC6F07013751050DF450016E25
:1019A000F3CF00F0000E0026050E0122020E0026E5
:1019B000D8B0012A00C0E9FF01C0EAFFEFCF00F074
:1019C0000601FD5100120050FD6F07013751050D52
:1019D000F450016EF3CF00F0000E0026050E012238
:1019E000030E0026D8B0012A00C0E9FF01C0EAFFBB
:1019F000EFCF00F00601FE5100120050FE6F07010C
:101A00003751050DF450016EF3CF00F0000E0026A3
:101A1000050E0122040E0026D8B0012A00C0E9FFFD
:101A200001C0EAFFEFCF00F00601FF5100120050A5
:101A3000FF6F07013951070138270701372BA0EF46
:101A400006F00501D36BE4CF06F0E4CF05F0E4CF58
:101A500004F0E4CF03F0E4CF02F0E4CF01F0E4CFF0
:101A600000F01200D9CFE5FFE1CFD9FF00C0E5FFBC
:101A700001C0E5FF02C0E5FF03C0E5FF04C0E5FFCC
:101A800005C0E5FF06C0E5FF07C0E5FF08C0E5FFAC
:101A900009C0E5FF0AC0E5FF0BC0E5FF0CC0E5FF8C
:101AA0000DC0E5FF0EC0E5FF0FC0E5FF10C0E5FF6C
:101AB00011C0E5FF12C0E5FF13C0E5FF14C0E5FF4C
:101AC00015C0E5FF16C0E5FF17C0E5FF18C0E5FF2C
:101AD00019C0E5FF020EDBCF00F0030EDBCF01F0F3
:101AE000040EDBCF02F0050EDBCF03F0060EDBCFDA
:101AF00004F0070EDBCF05F0080EDBCF06F0090E71
:101B0000DBCF07F00A0EDBCF08F0096A020E0A6E7F
:101B100003C0E9FF04C0F3FF055065EC33F00B6E22
:101B20000B50D8B409EF12F00C6A0B50250A02E0F2
:101B3000F0EF11F00B6A0D6A032A02E3044A052A4A
:101B400003C0E9FF04C0F3FF055065EC33F00E6EEF
:101B50000E50D8B409EF12F00E50250A02E1F0EF52
:101B600011F00E502D0A06E1032A02E3044A052A69
:101B7000010E0B6E03C00EF004C00FF005C010F094
:101B80000EC0E9FF0FC0F3FF105065EC33F0300AD0
:101B90000AE10E2A02E30F4A102A0BC011F011824B
:101BA00011500B6EEDD70EC0E9FF0FC0F3FF1050C0
:101BB00065EC33F0116E300E115C13E33A0E115CDC
:101BC00010E20D500A0DF3CF0DF0D00E11260D507E
:101BD000126E115012240D6E0E2A02E30F4A102AC3
:101BE000E2D70EC003F00FC004F010C005F00EC025
:101BF000E9FF0FC0F3FF105065EC33F02E0A34E11B
:101C00000E50010F036E000E0F20046E000E102008
:101C1000056E0A6A03C00EF004C00FF005C010F094
:101C20000EC0E9FF0FC0F3FF105065EC33F0116EEA
:101C3000300E115C13E33A0E115C10E20A500A0DEB
:101C4000F3CF0AF0D00E11260A50126E1150122452
:101C50000A6E0E2A02E30F4A102AE2D70EC003F0E2
:101C60000FC004F010C005F003C0E9FF04C0F3FF8B
:101C7000055065EC33F00E6E660A01E040D0065068
:101C8000040F0F6E000E0720106E000E0820116E5C
:101C90000FC006F010C007F011C008F0FC0E0F26B0
:101CA000FF0E102211220FC0E9FF10C0F3FF1150E8
:101CB00081EC32F00F6EF3CF10F0F4CF11F0E9CFDA
:101CC00012F00A50E56EE56A0B50E56E0D50E56EB8
:101CD0001250E56E1150E56E1050E56E0F50E56E36
:101CE0000250E56E0150E56E0050E56E59EC12F0C1
:101CF0000F6E0B0EE1260F50092603EF12F00E5067
:101D0000730A01E052D00650030F0F6E000E072039
:101D1000106E000E0820116E0FC006F010C007F004
:101D200011C008F0FD0E0F26FF0E102211220FC069
:101D3000E9FF10C0F3FF1150A1EC32F00F6EF3CFAA
:101D400010F0F4CF11F00FC012F010C013F011C05A
:101D500014F01010111007E012C00FF013C010F0B3
:101D600014C011F006D0000E116E590E106E260E22
:101D70000F6E0B50E56E0D50E56E1150E56E105074
:101D8000E56E0F50E56E0250E56E0150E56E0050B5
:101D9000E56EA4EC20F00F6E080EE1260950106EDF
:101DA0000F501024096E03EF12F00E506C0A06E17A
:101DB000032A02E3044A052A010E0C6E03C0E9FF60
:101DC00004C0F3FF055065EC33F00E6E750A01E0B8
:101DD0006CD00C5023E00650040F0F6E000E07204D
:101DE000106E000E0820116E0FC006F010C007F034
:101DF00011C008F0FC0E0F26FF0E102211220FC09A
:101E0000E9FF10C0F3FF115081EC32F00F6EF3CFF9
:101E100010F0F4CF11F0E9CF12F024D00650020FE9
:101E2000136E000E0720146E000E0820156E13C0EE
:101E300006F014C007F015C008F0FE0E1326FF0EC2
:101E40001422152213C0E9FF14C0F3FF1550ECEC67
:101E500032F0136EF3CF14F013C00FF014C010F073
:101E6000116A126A610EE56EE56A0B50E56E0D505F
:101E7000E56EE56A0A0EE56E0C50E56E1250E56EF1
:101E80001150E56E1050E56E0F50E56E0250E56E94
:101E90000150E56E0050E56E0FEC15F0136E0E0E5E
:101EA000E1261350092603EF12F00E50640A04E0F5
:101EB0000E50690A01E075D00C5023E00650040F63
:101EC000136E000E0720146E000E0820156E13C04E
:101ED00006F014C007F015C008F0FC0E1326FF0E24
:101EE0001422152213C0E9FF14C0F3FF155081EC32
:101EF00032F0136EF3CF14F0F4CF15F0E9CF16F0F3
:101F000024D00650020F176E000E0720186E000E28
:101F10000820196E17C006F018C007F019C008F0A5
:101F2000FE0E1726FF0E1822192217C0E9FF18C04F
:101F3000F3FF1950ECEC32F0176EF3CF18F017C026
:101F400013F018C014F0156A166A13C00FF014C00D
:101F500010F015C011F016C012F0610EE56EE56AC2
:101F60000B50E56E0D50E56E010EE56E0A0EE56E46
:101F70000C50E56E1250E56E1150E56E1050E56E96
:101F80000F50E56E0250E56E0150E56E0050E56EB3
:101F90000FEC15F0136E0E0EE1261350092603EF19
:101FA00012F00E50780A04E00E50700A01E073D06F
:101FB0000C5023E00650040F136E000E0720146E21
:101FC000000E0820156E13C006F014C007F015C0EF
:101FD00008F0FC0E1326FF0E1422152213C0E9FF91
:101FE00014C0F3FF155081EC32F0136EF3CF14F0F0
:101FF000F4CF15F0E9CF16F024D00650020F176E7B
:10200000000E0720186E000E0820196E17C006F08B
:1020100018C007F019C008F0FE0E1726FF0E182290
:10202000192217C0E9FF18C0F3FF1950ECEC32F089
:10203000176EF3CF18F017C013F018C014F0156A1C
:10204000166A13C00FF014C010F015C011F016C0BE
:1020500012F0610EE56EE56A0B50E56E0D50E56E0F
:10206000E56A100EE56E0C50E56E1250E56E1150EB
:10207000E56E1050E56E0F50E56E0250E56E0150B2
:10208000E56E0050E56E0FEC15F0136E0E0EE126B6
:1020900013500926B8D10E50580A04E00E50500AC9
:1020A00001E073D00C5023E00650040F136E000EB5
:1020B0000720146E000E0820156E13C006F014C021
:1020C00007F015C008F0FC0E1326FF0E142215228F
:1020D00013C0E9FF14C0F3FF155081EC32F0136E0A
:1020E000F3CF14F0F4CF15F0E9CF16F024D006505A
:1020F000020F176E000E0720186E000E0820196ED2
:1021000017C006F018C007F019C008F0FE0E172619
:10211000FF0E1822192217C0E9FF18C0F3FF19504B
:10212000ECEC32F0176EF3CF18F017C013F018C0B4
:1021300014F0156A166A13C00FF014C010F015C021
:1021400011F016C012F0410EE56EE56A0B50E56E17
:102150000D50E56EE56A100EE56E0C50E56E1250FE
:10216000E56E1150E56E1050E56E0F50E56E0250B1
:10217000E56E0150E56E0050E56E0FEC15F0136E44
:102180000E0EE126135009263ED10E50620A01E0E0
:1021900073D00C5023E00650040F136E000E07207E
:1021A000146E000E0820156E13C006F014C007F060
:1021B00015C008F0FC0E1326FF0E1422152213C0C2
:1021C000E9FF14C0F3FF155081EC32F0136EF3CF2A
:1021D00014F0F4CF15F0E9CF16F024D00650020F1A
:1021E000176E000E0720186E000E0820196E17C01B
:1021F00006F018C007F019C008F0FE0E1726FF0EF3
:102200001822192217C0E9FF18C0F3FF1950ECEC8F
:1022100032F0176EF3CF18F017C013F018C014F097
:10222000156A166A13C00FF014C010F015C011F033
:1022300016C012F0610EE56EE56A0B50E56E0D50AA
:10224000E56EE56A020EE56E0C50E56E1250E56E25
:102250001150E56E1050E56E0F50E56E0250E56EC0
:102260000150E56E0050E56E0FEC15F0136E0E0E8A
:10227000E12613500926C7D00E506F0A01E073D033
:102280000C5023E00650040F136E000E0720146E4E
:10229000000E0820156E13C006F014C007F015C01C
:1022A00008F0FC0E1326FF0E1422152213C0E9FFBE
:1022B00014C0F3FF155081EC32F0136EF3CF14F01D
:1022C000F4CF15F0E9CF16F024D00650020F176EA8
:1022D000000E0720186E000E0820196E17C006F0B9
:1022E00018C007F019C008F0FE0E1726FF0E1822BE
:1022F000192217C0E9FF18C0F3FF1950ECEC32F0B7
:10230000176EF3CF18F017C013F018C014F0156A49
:10231000166A13C00FF014C010F015C011F016C0EB
:1023200012F0610EE56EE56A0B50E56E0D50E56E3C
:10233000E56A080EE56E0C50E56E1250E56E115020
:10234000E56E1050E56E0F50E56E0250E56E0150DF
:10235000E56E0050E56E0FEC15F00C6E0E0EE126EA
:102360000C50092650D00E50630A01E04CD00650A4
:10237000020F0C6E000E07200E6E000E08200F6E6E
:102380000CC006F00EC007F00FC008F0FE0E0C26C1
:10239000FF0E0E220F220CC0E9FF0EC0F3FF0F50FC
:1023A000ECEC32F00501FE6FFF6B0B50E56E0D504B
:1023B000E56E800EE56E050EE56EFE0EE56E0250D2
:1023C000E56E0150E56E0050E56EA4EC20F00B6E5A
:1023D000080EE12609500C6E0B500C24096E13D028
:1023E00003C0E9FF04C0F3FF055065EC33F0E56E70
:1023F0000250E56E0150E56E0050E56EAAEC29F042
:10240000040EE126092A032A02E3044A052A88EF7A
:102410000DF000500110021014E000C0E9FF01C0EF
:10242000F3FF0250A1EC32F0006EF3CF01F0F4CFD5
:1024300002F0E56A00C0E9FF01C0F3FF0250CDECF5
:1024400033F00950E4CF19F0E4CF18F0E4CF17F0DF
:10245000E4CF16F0E4CF15F0E4CF14F0E4CF13F09E
:10246000E4CF12F0E4CF11F0E4CF10F0E4CF0FF09E
:10247000E4CF0EF0E4CF0DF0E4CF0CF0E4CF0BF09E
:10248000E4CF0AF0E4CF09F0E4CF08F0E4CF07F09E
:10249000E4CF06F0E4CF05F0E4CF04F0E4CF03F09E
:1024A000E4CF02F0E4CF01F0E4CF00F0E4CFD9FFB5
:1024B0001200D9CFE5FFE1CFD9FF00C0E5FF01C091
:1024C000E5FF02C0E5FF03C0E5FF04C0E5FF05C06E
:1024D000E5FF06C0E5FF07C0E5FF08C0E5FF09C04E
:1024E000E5FF0AC0E5FF0BC0E5FF0CC0E5FF0DC02E
:1024F000E5FF0EC0E5FF0FC0E5FF10C0E5FF11C00E
:10250000E5FF12C0E5FF13C0E5FF14C0E5FF15C0ED
:10251000E5FF16C0E5FF17C0E5FF18C0E5FF19C0CD
:10252000E5FF1AC0E5FF1BC0E5FF1CC0E5FF1DC0AD
:10253000E5FF1EC0E5FF1FC0E5FF020EDBCF00F088
:10254000030EDBCF01F0040EDBCF02F0050EDBCF74
:1025500003F0060EDBCF04F0070EDBCF05F0080E0C
:10256000DBCF06F0090EDBCF07F00A0EDBCF08F059
:102570000C0EDBCF09F00A6A0B6A0C6A0D6A0E6A50
:102580000F6A106A116A060E136EBC0E126E800E70
:10259000146E060E166EC80E156E800E176E186A33
:1025A0000B0E196E03500701046F0450056F0550A0
:1025B000066F0650076FD88007AFD89025E3075005
:1025C00014E008C003F003A210D02D0EE56E0250F7
:1025D000E56E0150E56E0050E56EAAEC29F0040EA0
:1025E000E126010E186E07060FD02D0EE56E12C003
:1025F000E9FF13C0F3FF1450CDEC33F0122A02E3CD
:10260000134A142A0A0E196E070106350735036EA0
:10261000046A810E03260451046E0551056E7F0E77
:102620000615066E1A6A068E0350800F610F21E3AD
:102630002B0E0601BC6F690EBD6F6E0EBE6F660E6F
:10264000BF6FC06B0850E56E0750E56E800EE56EFB
:10265000060EE56EBC0EE56E0250E56E0150E56EAD
:102660000050E56EA4EC20F01B6E080EE1261B5016
:1026700093D10350800F970F09E20A6A0B6A0C6A24
:102680000D6A0E6A0F6A106A116A75D00350800FC6
:10269000690F17E303501B6EE90E1B2604C00AF0F6
:1026A00005C00BF006C00CF01AC00DF01B5008E07E
:1026B000E86CD8900A360B360C360D36010FFAE36B
:1026C0005AD0D88003AED89031E203501B6E170861
:1026D0001C6E04C00AF005C00BF006C00CF01AC056
:1026E0000DF01C5008E0E86CD8900D320C320B3223
:1026F0000A32010FFAE31B2A04C01CF005C01DF0CA
:1027000006C01EF01AC01FF01B5008E0E86CD890FD
:102710001C361D361E361F36010FFAE31C500E6E96
:102720001D500F6E1E50106E116A25D01A6A1B6A5A
:1027300003BE1B68034A1B2A1B1E036CD8B41B2A4A
:1027400004C00EF005C00FF006C010F01AC011F062
:10275000035011E009E6E86CD890113210320F32C4
:102760000E32010FFAE307D0D8900E360F3610362E
:102770001136010FFAE30A500B100C100D100FE187
:10278000300EE56E12C0E9FF13C0F3FF1450CDEC1C
:1027900033F0122A02E3134A142A190678D015C01E
:1027A00003F016C004F017C005F0066A19C015F052
:1027B0000A500B100C100D10D8B43CD0E56AE56A35
:1027C000E56A0A0EE56E0D50E56E0C50E56E0B5095
:1027D000E56E0A50E56E73EC27F0166E080EE126E2
:1027E000300E162616C0E5FF03C0E9FF04C0F3FF54
:1027F0000550CDEC33F0032A02E3044A052AE56ACA
:10280000E56AE56A0A0EE56E0D50E56E0C50E56E60
:102810000B50E56E0A50E56E9FEC28F00A6EF3CF80
:102820000BF0F4CF0CF0E9CF0DF0080EE126062AEC
:102830001506BED715C019F012C00AF013C00BF070
:1028400014C00CF006C00DF006060D501AE0FF0E85
:1028500003260422052203C0E9FF04C0F3FF05504C
:1028600065EC33F00D6E0DC0E5FF0AC0E9FF0BC04B
:10287000F3FF0C50CDEC33F00A2AE4E30B4A0C2AA8
:10288000E1D70AC012F00BC013F00CC014F0070E11
:10289000095C02E3060E096E0950195CD8A019C044
:1028A00009F0010E095CD8A057D02E0EE56E12C0BB
:1028B000E9FF13C0F3FF1450CDEC33F0122A02E30A
:1028C000134A142A12C003F013C004F014C005F018
:1028D000066A0950065C3AE20E500E240A6E0F3466
:1028E0000B6E10340C6E11340D6E0A500A260B3626
:1028F0000C360D360A500A260B360C360D360E50A5
:102900000E24156E0F34166E1034176E1134196EB6
:1029100015500A240E6E16500B200F6E17500C2007
:10292000106E19500D200A6E300E0A260AC0E5FFFF
:1029300003C0E9FF04C0F3FF0550CDEC33F0032AD8
:1029400002E3044A052A116A062AC3D703C012F01B
:1029500004C013F005C014F0E56A12C0E9FF13C00B
:10296000F3FF1450CDEC33F00850E56E0750E56EE0
:10297000800EE56E060EE56EBC0EE56E0250E56E4D
:102980000150E56E0050E56EA4EC20F0006E080EDC
:10299000E126185000260050E4CF1FF0E4CF1EF0CF
:1029A000E4CF1DF0E4CF1CF0E4CF1BF0E4CF1AF02D
:1029B000E4CF19F0E4CF18F0E4CF17F0E4CF16F02D
:1029C000E4CF15F0E4CF14F0E4CF13F0E4CF12F02D
:1029D000E4CF11F0E4CF10F0E4CF0FF0E4CF0EF02D
:1029E000E4CF0DF0E4CF0CF0E4CF0BF0E4CF0AF02D
:1029F000E4CF09F0E4CF08F0E4CF07F0E4CF06F02D
:102A0000E4CF05F0E4CF04F0E4CF03F0E4CF02F02C
:102A1000E4CF01F0E4CF00F0E4CFD9FF1200D9CF2A
:102A2000E5FFE1CFD9FF00C0E5FF01C0E5FF02C02F
:102A3000E5FF03C0E5FF04C0E5FF05C0E5FF06C0F4
:102A4000E5FF07C0E5FF08C0E5FF09C0E5FF0AC0D4
:102A5000E5FF0BC0E5FF0CC0E5FF0DC0E5FF0EC0B4
:102A6000E5FF0FC0E5FF10C0E5FF11C0E5FF12C094
:102A7000E5FF13C0E5FF14C0E5FF15C0E5FF16C074
:102A8000E5FF17C0E5FF18C0E5FF19C0E5FF1AC054
:102A9000E5FF1BC0E5FF020EDBCF00F0030EDBCF2E
:102AA00001F0040EDBCF02F0050EDBCF03F0060EC3
:102AB000DBCF04F0070EDBCF05F0080EDBCF06F00E
:102AC000090EDBCF07F00A0EDBCF08F00B0EDBCFD1
:102AD00009F00C0EDBCF0AF00D0EDBCF0BF00F0E62
:102AE000DBCF0CF00D6A0E6A03C00FF004C010F0CB
:102AF00005C011F006C012F00350041005100610B6
:102B00001BE1300E0501F26FF36B0B50E56E0A50BE
:102B1000E56E800EE56E050EE56EF20EE56E025076
:102B2000E56E0150E56E0050E56EA4EC20F0136EEA
:102B3000080EE1261350EED0095036E008500A0A7C
:102B400033E107501CE00350096E0450136E05502A
:102B5000146E0650156ED88015AED89010E3010E95
:102B60000D6E151C126E141C116E131C106E091CB8
:102B70000F6E0F2A04E1102A02E1114A122A0750AF
:102B800013E1D88004AED8900FE3010E0D6E041E41
:102B9000036CD8B4042A03C00FF004C010F0E86A34
:102BA00004BEFF0E116E126E050E046EFD0E036E56
:102BB000800E056EE56A03C0E9FF04C0F3FFCDECAB
:102BC00033F003C006F004C007F005C009F00F5051
:102BD000101011101210D8B45AD008C013F0146A93
:102BE000156A166AE56AE56AE56A1350E56E1250E1
:102BF000E56E1150E56E1050E56E0F50E56E73EC0A
:102C000027F0176EF3CF18F0F4CF19F0E9CF1AF0D0
:102C1000080EE126000E1A5C08E1000E195C05E1C1
:102C2000000E185C02E10A0E175C06E30CC01BF0F4
:102C3000C60E1B261B501726FF0E0626072209224A
:102C4000300E172617C0E5FF06C0E9FF07C0F3FFE7
:102C50000950CDEC33F01650E56E1550E56E14506A
:102C6000E56E1350E56E1250E56E1150E56E105092
:102C7000E56E0F50E56E9FEC28F00F6EF3CF10F06D
:102C8000F4CF11F0E9CF12F0080EE126A0D706C06C
:102C900003F007C004F009C005F00D5023E00A500E
:102CA00014E00BC006F006A210D02D0EE56E025007
:102CB000E56E0150E56E0050E56EAAEC29F0040EB9
:102CC000E126010E0E6E0A060DD0FF0E0326042229
:102CD00005222D0EE56E03C0E9FF04C0F3FF055089
:102CE000CDEC33F00B50E56E0A50E56E0550E56E05
:102CF0000450E56E0350E56E0250E56E0150E56E3E
:102D00000050E56EA4EC20F0006E080EE1260E5097
:102D100000260050E4CF1BF0E4CF1AF0E4CF19F006
:102D2000E4CF18F0E4CF17F0E4CF16F0E4CF15F0BD
:102D3000E4CF14F0E4CF13F0E4CF12F0E4CF11F0BD
:102D4000E4CF10F0E4CF0FF0E4CF0EF0E4CF0DF0BD
:102D5000E4CF0CF0E4CF0BF0E4CF0AF0E4CF09F0BD
:102D6000E4CF08F0E4CF07F0E4CF06F0E4CF05F0BD
:102D7000E4CF04F0E4CF03F0E4CF02F0E4CF01F0BD
:102D8000E4CF00F0E4CFD9FF1200D9CFE5FFE1CFC7
:102D9000D9FF00C0E5FF01C0E5FF02C0E5FF03C0A9
:102DA000E5FF04C0E5FF05C0E5FF06C0E5FF07C07D
:102DB000E5FF08C0E5FF09C0E5FF0AC0E5FF0BC05D
:102DC000E5FF0CC0E5FF0DC0E5FF0EC0E5FF0FC03D
:102DD000E5FF10C0E5FF11C0E5FF12C0E5FF13C01D
:102DE000E5FF020EDBCF00F0030EDBCF01F0040E97
:102DF000DBCF02F0050EDBCF03F0060EDBCF04F0D5
:102E0000060E066ED40E056E800E076E060E096E57
:102E1000E00E086E800E0A6E0050011002100310C2
:102E200006E1300EE56E53EC33F0E652E9D0045083
:102E30000A0A04E1D88003AED89002E20B6A02D0FD
:102E4000010E0B6E0BC00CF00B500FE0031C0F6E4D
:102E5000021C0E6E011C0D6E001C0B6E0B2A04E191
:102E60000D2A02E10E4A0F2A08D000500B6E0150C5
:102E70000D6E02500E6E03500F6E0B500D100E10A3
:102E80000F10D8B467D004C000F0016A026A036A68
:102E9000E56AE56AE56A0050E56E0F50E56E0E5092
:102EA000E56E0D50E56E0B50E56E73EC27F0106E7D
:102EB000F3CF11F0F4CF12F0E9CF13F0080EE126B2
:102EC0000350E56E0250E56E0150E56E0050E56E70
:102ED0000F50E56E0E50E56E0D50E56E0B50E56E31
:102EE0009FEC28F00B6EF3CF0DF0F4CF0EF0E9CF8E
:102EF0000FF0080EE1261350800F800F08E1000E3E
:102F0000125C05E1000E115C02E10A0E105C12E297
:102F10001050006E300E002600C0E5FF05C0E9FF2E
:102F200006C0F3FF0750CDEC33F0052A02E3064A52
:102F3000072AA3D7370E102610C0E5FF05C0E9FF0A
:102F400006C0F3FF0750CDEC33F0052A02E3064A32
:102F5000072A93D70C500DE02D0EE56E08C0E9FF4F
:102F600009C0F3FF0A50CDEC33F0082A02E3094A06
:102F70000A2A05C000F006C001F007C002F008C030
:102F800003F009C004F00AC005F0060E076ED40E67
:102F9000066E800E086E0250085C05E10150075C69
:102FA00002E10050065C1AE2FF0E00260122022216
:102FB00000C0E9FF01C0F3FF025065EC33F0066E7C
:102FC00006C0E5FF03C0E9FF04C0F3FF0550CDECE8
:102FD00033F0032A02E3044A052AD7D7E56A03C07F
:102FE000E9FF04C0F3FF0550CDEC33F0800EE56E31
:102FF000060EE56EE00EE56E0EEC30F0030EE126F7
:10300000E4CF13F0E4CF12F0E4CF11F0E4CF10F0EE
:10301000E4CF0FF0E4CF0EF0E4CF0DF0E4CF0CF0EE
:10302000E4CF0BF0E4CF0AF0E4CF09F0E4CF08F0EE
:10303000E4CF07F0E4CF06F0E4CF05F0E4CF04F0EE
:10304000E4CF03F0E4CF02F0E4CF01F0E4CF00F0EE
:10305000E4CFD9FF1200D9CFE5FFE1CFD9FF00C0FF
:10306000E5FF01C0E5FF02C0E5FF03C0E5FF04C0C6
:10307000E5FF020EDBCF00F0030EDBCF01F0080E00
:103080000024026E036A590E0322046A000E042211
:1030900002C0F6FF03C0F7FF04C0F8FF0900F5CF38
:1030A00002F0050E025CD8B011D1FA6AFB6A023454
:1030B000FA36E834FA36FC0BC80FE56E300EFA2209
:1030C000000EFB22E450F96E6EEF18F0A0EF18F03E
:1030D000D2EF18F004EF19F036EF19F0015015E0B7
:1030E000EA0E0024026E036A580E0322046A000EE0
:1030F000042202C0F6FF03C0F7FF04C0F8FF090076
:10310000F5CF02F002508912E1D0EA0E0024026EDF
:10311000036A580E0322046A000E042202C0F6FF5E
:1031200003C0F7FF04C0F8FF0900F5CF02F002501A
:10313000FF08026E8950036E02500314896EC6D0D8
:10314000015015E0EA0E0024026E036A580E0322B5
:10315000046A000E042202C0F6FF03C0F7FF04C099
:10316000F8FF0900F5CF02F002508A12AFD0EA0E44
:103170000024026E036A580E0322046A000E042221
:1031800002C0F6FF03C0F7FF04C0F8FF0900F5CF47
:1031900002F00250FF08026E8A50036E02500314C0
:1031A0008A6E94D0015015E0EA0E0024026E036A84
:1031B000580E0322046A000E042202C0F6FF03C068
:1031C000F7FF04C0F8FF0900F5CF02F002508B12A0
:1031D0007DD0EA0E0024026E036A580E0322046AB0
:1031E000000E042202C0F6FF03C0F7FF04C0F8FF80
:1031F0000900F5CF02F00250FF08026E8B50036EFB
:10320000025003148B6E62D0015015E0EA0E0024C8
:10321000026E036A580E0322046A000E042202C0E2
:10322000F6FF03C0F7FF04C0F8FF0900F5CF02F076
:1032300002508C124BD0EA0E0024026E036A580E24
:103240000322046A000E042202C0F6FF03C0F7FF47
:1032500004C0F8FF0900F5CF02F00250FF08026E2B
:103260008C50036E025003148C6E30D0015015E068
:10327000EA0E0024016E026A580E0222036A000E52
:10328000032201C0F6FF02C0F7FF03C0F8FF0900E8
:10329000F5CF01F001508D1219D0016A026AEA0ED1
:1032A0000026580E0122000E022200C0F6FF01C0C7
:1032B000F7FF02C0F8FF0900F5CF00F00050FF084B
:1032C000006E8D50016E005001148D6EE4CF04F03D
:1032D000E4CF03F0E4CF02F0E4CF01F0E4CF00F05C
:1032E000E4CFD9FF1200D9CFE5FFE1CFD9FF00C06D
:1032F000E5FF01C0E5FF02C0E5FF03C0E5FF04C034
:10330000E5FF020EDBCF00F0030EDBCF01F0080E6D
:103310000024026E036A590E0322046A000E04227E
:1033200002C0F6FF03C0F7FF04C0F8FF0900F5CFA5
:1033300002F0050E025CD8B011D1FA6AFB6A0234C1
:10334000FA36E834FA36FC0B580FE56E330EFA22E3
:10335000000EFB22E450F96EB6EF19F0E8EF19F019
:103360001AEF1AF04CEF1AF07EEF1AF0015015E048
:10337000EA0E0024026E036A580E0322046A000E4D
:10338000042202C0F6FF03C0F7FF04C0F8FF0900E3
:10339000F5CF02F002509212E1D0EA0E0024026E44
:1033A000036A580E0322046A000E042202C0F6FFCC
:1033B00003C0F7FF04C0F8FF0900F5CF02F0025088
:1033C000FF08026E9250036E02500314926EC6D034
:1033D000015015E0EA0E0024026E036A580E032223
:1033E000046A000E042202C0F6FF03C0F7FF04C007
:1033F000F8FF0900F5CF02F002509312AFD0EA0EA9
:103400000024026E036A580E0322046A000E04228E
:1034100002C0F6FF03C0F7FF04C0F8FF0900F5CFB4
:1034200002F00250FF08026E9350036E0250031424
:10343000936E94D0015015E0EA0E0024026E036AE8
:10344000580E0322046A000E042202C0F6FF03C0D5
:10345000F7FF04C0F8FF0900F5CF02F00250941204
:103460007DD0EA0E0024026E036A580E0322046A1D
:10347000000E042202C0F6FF03C0F7FF04C0F8FFED
:103480000900F5CF02F00250FF08026E9450036E5F
:1034900002500314946E62D0015015E0EA0E00242D
:1034A000026E036A580E0322046A000E042202C050
:1034B000F6FF03C0F7FF04C0F8FF0900F5CF02F0E4
:1034C000025095124BD0EA0E0024026E036A580E89
:1034D0000322046A000E042202C0F6FF03C0F7FFB5
:1034E00004C0F8FF0900F5CF02F00250FF08026E99
:1034F0009550036E02500314956E30D0015015E0C4
:10350000EA0E0024016E026A580E0222036A000EBF
:10351000032201C0F6FF02C0F7FF03C0F8FF090055
:10352000F5CF01F00150961219D0016A026AEA0E35
:103530000026580E0122000E022200C0F6FF01C034
:10354000F7FF02C0F8FF0900F5CF00F00050FF08B8
:10355000006E9650016E00500114966EE4CF04F098
:10356000E4CF03F0E4CF02F0E4CF01F0E4CF00F0C9
:10357000E4CFD9FF120000C0E5FF01C0E5FF02C0A3
:10358000E5FF03C0E5FFE56AE56A250EE56E800EFE
:10359000E56E2BEC29F0040EE1260501D75105015B
:1035A000D819FBE05BEC31F0006E610A1CE00050C2
:1035B000620A01E1B4D00050630A01E1D3D00050A7
:1035C000640A01E149D00050690A01E16BD0005062
:1035D0006C0A01E18DD00050740A2BE00050760A8D
:1035E00001E1B4D0C6D0BDEC1FF0006EF3CF01F006
:1035F0000150E56E0050E56E48EC30F0006EF3CF00
:1036000001F0F4CF02F0E9CF03F0E652E6520350A6
:10361000E56E0250E56E0150E56E0050E56EE3EC9C
:1036200023F0040EE126300EE56E53EC33F0E65243
:10363000B4D7BDEC1FF0006EF3CF01F00150E56E82
:103640000050E56ED4EC26F0E652E652300EE56E00
:1036500053EC33F0E652A1D7BDEC1FF0006EF3CF70
:1036600001F00150E56E0050E56E48EC30F0006E60
:10367000F3CF01F0F4CF02F0E9CF03F0E652E652C7
:103680000350E56E0250E56E0150E56E0050E56EA8
:1036900047EC22F0040EE126300EE56E53EC33F0D9
:1036A000E6527BD7BDEC1FF0006EF3CF01F0015066
:1036B000E56E0050E56E48EC30F0006EF3CF01F09F
:1036C000F4CF02F0E9CF03F0E652E6520350E56E84
:1036D0000250E56E0150E56E0050E56E15EC23F0EA
:1036E000040EE126300EE56E53EC33F0E65255D76A
:1036F0001E0EE56E0A0EE56E86EC31F0E652E652DD
:10370000030EE56EE80EE56EA1EC2AF0E652E652F5
:10371000300EE56E53EC33F0E652816A3ED7780EF8
:10372000E56E0A0EE56E86EC31F0E652E652030EC7
:10373000E56EE80EE56EA1EC2AF0E652E652300E98
:10374000E56E53EC33F0E652816A27D7BDEC1FF0EB
:103750000501EF6FF3CFF0F5300EE56E53EC33F06B
:10376000E6521BD7816A300EE56E53EC33F0E65219
:1037700014D7816A310EE56E53EC33F0E6520DD763
:10378000E4CF03F0E4CF02F0E4CF01F0E4CF00F0A7
:103790001200D9CFE5FFE1CFD9FF00C0E5FF01C09E
:1037A000E5FF02C0E5FF03C0E5FF04C0E5FF05C07B
:1037B000E5FF06C0E5FF07C0E5FF020EDBCF00F026
:1037C000030EDBCF01F0040EDBCF02F0050EDBCFE2
:1037D00003F0060EDBCF04F0070EDBCF05F0080E7A
:1037E000DBCF06F0090EDBCF07F000500701086FB2
:1037F0000150096F02500A6F03500B6F045007010C
:103800000C6F05500D6F06500E6F07500F6F0701BC
:10381000085107010E03F4CF01F0F3CF00F0005080
:103820000701126F0150136F0701085107010C03C4
:10383000F4CF01F0F3CF00F000500701106F0150FA
:10384000116F07010B5107010C03F3CF00F00701C3
:10385000135100260050136F07010A5107010D0391
:10386000F3CF00F00701135100260050136F07013A
:103870000A5107010C03F4CF01F0F3CF00F0070168
:1038800012510026135101220050126F0150136F84
:103890000701095107010D03F4CF01F0F3CF00F048
:1038A000070112510026135101220050126F0150DE
:1038B000136F0701095107010E03F3CF00F0005009
:1038C0000701176F0701095107010C03F4CF01F03D
:1038D000F3CF00F000500701156F0150166F07017C
:1038E000085107010F03F3CF00F0005007011B6FD1
:1038F0000701085107010D03F4CF01F0F3CF00F0E9
:1039000000500701196F01501A6F0701146B07016E
:10391000186B0701145107011025006E070115519E
:1039200007011121016E0701165107011221026ED4
:103930000701175107011321036E0050106F01504A
:10394000116F0250126F0350136F070118510701D6
:103950001025006E0701195107011121016E0701A1
:103960001A5107011221026E07011B510701132191
:10397000036E03C0E9FF02C0F4FF01C0F3FF005073
:10398000E4CF07F0E4CF06F0E4CF05F0E4CF04F095
:10399000E4CF03F0E4CF02F0E4CF01F0E4CF00F095
:1039A000E4CFD9FF1200D9CFE5FFE1CFD9FF00C0A6
:1039B000E5FF01C0E5FF02C0E5FF03C0E5FF04C06D
:1039C000E5FF020EDBCF00F01E0E005CD8B0E1D0A8
:1039D000080E0024016E026A590E0222036A000ECC
:1039E000032201C0F6FF02C0F7FF03C0F8FF090081
:1039F000F5CF01F0050E015CD8B0CBD0FA6AFB6AB6
:103A00000134FA36E834FA36FC0B1A0FE56E3A0E3A
:103A1000FA22000EFB22E450F96E17EF1DF03BEF87
:103A20001DF05FEF1DF083EF1DF0A7EF1DF0EA0E14
:103A30000024016E026A580E0222036A000E03225D
:103A400001C0F6FF02C0F7FF03C0F8FF0900F5CF81
:103A500004F00601F65104120450F66F01C0F6FF9F
:103A600002C0F7FF03C0F8FF0900F5CF01F0011E07
:103A7000015092168ED0EA0E0024016E026A580E92
:103A80000222036A000E032201C0F6FF02C0F7FF04
:103A900003C0F8FF0900F5CF04F00601F751041246
:103AA0000450F76F01C0F6FF02C0F7FF03C0F8FF34
:103AB0000900F5CF01F0011E015093166AD0EA0EFD
:103AC0000024016E026A580E0222036A000E0322CD
:103AD00001C0F6FF02C0F7FF03C0F8FF0900F5CFF1
:103AE00004F00601F85104120450F86F01C0F6FF0B
:103AF00002C0F7FF03C0F8FF0900F5CF01F0011E77
:103B00000150941646D0EA0E0024016E026A580E47
:103B10000222036A000E032201C0F6FF02C0F7FF73
:103B200003C0F8FF0900F5CF04F00601F9510412B3
:103B30000450F96F01C0F6FF02C0F7FF03C0F8FFA1
:103B40000900F5CF01F0011E0150951622D0016A3F
:103B5000026AEA0E0026580E0122000E022200C060
:103B6000F6FF01C0F7FF02C0F8FF0900F5CF03F030
:103B70000601FA5103120350FA6F00C0F6FF01C0AC
:103B8000F7FF02C0F8FF0900F5CF00F0001E00505B
:103B90009616E4CF04F0E4CF03F0E4CF02F0E4CFD4
:103BA00001F0E4CF00F0E4CFD9FF120000C0E5FF40
:103BB00001C0E5FF02C0E5FF03C0E5FF04C0E5FF6B
:103BC00005C0E5FFD350030B006E0050D8A491D080
:103BD000E56A300EE56E000EE56AE56A0AEC2CF047
:103BE000006E040EE126180E0016016AD89001320C
:103BF0000032D89001320032D89001320032C60E25
:103C00000024016E026A580E0222036A000E03228B
:103C100001C0F6FF02C0F7FF03C0F8FF0900F5CFAF
:103C200001F0E56A300EE56EE56A010EE56E0AEC1C
:103C30002CF0026E040EE1260F0E0216C20E0024B6
:103C4000036E046A580E0422056A000E052203C0A2
:103C5000F6FF04C0F7FF05C0F8FF0900F5CF00F03C
:103C6000D8900232025006E00250020A03E00250ED
:103C7000060A1FE1E56AE56AE56A0150E56EE56A54
:103C80007A0EE56E120EE56E000EE56A78EC21F014
:103C9000016EF3CF02F0F4CF03F0E9CF04F0080E89
:103CA000E12604C0E9FF03C0F4FF02C0F3FF0150A6
:103CB00064D0E56AE56AE56A0050E56E050EE56EDA
:103CC000B80EE56ED80EE56E000EE56A9FEC28F0A2
:103CD000006EF3CF01F0F4CF02F0E9CF03F0080E4D
:103CE000E12603C0E9FF02C0F4FF01C0F3FF00506A
:103CF00044D0D350030B010A06E1E96AF46A800E4E
:103D0000F36EE86A3AD0D350030B006E020E005CEB
:103D100030E3D350E838070BE56AE56EE56A040E38
:103D2000E56E9EEC2EF0006EF3CF01F0040EE1265E
:103D3000026ACA0E0026580E0122000E022200C09E
:103D4000F6FF01C0F7FF02C0F8FF0900F5CF00F051
:103D50000900F5CF01F00900F5CF02F00900F5CF19
:103D600003F003C0E9FF02C0F4FF01C0F3FF0050FD
:103D700004D0E96AF46AF36AE86AE4CF05F0E4CFB4
:103D800004F0E4CF03F0E4CF02F0E4CF01F0E4CF9D
:103D900000F01200D9CFE5FFE1CFD9FF00C0E5FF69
:103DA00001C0E5FF02C0E5FF03C0E5FF020EDBCF67
:103DB00000F0080E0024016E026A590E0222036A06
:103DC000000E032201C0F6FF02C0F7FF03C0F8FF98
:103DD0000900F5CF01F0050E015CD8B0C2D0FA6A37
:103DE000FB6A0134FA36E834FA36FC0BFC0FE56E58
:103DF0003D0EFA22000EFB22E450F96E08EF1FF090
:103E00002AEF1FF04CEF1FF06EEF1FF090EF1FF046
:103E1000EA0E0024016E026A580E0222036A000EA6
:103E2000032201C0F6FF02C0F7FF03C0F8FF09003C
:103E3000F5CF01F0805001160150D880E866D89087
:103E4000016A01360150D880E866D890016A0136CF
:103E5000015088D0EA0E0024016E026A580E022238
:103E6000036A000E032201C0F6FF02C0F7FF03C081
:103E7000F8FF0900F5CF01F0815001160150D880FC
:103E8000E866D890016A01360150D880E866D8907B
:103E9000016A0136015066D0EA0E0024016E026A02
:103EA000580E0222036A000E032201C0F6FF02C070
:103EB000F7FF03C0F8FF0900F5CF01F082500116AB
:103EC0000150D880E866D890016A01360150D88048
:103ED000E866D890016A0136015044D0EA0E002409
:103EE000016E026A580E0222036A000E032201C00C
:103EF000F6FF02C0F7FF03C0F8FF0900F5CF01F09D
:103F0000835001160150D880E866D890016A0136C6
:103F10000150D880E866D890016A0136015022D05D
:103F2000016A026AEA0E0026580E0122000E0222E1
:103F300000C0F6FF01C0F7FF02C0F8FF0900F5CF8F
:103F400000F0845000160050D880E866D890006ACF
:103F500000360050D880E866D890006A00360050DD
:103F600001D0E86AE4CF03F0E4CF02F0E4CF01F03F
:103F7000E4CF00F0E4CFD9FF120000C0E5FF01C09C
:103F8000E5FF02C0E5FF03C0E5FF04C0E5FF05C093
:103F9000E5FF06C0E5FF07C0E5FF08C0E5FF09C073
:103FA000E5FF0AC0E5FF0BC0E5FF0CC0E5FF0DC053
:103FB000E5FF0EC0E5FF006A016A026A036A046A4F
:103FC0000601EC6BED6BEE6BEF6BF06BF16BF26B74
:103FD000F36BF46BF56B056A066A00503B0A01E16E
:103FE00091D00501D7510501D819F7E05BEC31F00C
:103FF000006E3B0A01E05CD0076A086A096A0A6A37
:104000000250800FF36E0850800FF35C02E10750FE
:10401000015C37E3EC0E09240B6E060E0A200C6ED1
:104020000BC0E9FF0CC0EAFFEECF0BF0EFCF0CF0B6
:104030000750015C0D6E08500258E56E0D50E56E9C
:104040003DEC2FF00D6EF3CF0EF0E652E6520E501F
:10405000E56E0D50E56E0C50E56E0B50E56E9EEC76
:104060002EF00B6EF3CF0CF0040EE1260B5003265E
:104070000C500422020E0926D8B00A2A074A082A40
:10408000BFD70250800F800F02E1030E015C07E3EF
:104090000350010F056E000E0420066E04D003C00D
:1040A00005F004C006F0036A046A016A026A95D743
:1040B0000050E56EFFEC2AF0076EF3CF08F0E652F1
:1040C000FF0A03E1085001E188D70250E56E015074
:1040D000E56EE56A020EE56E9EEC2EF0096EF3CFFA
:1040E0000AF0040EE126EC0E0926060E0A2209C08B
:1040F000E9FF0AC0EAFF07C0EEFF08C0EFFF014A70
:10410000022A6BD706C0F3FF0550E4CF0EF0E4CFD0
:104110000DF0E4CF0CF0E4CF0BF0E4CF0AF0E4CFE5
:1041200009F0E4CF08F0E4CF07F0E4CF06F0E4CFE5
:1041300005F0E4CF04F0E4CF03F0E4CF02F0E4CFE5
:1041400001F0E4CF00F01200D9CFE5FFE1CFD9FFB5
:1041500000C0E5FF01C0E5FF02C0E5FF03C0E5FFC9
:1041600004C0E5FF05C0E5FF06C0E5FF07C0E5FFA9
:1041700008C0E5FF09C0E5FF0AC0E5FF0BC0E5FF89
:104180000CC0E5FF0DC0E5FF0EC0E5FF020EDBCF62
:1041900000F0030EDBCF01F0040EDBCF02F0050EC2
:1041A000DBCF03F0060EDBCF04F0070EDBCF05F00C
:1041B000080EDBCF06F0090EDBCF07F0086A200EF1
:1041C000096E065024E00A6A03C00BF004C00CF02C
:1041D00005C00DF00BC0E9FF0CC0F3FF0D5065ECFE
:1041E00033F00E6E0E5006E00A2A0B2AF3E30C4A57
:1041F0000D2AF0D706500A5C02E3066A02D00A5084
:10420000065E07C00AF00AA202D0300E096E07B09F
:1042100019D0076A06C00AF00A5005E107C008F085
:104220000AC006F00FD00950E56E0250E56E01504D
:10423000E56E0050E56EAAEC29F0040EE126072A8F
:104240000A06EAD708C007F003C0E9FF04C0F3FF7D
:10425000055065EC33F0086E085012E00850E56E2A
:104260000250E56E0150E56E0050E56EAAEC29F0B3
:10427000040EE126072A032AE7E3044A052AE4D7C5
:1042800007C003F006C004F004500FE00950E56ECB
:104290000250E56E0150E56E0050E56EAAEC29F083
:1042A000040EE126032A0406EFD7F36A0350E4CF95
:1042B0000EF0E4CF0DF0E4CF0CF0E4CF0BF0E4CF40
:1042C0000AF0E4CF09F0E4CF08F0E4CF07F0E4CF40
:1042D00006F0E4CF05F0E4CF04F0E4CF03F0E4CF40
:1042E00002F0E4CF01F0E4CF00F0E4CFD9FF1200F8
:1042F000D9CFE5FFE1CFD9FF00C0E5FF01C0E5FF61
:1043000002C0E5FF03C0E5FF04C0E5FF05C0E5FF0F
:1043100006C0E5FF07C0E5FF08C0E5FF09C0E5FFEF
:104320000AC0E5FF0BC0E5FF0CC0E5FF0DC0E5FFCF
:10433000020EDBCF00F0030EDBCF01F0040EDBCF6B
:1043400002F0050EDBCF03F0060EDBCF04F0070E04
:10435000DBCF05F0080EDBCF06F0090EDBCF07F050
:10436000D88003AED890086A083608500FE0031CC6
:104370000C6E021C0B6E011C0A6E001C096E092AD1
:104380000DE10A2A0BE10B4A0C2A08D000C009F003
:1043900001C00AF002C00BF003C00CF0D88007AED9
:1043A000D890006A003600500FE0071C0D6E061C06
:1043B000036E051C026E041C016E012A0DE1022A27
:1043C0000BE1034A0D2A08D004C001F005C002F039
:1043D00006C003F007C00DF00D50E56E0350E56E0A
:1043E0000250E56E0150E56E0C50E56E0B50E56E27
:1043F0000A50E56E0950E56E9FEC28F0016EF3CF90
:1044000002F0F4CF03F0E9CF04F0080EE1260050EB
:10441000081A085016E0041C076E031C066E021CE6
:10442000056E011C006E002A04E1052A02E1064A1D
:10443000072A07C0E9FF06C0F4FF05C0F3FF0050DC
:1044400007D004C0E9FF03C0F4FF02C0F3FF01502E
:10445000E4CF0DF0E4CF0CF0E4CF0BF0E4CF0AF0A2
:10446000E4CF09F0E4CF08F0E4CF07F0E4CF06F0A2
:10447000E4CF05F0E4CF04F0E4CF03F0E4CF02F0A2
:10448000E4CF01F0E4CF00F0E4CFD9FF1200D9CFA0
:10449000E5FFE1CFD9FF00C0E5FF01C0E5FF02C0A5
:1044A000E5FF03C0E5FF04C0E5FF05C0E5FF06C06A
:1044B000E5FF07C0E5FF08C0E5FF09C0E5FF020E04
:1044C000DBCF00F0030EDBCF01F0040EDBCF02F0F8
:1044D000050EDBCF03F0046A056A0550E56E045053
:1044E000E56E48EC30F0066EF3CF07F0F4CF08F03D
:1044F000E9CF09F0E652E6520350E56E0250E56E50
:104500000150E56E0050E56E0950E56E0850E56E0D
:104510000750E56E0650E56E10EC28F0066E080EAA
:10452000E1260650D8B46AD00501EE51E56EED5192
:10453000E56EE56A020EE56E9EEC2EF0066EF3CF98
:1045400007F0040EE126E10E0626050E072206C03E
:10455000E9FF07C0EAFFEECF06F0EFCF07F0050155
:10456000EC51E56EEB51E56EE56A020EE56E9EECF0
:104570002EF0076EF3CF08F0040EE126D90E0726C1
:10458000050E082207C0E9FF08C0EAFFEECF07F0DA
:10459000EFCF08F007500624816E0501F051E56E5B
:1045A000EF51E56EA1EC2AF0E652E652FF0E05014E
:1045B000EB27EC230501ED3F01D0EE2BD880050160
:1045C000ECAFD8900AE30501E951FF0F0501EB6F4D
:1045D000FF0E0501EA210501EC6F0501ED51050112
:1045E000E91905E10501EE510501EA1901E003D0E1
:1045F0000501ED6BEE6B044A052A6FD7E4CF09F095
:10460000E4CF08F0E4CF07F0E4CF06F0E4CF05F004
:10461000E4CF04F0E4CF03F0E4CF02F0E4CF01F004
:10462000E4CF00F0E4CFD9FF1200D9CFE5FFE1CF0E
:10463000D9FF00C0E5FF01C0E5FF02C0E5FF03C0F0
:10464000E5FF04C0E5FF05C0E5FF06C0E5FF07C0C4
:10465000E5FF08C0E5FF09C0E5FF020EDBCF00F073
:10466000030EDBCF01F0040EDBCF02F0050EDBCF33
:1046700003F0046A056A0550E56E0450E56E48ECE7
:1046800030F0066EF3CF07F0F4CF08F0E9CF09F071
:10469000E652E6520350E56E0250E56E0150E56EBB
:1046A0000050E56E0950E56E0850E56E0750E56E66
:1046B0000650E56E10EC28F0066E080EE126065056
:1046C000D8B46AD00501EE51E56EED51E56EE56AAC
:1046D000020EE56E9EEC2EF0066EF3CF07F0040E90
:1046E000E126E10E0626050E072206C0E9FF07C0F7
:1046F000EAFFEECF06F0EFCF07F00501EC51E56ED3
:10470000EB51E56EE56A020EE56E9EEC2EF0076E4B
:10471000F3CF08F0040EE126D90E0726050E082275
:1047200007C0E9FF08C0EAFFEECF07F0EFCF08F0BF
:1047300007500624816E0501F051E56EEF51E56EDC
:10474000A1EC2AF0E652E6520501EB3F01D0EC2B3A
:10475000FF0E0501ED27EE230501EB510501E919D7
:1047600005E10501EC510501EA1901E003D005015D
:10477000EB6BEC6BD8800501EEAFD8900AE3050136
:10478000E951FF0F0501ED6FFF0E0501EA2105015B
:10479000EE6F044A052A6FD7E4CF09F0E4CF08F0A2
:1047A000E4CF07F0E4CF06F0E4CF05F0E4CF04F067
:1047B000E4CF03F0E4CF02F0E4CF01F0E4CF00F067
:1047C000E4CFD9FF1200D9CFE5FFE1CFD9FF00C078
:1047D000E5FF01C0E5FF02C0E5FF03C0E5FF04C03F
:1047E000E5FF05C0E5FF06C0E5FF07C0E5FF08C01F
:1047F000E5FF09C0E5FF020EDBCF00F0030EDBCFC3
:1048000001F0040EDBCF02F0050EDBCF03F0046AEB
:10481000056A0550E56E0450E56E48EC30F0066E12
:10482000F3CF07F0F4CF08F0E9CF09F0E652E652F3
:104830000350E56E0250E56E0150E56E0050E56EE6
:104840000950E56E0850E56E0750E56E0650E56EBE
:1048500010EC28F0066E080EE1260650D8B46AD097
:104860000501EE51E56EED51E56EE56A020EE56E6D
:104870009EEC2EF0066EF3CF07F0040EE126E10E5B
:104880000626050E072206C0E9FF07C0EAFFEECFA5
:1048900006F0EFCF07F00501EC51E56EEB51E56E48
:1048A000E56A020EE56E9EEC2EF0076EF3CF08F07F
:1048B000040EE126D90E0726050E082207C0E9FFDF
:1048C00008C0EAFFEECF07F0EFCF08F0075006244C
:1048D000816E0501F051E56EEF51E56EA1EC2AF015
:1048E000E652E652FF0E0501EB27EC230501ED270A
:1048F000EE23D8800501ECAFD8900AE30501E95119
:10490000FF0F0501EB6FFF0E0501EA210501EC6FBA
:10491000D8800501EEAFD8900AE30501E951FF0FF9
:104920000501ED6FFF0E0501EA210501EE6F044A56
:10493000052A6FD7E4CF09F0E4CF08F0E4CF07F001
:10494000E4CF06F0E4CF05F0E4CF04F0E4CF03F0C9
:10495000E4CF02F0E4CF01F0E4CF00F0E4CFD9FFE0
:104960001200D9CFE5FFE1CFD9FF00C0E5FF01C0BC
:10497000E5FF02C0E5FF03C0E5FF020EDBCF00F05C
:104980001E0E005CD8B0A5D0080E0024016E026A8D
:10499000590E0222036A000E032201C0F6FF02C074
:1049A000F7FF03C0F8FF0900F5CF01F0050E015C29
:1049B000D8B08FD0FA6AFB6A0134FA36E834FA3696
:1049C000FC0BD20FE56E490EFA22000EFB22E450DA
:1049D000F96EF3EF24F00BEF25F023EF25F03BEF1A
:1049E00025F053EF25F0EA0E0024016E026A580EFE
:1049F0000222036A000E032201C0F6FF02C0F7FF85
:104A000003C0F8FF0900F5CF01F00601F651011AC5
:104A10000150F66F5ED0EA0E0024016E026A580E55
:104A20000222036A000E032201C0F6FF02C0F7FF54
:104A300003C0F8FF0900F5CF01F00601F751011A94
:104A40000150F76F46D0EA0E0024016E026A580E3C
:104A50000222036A000E032201C0F6FF02C0F7FF24
:104A600003C0F8FF0900F5CF01F00601F851011A63
:104A70000150F86F2ED0EA0E0024016E026A580E23
:104A80000222036A000E032201C0F6FF02C0F7FFF4
:104A900003C0F8FF0900F5CF01F00601F951011A32
:104AA0000150F96F16D0016A026AEA0E0026580E0C
:104AB0000122000E022200C0F6FF01C0F7FF02C073
:104AC000F8FF0900F5CF00F00601FA51001A005076
:104AD000FA6FE4CF03F0E4CF02F0E4CF01F0E4CFCB
:104AE00000F0E4CFD9FF1200D9CFE5FFE1CFD9FF25
:104AF00000C0E5FF01C0E5FF02C0E5FF03C0E5FF20
:104B000004C0E5FF05C0E5FF06C0E5FF07C0E5FFFF
:104B100008C0E5FF09C0E5FF0AC0E5FF0BC0E5FFDF
:104B2000020EDBCF00F0030EDBCF01F0040EDBCF73
:104B300002F0050EDBCF03F000500110021003104D
:104B400005E1E96AF46AF36AE86A6ED0960E046ECB
:104B5000056A035008E0D890033202320132003275
:104B6000044A052AF6D704C006F005C007F0000E77
:104B7000035C08E1800E025C05E1000E015C02E1CD
:104B8000000E005C18E200500026013602360336A3
:104B9000FF0E04260522000E035C08E1800E025C75
:104BA00005E1000E015C02E1000E005CECE304C0D4
:104BB00006F005C007F00050046E0150056E7F0E30
:104BC0000214086E096A0450FF0A08E10550FF0A42
:104BD00005E108507F0A02E1095001E006D0006AB1
:104BE000016A026A036A064A072A029EE86A0730D7
:104BF00006300B6E0A6A0A32086A08500012011267
:104C00000A5002120B50031200500701246F01508A
:104C1000256F0250266F0350276F27C7E9FF26C76D
:104C2000F4FF25C7F3FF2451E4CF0BF0E4CF0AF0E3
:104C3000E4CF09F0E4CF08F0E4CF07F0E4CF06F0CA
:104C4000E4CF05F0E4CF04F0E4CF03F0E4CF02F0CA
:104C5000E4CF01F0E4CF00F0E4CFD9FF1200D9CFC8
:104C6000E5FFE1CFD9FF00C0E5FF01C0E5FF070187
:104C7000366B0501D46B9E0E07013625006E016A66
:104C8000060E012200C0E9FF01C0EAFFEFCF00F0ED
:104C900000500501D41901E06AD007013651050D15
:104CA000F450016EF3CF00F0000E0026050E012235
:104CB00000C0E9FF01C0EAFFEFCF00F00050801A0A
:104CC0003651050DF450016EF3CF00F0000E0026B2
:104CD000050E0122004A012A00C0E9FF01C0EAFFD7
:104CE000EFCF00F00050811A3651050DF450016EDF
:104CF000F3CF00F0000E0026050E0122020E002662
:104D0000D8B0012A00C0E9FF01C0EAFFEFCF00F0F0
:104D10000050821A3651050DF450016EF3CF00F0A9
:104D2000000E0026050E0122030E0026D8B0012A2F
:104D300000C0E9FF01C0EAFFEFCF00F00050831A86
:104D40003651050DF450016EF3CF00F0000E002631
:104D5000050E0122040E0026D8B0012A00C0E9FF8A
:104D600001C0EAFFEFCF00F00050841A362B070E87
:104D7000356F00000000000000000000000000008F
:104D80000000000000000000352FB9EF26F00501FB
:104D9000D42BFB0ED45DD8A06ED7E4CF01F0E4CFC6
:104DA00000F0E4CFD9FF1200D9CFE5FFE1CFD9FF62
:104DB00000C0E5FF01C0E5FF02C0E5FF03C0E5FF5D
:104DC00004C0E5FF05C0E5FF06C0E5FF020EDBCF2E
:104DD00000F0030EDBCF01F0026A036A0350800F7C
:104DE000F36E0150800FF35C02E10050025CD8B01A
:104DF00069D00501EE51E56EED51E56EE56A020EF2
:104E0000E56E9EEC2EF0046EF3CF05F0040EE12665
:104E1000E10E0426050E052204C0E9FF05C0EAFFE5
:104E2000EECF04F0EFCF05F00501EC51E56EEB514C
:104E3000E56EE56A020EE56E9EEC2EF0056EF3CF90
:104E400006F0040EE126D90E0526050E062205C041
:104E5000E9FF06C0EAFFEECF05F0EFCF06F0055000
:104E60000424816E0501F051E56EEF51E56EA1EC71
:104E70002AF0E652E6520501EB3F01D0EC2B05018A
:104E8000ED3F01D0EE2B0501EB510501E91905E1DC
:104E90000501EC510501EA1901E003D00501EB6BB6
:104EA000EC6B0501ED510501E91905E10501EE5134
:104EB0000501EA1901E003D00501ED6BEE6B024A32
:104EC000032A8CD7E4CF06F0E4CF05F0E4CF04F05A
:104ED000E4CF03F0E4CF02F0E4CF01F0E4CF00F040
:104EE000E4CFD9FF1200D9CFE5FFE1CFD9FF00C051
:104EF000E5FF01C0E5FF02C0E5FF03C0E5FF04C018
:104F0000E5FF05C0E5FF06C0E5FF07C0E5FF08C0F7
:104F1000E5FF09C0E5FF0AC0E5FF020EDBCF00F0A8
:104F2000030EDBCF01F0040EDBCF02F0050EDBCF6A
:104F300003F0060EDBCF04F0070EDBCF05F0080E02
:104F4000DBCF06F0090EDBCF07F0086A045005102E
:104F50000610071005E1E968F468F368E86847D0CF
:104F6000096A0750800BE8440A6E0A501BE104509E
:104F700004260536063607360750035C08E106505E
:104F8000025C05E10550015C02E10450005C06E2B0
:104F9000D890073206320532043204D0092A09C0FB
:104FA00008F0DFD70750035C08E10650025C05E11A
:104FB0000550015C02E10450005C08E30450005E0F
:104FC0000550015A0650025A0750035AD89007322A
:104FD00006320532043208C009F008060950E2E141
:104FE00003C0E9FF02C0F4FF01C0F3FF0050E4CFAB
:104FF0000AF0E4CF09F0E4CF08F0E4CF07F0E4CF03
:1050000006F0E4CF05F0E4CF04F0E4CF03F0E4CF02
:1050100002F0E4CF01F0E4CF00F0E4CFD9FF1200BA
:10502000D9CFE5FFE1CFD9FF00C0E5FF01C0E5FF23
:1050300002C0E5FF03C0E5FF04C0E5FF05C0E5FFD2
:1050400006C0E5FF07C0E5FF020EDBCF00F0030E50
:10505000DBCF01F0040EDBCF02F0050EDBCF03F057
:10506000060EDBCF04F0070EDBCF05F0080EDBCF1A
:1050700006F0090EDBCF07F0005007011C6F01504E
:105080001D6F02501E6F03501F6F04500701206FE9
:105090000550216F0650226F0750236FD8800701FB
:1050A0001FAFD8901FE3D880070123AFD8901AE331
:1050B0002351800FF36E07011F51800FF35C0DE148
:1050C0001E510701225D09E107011D510701215D04
:1050D00004E107011C510701205D02E2010E1CD012
:1050E000E86A1AD007011F51800FF36E07012351A0
:1050F000800FF35C0DE1225107011E5D09E10701FC
:10510000215107011D5D04E10701205107011C5DCC
:1051100002E2010E01D0E86AE4CF07F0E4CF06F026
:10512000E4CF05F0E4CF04F0E4CF03F0E4CF02F0E5
:10513000E4CF01F0E4CF00F0E4CFD9FF1200D9CFE3
:10514000E5FFE1CFD9FF00C0E5FF01C0E5FF02C0E8
:10515000E5FF03C0E5FF04C0E5FF05C0E5FF06C0AD
:10516000E5FF07C0E5FF08C0E5FF09C0E5FF0AC08D
:10517000E5FF0BC0E5FF0CC0E5FF0DC0E5FF020E2B
:10518000DBCF00F0030EDBCF01F0040EDBCF02F02B
:10519000050EDBCF03F0060EDBCF04F0070EDBCFEE
:1051A00005F0080EDBCF06F0090EDBCF07F0086A2A
:1051B000096A0A6A0B6A200E0C6E0350800BE844E1
:1051C0000D6E0050002601360236033608500826C0
:1051D00009360A360B360D50D8A4088007500B5CF0
:1051E00008E106500A5C05E10550095C02E1045043
:1051F000085C09E30450085E0550095A06500A5A33
:1052000007500B5A00800C2ED8D703C0E9FF02C00C
:10521000F4FF01C0F3FF0050E4CF0DF0E4CF0CF039
:10522000E4CF0BF0E4CF0AF0E4CF09F0E4CF08F0CC
:10523000E4CF07F0E4CF06F0E4CF05F0E4CF04F0CC
:10524000E4CF03F0E4CF02F0E4CF01F0E4CF00F0CC
:10525000E4CFD9FF1200D9CFE5FFE1CFD9FF00C0DD
:10526000E5FF01C0E5FF02C0E5FF03C0E5FF04C0A4
:10527000E5FF05C0E5FF06C0E5FF07C0E5FF020E3C
:10528000DBCF00F0030EDBCF01F0040EDBCF02F02A
:10529000050EDBCF03F0D6EC1DF0046EF3CF05F066
:1052A000F4CF06F0E9CF07F00350E56E0250E56E4B
:1052B0000150E56E0050E56EE56AE56AE56A040EA8
:1052C000E56EC9EC1BF0006EF3CF01F0F4CF02F0F5
:1052D000E9CF03F0080EE1260350E56E0250E56EBB
:1052E0000150E56E0050E56E0750E56E0650E56E24
:1052F0000550E56E0450E56E9FEC28F0006EF3CF8C
:1053000001F0080EE126FF0E00260122948EAC84E7
:10531000B8860150B06E0050AF6E900EAB6EB88C78
:10532000AC8A9E9A9F8A9D8AF28CF28EF28CE4CF90
:1053300007F0E4CF06F0E4CF05F0E4CF04F0E4CFCB
:1053400003F0E4CF02F0E4CF01F0E4CF00F0E4CFCB
:10535000D9FF1200D9CFE5FFE1CFD9FF00C0E5FFAB
:1053600001C0E5FF02C0E5FF03C0E5FF04C0E5FFA3
:1053700005C0E5FF06C0E5FF020EDBCF00F0030E1F
:10538000DBCF01F0040EDBCF02F0050EDBCF03F024
:1053900000500110021033E000C0E9FF01C0F3FF2C
:1053A0000250A1EC32F0046EF3CF05F0F4CF06F01A
:1053B00003C0E5FF04C0E9FF05C0F3FF0650CDECD4
:1053C00033F000C0E9FF01C0F3FF0250A1EC32F05E
:1053D000046EF3CF05F0F4CF06F0042A02E3054A89
:1053E000062A04C0E5FF05C0F4FF06C0F6FF00C0B2
:1053F000E9FF01C0F3FF0250A6EC33F016D00350D2
:10540000E56EF2CFE5FFF29E0500280EFD6E540E0C
:10541000FE6E000EFF6EE4BEF28E2AC7FBFF29C7A8
:10542000FAFF07012851F96EE652E4CF06F0E4CF07
:1054300005F0E4CF04F0E4CF03F0E4CF02F0E4CFD2
:1054400001F0E4CF00F0E4CFD9FF1200D9CFE5FF9F
:10545000E1CFD9FF00C0E5FF01C0E5FF02C0E5FFD5
:1054600003C0E5FF04C0E5FF05C0E5FF06C0E5FF9A
:1054700007C0E5FF020EDBCF00F0030EDBCF01F02B
:10548000040EDBCF02F0050EDBCF03F0D88003AEB5
:10549000D8902AE3031C076E021C066E011C056EE1
:1054A000001C046E042A04E1052A02E1064A072AC8
:1054B0000750E56E0650E56E0550E56E0450E56E4A
:1054C00074EC25F0046EF3CF05F0F4CF06F0E9CFCD
:1054D00007F0040EE126077E07C0E9FF06C0F4FFCF
:1054E00005C0F3FF04501AD00350E56E0250E56E7C
:1054F0000150E56E0050E56E74EC25F0006EF3CFC0
:1055000001F0F4CF02F0E9CF03F0040EE12603C06E
:10551000E9FF02C0F4FF01C0F3FF0050E4CF07F041
:10552000E4CF06F0E4CF05F0E4CF04F0E4CF03F0DD
:10553000E4CF02F0E4CF01F0E4CF00F0E4CFD9FFF4
:105540001200D9CFE5FFE1CFD9FF00C0E5FF01C0D0
:10555000E5FF02C0E5FF03C0E5FF04C0E5FF05C0AD
:10556000E5FF020EDBCF00F0030EDBCF01F0D6EC3F
:105570001DF0026EF3CF03F0F4CF04F0E9CF05F095
:10558000D8900532043203320232D8900532043208
:1055900003320232E56A010EE56E860EE56EA00E5C
:1055A000E56E0550E56E0450E56E0350E56E025061
:1055B000E56E9FEC28F0026E080EE12600C004F0B4
:1055C00001C005F0FF0E002601220450051008E07E
:1055D00002C004F0FD0E0426045099EC2CF0EED726
:1055E000E4CF05F0E4CF04F0E4CF03F0E4CF02F021
:1055F000E4CF01F0E4CF00F0E4CFD9FF1200D9CF1F
:10560000E5FFE1CFD9FF00C0E5FF020EDBCF00F0E0
:10561000300E005CD8A047D03A0E005CD8B043D022
:10562000D00E0026FA6AFB6A0034FA36E834FA36FD
:10563000FC0B420FE56E560EFA22000EFB22E450E0
:10564000F96E35EF2BF038EF2BF03BEF2BF03EEF00
:105650002BF041EF2BF044EF2BF047EF2BF04AEF0C
:105660002BF04DEF2BF050EF2BF0F36AE86A1DD0D2
:10567000F36A010E1AD0F36A020E17D0F36A030E12
:1056800014D0F36A040E11D0F36A050E0ED0F36A3B
:10569000060E0BD0F36A070E08D0F36A080E05D089
:1056A000F36A090E02D0F36AE868E4CF00F0E4CFB1
:1056B000D9FF1200936A816A836A010EE56E150EA6
:1056C000E56E73EC19F0E652E652010EE56E160E29
:1056D000E56E73EC19F0E652E652010EE56E170E18
:1056E000E56E73EC19F0E652E652010EE56E180E07
:1056F000E56E73EC19F0E652E652E56A190EE56EB6
:1057000073EC19F0E652E652E56A1A0EE56E73EC98
:1057100019F0E652E652E56A1B0EE56E73EC19F0DD
:10572000E652E652E56A1C0EE56E73EC19F0E6529D
:10573000E6520A0EE56ED3EC1CF0E6520B0EE56E57
:10574000D3EC1CF0E6520C0EE56ED3EC1CF0E652E6
:10575000090EE56ED3EC1CF0E652080EE56ED3ECB4
:105760001CF0E652120014EEFFF024EEFFF0F86A8F
:10577000A68EA69CBF0EE96E0E0EEA6E0068ED6A5C
:105780000050FDE1C00EF66E670EF76E000EF86E6B
:105790000900F5CF05F00900F5CF06F034D0090077
:1057A000F5CF00F00900F5CF01F00900F5CF02F0C8
:1057B00009000900F5CFE9FF0900F5CFEAFF09006C
:1057C00009000900F5CF03F00900F5CF04F0090046
:1057D0000900F6CF07F0F7CF08F0F8CF09F000C0C6
:1057E000F6FF01C0F7FF02C0F8FF03D00900F5CFB4
:1057F000EEFF0306FBE20406F9E207C0F6FF08C06D
:10580000F7FF09C0F8FF0506CAE20606C8E217EC72
:1058100033F0FFD7D9CFE5FFE1CFD9FF00C0E5FFD7
:1058200001C0E5FF02C0E5FF03C0E5FF04C0E5FFDE
:1058300005C0E5FF06C0E5FF07C0E5FF020EDBCFB0
:1058400000F0030EDBCF01F0040EDBCF02F0050EFB
:10585000DBCF03F00250046E0350056E066A076A40
:105860000450F86E0050046E0150056E046E056A17
:105870000450F76E0050F66E0900F5CF00F00900F5
:10588000F5CF01F0026A0150046E036A056A005008
:1058900003260550042204C0F3FF0350E4CF07F0B1
:1058A000E4CF06F0E4CF05F0E4CF04F0E4CF03F05A
:1058B000E4CF02F0E4CF01F0E4CF00F0E4CFD9FF71
:1058C00012000203040601020304127A000048E8F1
:1058D000010090D0030020A1070040420F00808407
:1058E0001E0000093D0000127A0001020408102089
:1058F00040804080010204010204082001020401EA
:105900000204081020408010010101010101010181
:105910000202020202000000000004040403030368
:10592000030303030300286E756C6C2900000A0D45
:105930000000E806E56E090EACEC2CF0E4500BE03C
:1059400000D0E56E090EACEC2CF000D0E450000065
:1059500000D0E82EF6D71200E8060000E85007E075
:1059600000D000D000D000D00000E82EFAD71200FE
:10597000D9CFE5FFE1CFD9FF00C0E5FF01C0E5FFCA
:1059800002C0E5FF03C0E5FF04C0E5FF05C0E5FF79
:10599000020EDBCF2BF7030EDBCF2CF7040EDBCF91
:1059A0002DF7050EDBCF00F0060EDBCF01F0070E62
:1059B000DBCF02F0080EDBCF03F0090EDBCF04F0E3
:1059C0000A0EDBCF05F00550E56E0450E56E03507E
:1059D000E56E0250E56E0150E56E0050E56E800EFA
:1059E000E56E070EE56E2B0EE56E32EC0DF0006EE7
:1059F000090EE1260050E4CF05F0E4CF04F0E4CF37
:105A000003F0E4CF02F0E4CF01F0E4CF00F0E4CF04
:105A1000D9FF120000C0E5FF01C0E5FF02C0E5FFAD
:105A2000006A800E0024016E026A060E022201C086
:105A3000E9FF02C0EAFFEF68960E0024016E026AD9
:105A4000050E022201C0E9FF02C0EAFF400EEF6E20
:105A5000B40E0024016E026A050E022201C0E9FFA5
:105A600002C0EAFFC00EEF6E002A1E0E005CD9E3F2
:105A7000006AF60E0024016E026A060E022201C0C0
:105A8000E9FF02C0EAFFEF6A002A050E005CF1E3BD
:105A9000F29EF29C010ECD6EFF0ECF68CE6A9F8003
:105AA0009E909D80CD80F28EF28CE4CF02F0E4CF08
:105AB00001F0E4CF00F01200D9CFE5FFE1CFD9FF2C
:105AC00000C0E5FF01C0E5FF02C0E5FF03C0E5FF40
:105AD000020EDBCF00F0030EDBCF01F0040EDBCFB4
:105AE00002F01E0E005C2EE20250800F7B0F02E1DE
:105AF000DC0E015C04E2DC0E016E050E026E02504B
:105B0000800F770F02E1C50E015C04E3C40E016E45
:105B1000090E026E036AB40E0026050E03220C0E57
:105B20000126FE0E02220234023201320234023217
:105B3000013202340232013200C0E9FF03C0EAFF41
:105B400001C0EFFFE4CF03F0E4CF02F0E4CF01F0B7
:105B5000E4CF00F0E4CFD9FF1200D9CFE5FFE1CFC9
:105B6000D9FF00C0E5FF01C0E5FF02C0E5FF03C0AB
:105B7000E5FF020EDBCF00F0030EDBCF01F0040ED9
:105B8000DBCF02F01E0E005C2EE20250800F7F0F72
:105B900002E1F40E015C04E2F40E016E010E026EED
:105BA0000250800F7B0F02E1DD0E015C04E3DC0E8E
:105BB000016E050E026E036A960E0026050E032284
:105BC0000C0E0126FE0E0222023402320132023491
:105BD0000232013202340232013200C0E9FF03C056
:105BE000EAFF01C0EFFFE4CF03F0E4CF02F0E4CF1F
:105BF00001F0E4CF00F0E4CFD9FF1200D9CFE5FFE8
:105C0000E1CFD9FF00C0E5FF01C0E5FF02C0E5FF1D
:105C100003C0E5FF04C0E5FF05C0E5FF020EDBCFD2
:105C200028F7030EDBCF29F7040EDBCF2AF7050E8A
:105C3000DBCF00F0060EDBCF01F0070EDBCF02F06A
:105C4000080EDBCF03F0090EDBCF04F00A0EDBCF2A
:105C500005F00550E56E0450E56E0350E56E025008
:105C6000E56E0150E56E0050E56E000EE56AE56AEE
:105C7000E56A32EC0DF0006E090EE1260050E4CF2B
:105C800005F0E4CF04F0E4CF03F0E4CF02F0E4CF7A
:105C900001F0E4CF00F0E4CFD9FF1200D9CFE5FF47
:105CA000E1CFD9FF00C0E5FF01C0E5FF02C0E5FF7D
:105CB00003C0E5FF020EDBCF00F0030EDBCF01F0E7
:105CC000040EDBCF02F000500B0A19E000500C0A62
:105CD00029E10C0EBD6ED8900230036E0130006ECB
:105CE000D890033200320050BE6E0150006E030E99
:105CF00000160038F00B036EBD10BD6E13D00C0EF5
:105D0000BA6ED8900230036E0130006ED890033224
:105D100000320050BB6E030E01160138F00B006E0E
:105D2000BA10BA6E9E92E4CF03F0E4CF02F0E4CF53
:105D300001F0E4CF00F0E4CFD9FF1200D9CFE5FFA6
:105D4000E1CFD9FF00C0E5FF01C0E5FF02C0E5FFDC
:105D500003C0E5FF020EDBCF00F0030EDBCF01F046
:105D6000040EDBCF02F0050EDBCF03F0005007017D
:105D70002E6F01502F6F02500701306F0350316FAB
:105D800007012E5107013003F4CF01F0F3CF00F0EB
:105D900000500701326F0150336F07012E51070188
:105DA0003103F3CF00F007012F5107013003F3CF88
:105DB00001F0015000260701335100260050336FD7
:105DC00033C7F3FF3251E4CF03F0E4CF02F0E4CF66
:105DD00001F0E4CF00F0E4CFD9FF1200D9CFE5FF06
:105DE000E1CFD9FF00C0E5FF01C0E5FF02C0E5FF3C
:105DF00003C0E5FF020EDBCF00F00D0E005C0CE3EC
:105E0000150E005C09E20050016EF30E01260144FC
:105E1000E844FC0BC26E07D0060E005C04E20044AE
:105E2000E844FC0BC26EC280090E006E016A0000DD
:105E3000FF0E0026012200500110F9E1C282C2B219
:105E4000FED7C4CF00F0016A0050036E026AC3CFD0
:105E500000F0016A0050022601500322C29003C0E4
:105E6000F3FF0250E4CF03F0E4CF02F0E4CF01F0FF
:105E7000E4CF00F0E4CFD9FF1200D9CFE5FFE1CFA6
:105E8000D9FF00C0E5FF01C0E5FF020EDBCF00F047
:105E9000030EDBCF01F0D88001AED89030E2015084
:105EA000800F800F02E1050E005C29E2FA6AFB6AAE
:105EB0000034FA36E834FA36FC0BCA0FE56E5E0E93
:105EC000FA22000EFB22E450F96E6FEF2FF072EF12
:105ED0002FF075EF2FF078EF2FF07BEF2FF0F36AB4
:105EE000E86A0FD0F36A010E0CD0F36A0A0E09D0EB
:105EF000F36A640E06D0030EF36EE80E02D0F36A66
:105F0000E86AE4CF01F0E4CF00F0E4CFD9FF12005B
:105F1000D9CFE5FFE1CFD9FF00C0E5FF01C0E5FF24
:105F200002C0E5FF03C0E5FF04C0E5FF050ED9246C
:105F3000006E000EDA20016E800E026E030E002647
:105F4000000E01220222020ED924036E000EDA2076
:105F5000046E0250E56E0150E56E0050E56E070ECE
:105F6000DBCFE5FF060EDBCFE5FF050EDBCFE5FF60
:105F7000800EE56E0450E56E0350E56E32EC0DF0D8
:105F8000006E090EE1260050E4CF04F0E4CF03F0E8
:105F9000E4CF02F0E4CF01F0E4CF00F0E4CFD9FF8A
:105FA0001200D8CFE5FFE0CFE5FFE56EF3CFE5FFC8
:105FB000F4CFE5FFE9CFE5FFEACFE5FFFACFE5FF54
:105FC000FBCFE5FFD9CFE5FFE1CFD9FFF6CFE5FF66
:105FD000F7CFE5FFF8CFE5FFF5CFE5FFF4EC30F0C4
:105FE0001DEC32F0E4CFF5FFE4CFF8FFE4CFF7FF8C
:105FF000E4CFF6FFE4CFD9FFE4CFFBFFE4CFFAFF15
:10600000E4CFEAFFE4CFE9FFE4CFF4FFE4CFF3FF0E
:10601000E450E4CFE0FFE4CFD8FF1000D9CFE5FF94
:10602000E1CFD9FF00C0E5FF01C0E5FF02C0E5FFF9
:1060300003C0E5FF020EDBCF00F0030EDBCF01F063
:10604000040EDBCF02F000C0E9FF01C0F3FF0250F5
:1060500065EC33F0036E002A02E3014A022A035082
:106060000CE000C0E9FF01C0F3FF025065EC33F023
:10607000E56E53EC33F0E652E6D7E4CF03F0E4CF1D
:1060800002F0E4CF01F0E4CF00F0E4CFD9FF12003A
:10609000D9CFE5FFE1CFD9FF00C0E5FF01C0E5FFA3
:1060A00002C0E5FF03C0E5FF020EDBCF00F0030EE8
:1060B000DBCF01F0E86A01BEFF0E026EE56E025012
:1060C000E56E0150E56E0050E56E26EC2AF0006E9C
:1060D000F3CF01F0F4CF02F0E9CF03F0040EE12694
:1060E00003C0E9FF02C0F4FF01C0F3FF0050E4CF9A
:1060F00003F0E4CF02F0E4CF01F0E4CF00F0E4CF0E
:10610000D9FF1200D8CFE5FFE0CFE5FFE56EF3CF72
:10611000E5FFF4CFE5FFE9CFE5FFEACFE5FFFACFF2
:10612000E5FFFBCFE5FFD9CFE5FFE1CFD9FFF6CF04
:10613000E5FFF7CFE5FFF8CFE5FFF5CFE5FFE4CFCB
:10614000F5FFE4CFF8FFE4CFF7FFE4CFF6FFE4CFAD
:10615000D9FFE4CFFBFFE4CFFAFFE4CFEAFFE4CFBF
:10616000E9FFE4CFF4FFE4CFF3FFE450E4CFE0FF36
:10617000E4CFD8FF1000D9CFE5FFE1CFD9FF00C0B1
:10618000E5FF01C0E5FF02C0E5FF020ED924006E65
:10619000000EDA20016E800E026E030E0026000E45
:1061A000012202220250E56E0150E56E0050E56EBC
:1061B000040EDBCFE5FF030EDBCFE5FF020EDBCFE6
:1061C000E5FF000EE56E660EE56EA60EE56EFEECD2
:1061D0002DF0090EE126E4CF02F0E4CF01F0E4CF88
:1061E00000F0E4CFD9FF120000C0E5FF01C0E5FFD9
:1061F00002C0E5FF9EAA28D09E9AAECF00F005010E
:10620000D7517F0A05E00501D751016E012A02D05E
:10621000010E016E0501D85101180FE0D7C501F03C
:106220000501D72B026A000E0126060E022201C0CC
:10623000E9FF02C0EAFF00C0EFFF0501D751800A65
:1062400003E1010E0501D76FE4CF02F0E4CF01F0C6
:10625000E4CF00F01200D9CFE5FFE1CFD9FF00C0B5
:10626000E5FF01C0E5FF02C0E5FF020EDBCF00F055
:10627000030EDBCF01F0040EDBCF02F00250E56E1F
:106280000150E56E0050E56E0EEC30F0030EE12695
:10629000000EE56E590EE56E2E0EE56E0EEC30F03A
:1062A000030EE126E4CF02F0E4CF01F0E4CF00F0EA
:1062B000E4CFD9FF120000C0E5FF01C0E5FF02C036
:1062C000E5FF006A0501D7510501D81917E09D9A2D
:1062D000D8C501F00501D82B026A000E0126060E72
:1062E000022201C0E9FF02C0EAFFEFCF00F0D8515F
:1062F000800A03E1010E0501D86F9D8A0050E4CFAA
:1063000002F0E4CF01F0E4CF00F01200D9CFE5FFB6
:10631000E1CFD9FF00C0E5FF01C0E5FF02C0E5FF06
:10632000020EDBCF00F0030EDBCF01F01E0E005C8F
:106330000EE2026A800E0026060E022200C0E9FF6D
:1063400002C0EAFF01C0EFFF010E0501D36FE4CFE9
:1063500002F0E4CF01F0E4CF00F0E4CFD9FF120067
:10636000D9CFE5FFE1CFD9FF00C0E5FF01C0E5FFD0
:1063700002C0E5FF03C0E5FF020EDBCF00F0030E15
:10638000DBCF01F0026A036A0150035C02E10050B6
:10639000025C03E2024A032AF7D7E4CF03F0E4CF1A
:1063A00002F0E4CF01F0E4CF00F0E4CFD9FF120017
:1063B000D9CFE5FFE1CFD9FF00C0E5FF01C0E5FF80
:1063C000020EDBCF00F01E0E005C02E3E86A0CD088
:1063D000016A800E0026060E012200C0E9FF01C0FE
:1063E000EAFFEFCF00F00050E4CF01F0E4CF00F07F
:1063F000E4CFD9FF1200D9CFE5FFE1CFD9FF00C02C
:10640000E5FF01C0E5FF020EDBCF00F0030EDBCF9E
:1064100001F00050E56ECAEC1EF0006EE65200502E
:1064200003E1F36A010E02D0F36AE86AE4CF01F0F7
:10643000E4CF00F0E4CFD9FF12009EA01FD00501E9
:10644000D2510BE0B5EC33F0E90ECF6E590ECE6EA3
:10645000010ECD6E0501D26B10D02FEC26F0320E5E
:10646000CF6EEB0ECE6E0501D351D8A40EEC06F024
:10647000210ECD6E010E0501D26F9E901200D9CF74
:10648000E5FFE1CFD9FF00C0E5FF01C0E5FF020E47
:10649000DBCF00F0005005E1C1CF01F00150C16E2B
:1064A00008D00050010A05E1C1CF00F0008800507B
:1064B000C16EE4CF01F0E4CF00F0E4CFD9FF1200C9
:1064C000D9CFE5FFE1CFD9FF00C0E5FF01C0E5FF6F
:1064D000020EDBCF00F00050E56ECAEC1EF0016E3C
:1064E000E65201700150E56E0050E56E2BEC18F09D
:1064F000E652E652E4CF01F0E4CF00F0E4CFD9FF5A
:106500001200E8AE0AD0F3CFEAFFEE50EECFF3FF71
:10651000EECFF4FFEECFE9FF1200E8BCEFEF33F06F
:10652000E9CFF6FFF3CFF7FFF86E0900F550090049
:10653000F5CFF3FF0900F5CFF4FF0900F5CFE9FF30
:106540001200E8AE08D0F3CFEAFFEE50EECFF3FF33
:10655000EECFF4FF1200E8BCEDEF33F0E9CFF6FF29
:10656000F3CFF7FFF86E0900F5500900F5CFF3FF00
:106570000900F5CFF4FF1200F2CFF6FFF29EA69EBF
:10658000A69CE9CFA9FFA680A850A92AA680A8CFDB
:10659000F3FFA92AA680A8CFF4FFA92AA680A8CF36
:1065A000EAFFF6BEF28E1200F2CFEAFFF29EA69E3E
:1065B000A69CA684E9CFA9FFE4CFA8FFD8EC33F0CE
:1065C000F4CFA8FFD8EC33F0F6CFA8FFD8EC33F027
:1065D000A694EABEF28E1200E8AE06D0F3CFEAFF30
:1065E000EE50EECFF3FF1200E8BCEBEF33F0E9CF53
:1065F000F6FFF3CFF7FFF86E0900F5500900F5CF6D
:10660000F3FF120000C0E5FF92CF00F02F0E001242
:106610000050926E96CF00F0070E00120050966E5A
:10662000070EC16EBD0EC06EE4CF00F01200D35055
:10663000030B006E020E005C02E3D3A4FED72BEC2A
:1066400033F006EC06F00AEC2DF05AEC2BF0BBEC24
:106650001AF0FDD71200896A8A6A8B6A8C6A8D6A81
:10666000926A936A949094929494949C949E956A5E
:10667000966A806A816A826A836A846A1200F2CFAB
:10668000F6FFF29EA69EA69CE9CFA9FFA680A85081
:10669000A92AA680A8CFF3FFA92AA680A8CFF4FF35
:1066A000F6BEF28E1200D9CFE5FFE1CFD9FF00C0D0
:1066B000E5FF020EDBCF00F0ACA2FED700C0ADFFBD
:1066C000E4CF00F0E4CFD9FF1200E8AE04D0F3CF5E
:1066D000EAFFEE501200E8BC02EF06F0E9CFF6FF49
