:020000040000FA
:100C000010EF26F0689C1200FEEF29F00F0EC16E67
:060C1000070EB46E120095
:080C18003BEF2AF000C0E5FFEC
:100C200001C0E5FF02C0E5FF03C0E5FF04C0E5FF2A
:100C300005C0E5FF06C0E5FF0101A46B1E0E010122
:100C4000A45DD8B066D0BC0EA425006E016A040E67
:100C5000012200C0E9FF01C0EAFFEF68A451050DC1
:100C6000F450016EF3CF00F0000E0026060E0122B4
:100C700000C0E9FF01C0EAFFEF6AA451050DF4507E
:100C8000016EF3CF00F0000E0026060E0122004A8E
:100C9000012A00C0E9FF01C0EAFFEF6AA451050D77
:100CA000F450016EF3CF00F0000E0026060E012274
:100CB000020E0026D8B0012A00C0E9FF01C0EAFFF9
:100CC000EF6AA451050DF450016EF3CF00F0000E51
:100CD0000026060E0122030E0026D8B0012A00C00D
:100CE000E9FF01C0EAFFEF6AA451050DF450016E5F
:100CF000F3CF00F0000E0026060E0122040E00269F
:100D0000D8B0012A00C0E9FF01C0EAFFEF6AA42BB6
:100D100095D70101A46B050E0101A45D0DE2F60E4D
:100D2000A425006E016A040E012200C0E9FF01C083
:100D3000EAFFEF6AA42BEFD70101A56B0101A46BB9
:100D40001E0E0101A55DD8B021EF0DF0010E0101CD
:100D5000A66F0101A76B1E0E0101A75DD8B09DEF24
:100D60000CF0200EA725006E016A370E0122026AE0
:100D7000000E022200C0F6FF01C0F7FF02C0F8FF1C
:100D80000900F5CF00F0050E005CD8B099EF0CF02B
:100D9000FA6AFB6A0034FA36E834FA36FC0BAE0F16
:100DA000E56E0D0EFA22000EFB22E450F96EE1EF23
:100DB00006F002EF08F027EF09F050EF0AF076EFA7
:100DC0000BF0020E0101A725006E016A370E012209
:100DD000026A000E022200C0F6FF01C0F7FF02C047
:100DE000F8FF0900F5CF00F00401F65100160401E8
:100DF000F15100160050D8A499EF0CF0D60E010165
:100E0000A725006E016A060E012200C0E9FF01C09D
:100E1000EAFFEFCF00F0BC0E0101A425016E026ACB
:100E2000040E022201C0E9FF02C0EAFFEFCF01F089
:100E30000150005CD8B08DD0BC0EA425006E016AB4
:100E4000040E0122D60E0101A725026E036A060ECA
:100E5000032202C0E9FF03C0EAFFEFCF02F000C0A7
:100E6000E9FF01C0EAFF02C0EFFF0101A451050D37
:100E7000F450016EF3CF00F0000E0026060E0122A2
:100E8000020E0101A725026E036A370E0322046ACF
:100E9000000E042202C0F6FF03C0F7FF04C0F8FFF3
:100EA0000900F5CF02F000C0E9FF01C0EAFF02C06F
:100EB000EFFF0101A451050DF450016EF3CF00F0D6
:100EC000000E0026060E0122004A012A00C0E9FF9A
:100ED00001C0EAFFEF6AA451050DF450016EF3CF93
:100EE00000F0000E0026060E0122020E0026D8B0E9
:100EF000012A00C0E9FF01C0EAFFEF6AA451050D15
:100F0000F450016EF3CF00F0000E0026060E012211
:100F1000030E0026D8B0012A00C0E9FF01C0EAFF95
:100F2000EF6AA451050DF450016EF3CF00F0000EEE
:100F30000026060E0122040E0026D8B0012A00C0A9
:100F4000E9FF01C0EAFFEF6A010E0101A66F99EF08
:100F50000CF0D60E0101A725006E016A060E0122D3
:100F600000C0E9FF01C0EAFFEFCF00F0BC0E0101B5
:100F7000A425016E026A040E022201C0E9FF02C02C
:100F8000EAFFEFCF01F00050011802E099EF0CF0FA
:100F90000101A451050DF450016EF3CF00F0000ED5
:100FA0000026060E0122A451050DF450036EF3CF66
:100FB00002F0000E0226060E0322020E0101A725F2
:100FC000046E056A370E0522066A000E062204C06A
:100FD000F6FF05C0F7FF06C0F8FF0900F5CF04F0E3
:100FE00002C0E9FF03C0EAFFEFCF02F00250041293
:100FF00000C0E9FF01C0EAFF04C0EFFF0101A62B1A
:1010000099EF0CF0020E0101A725006E016A370E60
:101010000122026A000E022200C0F6FF01C0F7FFA3
:1010200002C0F8FF0900F5CF00F00401F7510016E7
:101030000401F25100160050D8A499EF0CF0D60E1E
:101040000101A725006E016A060E012200C0E9FF1A
:1010500001C0EAFFEFCF00F0BC0E0101A425016E34
:10106000026A040E022201C0E9FF02C0EAFFEFCFCC
:1010700001F00150005CD8B08DD0BC0EA425006EEC
:10108000016A040E0122D60E0101A725026E036A31
:10109000060E032202C0E9FF03C0EAFFEFCF02F011
:1010A00000C0E9FF01C0EAFF02C0EFFF0101A45147
:1010B000050DF450016EF3CF00F0000E0026060E71
:1010C000012200C0E9FF01C0EAFFEF6AA451050D4B
:1010D000F450016EF3CF00F0000E0026060E012240
:1010E000004A012A020E0101A725026E036A370E8B
:1010F0000322046A000E042202C0F6FF03C0F7FFB9
:1011000004C0F8FF0900F5CF02F000C0E9FF01C0FC
:10111000EAFF02C0EFFF0101A451050DF450016E7A
:10112000F3CF00F0000E0026060E0122020E00266C
:10113000D8B0012A00C0E9FF01C0EAFFEF6AA4515C
:10114000050DF450016EF3CF00F0000E0026060EE0
:101150000122030E0026D8B0012A00C0E9FF01C019
:10116000EAFFEF6AA451050DF450016EF3CF00F0D1
:10117000000E0026060E0122040E0026D8B0012A19
:1011800000C0E9FF01C0EAFFEF6A010E0101A66F8E
:1011900099EF0CF0D60E0101A725006E016A060E2C
:1011A000012200C0E9FF01C0EAFFEFCF00F0BC0E52
:1011B0000101A425016E026A040E022201C0E9FFAA
:1011C00002C0EAFFEFCF01F00050011802E099EFF2
:1011D0000CF00101A451050DF450016EF3CF00F0A5
:1011E000000E0026060E0122004A012AA451050D18
:1011F000F450036EF3CF02F0000E0226060E032217
:10120000024A032A020E0101A725046E056A370E61
:101210000522066A000E062204C0F6FF05C0F7FF8D
:1012200006C0F8FF0900F5CF04F002C0E9FF03C0D3
:10123000EAFFEFCF02F00250041200C0E9FF01C044
:10124000EAFF04C0EFFF0101A62B99EF0CF0020E9C
:101250000101A725006E016A370E0122026A000E05
:10126000022200C0F6FF01C0F7FF02C0F8FF09002C
:10127000F5CF00F00401F85100160401F3510016F7
:101280000050D8A499EF0CF0D60E0101A725006EEE
:10129000016A060E012200C0E9FF01C0EAFFEFCF9C
:1012A00000F0BC0E0101A425016E026A040E0222A8
:1012B00001C0E9FF02C0EAFFEFCF01F00150005C7E
:1012C000D8B08DD0BC0EA425006E016A040E012298
:1012D000D60E0101A725026E036A060E032202C084
:1012E000E9FF03C0EAFFEFCF02F000C0E9FF01C051
:1012F000EAFF02C0EFFF0101A451050DF450016E99
:10130000F3CF00F0000E0026060E012200C0E9FF18
:1013100001C0EAFFEF6AA451050DF450016EF3CF4E
:1013200000F0000E0026060E0122004A012A00C02D
:10133000E9FF01C0EAFFEF6AA451050DF450016E08
:10134000F3CF00F0000E0026060E0122020E00264A
:10135000D8B0012A020E0101A725026E036A370EDA
:101360000322046A000E042202C0F6FF03C0F7FF46
:1013700004C0F8FF0900F5CF02F000C0E9FF01C08A
:10138000EAFF02C0EFFF0101A451050DF450016E08
:10139000F3CF00F0000E0026060E0122030E0026F9
:1013A000D8B0012A00C0E9FF01C0EAFFEF6AA451EA
:1013B000050DF450016EF3CF00F0000E0026060E6E
:1013C0000122040E0026D8B0012A00C0E9FF01C0A6
:1013D000EAFFEF6A010E0101A66F99EF0CF0D60E3D
:1013E0000101A725006E016A060E012200C0E9FF77
:1013F00001C0EAFFEFCF00F0BC0E0101A425016E91
:10140000026A040E022201C0E9FF02C0EAFFEFCF28
:1014100001F00050011802E099EF0CF00101A45115
:10142000050DF450016EF3CF00F0000E0026060EFD
:101430000122020E0026D8B0012AA451050DF45055
:10144000036EF3CF02F0000E0226060E0322020EF8
:101450000226D8B0032A020E0101A725046E056AF0
:10146000370E0522066A000E062204C0F6FF05C0EC
:10147000F7FF06C0F8FF0900F5CF04F002C0E9FF4E
:1014800003C0EAFFEFCF02F00250041200C0E9FFF0
:1014900001C0EAFF04C0EFFF0101A62B99EF0CF099
:1014A000020E0101A725006E016A370E0122026AB1
:1014B000000E022200C0F6FF01C0F7FF02C0F8FFD5
:1014C0000900F5CF00F00401F95100160401F451B0
:1014D00000160050D8A499EF0CF0D60E0101A725F4
:1014E000006E016A060E012200C0E9FF01C0EAFF9A
:1014F000EFCF00F0BC0E0101A425016E026A040EBC
:10150000022201C0E9FF02C0EAFFEFCF01F0015063
:10151000005CD8B08CD0BC0EA425006E016A040E0D
:101520000122D60E0101A725026E036A060E0322D0
:1015300002C0E9FF03C0EAFFEFCF02F000C0E9FFFD
:1015400001C0EAFF02C0EFFF0101A451050DF450F4
:10155000016EF3CF00F0000E0026060E012200C03F
:10156000E9FF01C0EAFFEF6AA451050DF450016ED6
:10157000F3CF00F0000E0026060E0122004A012AD9
:1015800000C0E9FF01C0EAFFEF6AA451050DF45065
:10159000016EF3CF00F0000E0026060E0122020EAF
:1015A0000026D8B0012A00C0E9FF01C0EAFFEF6AB7
:1015B000A451050DF450016EF3CF00F0000E00268B
:1015C000060E0122030E0026D8B0012A020E0101E8
:1015D000A725026E036A370E0322046A000E042256
:1015E00002C0F6FF03C0F7FF04C0F8FF0900F5CF03
:1015F00002F000C0E9FF01C0EAFF02C0EFFF0101F5
:10160000A451050DF450016EF3CF00F0000E00263A
:10161000060E0122040E0026D8B0012A00C0E9FF00
:1016200001C0EAFFEF6A010E0101A66F82D1D60E5A
:101630000101A725006E016A060E012200C0E9FF24
:1016400001C0EAFFEFCF00F0BC0E0101A425016E3E
:10165000026A040E022201C0E9FF02C0EAFFEFCFD6
:1016600001F00050011801E064D10101A451050D01
:10167000F450016EF3CF00F0000E0026060E01229A
:10168000030E0026D8B0012AA451050DF450036EB4
:10169000F3CF02F0000E0226060E0322030E0226EE
:1016A000D8B0032A020E0101A725046E056A370E81
:1016B0000522066A000E062204C0F6FF05C0F7FFE9
:1016C00006C0F8FF0900F5CF04F002C0E9FF03C02F
:1016D000EAFFEFCF02F00250041200C0E9FF01C0A0
:1016E000EAFF04C0EFFF0101A62B23D1020E010186
:1016F000A725006E016A370E0122026A000E02223F
:1017000000C0F6FF01C0F7FF02C0F8FF0900F5CFE7
:1017100000F00401FA5100160401F55100160050C2
:10172000D8A407D1D60E0101A725006E016A060EC6
:10173000012200C0E9FF01C0EAFFEFCF00F0BC0EBC
:101740000101A425016E026A040E022201C0E9FF14
:1017500002C0EAFFEFCF01F00150005CD8B08BD09F
:10176000BC0EA425006E016A040E0122D60E0101F2
:10177000A725026E036A060E032202C0E9FF03C01A
:10178000EAFFEFCF02F000C0E9FF01C0EAFF02C0AC
:10179000EFFF0101A451050DF450016EF3CF00F0ED
:1017A000000E0026060E012200C0E9FF01C0EAFF7C
:1017B000EF6AA451050DF450016EF3CF00F0000E56
:1017C0000026060E0122004A012A00C0E9FF01C0DE
:1017D000EAFFEF6AA451050DF450016EF3CF00F05B
:1017E000000E0026060E0122020E0026D8B0012AA5
:1017F00000C0E9FF01C0EAFFEF6AA451050DF450F3
:10180000016EF3CF00F0000E0026060E0122030E3B
:101810000026D8B0012A00C0E9FF01C0EAFFEF6A44
:10182000A451050DF450016EF3CF00F0000E002618
:10183000060E0122040E0026D8B0012A020E010174
:10184000A725026E036A370E0322046A000E0422E3
:1018500002C0F6FF03C0F7FF04C0F8FF0900F5CF90
:1018600002F000C0E9FF01C0EAFF02C0EFFF010E75
:101870000101A66F5ED0D60E0101A725006E016A98
:10188000060E012200C0E9FF01C0EAFFEFCF00F021
:10189000BC0E0101A425016E026A040E022201C0E1
:1018A000E9FF02C0EAFFEFCF01F00050011801E0AC
:1018B00040D00101A451050DF450016EF3CF00F0AA
:1018C000000E0026060E0122040E0026D8B0012AC2
:1018D000A451050DF450036EF3CF02F0000E022662
:1018E000060E0322040E0226D8B0032A020E0101BE
:1018F000A725046E056A370E0522066A000E062229
:1019000004C0F6FF05C0F7FF06C0F8FF0900F5CFD9
:1019100004F002C0E9FF03C0EAFFEFCF02F002507B
:10192000041200C0E9FF01C0EAFF04C0EFFF01019B
:10193000A62B0101A72BABEF06F00101A451050D69
:10194000F450016EF3CF00F0000E0026060E0122C7
:1019500000C0E9FF01C0EAFFEFCF00F00401F6513B
:1019600000120050F66F0101A451050DF450016EF4
:10197000F3CF00F0000E0026060E0122004A012AD5
:1019800000C0E9FF01C0EAFFEFCF00F00401F7510A
:1019900000120050F76F0101A451050DF450016EC3
:1019A000F3CF00F0000E0026060E0122020E0026E4
:1019B000D8B0012A00C0E9FF01C0EAFFEFCF00F074
:1019C0000401F85100120050F86F0101A451050DF7
:1019D000F450016EF3CF00F0000E0026060E012237
:1019E000030E0026D8B0012A00C0E9FF01C0EAFFBB
:1019F000EFCF00F00401F95100120050F96F01011E
:101A0000A451050DF450016EF3CF00F0000E002636
:101A1000060E0122040E0026D8B0012A00C0E9FFFC
:101A200001C0EAFFEFCF00F00401FA5100120050AC
:101A3000FA6F0101A6510101A5270101A42BA0EF16
:101A400006F00101016BE4CF06F0E4CF05F0E4CF2E
:101A500004F0E4CF03F0E4CF02F0E4CF01F0E4CFF0
:101A600000F0120005C0E5FF06C0E5FF07C0E5FF76
:101A700008C0E5FF09C0E5FF0AC0E5FF0BC0E5FFB0
:101A80000CC0E5FF0DC0E5FF0EC0E5FF0FC0E5FF90
:101A900010C0E5FF11C0E5FF12C0E5FF13C0E5FF70
:101AA00014C0E5FF15C0E5FF16C0E5FF17C0E5FF50
:101AB00018C0E5FF19C0E5FF1AC0E5FF1BC0E5FF30
:101AC0001CC0E5FF1DC0E5FF000E00B0050F066A53
:101AD000F60F02E3062AFCD70A0F056E042E03D088
:101AE000FB0F01E3062A065000B0020F00B2050FFB
:101AF000076AF60F02E3072AFCD70A0F066E042EC8
:101B000003D0FB0F01E3072A075000B0060F00B215
:101B1000020F00B4050F086AF60F02E3082AFCD78B
:101B20000A0F076E042E03D0FB0F01E3082A0850AA
:101B300000B2010F00B4020F00B6050F096AF60FDC
:101B400002E3092AFCD70A0F086E042E03D0FB0F0C
:101B500001E3092A095000B0090F00B2080F00B4D0
:101B6000060F00B6020F00B8050F0A6AF60F02E36F
:101B70000A2AFCD70A0F096E042E03D0FB0F01E3DB
:101B80000A2A0A5000B0030F00B2070F00B4050F75
:101B900000B6010F00B8020F00BA050F0B6AF60F6E
:101BA00002E30B2AFCD70A0F0A6E042E03D0FB0FA8
:101BB00001E30B2A0B5000B0050F00B4010F00B673
:101BC000030F00B8060F00BA020F00BC050F0C6A25
:101BD000F60F02E30C2AFCD70A0F0B6E042E03D07B
:101BE000FB0F01E30C2A0C5000B0070F00B2050FE9
:101BF00000BA010F00BC020F00BE050F0D6AF60F00
:101C000002E30D2AFCD70A0F0C6E042E03D0FB0F43
:101C100001E30D2A0D5000B0070F00B2050F00B40C
:101C2000010F00B6020F00B8040F00BA080F00BC85
:101C3000060F00BE020F01B0050F0E6AF60F02E399
:101C40000E2AFCD70A0F0D6E042E03D0FB0F01E302
:101C50000E2A0E5000B0040F00B2090F00B4090F95
:101C600000B6080F00B8060F00BA020F00BC050F3F
:101C700000BE010F01B0020F01B2050F0F6AF60F8F
:101C800002E30F2AFCD70A0F0E6E042E03D0FB0FBF
:101C900001E30F2A0F5000B0040F00B2080F00B488
:101CA000070F00B6050F00B8010F00BA030F00BC04
:101CB000060F00BE030F01B0060F01B2020F01B400
:101CC000050F106AF60F02E3102AFCD70A0F0F6EF9
:101CD000042E03D0FB0F01E3102A105000B0060FB2
:101CE00000B2020F00B4050F00B6010F00B8030FD9
:101CF00000BA060F00BC020F00BE050F01B2010FB3
:101D000001B4020F01B6050F116AF60F02E3112AA2
:101D1000FCD70A0F106E042E03D0FB0F01E3112A2B
:101D2000115000B0040F00B2090F00B4080F00B644
:101D3000070F00B8040F00BA080F00BC070F00BE61
:101D4000040F01B0090F01B2080F01B4060F01B66C
:101D5000020F01B8050F126AF60F02E3122AFCD730
:101D60000A0F116E042E03D0FB0F01E3122A12504A
:101D700000B4010F00B6030F00B8070F00BA040F3C
:101D800000BC090F00BE090F01B0080F01B2070F18
:101D900001B4050F01B6010F01B8020F01BA050F1A
:101DA000136AF60F02E3132AFCD70A0F126E042EF1
:101DB00003D0FB0F01E3132A135000B0060F00B24B
:101DC000020F00B4040F00B6080F00B8060F00BAE7
:101DD000030F00BC060F00BE030F01B0070F01B2D6
:101DE000050F01B4010F01B6030F01B8060F01BAC8
:101DF000020F01BC050F146AF60F02E3142AFCD788
:101E00000A0F136E042E03D0FB0F01E3142A1450A3
:101E100000B0090F00B2090F00B4080F00B6060F9A
:101E200000B8030F00BA070F00BC040F00BE090F73
:101E300001B0080F01B2070F01B4050F01BA010F7D
:101E400001BC020F01BE050F156AF60F02E3152A49
:101E5000FCD70A0F146E042E03D0FB0F01E3152AE2
:101E6000155000B0050F00B2010F00B4030F00B60B
:101E7000070F00B8050F00BC010F00BE020F01B034
:101E8000050F01B2010F01B4030F01B6070F01B82E
:101E9000040F01BA080F01BC060F01BE020F02B009
:101EA000050F166AF60F02E3162AFCD70A0F156E05
:101EB000042E03D0FB0F01E3162A165000B2010FC7
:101EC00000B4020F00B6040F00B8090F00BA090FE2
:101ED00000BC080F00BE060F01B0020F01B2050FD3
:101EE00001B8010F01BA020F01BC050F01BE010FBD
:101EF00002B0020F02B2050F176AF60F02E3172AAB
:101F0000FCD70A0F166E042E03D0FB0F01E3172A2D
:101F1000175000BA010F00BC030F00BE070F01B03D
:101F2000050F01B4010F01B6020F01B8040F01BA89
:101F3000080F01BC060F01BE030F02B0060F02B26C
:101F4000020F02B4050F186AF60F02E3182AFCD735
:101F50000A0F176E042E03D0FB0F01E3182A185046
:101F600001B0010F01B2030F01B4060F01B6020F59
:101F700001B8040F01BA080F01BC070F01BE050F1D
:101F800002B2010F02B4020F02B6050F196AF60F72
:101F900002E3192AFCD70A0F186E042E03D0FB0F98
:101FA00001E3192A195001B6010F01B8020F01BA55
:101FB000040F01BC090F01BE090F02B0090F02B2E4
:101FC000080F02B4060F02B6020F02B8050F1A6A14
:101FD000F60F02E31A2AFCD70A0F196E042E03D05B
:101FE000FB0F01E31A2A1A5001BE010F02B0030FC2
:101FF00002B2070F02B4050F02B6010F02B8020FBA
:1020000002BA050F1B6AF60F02E31B2AFCD70A0F60
:102010001A6E042E03D0FB0F01E31B2A1B5002B4DF
:10202000010F02B6030F02B8060F02BA020F02BC7C
:10203000050F1C6AF60F02E31C2AFCD70A0F1B6E61
:10204000042E03D0FB0F01E31C2A1C5002BA010F1F
:1020500002BC020F02BE050F1D6AF60F02E31D2A25
:10206000FCD70A0F1C6E042E03D0FB0F01E31D2AC0
:10207000300FEE6E1B50300FEE6E1A50300FEE6EBA
:102080001950300FEE6E1850300FEE6E1750300FA3
:10209000EE6E1650300FEE6E1550300FEE6E14507F
:1020A000300FEE6E1350300FEE6E1250300FEE6E9A
:1020B0001150300FEE6E1050300FEE6E0F50300F8B
:1020C000EE6E0E50300FEE6E0D50300FEE6E0C5067
:1020D000300FEE6E0B50300FEE6E0A50300FEE6E7A
:1020E0000950300FEE6E0850300FEE6E0750300F73
:1020F000EE6E0650300FEE6E0550300FEE6E170E7E
:10210000E4CF1DF0E4CF1CF0E4CF1BF0E4CF1AF0D5
:10211000E4CF19F0E4CF18F0E4CF17F0E4CF16F0D5
:10212000E4CF15F0E4CF14F0E4CF13F0E4CF12F0D5
:10213000E4CF11F0E4CF10F0E4CF0FF0E4CF0EF0D5
:10214000E4CF0DF0E4CF0CF0E4CF0BF0E4CF0AF0D5
:10215000E4CF09F0E4CF08F0E4CF07F0E4CF06F0D5
:10216000E4CF05F0120000C0E5FF01C0E5FF02C0AA
:10217000E5FF03C0E5FF04C0E5FF05C0E5FF06C0BD
:10218000E5FF07C0E5FF08C0E5FF09C0E5FF0AC09D
:10219000E5FF0BC0E5FF0CC0E5FF0DC0E5FF0EC07D
:1021A000E5FF000E00B0010F00B2020F00B4040FF3
:1021B00000B6080F00B8060F00BA020F00BC040FEB
:1021C00000BE080F01B0060F01B2020F01B4040FE8
:1021D00001B6080F01B8060F01BA020F01BC040FC7
:1021E00001BE080F02B0060F02B2020F02B4040FC4
:1021F00002B6080F02B8060F02BA020F02BC040FA3
:1022000002BE080F056AF60F02E3052AFCD70A0F83
:10221000046E055000B8010F00BA030F00BC060F92
:1022200000BE020F01B0050F01B2010F01B4020F91
:1022300001B6040F01B8090F01BA090F01BC080F5C
:1022400001BE060F02B0030F02B2070F02B4040F63
:1022500002B6080F02B8070F02BA050F066AF60F9A
:1022600002E3062AFCD70A0F056E065000BE010FD6
:1022700001B0020F01B2050F01BA010F01BC030F3B
:1022800001BE070F02B0050F02B4010F02B6020F24
:1022900002B8050F02BA010F02BC030F02BE060FFF
:1022A000076AF60F02E3072AFCD70A0F066E0750EB
:1022B00001B4010F01B6020F01B8040F01BA080FF3
:1022C00001BC060F01BE020F02B0050F02B2010FE2
:1022D00002B4020F02B6040F02B8080F02BA070FC9
:1022E00002BC040F02BE080F086AF60F02E3082AB8
:1022F000FCD70A0F076E085001BC010F01BE030F87
:1023000002B0060F02B2030F02B4060F02B6020FAC
:1023100002B8040F02BA090F02BC090F02BE080F6F
:10232000096AF60F02E3092AFCD70A0F086E095062
:1023300002B2010F02B4020F02B6050F02BC010F78
:1023400002BE030F0A6AF60F02E30A2AFCD70A0F3D
:10235000096E0A5002B8010F02BA020F02BC040F44
:1023600002BE080F0B6AF60F02E30B2AFCD70A0F16
:102370000A6E0B500E6A0EE10A5010E1095012E18C
:10238000085014E1075016E1065018E105501AE113
:1023900004501CD00E2A300FEE6E0A500E2A300F59
:1023A000EE6E09500E2A300FEE6E08500E2A300FD6
:1023B000EE6E07500E2A300FEE6E06500E2A300FCA
:1023C000EE6E05500E2A300FEE6E04500E2A300FBE
:1023D000EE6E0E50E4CF0EF0E4CF0DF0E4CF0CF033
:1023E000E4CF0BF0E4CF0AF0E4CF09F0E4CF08F03B
:1023F000E4CF07F0E4CF06F0E4CF05F0E4CF04F03B
:10240000E4CF03F0E4CF02F0E4CF01F0E4CF00F03A
:102410001200D9CFE5FFE1CFD9FF00C0E5FF01C031
:10242000E5FF02C0E5FF03C0E5FF04C0E5FF020EC3
:10243000DBCF00F0030EDBCF01F0200E0024026E94
:10244000036A370E0322046A000E042202C0F6FF5C
:1024500003C0F7FF04C0F8FF0900F5CF02F0050E36
:10246000025CD8B0F8D0FA6AFB6A0234FA36E83473
:10247000FA36FC0B840FE56E240EFA22000EFB22C6
:10248000E450F96E4CEF12F079EF12F0A6EF12F073
:10249000D3EF12F000EF13F0015015E0020E00240C
:1024A000026E036A370E0322046A000E042202C081
:1024B000F6FF03C0F7FF04C0F8FF0900F5CF02F0F4
:1024C00002508912C8D0020E0024026E036A370E31
:1024D0000322046A000E042202C0F6FF03C0F7FFC5
:1024E00004C0F8FF0900F5CF02F00250FF0889167A
:1024F000B2D0015015E0020E0024026E036A370EBE
:102500000322046A000E042202C0F6FF03C0F7FF94
:1025100004C0F8FF0900F5CF02F002508A129BD0E8
:10252000020E0024026E036A370E0322046A000EB4
:10253000042202C0F6FF03C0F7FF04C0F8FF090041
:10254000F5CF02F00250FF088A1685D0015015E041
:10255000020E0024026E036A370E0322046A000E84
:10256000042202C0F6FF03C0F7FF04C0F8FF090011
:10257000F5CF02F002508B126ED0020E0024026ED4
:10258000036A370E0322046A000E042202C0F6FF1B
:1025900003C0F7FF04C0F8FF0900F5CF02F00250B6
:1025A000FF088B1658D0015015E0020E0024026E71
:1025B000036A370E0322046A000E042202C0F6FFEB
:1025C00003C0F7FF04C0F8FF0900F5CF02F0025086
:1025D0008C1241D0020E0024026E036A370E0322D1
:1025E000046A000E042202C0F6FF03C0F7FF04C015
:1025F000F8FF0900F5CF02F00250FF088C162BD02F
:10260000015015E0020E0024016E026A370E02220C
:10261000036A000E032201C0F6FF02C0F7FF03C0E9
:10262000F8FF0900F5CF01F001508D1214D0016AB6
:10263000026A020E0026370E0122000E022200C09E
:10264000F6FF01C0F7FF02C0F8FF0900F5CF00F068
:102650000050FF088D16E4CF04F0E4CF03F0E4CF80
:1026600002F0E4CF01F0E4CF00F0E4CFD9FF120094
:10267000D9CFE5FFE1CFD9FF00C0E5FF01C0E5FFFD
:1026800002C0E5FF03C0E5FF04C0E5FF020EDBCF9B
:1026900000F0030EDBCF01F0200E0024026E036A6F
:1026A000370E0322046A000E042202C0F6FF03C0A4
:1026B000F7FF04C0F8FF0900F5CF02F0050E025C39
:1026C000D8B0F8D0FA6AFB6A0234FA36E834FA363F
:1026D000FC0BE20FE56E260EFA22000EFB22E45000
:1026E000F96E7BEF13F0A8EF13F0D5EF13F002EFC4
:1026F00014F02FEF14F0015015E0020E0024026ECA
:10270000036A370E0322046A000E042202C0F6FF99
:1027100003C0F7FF04C0F8FF0900F5CF02F0025034
:102720009212C8D0020E0024026E036A370E0322F2
:10273000046A000E042202C0F6FF03C0F7FF04C0C3
:10274000F8FF0900F5CF02F00250FF089216B2D050
:10275000015015E0020E0024026E036A370E0322B8
:10276000046A000E042202C0F6FF03C0F7FF04C093
:10277000F8FF0900F5CF02F0025093129BD0020E31
:102780000024026E036A370E0322046A000E04223C
:1027900002C0F6FF03C0F7FF04C0F8FF0900F5CF41
:1027A00002F00250FF08931685D0015015E0020E8A
:1027B0000024026E036A370E0322046A000E04220C
:1027C00002C0F6FF03C0F7FF04C0F8FF0900F5CF11
:1027D00002F0025094126ED0020E0024026E036AC0
:1027E000370E0322046A000E042202C0F6FF03C063
:1027F000F7FF04C0F8FF0900F5CF02F00250FF0810
:10280000941658D0015015E0020E0024026E036A9F
:10281000370E0322046A000E042202C0F6FF03C032
:10282000F7FF04C0F8FF0900F5CF02F0025095123F
:1028300041D0020E0024026E036A370E0322046A9E
:10284000000E042202C0F6FF03C0F7FF04C0F8FF29
:102850000900F5CF02F00250FF0895162BD0015069
:1028600015E0020E0024016E026A370E0222036A8E
:10287000000E032201C0F6FF02C0F7FF03C0F8FFFD
:102880000900F5CF01F00150961214D0016A026AD6
:10289000020E0026370E0122000E022200C0F6FFB3
:1028A00001C0F7FF02C0F8FF0900F5CF00F00050AB
:1028B000FF089616E4CF04F0E4CF03F0E4CF02F073
:1028C000E4CF01F0E4CF00F0E4CFD9FF1200D9CF7C
:1028D000E5FFE1CFD9FF00C0E5FF01C0E5FF02C081
:1028E000E5FF03C0E5FF04C0E5FF05C0E5FF06C046
:1028F000E5FF07C0E5FF08C0E5FF09C0E5FF0AC026
:10290000E5FF0BC0E5FF020EDBCF00F0030EDBCFCF
:1029100001F0040EDBCF02F0050EDBCF03F0060E54
:10292000DBCF04F0070EDBCF05F0080EDBCF06F09F
:10293000090EDBCF07F006C008F0060608500CE0D1
:1029400006500424086EE86A0520096E08C0E9FFF5
:1029500009C0EAFFEF6AEFD700500401FB6F015096
:10296000FC6F0250FD6F0350FE6F006A016A026A3D
:10297000800EFE15036E005007E1015005E1025084
:1029800003E10350800A01E01AD00401FB51006EFC
:10299000FC51016EFD51026E7F0EFE15036E00505C
:1029A000FB6F0150FC6F0250FD6F0350FE6F04C0BF
:1029B000E9FF05C0EAFF2D0EEF6E044A052A040167
:1029C000FD35FE357E08006EFB51016EFC51026E36
:1029D0007F0EFD15036E066A038E086A096A0A6A8D
:1029E0000B6A005019E0D88000AED8900EE3085072
:1029F000082609360A360B3603BE08800150012628
:102A0000023603360636002AECD7D8900632033257
:102A1000023201320006E5D7085009100A100B10E7
:102A200012E00550E56E0450E56E0B50E56E0A505D
:102A3000E56E0950E56E0850E56EA6EC2BF0006ED1
:102A4000060EE12608D004C0E9FF05C0EAFF300EFB
:102A5000EF6E010E006E00500426E86A0522075052
:102A600028E004C0E9FF05C0EAFF2E0EEF6E002A41
:102A7000044A052A07501808E56E0550E56E045013
:102A8000E56E0650E56E0350E56E0250E56E0150AE
:102A9000E56E15EC2BF0016E070EE12601500026C5
:102AA00007500426E86A052204C0E9FF05C0EAFFD2
:102AB000EF6A0050E4CF0BF0E4CF0AF0E4CF09F066
:102AC000E4CF08F0E4CF07F0E4CF06F0E4CF05F060
:102AD000E4CF04F0E4CF03F0E4CF02F0E4CF01F060
:102AE000E4CF00F0E4CFD9FF1200D9CFE5FFE1CF6A
:102AF000D9FF00C0E5FF01C0E5FF02C0E5FF03C04C
:102B0000E5FF04C0E5FF020EDBCF00F01E0E005C07
:102B1000D8B0E1D0200E0024016E026A370E0222E6
:102B2000036A000E032201C0F6FF02C0F7FF03C0D4
:102B3000F8FF0900F5CF01F0050E015CD8B0CBD04D
:102B4000FA6AFB6A0134FA36E834FA36FC0B5E0F97
:102B5000E56E2B0EFA22000EFB22E450F96EB9EF5F
:102B600015F0DDEF15F001EF16F025EF16F049EF47
:102B700016F0020E0024016E026A370E0222036A6A
:102B8000000E032201C0F6FF02C0F7FF03C0F8FFEA
:102B90000900F5CF04F00401F15104120450F16F63
:102BA00001C0F6FF02C0F7FF03C0F8FF0900F5CF30
:102BB00001F0011E015092168ED0020E0024016E0B
:102BC000026A370E0222036A000E032201C0F6FFDA
:102BD00002C0F7FF03C0F8FF0900F5CF04F00401BD
:102BE000F25104120450F26F01C0F6FF02C0F7FF69
:102BF00003C0F8FF0900F5CF01F0011E0150931644
:102C00006AD0020E0024016E026A370E0222036AA5
:102C1000000E032201C0F6FF02C0F7FF03C0F8FF59
:102C20000900F5CF04F00401F35104120450F36FCE
:102C300001C0F6FF02C0F7FF03C0F8FF0900F5CF9F
:102C400001F0011E0150941646D0020E0024016EC0
:102C5000026A370E0222036A000E032201C0F6FF49
:102C600002C0F7FF03C0F8FF0900F5CF04F004012C
:102C7000F45104120450F46F01C0F6FF02C0F7FFD4
:102C800003C0F8FF0900F5CF01F0011E01509516B1
:102C900022D0016A026A020E0026370E0122000EBF
:102CA000022200C0F6FF01C0F7FF02C0F8FF0900D2
:102CB000F5CF03F00401F55103120350F56F00C086
:102CC000F6FF01C0F7FF02C0F8FF0900F5CF00F0E2
:102CD000001E00509616E4CF04F0E4CF03F0E4CFDA
:102CE00002F0E4CF01F0E4CF00F0E4CFD9FF12000E
:102CF00000C0E5FF01C0E5FF02C0E5FF03C0E5FF3E
:102D000004C0E5FF05C0E5FFD350030B006E005083
:102D1000D8A491D0E56A300EE56E000EE56AE56A4A
:102D200060EC25F0006E040EE126180E0016016A14
:102D3000D89001320032D89001320032D89001325E
:102D40000032DE0E0024016E026A360E0222036A91
:102D5000000E032201C0F6FF02C0F7FF03C0F8FF18
:102D60000900F5CF01F0E56A300EE56EE56A010E67
:102D7000E56E60EC25F0026E040EE1260F0E0216E1
:102D8000DA0E0024036E046A360E0422056A000E71
:102D9000052203C0F6FF04C0F7FF05C0F8FF0900D5
:102DA000F5CF00F0D8900232025006E00250020A3D
:102DB00003E00250060A1FE1E56AE56AE56A015090
:102DC000E56EE56A7A0EE56E120EE56E000EE56AB6
:102DD00020EC19F0016EF3CF02F0F4CF03F0E9CF4D
:102DE00004F0080EE12604C0E9FF03C0F4FF02C0AE
:102DF000F3FF015063D0E56AE56AE56A0050E56ECD
:102E0000050EE56EB80EE56ED80EE56E000EE56AAD
:102E100084EC1EF0006EF3CF01F0F4CF02F0E9CFA6
:102E200003F0080EE12603C0E9FF02C0F4FF01C071
:102E3000F3FF005043D0D350030B010A06E1E96AC7
:102E4000F46A800EF36EE86A39D0D350030B800F1A
:102E50007E0F30E3D350E838070BE56AE56EE56A8C
:102E6000040EE56E51EC28F0006EF3CF01F0040E75
:102E7000E126026AE20E0026360E0122000E022230
:102E800000C0F6FF01C0F7FF02C0F8FF0900F5CF50
:102E900000F00900F5CF01F00900F5CF02F00900BC
:102EA000F5CF03F003C0E9FF02C0F4FF01C0F3FF58
:102EB000005004D0E96AF46AF36AE86AE4CF05F0E6
:102EC000E4CF04F0E4CF03F0E4CF02F0E4CF01F06C
:102ED000E4CF00F01200D9CFE5FFE1CFD9FF00C069
:102EE000E5FF01C0E5FF02C0E5FF03C0E5FF04C048
:102EF000E5FF05C0E5FF06C0E5FF07C0E5FF08C028
:102F0000E5FF020EDBCF00F0000E0101925D02E151
:102F1000400E915D05E291C101F092C102F003D033
:102F2000400E016E026A0044FE0B036E0328040D7E
:102F3000F450036EF3CF00F0000E0024046E040E74
:102F40000320056E000E0024066E040E0320076E9B
:102F500006C0E9FF07C0EAFFEFCF06F0FC0E061639
:102F600004C0E9FF05C0EAFF06C0EFFF000E002421
:102F7000046E040E0320056E000E0024066E040E7F
:102F80000320076E06C0E9FF07C0EAFFEFCF06F097
:102F9000030E0214061204C0E9FF05C0EAFF06C0D2
:102FA000EFFF000E0024046E040E0320056E044A99
:102FB000052A0150066E04C0E9FF05C0EAFF06C0FD
:102FC000EFFF000E0026040E0322020E0026D8B0EA
:102FD000032A400E046E050E056E00C0E9FF03C013
:102FE000EAFF04C0EEFF05C0EFFF01500101915F51
:102FF0000250925B050E01018F6F400E8E6F800EA6
:10300000906F006A00C003F0046A0250045C02E1A1
:103010000150035C2BE28EC103F08FC104F090C11C
:1030200005F08BC106F08CC107F08DC108F006C019
:10303000E9FF07C0F3FF0850EDEC2CF0066E01012C
:103040008B2B03E38C3F01D08D2B06C0E5FF03C023
:10305000E9FF04C0F3FF055042EC2DF001018E2B77
:1030600003E38F3F01D0902B002ACCD7E4CF08F0A8
:10307000E4CF07F0E4CF06F0E4CF05F0E4CF04F0AE
:10308000E4CF03F0E4CF02F0E4CF01F0E4CF00F0AE
:10309000E4CFD9FF1200D9CFE5FFE1CFD9FF00C0BF
:1030A000E5FF01C0E5FF02C0E5FF03C0E5FF020E3A
:1030B000DBCF00F0200E0024016E026A370E0222E0
:1030C000036A000E032201C0F6FF02C0F7FF03C02F
:1030D000F8FF0900F5CF01F0050E015CD8B0A4D0CF
:1030E000FA6AFB6A0134FA36E834FA36FC0BFE0F52
:1030F000E56E300EFA22000EFB22E450F96E89EFE5
:1031000018F0A5EF18F0C1EF18F0DDEF18F0F9EFA7
:1031100018F0020E0024016E026A370E0222036AC2
:10312000000E032201C0F6FF02C0F7FF03C0F8FF44
:103130000900F5CF01F080500116015003E0010EA7
:10314000016E01D0016A015070D0020E0024016EA0
:10315000026A370E0222036A000E032201C0F6FF44
:1031600002C0F7FF03C0F8FF0900F5CF01F081505E
:103170000116015003E0010E016E01D0016A0150F9
:1031800054D0020E0024016E026A370E0222036A36
:10319000000E032201C0F6FF02C0F7FF03C0F8FFD4
:1031A0000900F5CF01F082500116015003E0010E35
:1031B000016E01D0016A015038D0020E0024016E68
:1031C000026A370E0222036A000E032201C0F6FFD4
:1031D00002C0F7FF03C0F8FF0900F5CF01F08350EC
:1031E0000116015003E0010E016E01D0016A015089
:1031F0001CD0016A026A020E0026370E0122000E60
:10320000022200C0F6FF01C0F7FF02C0F8FF09006C
:10321000F5CF00F084500016005003E0010E006E60
:1032200001D0006A005001D0E86AE4CF03F0E4CF97
:1032300002F0E4CF01F0E4CF00F0E4CFD9FF1200B8
:10324000D9CFE5FFE1CFD9FF00C0E5FF01C0E5FF21
:1032500002C0E5FF03C0E5FF04C0E5FF05C0E5FFD0
:1032600006C0E5FF07C0E5FF08C0E5FF09C0E5FFB0
:103270000AC0E5FF0BC0E5FF0CC0E5FF0DC0E5FF90
:10328000020EDBCF00F0030EDBCF01F0040EDBCF2C
:1032900002F0050EDBCF03F0060EDBCF04F0070EC5
:1032A000DBCF05F0080EDBCF06F0090EDBCF07F011
:1032B000D88003AED890086A083608500FE0031C87
:1032C0000C6E021C0B6E011C0A6E001C096E092A92
:1032D0000DE10A2A0BE10B4A0C2A08D000C009F0C4
:1032E00001C00AF002C00BF003C00CF0D88007AE9A
:1032F000D890006A003600500FE0071C0D6E061CC7
:10330000036E051C026E041C016E012A0DE1022AE7
:103310000BE1034A0D2A08D004C001F005C002F0F9
:1033200006C003F007C00DF00D50E56E0350E56ECA
:103330000250E56E0150E56E0C50E56E0B50E56EE7
:103340000A50E56E0950E56E84EC1EF0016EF3CF75
:1033500002F0F4CF03F0E9CF04F0080EE1260050AC
:10336000081A085016E0041C076E031C066E021CA7
:10337000056E011C006E002A04E1052A02E1064ADE
:10338000072A07C0E9FF06C0F4FF05C0F3FF00509D
:1033900007D004C0E9FF03C0F4FF02C0F3FF0150EF
:1033A000E4CF0DF0E4CF0CF0E4CF0BF0E4CF0AF063
:1033B000E4CF09F0E4CF08F0E4CF07F0E4CF06F063
:1033C000E4CF05F0E4CF04F0E4CF03F0E4CF02F063
:1033D000E4CF01F0E4CF00F0E4CFD9FF1200D9CF61
:1033E000E5FFE1CFD9FF00C0E5FF01C0E5FF02C066
:1033F000E5FF03C0E5FF020EDBCF00F01E0E005C10
:10340000D8B0A5D0200E0024016E026A370E022229
:10341000036A000E032201C0F6FF02C0F7FF03C0DB
:10342000F8FF0900F5CF01F0050E015CD8B08FD090
:10343000FA6AFB6A0134FA36E834FA36FC0B4E0FAE
:10344000E56E340EFA22000EFB22E450F96E31EFE5
:103450001AF049EF1AF061EF1AF079EF1AF091EFD4
:103460001AF0020E0024016E026A370E0222036A6D
:10347000000E032201C0F6FF02C0F7FF03C0F8FFF1
:103480000900F5CF01F00401F151011A0150F16F6B
:103490005ED0020E0024016E026A370E0222036A19
:1034A000000E032201C0F6FF02C0F7FF03C0F8FFC1
:1034B0000900F5CF01F00401F251011A0150F26F39
:1034C00046D0020E0024016E026A370E0222036A01
:1034D000000E032201C0F6FF02C0F7FF03C0F8FF91
:1034E0000900F5CF01F00401F351011A0150F36F07
:1034F0002ED0020E0024016E026A370E0222036AE9
:10350000000E032201C0F6FF02C0F7FF03C0F8FF60
:103510000900F5CF01F00401F451011A0150F46FD4
:1035200016D0016A026A020E0026370E0122000E32
:10353000022200C0F6FF01C0F7FF02C0F8FF090039
:10354000F5CF00F00401F551001A0050F56FE4CFFB
:1035500003F0E4CF02F0E4CF01F0E4CF00F0E4CFD9
:10356000D9FF1200D9CFE5FFE1CFD9FF00C0E5FFB9
:1035700001C0E5FF02C0E5FF03C0E5FF04C0E5FFB1
:1035800005C0E5FF06C0E5FF07C0E5FF08C0E5FF91
:1035900009C0E5FF0AC0E5FF0BC0E5FF020EDBCF67
:1035A00000F0030EDBCF01F0040EDBCF02F0050EBE
:1035B000DBCF03F0005001100210031005E1E96AAF
:1035C000F46AF36AE86A6ED0960E046E056A0350D8
:1035D00008E0D8900332023201320032044A052A50
:1035E000F6D704C006F005C007F0000E035C08E142
:1035F000800E025C05E1000E015C02E1000E005C41
:1036000018E200500026013602360336FF0E04266B
:103610000522000E035C08E1800E025C05E1000E4D
:10362000015C02E1000E005CECE304C006F005C0A2
:1036300007F00050046E0150056E7F0E0214086EF4
:10364000096A0450FF0A08E10550FF0A05E1085025
:103650007F0A02E1095001E006D0006A016A026AAD
:10366000036A064A072A029EE86A073006300B6E94
:103670000A6A0A32086A0850001201120A5002123D
:103680000B50031200500101876F0150886F0250E8
:10369000896F03508A6F8AC1E9FF89C1F4FF88C12D
:1036A000F3FF8751E4CF0BF0E4CF0AF0E4CF09F049
:1036B000E4CF08F0E4CF07F0E4CF06F0E4CF05F064
:1036C000E4CF04F0E4CF03F0E4CF02F0E4CF01F064
:1036D000E4CF00F0E4CFD9FF120002030406010298
:1036E0000304127A000048E8010090D0030020A1F2
:1036F000070040420F0080841E0000093D000012B8
:103700007A00010204081020408040800102040178
:103710000204082001020401020408102040801065
:103720000101010101010101020202020200000087
:103730000000040404030303030303030300120152
:10374000000202000040D804ABFE000001020001AC
:1037500009024300020100C0140904000001020232
:1037600001000524001001042402000524060001C4
:10377000052401000107058203100002090401006D
:10378000020A00000007050302400000070583024B
:10379000400000000403090416034A005000200002
:1037A0004D0041004E0044004F004E002000120327
:1037B000500069006E006700750069006E006F00C0
:1037C000943700983700AE37000030003100660AA9
:1037D0000000696361726F20555342203032200A25
:1037E0000000E806E56E090E04EC1CF0E4500BE066
:1037F00000D0E56E090E04EC1CF000D0E45000008F
:1038000000D0E82EF6D71200E8060000E85007E0E6
:1038100000D000D000D000D00000E82EFAD712006F
:10382000D9CFE5FFE1CFD9FF00C0E5FF01C0E5FF3B
:103830000101A36B0101026BBC0E0101A325006E07
:10384000016A040E012200C0E9FF01C0EAFFEFCFC8
:1038500000F000500101021901E06AD00101A351FA
:10386000050DF450016EF3CF00F0000E0026060E99
:10387000012200C0E9FF01C0EAFFEFCF00F00050D5
:10388000801AA351050DF450016EF3CF00F0000E25
:103890000026060E0122004A012A00C0E9FF01C0ED
:1038A000EAFFEFCF00F00050811AA351050DF4504C
:1038B000016EF3CF00F0000E0026060E0122020E6C
:1038C0000026D8B0012A00C0E9FF01C0EAFFEFCF0F
:1038D00000F00050821AA351050DF450016EF3CF91
:1038E00000F0000E0026060E0122030E0026D8B0BE
:1038F000012A00C0E9FF01C0EAFFEFCF00F000504D
:10390000831AA351050DF450016EF3CF00F0000EA1
:103910000026060E0122040E0026D8B0012A00C09F
:10392000E9FF01C0EAFFEFCF00F00050841AA32B9B
:10393000070E9C6F00000000000000000000000067
:1039400000009C2F9AEF1CF00101022BFB0E025D80
:10395000D8A072D7E4CF01F0E4CF00F0E4CFD9FFD4
:10396000120000C0E5FF01C0E5FF02C0E5FF03C093
:10397000E5FF006A800EE56E010EE56E440EE56E11
:1039800014EC1FF00101AF6F030EE126AF51F2E01E
:1039900044C102F00250310A02E10D0E006E0250E5
:1039A000320A02E10E0E006E0250330A02E10F0EDF
:1039B000006E0250340A02E1100E006E0250350A09
:1039C00002E1110E006E0250360A02E1120E006E84
:1039D0000250370A02E1130E006E0250380A02E16B
:1039E000140E006E0101AF6B0050E56EA1EC28F0E3
:1039F000006EF3CF01F0E6520150E56E0050E56E27
:103A0000E0EC2AF0006EF3CF01F0F4CF02F0E9CF42
:103A100003F0E652E652020EE56EE56E010EE56E2B
:103A2000B00EE56E0350E56E0250E56E0150E56E96
:103A30000050E56E67EC14F0080EE126000EE56E0E
:103A4000370EE56ECE0EE56E800EE56E010EE56E6C
:103A5000B00EE56E28EC22F0060EE126800EE56E33
:103A6000010EE56EB00EE56EC0EC29F0006E030E9F
:103A7000E1260050E56E800EE56E010EE56EB00E9B
:103A8000E56E2DEC20F0040EE126E4CF03F0E4CF48
:103A900002F0E4CF01F0E4CF00F01200D9CFE5FF4F
:103AA000E1CFD9FF00C0E5FF01C0E5FF02C0E5FF9F
:103AB00003C0E5FF04C0E5FF05C0E5FF06C0E5FF64
:103AC00007C0E5FF08C0E5FF09C0E5FF020EDBCF38
:103AD00000F00044FE0B040DF450026EF3CF00F032
:103AE000000E0024016E040E0220036E01C0E9FFE7
:103AF00003C0EAFFEFCF01F0030E01160150056E7F
:103B0000046A000E0026040E0222004A022A00C0A7
:103B1000E9FF02C0EAFFEFCF00F0016A0450001293
:103B20000550011200500101912701509223050E0A
:103B300001018C6F400E8B6F800E8D6F026A036ADD
:103B40000150035C02E10050025C2CE28EC104F0E3
:103B50008FC105F090C106F08BC107F08CC108F051
:103B60008DC109F007C0E9FF08C0F3FF0950EDEC73
:103B70002CF0076E01018B2B03E38C3F01D08D2BC2
:103B800007C0E5FF04C0E9FF05C0F3FF065042ECA3
:103B90002DF001018E2B03E38F3F01D0902B024AC1
:103BA000032ACED7E4CF09F0E4CF08F0E4CF07F042
:103BB000E4CF06F0E4CF05F0E4CF04F0E4CF03F067
:103BC000E4CF02F0E4CF01F0E4CF00F0E4CFD9FF7E
:103BD000120000C0E5FF01C0E5FF02C0E5FF03C021
:103BE000E5FF04C0E5FF05C0E5FF1F0E0501001558
:103BF000006E02C501F0005012E10150010A01E01F
:103C000076D0010E0101A86F05010151030A04E1FC
:103C1000010E0101AA6F6BD00101AA6B68D00050A0
:103C2000020A01E064D00F0E05010415006E800E3B
:103C30000415026E0150D8A45AD00050D8B457D001
:103C4000010E0101A86F040E036E000E016E800EBE
:103C5000046E0050080DF450056EF3CF00F00050D4
:103C6000012401018E6F055003208F6FE86A05BEA5
:103C7000E8680420906F025005E0040E8E27000EC5
:103C80008F23902305010151030A10E18EC100F03A
:103C90008FC101F090C103F0840EE56E00C0E9FF12
:103CA00001C0F3FF035042EC2DF021D00250010A75
:103CB0000FE18EC100F08FC101F090C102F0E56A02
:103CC00000C0E9FF01C0F3FF025042EC2DF00FD01D
:103CD0008EC100F08FC101F090C102F0880EE56E38
:103CE00000C0E9FF01C0F3FF025042EC2DF0E4CF29
:103CF00005F0E4CF04F0E4CF03F0E4CF02F0E4CF2A
:103D000001F0E4CF00F01200D9CFE5FFE1CFD9FFF9
:103D100000C0E5FF01C0E5FF02C0E5FF03C0E5FF0D
:103D200004C0E5FF05C0E5FF06C0E5FF07C0E5FFED
:103D300008C0E5FF09C0E5FF0AC0E5FF0BC0E5FFCD
:103D40000CC0E5FF0DC0E5FF020EDBCF00F0030E57
:103D5000DBCF01F0040EDBCF02F0050EDBCF03F06A
:103D6000060EDBCF04F0070EDBCF05F0080EDBCF2D
:103D700006F0090EDBCF07F0086A096A0A6A0B6AC7
:103D8000200E0C6E0350800BE8440D6E0050002690
:103D90000136023603360850082609360A360B3635
:103DA0000D50D8A4088007500B5C08E106500A5C4F
:103DB00005E10550095C02E10450085C09E3045088
:103DC000085E0550095A06500A5A07500B5A0080DF
:103DD0000C040D6E0DC00CF00D50D4E103C0E9FFD2
:103DE00002C0F4FF01C0F3FF0050E4CF0DF0E4CFB8
:103DF0000CF0E4CF0BF0E4CF0AF0E4CF09F0E4CF0D
:103E000008F0E4CF07F0E4CF06F0E4CF05F0E4CF0C
:103E100004F0E4CF03F0E4CF02F0E4CF01F0E4CF0C
:103E200000F0E4CFD9FF1200D9CFE5FFE1CFD9FFF1
:103E300000C0E5FF01C0E5FF02C0E5FF03C0E5FFEC
:103E400004C0E5FF05C0E5FF06C0E5FF07C0E5FFCC
:103E500008C0E5FF09C0E5FF020EDBCF00F0030E4E
:103E6000DBCF01F0040EDBCF02F0036A0101AB519E
:103E7000050A02E0E86A50D00101035102E1E86A54
:103E80004BD0040118BF47D0400E195DD8A019C40B
:103E9000E8FF046A04011951045C20E20450002484
:103EA000056EE86A0120066EE86A0220076E800E41
:103EB0000424086E096A050E092208C0E9FF09C03A
:103EC000EAFFEFCF08F008C0E5FF05C0E9FF06C034
:103ED000F3FF075042EC2DF0042ADCD704C003F0B6
:103EE000400E04011815186F006A18BD002A005012
:103EF000D880E866D890006A00360050010BE84090
:103F0000E840F46E1851BF0BF410186F400E196F93
:103F1000880E1811186F0350E4CF09F0E4CF08F0B1
:103F2000E4CF07F0E4CF06F0E4CF05F0E4CF04F0EF
:103F3000E4CF03F0E4CF02F0E4CF01F0E4CF00F0EF
:103F4000E4CFD9FF120000C0E5FF01C0E5FF02C0C9
:103F5000E5FF03C0E5FF04C0E5FF05C0E5FF1F0E58
:103F600005010015006E0501406B416B005013E127
:103F7000010E0101A86F0101A95104E0010E050124
:103F80004011406F0101AA51D8B44CD0020E050176
:103F90004011406F47D00050010A04E1010E0101B9
:103FA000A86F40D00050020A01E03CD00F0E05017E
:103FB0000415006E800E0415016E010E0101A86F3C
:103FC000040E036E000E026E800E046E0050080D8B
:103FD000F450056EF3CF00F00050022401018E6F03
:103FE000055003208F6FE86A05BEE8680420906FD3
:103FF000015005E0040E8E27000E8F2390238EC102
:1040000000F08FC101F090C102F000C0E9FF01C0D3
:10401000F3FF0250EDEC2CF0006E00A403D0010E73
:104020000501406F0101A8510BE0050E01018C6FE5
:10403000400E8B6F800E8D6F020E0101916F926B9F
:10404000E4CF05F0E4CF04F0E4CF03F0E4CF02F0D6
:10405000E4CF01F0E4CF00F01200D9CFE5FFE1CFCB
:10406000D9FF00C0E5FF01C0E5FF02C0E5FF03C0C6
:10407000E5FF04C0E5FF05C0E5FF06C0E5FF07C09A
:10408000E5FF08C0E5FF020EDBCF00F0030EDBCF3B
:1040900001F0040EDBCF02F0050EDBCF03F00101CF
:1040A000AB51050A02E0E86A4CD00101035102E17C
:1040B000E86A47D004011CBF43D0410E035C02E311
:1040C000400E036E046A0350045C1DE2C00E04241B
:1040D000056E066A050E062204500024076EE86A83
:1040E0000120086EE86A022007C0E9FF08C0F3FF5C
:1040F000EDEC2CF0076E05C0E9FF06C0EAFF07C033
:10410000EFFF042AE0D704C000F0045004011D6F43
:10411000400E1C151C6F016A1CBD012A0150D8807D
:10412000E866D890016A01360150010BE840E8408A
:10413000F46E1C51BF0BF4101C6F880E1C111C6F09
:104140000050E4CF08F0E4CF07F0E4CF06F0E4CF6E
:1041500005F0E4CF04F0E4CF03F0E4CF02F0E4CFC5
:1041600001F0E4CF00F0E4CFD9FF120000C0E5FF7A
:1041700001C0E5FF02C0E5FF03C0E5FF05010051F6
:10418000800A01E06BD003C500F002C501F00050C9
:10419000010A0FE1010E0101A86F000E01018D6FF0
:1041A000370E8C6F3E0E8B6F120E0101916F926B6A
:1041B00055D00050020A17E1010E0101A86F000E50
:1041C00001018D6F370E8C6F500E8B6F520EF66E95
:1041D000370EF76E000EF86E0900F5CF91F1090069
:1041E000F5CF92F13BD00050030A32E1010E0101FC
:1041F000A86F0150030DF450026EF3CF01F0036A73
:10420000C00E0126370E0222000E032201C0F6FF67
:1042100002C0F7FF03C0F8FF0900F5CF8BF10900DA
:10422000F5CF8CF10900F5CF8DF18BC101F08CC178
:1042300002F08DC103F001C0E9FF02C0F3FF03509B
:10424000EDEC2CF0016E01C091F10101926B06D0F2
:104250000050060A03E1010E0101A86FE4CF03F04C
:10426000E4CF02F0E4CF01F0E4CF00F0120000C090
:10427000E5FF01C0E5FF02C0E5FF03C0E5FF006AFE
:1042800077EC2BF0F3CF03F0010A02E1035001E0D9
:1042900036D001019451800F800F02E1310E935D01
:1042A0002EE301019451800F800F02E1350E935DE2
:1042B00026E2CF0E01019325026EFA6AFB6A0234F0
:1042C000FA36E834FA36FC0BD80FE56E420EFA22C5
:1042D000000EFB22E450F96E74EF21F077EF21F02D
:1042E0007AEF21F07DEF21F0150E006E08D0160E4A
:1042F000006E05D0170E006E02D0180E006E010180
:10430000936B946B0101AE6B0050E56E4BEC18F0B3
:10431000E652016A010A02E1015001E00DD0010EEE
:10432000E56E000EE56E370EE56ECA0EE56E2DECFD
:1043300020F0040EE1260CD0010EE56E000EE56EB5
:10434000370EE56ECC0EE56E2DEC20F0040EE12666
:10435000E4CF03F0E4CF02F0E4CF01F0E4CF00F0CB
:104360001200D9CFE5FFE1CFD9FF00C0E5FF01C0C2
:10437000E5FF02C0E5FF03C0E5FF04C0E5FF05C09F
:10438000E5FF06C0E5FF07C0E5FF020EDBCF00F04A
:10439000030EDBCF01F0040EDBCF02F0050EDBCF06
:1043A00003F0D88001AED890046A0436045007E0C8
:1043B000011C066E001C056E054A062A04D000C0CA
:1043C00005F001C006F0D88003AED890006A003630
:1043D000005007E0031C076E021C016E014A072A09
:1043E00004D002C001F003C007F00750E56E015091
:1043F000E56E0650E56E0550E56EB8EC25F0016EF1
:10440000F3CF02F0040EE1260050041A04500AE033
:10441000021C036E011C006E004A032A03C0F3FF56
:10442000005003D002C0F3FF0150E4CF07F0E4CF07
:1044300006F0E4CF05F0E4CF04F0E4CF03F0E4CFDE
:1044400002F0E4CF01F0E4CF00F0E4CFD9FF120096
:10445000D9CFE5FFE1CFD9FF00C0E5FF01C0E5FFFF
:1044600002C0E5FF03C0E5FF04C0E5FF05C0E5FFAE
:1044700006C0E5FF07C0E5FF08C0E5FF09C0E5FF8E
:10448000020EDBCF00F0030EDBCF01F0040EDBCF1A
:1044900002F0050EDBCF03F0060EDBCF04F0070EB3
:1044A000DBCF05F000C006F001C007F002C008F045
:1044B00006C0E9FF07C0F3FF0850EDEC2CF0096ED1
:1044C000095005E0062AF4E3074A082AF1D703C099
:1044D000E9FF04C0F3FF0550EDEC2CF0096E032A50
:1044E00002E3044A052A09C0E5FF06C0E9FF07C048
:1044F000F3FF085042EC2DF0062A02E3074A082A8F
:104500000950E5E102C0F4FF01C0F3FF0050E4CF21
:1045100009F0E4CF08F0E4CF07F0E4CF06F0E4CFF1
:1045200005F0E4CF04F0E4CF03F0E4CF02F0E4CFF1
:1045300001F0E4CF00F0E4CFD9FF120000C0E5FFA6
:1045400002C0E5FF03C0E5FF006A77EC2BF0F3CF74
:1045500003F0010A02E1035001E03BD00101945154
:10456000800F800F02E1310E935D33E3010194511E
:10457000800F800F02E1360E935D2BE2CF0E01011A
:104580009325026EFA6AFB6A0234FA36E834FA3688
:10459000FC0BA20FE56E450EFA22000EFB22E45042
:1045A000F96EDBEF22F0DEEF22F0E1EF22F0E4EF34
:1045B00022F0E7EF22F00A0E006E0BD00B0E006E19
:1045C00008D00C0E006E05D0090E006E02D0080E49
:1045D000006E0101936B946B0101AE6B77EC2BF0D5
:1045E000F3CF03F0010A02E1035001E00FD093C1C1
:1045F00002F094C103F00250E56E0050E56E7CECD1
:1046000023F0E652E6520101936B946B0101AE6B0D
:10461000E4CF03F0E4CF02F0E4CF00F0120000C0DA
:10462000E5FF01C500F005010051600BD8A461D081
:104630000050050A09E1010E0101A86F040E0101F5
:10464000AB6F02C59DF155D00050060A03E1B6ECF0
:1046500020F04FD00050090A12E1010E0101A86FAD
:1046600002C5ACF10101AC5104E1040E0101AB6FD4
:1046700040D0050E0101AB6F47EC2BF03AD0005053
:10468000080A0FE1010E0101A86F010E01018C6FF4
:10469000AC0E8B6F800E8D6F010E0101916F926BCE
:1046A00028D0005003E1A3EC1FF023D00050010AF2
:1046B00003E00050030A03E1E9EC1DF01AD00050BA
:1046C0000A0A11E1010E0101A86F0501406B050EF8
:1046D00001018C6F400E8B6F800E8D6F010E0101FA
:1046E000916F926B06D000500B0A03E1010E01019D
:1046F000A86FE4CF00F01200D9CFE5FFE1CFD9FFDA
:1047000000C0E5FF01C0E5FF02C0E5FF03C0E5FF13
:1047100004C0E5FF05C0E5FF020EDBCF00F0030E8D
:10472000DBCF01F01E0E005CD8B041D0B50E015CAD
:1047300002E3B40E016E9E0E0024026E036A040EA4
:104740000322800E0024046E056A040E052204C0B4
:10475000E9FF05C0EAFFEFCF04F002C0E9FF03C0A4
:10476000EAFFEFCF02F00450025E01500202F4CFE4
:1047700003F0F3CF01F0E56AB40EE56E0350E56E89
:104780000150E56EB1EC21F0016E040EE1260450FB
:104790000126026AD60E0026060E022200C0E9FF9C
:1047A00002C0EAFF01C0EFFF010E0101016FE4CF7B
:1047B00005F0E4CF04F0E4CF03F0E4CF02F0E4CF5F
:1047C00001F0E4CF00F0E4CFD9FF120000C0E5FF14
:1047D00001C0E5FF02C0E5FF03C0E5FF006A016A12
:1047E00077EC2BF0F3CF03F0010A02E1035001E074
:1047F00042D001019451800F800F02E1310E935D90
:1048000038E301019451800F800F02E1360E935D71
:1048100030E2CF0E01019325026EFA6AFB6A023480
:10482000FA36E834FA36FC0B380FE56E480EFA22F9
:10483000000EFB22E450F96E26EF24F02AEF24F05C
:104840002EEF24F032EF24F036EF24F0600E006EED
:10485000016A11D0900E006E016A0DD0400E006EFC
:10486000016A09D0200E006E016A05D0006A016A53
:1048700002D0006A016A00C084F101C085F1E4CF72
:1048800003F0E4CF02F0E4CF01F0E4CF00F0120037
:104890007F0E04010415046F7F0E0015006F0101E7
:1048A000AD6B0101A86B01019E6B0101916B926BD5
:1048B0000FEC23F01F0E05010015010A02E167EC61
:1048C00026F00101A8510BE1400E0401016F000E1A
:1048D000026F050E036F840E006F046F38D0050160
:1048E00000AF26D0010192510501075D04E10101ED
:1048F00091510501065D04E206C591F107C592F1EB
:10490000000EE56A6BEC17F0E652020E0101AD6F86
:10491000400E0401016F000E026F050E036F800E42
:10492000006F400E066F050E076FC80E046F0FD0A4
:10493000010E0101AD6F0401056BC80E046F400E3E
:10494000016F400E026F050E036FC80E006F6D9869
:104950001200D9CFE5FFE1CFD9FF00C0E5FF01C0CC
:10496000E5FF02C0E5FF03C0E5FF04C0E5FF05C0A9
:10497000E5FF020EDBCF00F0030EDBCF01F078EC99
:1049800016F0026EF3CF03F0F4CF04F0E9CF05F098
:10499000D8900532043203320232D8900532043204
:1049A00003320232E56A010EE56E860EE56EA00E58
:1049B000E56E0550E56E0450E56E0350E56E02505D
:1049C000E56E84EC1EF0026E080EE12600C004F0D5
:1049D00001C005F0FF0E002601220450051008E07A
:1049E0000250046EFD0E04260450F1EC1BF0EED7CD
:1049F000E4CF05F0E4CF04F0E4CF03F0E4CF02F01D
:104A0000E4CF01F0E4CF00F0E4CFD9FF1200936AC5
:104A1000010EE56E150EE56E38EC13F0E652E65227
:104A2000010EE56E160EE56E38EC13F0E652E65216
:104A3000010EE56E170EE56E38EC13F0E652E65205
:104A4000010EE56E180EE56E38EC13F0E652E652F4
:104A5000E56A190EE56E38EC13F0E652E652E56AA7
:104A60001A0EE56E38EC13F0E652E652E56A1B0EBC
:104A7000E56E38EC13F0E652E652E56A1C0EE56E80
:104A800038EC13F0E652E652080EE56E75EC15F0C0
:104A9000E652090EE56E75EC15F0E6520A0EE56E6B
:104AA00075EC15F0E6520B0EE56E75EC15F0E6525E
:104AB0000C0EE56E75EC15F0E652836A816A120001
:104AC000D9CFE5FFE1CFD9FF00C0E5FF01C0E5FF89
:104AD00002C0E5FF03C0E5FF04C0E5FF05C0E5FF38
:104AE00006C0E5FF07C0E5FF020EDBCF00F0030EB6
:104AF000DBCF01F0040EDBCF02F0050EDBCF03F0BD
:104B00000250046E0350056E066A076A0450F86E80
:104B10000150046E0250056E0350066E076A045081
:104B2000F76E0050F66E0900F5CF00F00900F5CFE2
:104B300001F0026A0150046E036A056A0050032600
:104B40000550042204C0F3FF0350E4CF07F0E4CF84
:104B500006F0E4CF05F0E4CF04F0E4CF03F0E4CFB7
:104B600002F0E4CF01F0E4CF00F0E4CFD9FF12006F
:104B7000D9CFE5FFE1CFD9FF00C0E5FF01C0E5FFD8
:104B800002C0E5FF03C0E5FF04C0E5FF05C0E5FF87
:104B900006C0E5FF07C0E5FF020EDBCF00F0030E05
:104BA000DBCF01F0040EDBCF02F0050EDBCF03F00C
:104BB000046A056A100E066E0150800BE844076E09
:104BC0000050002601360450042605360750D8A4AC
:104BD00004800350055C02E10250045C05E30250CE
:104BE000045E0350055A00800604076E07C006F0F5
:104BF0000750E2E101C0F3FF0050E4CF07F0E4CF3B
:104C000006F0E4CF05F0E4CF04F0E4CF03F0E4CF06
:104C100002F0E4CF01F0E4CF00F0E4CFD9FF1200BE
:104C200017EEFFF027EEFFF0F86AA68EA69CBF0EE7
:104C3000E96E0E0EEA6E0068ED6A0050FDE1CC0EE2
:104C4000F66E5A0EF76E000EF86E0900F5CF05F0FD
:104C50000900F5CF06F034D00900F5CF00F00900C7
:104C6000F5CF01F00900F5CF02F009000900F5CFFA
:104C7000E9FF0900F5CFEAFF090009000900F5CFB7
:104C800003F00900F5CF04F009000900F6CF07F0A2
:104C9000F7CF08F0F8CF09F000C0F6FF01C0F7FF2A
:104CA00002C0F8FF03D00900F5CFEEFF0306FBE2D8
:104CB0000406F9E207C0F6FF08C0F7FF09C0F8FFD5
:104CC0000506CAE20606C8E272EC2CF0FFD700C067
:104CD000E5FF600E05010015200A01E049D001C57D
:104CE00000F0005001E144D00050010A01E140D041
:104CF0000050200A07E00050210A13E00050220A69
:104D00001FE036D0040E01018C6FEA0E8B6F800E0F
:104D10008D6F070E0101916F926B010E0101A86F5B
:104D200027D0040E01018C6FEA0E8B6F800E8D6F01
:104D3000070E0101916F926B010E0101A86F18D04F
:104D400005010251030A04E1010E0101036F02D0C3
:104D50000101036B060E01018C6FF40E8B6F800E48
:104D60008D6F080E0101916F926B010E0101A86F0A
:104D7000E4CF00F0120000C0E5FF01C0E5FF02C073
:104D8000E5FF006AD60E0024016E026A060E0222BA
:104D900001C0E9FF02C0EAFFEF68800E0024016E47
:104DA000026A040E022201C0E9FF02C0EAFF400EBF
:104DB000EF6E9E0E0024016E026A040E022201C0F4
:104DC000E9FF02C0EAFFC00EEF6E002A1E0E005C73
:104DD000D9E3006AF10E0024016E026A040E022279
:104DE00001C0E9FF02C0EAFFEF6A002A050E005C7D
:104DF000F1E3F29EF29C010ECD6EFF0ECF68CE6AFB
:104E00009F809E909D80CD80F28EF28CE4CF02F048
:104E1000E4CF01F0E4CF00F0120000C0E5FF01C0D4
:104E2000E5FF02C0E5FF03C0E5FF04C0E5FF05C0E4
:104E3000E5FF06C0E5FF07C0E5FFF29EF29C140EF9
:104E40006F6E0101AB6B0101AA6B0101AC6B010E2E
:104E5000006E016A026A036A00C004F001C005F036
:104E600002C006F003C007F0002A04E3012A02E3AF
:104E7000024A032A045005100610071009E0010138
:104E8000AB51050A05E089EC2CF0AAEC2AF0E4D736
:104E9000A19AA08AA28AF28EF28CE4CF07F0E4CF26
:104EA00006F0E4CF05F0E4CF04F0E4CF03F0E4CF64
:104EB00002F0E4CF01F0E4CF00F0120000C0E5FF03
:104EC0006CB422D03C0E04010015006E0040E84096
:104ED0003F0B0D0A03E148EC24F03ED00101AD5137
:104EE000010A0FE1000EE56A4EEC1DF0E6520401E6
:104EF00000AD03D0880E006F2FD0C80E0401006FE4
:104F00002BD01DEC2DF028D0006A6CB4002A005084
:104F1000010A22E16E500BE10101AB51040A07E1E5
:104F200002C56EFF6E5003E1030E0101AB6F01017C
:104F3000AD51020A0FE1000EE56A6BEC17F0E65284
:104F4000040104AD03D0880E046F06D0C80E04011E
:104F5000046F02D01DEC2DF0E4CF00F01200D9CF89
:104F6000E5FFE1CFD9FF00C0E5FF01C0E5FF02C0CA
:104F7000E5FF03C0E5FF020EDBCF00F0030EDBCF41
:104F800001F0040EDBCF02F01E0E005C2EE2025098
:104F9000800F7B0F02E1DC0E015C04E2DC0E016E8F
:104FA000050E026E0250800F770F02E1C50E015C04
:104FB00004E3C40E016E090E026E036A9E0E002603
:104FC000040E03220C0E0126FE0E022202340232CF
:104FD000013202340232013202340232013200C0A4
:104FE000E9FF03C0EAFF01C0EFFFE4CF03F0E4CF25
:104FF00002F0E4CF01F0E4CF00F0E4CFD9FF1200DB
:10500000D9CFE5FFE1CFD9FF00C0E5FF01C0E5FF43
:1050100002C0E5FF03C0E5FF020EDBCF00F0030E88
:10502000DBCF01F0040EDBCF02F01E0E005C2EE29F
:105030000250800F7F0F02E1F40E015C04E2F40ED7
:10504000016E010E026E0250800F7B0F02E1DD0E39
:10505000015C04E3DC0E016E050E026E036A800E35
:105060000026040E03220C0E0126FE0E022202343C
:10507000023201320234023201320234023201328F
:1050800000C0E9FF03C0EAFF01C0EFFFE4CF03F077
:10509000E4CF02F0E4CF01F0E4CF00F0E4CFD9FF99
:1050A0001200D9CFE5FFE1CFD9FF00C0E5FF01C075
:1050B000E5FF02C0E5FF03C0E5FF020EDBCF00F015
:1050C000030EDBCF01F0040EDBCF02F0050EDBCFC9
:1050D00003F000500101956F0150966F02500101DD
:1050E000976F0350986F0101955101019703F4CF19
:1050F00001F0F3CF00F000500101996F01509A6F59
:105100000101955101019803F3CF00F0010196517F
:1051100001019703F3CF01F00150002601019A51DC
:10512000002600509A6F9AC1F3FF9951E4CF03F023
:10513000E4CF02F0E4CF01F0E4CF00F0E4CFD9FFF8
:105140001200D9CFE5FFE1CFD9FF00C0E5FF01C0D4
:10515000E5FF02C0E5FF03C0E5FF020EDBCF00F074
:105160000D0E005C0BE3150E005C08E2F30E00244C
:10517000016E0144E844FC0BC26E07D0060E005CD1
:1051800004E20044E844FC0BC26EC280090E006ECB
:10519000016A0000FF0E0026012200500110F9E113
:1051A000C282C2B2FED7C4CF00F0016A0050036EC3
:1051B000026AC3CF00F0016A0050022601500322A8
:1051C000C29003C0F3FF0250E4CF03F0E4CF02F03B
:1051D000E4CF01F0E4CF00F0E4CFD9FF1200D9CF43
:1051E000E5FFE1CFD9FF00C0E5FF01C0E5FF02C048
:1051F000E5FF03C0E5FF020EDBCF00F0030EDBCFBF
:1052000001F0040EDBCF02F000500B0A17E0005053
:105210000C0A25E10C0EBD6ED8900230036E0130F1
:10522000006ED890033200320050BE6E0150006E06
:10523000030E00160038F00BBD1211D00C0EBA6E22
:10524000D8900230036E0130006ED89003320032E5
:105250000050BB6E030E01160138F00BBA129E927D
:10526000E4CF03F0E4CF02F0E4CF01F0E4CF00F0AC
:10527000E4CFD9FF12000000000000000000000091
:10528000000000000000000000000000000000001E
:10529000000000000000000000000000000000000E
:1052A00000000000000000000000000000000000FE
:1052B00000000000000000000000000000000000EE
:1052C00000000000000000000000000000000000DE
:1052D00000000000000000000000000000000000CE
:1052E00000000000000000000000000000000000BE
:1052F00000000000000000000000000000000101AC
:105300009351620A02E1945101E00CD00E0EE56E59
:10531000000EE56E370EE56ED20EE56E2DEC20F038
:10532000040EE126010193516D0A02E1945101E05E
:1053300002D09EEC22F001019351650A02E19451E2
:1053400001E002D0B1EC1CF0010193516C0A02E1C2
:10535000945101E002D0E6EC23F001019351640A7C
:1053600002E1945101E002D037EC21F001019351A8
:10537000730A02E1945101E002D09FEC2CF012007C
:10538000D9CFE5FFE1CFD9FF00C0E5FF01C0E5FFC0
:1053900002C0E5FF03C0E5FF04C0E5FF05C0E5FF6F
:1053A000020EDBCF00F0030EDBCF01F0040EDBCFEB
:1053B00002F0036A046A00C0E9FF01C0F3FF025073
:1053C000EDEC2CF0056E002A02E3014A022A05509A
:1053D00003E0034A042AEFD704C0F3FF0350E4CFED
:1053E00005F0E4CF04F0E4CF03F0E4CF02F0E4CF23
:1053F00001F0E4CF00F0E4CFD9FF1200D8CFE5FFF1
:10540000E0CFE5FFE56EF3CFE5FFF4CFE5FFE9CFB1
:10541000E5FFEACFE5FFFACFE5FFFBCFE5FFD9CF08
:10542000E5FFE1CFD9FFF6CFE5FFF7CFE5FFF8CFF6
:10543000E5FFF5CFE5FF4DEC2DF016EC2CF0E4CFB9
:10544000F5FFE4CFF8FFE4CFF7FFE4CFF6FFE4CFBA
:10545000D9FFE4CFFBFFE4CFFAFFE4CFEAFFE4CFCC
:10546000E9FFE4CFF4FFE4CFF3FFE450E4CFE0FF43
:10547000E4CFD8FF1000D8CFE5FFE0CFE5FFE56E21
:10548000F3CFE5FFF4CFE5FFE9CFE5FFEACFE5FF96
:10549000FACFE5FFFBCFE5FFD9CFE5FFE1CFD9FF9D
:1054A000F6CFE5FFF7CFE5FFF8CFE5FFF5CFE5FF56
:1054B000E4CFF5FFE4CFF8FFE4CFF7FFE4CFF6FF4A
:1054C000E4CFD9FFE4CFFBFFE4CFFAFFE4CFEAFF5C
:1054D000E4CFE9FFE4CFF4FFE4CFF3FFE450E4CFFF
:1054E000E0FFE4CFD8FF1000D9CFE5FFE1CFD9FF2F
:1054F00000C0E5FF020EDBCF00F00101AB51050A51
:1055000024E10101035121E004011CBF1ED0005021
:105510000501C06F010E04011D6F400E1C151C6FAC
:10552000006A1CBD002A0050D880E866D890006A46
:1055300000360050010BE840E840F46E1C51BF0BF0
:10554000F4101C6F880E1C111C6FE4CF00F0E4CF28
:10555000D9FF120000C0E5FF0101AB512EE068A4A5
:1055600003D069B46DEC2DF0006A6DB2002A0050D2
:10557000010A23E068A003D069B0F4EC2BF068A81E
:1055800003D069B8DCEC2CF068AC03D069BC02EC49
:1055900006F068AA03D069BA0EEC2DF068A202D01A
:1055A00069B26892030E0101AB5D07E368A605D0FE
:1055B00069A603D05EEC27F06896E4CF00F01200F5
:1055C000D9CFE5FFE1CFD9FF00C0E5FF01C0E5FF7E
:1055D00002C0E5FF03C0E5FF020EDBCF00F0030EC3
:1055E000DBCF01F0E56AE56A0150E56E0050E56E3B
:1055F000B2EC1AF0006EF3CF01F0F4CF02F0E9CF75
:1056000003F0040EE12603C0E9FF02C0F4FF01C06D
:10561000F3FF0050E4CF03F0E4CF02F0E4CF01F059
:10562000E4CF00F0E4CFD9FF1200D9CFE5FFE1CFFE
:10563000D9FF00C0E5FF01C0E5FF02C0E5FF03C0E0
:10564000E5FF04C0E5FF020EDBCF00F0030EDBCF69
:1056500001F0040EDBCF02F0050EDBCF03F0060EE7
:10566000DBCFE9FF070EDBCFEAFF080EDBCF04F04C
:1056700032EC0DF0E4CF04F0E4CF03F0E4CF02F01D
:10568000E4CF01F0E4CF00F0E4CFD9FF1200040131
:10569000EA6BC20EEB6F010EEC6FED6BEE6BEF6B16
:1056A000080EF06F0601F46BF56BF66BF76BF86B99
:1056B000F96BFA6BFB6B1A0E726E1E0E736EDA0EBE
:1056C0000401166F040E176F400E146F196F800ED1
:1056D0001A6F050E1B6F880E186FC00E1E6F050E19
:1056E0001F6F400E1C6F050E0101AB6F120000C052
:1056F000E5FF01C0E5FF800EE56E010EE56E040ECC
:10570000E56E14EC1FF0006E030EE12600C0AEF152
:105710000050F1E0040E0101AE25006E016A010E99
:10572000012200C0E9FF01C0EAFFEF6AAE5107E0C5
:1057300004C193F10101946BF36A010E02D0F36A84
:10574000E86AE4CF01F0E4CF00F01200D9CFE5FF22
:10575000E1CFD9FF00C0E5FF01C0E5FF02C0E5FFD2
:1057600003C0E5FF020EDBCF00F0030EDBCF01F03C
:10577000040EDBCF02F0050EDBCF03F0060EDBCF0D
:10578000E9FF070EDBCFEAFFB3EC10F0E4CF03F044
:10579000E4CF02F0E4CF01F0E4CF00F0E4CFD9FF92
:1057A0001200D9CFE5FFE1CFD9FF00C0E5FF01C06E
:1057B000E5FF020EDBCF00F01E0E005C02E3E86A9C
:1057C0000CD0016AD60E0026060E012200C0E9FFA9
:1057D00001C0EAFFEFCF00F00050E4CF01F0E4CFCA
:1057E00000F0E4CFD9FF120000C0E5FF6A6A686AE2
:1057F0009F0E6B6E7B0E696E6E6A160E706E006A7F
:1058000068B6002A0050010A02E16896F8D76D9840
:105810001DEC2DF00101AA6B0101A96B0101AC6B1C
:10582000030E0101AB6FE4CF00F012009EA01FD069
:10583000010100510BE02AEC2DF0E90ECF6E590E5C
:10584000CE6E010ECD6E0101006B10D010EC1CF07D
:10585000320ECF6EEB0ECE6E01010151D8A40EECCC
:1058600006F0210ECD6E010E0101006F9E90120018
:10587000D9CFE5FFE1CFD9FF00C0E5FF01C0E5FFCB
:10588000020EDBCF00F00050E56E4BEC18F0016E1D
:10589000E65201700150E56E0050E56E09EC12F021
:1058A000E652E652E4CF01F0E4CF00F0E4CFD9FFB6
:1058B000120001C0E5FF01018451836E77EC2BF0EB
:1058C000F3CF01F0010A02E1015001E002D07FECC8
:1058D00029F00101936B946B0101AE6BECD7E4CF1F
:1058E00001F01200D350030B800F7E0F02E3D3A40C
:1058F000FED7B4EC2CF006EC06F00DEC27F056ECDD
:105900002DF0BBEC26F007EC25F059EC2CF0FDD780
:1059100012006DB606D06D6A696A6D86010E0101CE
:10592000AB6F0101AB51010A09E16DBA07D0686A9A
:10593000696A69806988020E0101AB6F120001C0BB
:10594000E5FF77EC2BF0F3CF01F0010A02E1015003
:1059500001E007D001019351816E936B946B0101BB
:10596000AE6BE4CF01F01200896A8A6A8B6A8C6A96
:105970008D6A926A936A949094929494949C949E63
:10598000956A966A806A816A826A836A846A12006A
:10599000D9CFE5FFE1CFD9FF00C0E5FF020EDBCF95
:1059A00000F0005004E00050010A01E1C188E4CF9A
:1059B00000F0E4CFD9FF1200D9CFE5FFE1CFD9FF46
:1059C000698468986D82A19AF290A08AF286030099
:1059D000A09AF296E4CFD9FF1200E8AE04D0F3CF3C
:1059E000EAFFEE501200E8BC75EF2DF0E9CFF6FFAC
:1059F000F3CFF7FFF86E0900F5501200F2CFEAFF7F
:105A0000F29EA69EA69CA684E9CFA9FFE4CFA8FF9C
:105A10005EEC2DF0A694EABEF28E120000C0E5FF07
:105A2000006A70B0002A0050010A03E11DEC2DF05D
:105A30007090689AE4CF00F012000101AD6B400E47
:105A40000401016F000E026F050E036F880E006FD8
:105A5000046B12000401F1518012F2518112F351D2
:105A60008212F4518312F55184121200F2CFF6FF24
:105A7000F29EA69EA69CE9CFA9FFA680A850F6BEDE
:105A8000F28E1200E8AE05D0F3CFEAFFE4CFEEFFCE
:105A90001200E8BC77EF2DF01200A1AA06D0A19A5F
:105AA000AAEC2AF0689C68906A6A12002F0E921283
:105AB000070E9612C16EBD0EC06E1200550EA76E77
:105AC000AA0EA76EA682A6B2FED7A94A01007652F8
:105AD000000000010000870000006D926994689446
:105AE0001200CB68040ECA6E120036EF2DF0FEEFE6
:025AF0002CF098
:00000001FF
