:020000040000FA
:100C000048EF32F0C96E120009EF37F00000000023
:100C100000000000000000007EEF37F000C0E5FF9C
:100C200001C0E5FF02C0E5FF03C0E5FF04C0E5FF2A
:100C300005C0E5FF06C0E5FF07017C6B1E0E07013E
:100C40007C5DD8B066D0CA0E7C25006E016A060EA7
:100C5000012200C0E9FF01C0EAFFEF687C51050DE9
:100C6000F450016EF3CF00F0000E0026050E0122B5
:100C700000C0E9FF01C0EAFFEF6A7C51050DF450A6
:100C8000016EF3CF00F0000E0026050E0122004A8F
:100C9000012A00C0E9FF01C0EAFFEF6A7C51050D9F
:100CA000F450016EF3CF00F0000E0026050E012275
:100CB000020E0026D8B0012A00C0E9FF01C0EAFFF9
:100CC000EF6A7C51050DF450016EF3CF00F0000E79
:100CD0000026050E0122030E0026D8B0012A00C00E
:100CE000E9FF01C0EAFFEF6A7C51050DF450016E87
:100CF000F3CF00F0000E0026050E0122040E0026A0
:100D0000D8B0012A00C0E9FF01C0EAFFEF6A7C2BDE
:100D100095D707017C6B050E07017C5D0DE22F0E58
:100D20007C25006E016A070E012200C0E9FF01C0A8
:100D3000EAFFEF6A7C2BEFD707017D6B07017C6B25
:100D40001E0E07017D5DD8B021EF0DF0010E0701E9
:100D50007E6F07017F6B1E0E07017F5DD8B09DEF90
:100D60000CF0240E7F25006E016A610E0122026ADA
:100D7000000E022200C0F6FF01C0F7FF02C0F8FF1C
:100D80000900F5CF00F0050E005CD8B099EF0CF02B
:100D9000FA6AFB6A0034FA36E834FA36FC0BAE0F16
:100DA000E56E0D0EFA22000EFB22E450F96EE1EF23
:100DB00006F002EF08F027EF09F050EF0AF076EFA7
:100DC0000BF0060E07017F25006E016A610E0122FD
:100DD000026A000E022200C0F6FF01C0F7FF02C047
:100DE000F8FF0900F5CF00F007012F5100160701A9
:100DF0002A5100160050D8A499EF0CF0AC0E070150
:100E00007F25006E016A060E012200C0E9FF01C0C5
:100E1000EAFFEFCF00F0CA0E07017C25016E026ADF
:100E2000060E022201C0E9FF02C0EAFFEFCF01F087
:100E30000150005CD8B08DD0CA0E7C25006E016ACE
:100E4000060E0122AC0E07017F25026E036A060E14
:100E5000032202C0E9FF03C0EAFFEFCF02F000C0A7
:100E6000E9FF01C0EAFF02C0EFFF07017C51050D59
:100E7000F450016EF3CF00F0000E0026050E0122A3
:100E8000060E07017F25026E036A610E0322046AC3
:100E9000000E042202C0F6FF03C0F7FF04C0F8FFF3
:100EA0000900F5CF02F000C0E9FF01C0EAFF02C06F
:100EB000EFFF07017C51050DF450016EF3CF00F0F8
:100EC000000E0026050E0122004A012A00C0E9FF9B
:100ED00001C0EAFFEF6A7C51050DF450016EF3CFBB
:100EE00000F0000E0026050E0122020E0026D8B0EA
:100EF000012A00C0E9FF01C0EAFFEF6A7C51050D3D
:100F0000F450016EF3CF00F0000E0026050E012212
:100F1000030E0026D8B0012A00C0E9FF01C0EAFF95
:100F2000EF6A7C51050DF450016EF3CF00F0000E16
:100F30000026050E0122040E0026D8B0012A00C0AA
:100F4000E9FF01C0EAFFEF6A010E07017E6F99EF2A
:100F50000CF0AC0E07017F25006E016A060E01221F
:100F600000C0E9FF01C0EAFFEFCF00F0CA0E0701A1
:100F70007C25016E026A060E022201C0E9FF02C052
:100F8000EAFFEFCF01F00050011802E099EF0CF0FA
:100F900007017C51050DF450016EF3CF00F0000EF7
:100FA0000026050E01227C51050DF450036EF3CF8F
:100FB00002F0000E0226050E0322060E07017F2511
:100FC000046E056A610E0522066A000E062204C040
:100FD000F6FF05C0F7FF06C0F8FF0900F5CF04F0E3
:100FE00002C0E9FF03C0EAFFEFCF02F00250041293
:100FF00000C0E9FF01C0EAFF04C0EFFF07017E2B3C
:1010000099EF0CF0060E07017F25006E016A610E54
:101010000122026A000E022200C0F6FF01C0F7FFA3
:1010200002C0F8FF0900F5CF00F0070130510016AB
:1010300007012B5100160050D8A499EF0CF0AC0E0C
:1010400007017F25006E016A060E012200C0E9FF3C
:1010500001C0EAFFEFCF00F0CA0E07017C25016E48
:10106000026A060E022201C0E9FF02C0EAFFEFCFCA
:1010700001F00150005CD8B08DD0CA0E7C25006E06
:10108000016A060E0122AC0E07017F25026E036A7B
:10109000060E032202C0E9FF03C0EAFFEFCF02F011
:1010A00000C0E9FF01C0EAFF02C0EFFF07017C5169
:1010B000050DF450016EF3CF00F0000E0026050E72
:1010C000012200C0E9FF01C0EAFFEF6A7C51050D73
:1010D000F450016EF3CF00F0000E0026050E012241
:1010E000004A012A060E07017F25026E036A610E7F
:1010F0000322046A000E042202C0F6FF03C0F7FFB9
:1011000004C0F8FF0900F5CF02F000C0E9FF01C0FC
:10111000EAFF02C0EFFF07017C51050DF450016E9C
:10112000F3CF00F0000E0026050E0122020E00266D
:10113000D8B0012A00C0E9FF01C0EAFFEF6A7C5184
:10114000050DF450016EF3CF00F0000E0026050EE1
:101150000122030E0026D8B0012A00C0E9FF01C019
:10116000EAFFEF6A7C51050DF450016EF3CF00F0F9
:10117000000E0026050E0122040E0026D8B0012A1A
:1011800000C0E9FF01C0EAFFEF6A010E07017E6FB0
:1011900099EF0CF0AC0E07017F25006E016A060E78
:1011A000012200C0E9FF01C0EAFFEFCF00F0CA0E44
:1011B00007017C25016E026A060E022201C0E9FFCA
:1011C00002C0EAFFEFCF01F00050011802E099EFF2
:1011D0000CF007017C51050DF450016EF3CF00F0C7
:1011E000000E0026050E0122004A012A7C51050D41
:1011F000F450036EF3CF02F0000E0226050E032218
:10120000024A032A060E07017F25046E056A610E55
:101210000522066A000E062204C0F6FF05C0F7FF8D
:1012200006C0F8FF0900F5CF04F002C0E9FF03C0D3
:10123000EAFFEFCF02F00250041200C0E9FF01C044
:10124000EAFF04C0EFFF07017E2B99EF0CF0060EBA
:1012500007017F25006E016A610E0122026A000EFD
:10126000022200C0F6FF01C0F7FF02C0F8FF09002C
:10127000F5CF00F007013151001607012C5100167F
:101280000050D8A499EF0CF0AC0E07017F25006E3A
:10129000016A060E012200C0E9FF01C0EAFFEFCF9C
:1012A00000F0CA0E07017C25016E026A060E0222BA
:1012B00001C0E9FF02C0EAFFEFCF01F00150005C7E
:1012C000D8B08DD0CA0E7C25006E016A060E0122B0
:1012D000AC0E07017F25026E036A060E032202C0D0
:1012E000E9FF03C0EAFFEFCF02F000C0E9FF01C051
:1012F000EAFF02C0EFFF07017C51050DF450016EBB
:10130000F3CF00F0000E0026050E012200C0E9FF19
:1013100001C0EAFFEF6A7C51050DF450016EF3CF76
:1013200000F0000E0026050E0122004A012A00C02E
:10133000E9FF01C0EAFFEF6A7C51050DF450016E30
:10134000F3CF00F0000E0026050E0122020E00264B
:10135000D8B0012A060E07017F25026E036A610ECE
:101360000322046A000E042202C0F6FF03C0F7FF46
:1013700004C0F8FF0900F5CF02F000C0E9FF01C08A
:10138000EAFF02C0EFFF07017C51050DF450016E2A
:10139000F3CF00F0000E0026050E0122030E0026FA
:1013A000D8B0012A00C0E9FF01C0EAFFEF6A7C5112
:1013B000050DF450016EF3CF00F0000E0026050E6F
:1013C0000122040E0026D8B0012A00C0E9FF01C0A6
:1013D000EAFFEF6A010E07017E6F99EF0CF0AC0E89
:1013E00007017F25006E016A060E012200C0E9FF99
:1013F00001C0EAFFEFCF00F0CA0E07017C25016EA5
:10140000026A060E022201C0E9FF02C0EAFFEFCF26
:1014100001F00050011802E099EF0CF007017C5137
:10142000050DF450016EF3CF00F0000E0026050EFE
:101430000122020E0026D8B0012A7C51050DF4507D
:10144000036EF3CF02F0000E0226050E0322020EF9
:101450000226D8B0032A060E07017F25046E056A0E
:10146000610E0522066A000E062204C0F6FF05C0C2
:10147000F7FF06C0F8FF0900F5CF04F002C0E9FF4E
:1014800003C0EAFFEFCF02F00250041200C0E9FFF0
:1014900001C0EAFF04C0EFFF07017E2B99EF0CF0BB
:1014A000060E07017F25006E016A610E0122026AA5
:1014B000000E022200C0F6FF01C0F7FF02C0F8FFD5
:1014C0000900F5CF00F007013251001607012D5138
:1014D00000160050D8A499EF0CF0AC0E07017F2540
:1014E000006E016A060E012200C0E9FF01C0EAFF9A
:1014F000EFCF00F0CA0E07017C25016E026A060ECE
:10150000022201C0E9FF02C0EAFFEFCF01F0015063
:10151000005CD8B08CD0CA0E7C25006E016A060E25
:101520000122AC0E07017F25026E036A060E03221C
:1015300002C0E9FF03C0EAFFEFCF02F000C0E9FFFD
:1015400001C0EAFF02C0EFFF07017C51050DF45016
:10155000016EF3CF00F0000E0026050E012200C040
:10156000E9FF01C0EAFFEF6A7C51050DF450016EFE
:10157000F3CF00F0000E0026050E0122004A012ADA
:1015800000C0E9FF01C0EAFFEF6A7C51050DF4508D
:10159000016EF3CF00F0000E0026050E0122020EB0
:1015A0000026D8B0012A00C0E9FF01C0EAFFEF6AB7
:1015B0007C51050DF450016EF3CF00F0000E0026B3
:1015C000050E0122030E0026D8B0012A060E0701DF
:1015D0007F25026E036A610E0322046A000E042254
:1015E00002C0F6FF03C0F7FF04C0F8FF0900F5CF03
:1015F00002F000C0E9FF01C0EAFF02C0EFFF0701EF
:101600007C51050DF450016EF3CF00F0000E002662
:10161000050E0122040E0026D8B0012A00C0E9FF01
:1016200001C0EAFFEF6A010E07017E6F82D1AC0EA6
:1016300007017F25006E016A060E012200C0E9FF46
:1016400001C0EAFFEFCF00F0CA0E07017C25016E52
:10165000026A060E022201C0E9FF02C0EAFFEFCFD4
:1016600001F00050011801E064D107017C51050D23
:10167000F450016EF3CF00F0000E0026050E01229B
:10168000030E0026D8B0012A7C51050DF450036EDC
:10169000F3CF02F0000E0226050E0322030E0226EF
:1016A000D8B0032A060E07017F25046E056A610E75
:1016B0000522066A000E062204C0F6FF05C0F7FFE9
:1016C00006C0F8FF0900F5CF04F002C0E9FF03C02F
:1016D000EAFFEFCF02F00250041200C0E9FF01C0A0
:1016E000EAFF04C0EFFF07017E2B23D1060E07019E
:1016F0007F25006E016A610E0122026A000E02223D
:1017000000C0F6FF01C0F7FF02C0F8FF0900F5CFE7
:1017100000F007013351001607012E51001600504A
:10172000D8A407D1AC0E07017F25006E016A060E12
:10173000012200C0E9FF01C0EAFFEFCF00F0CA0EAE
:1017400007017C25016E026A060E022201C0E9FF34
:1017500002C0EAFFEFCF01F00150005CD8B08BD09F
:10176000CA0E7C25006E016A060E0122AC0E07012E
:101770007F25026E036A060E032202C0E9FF03C042
:10178000EAFFEFCF02F000C0E9FF01C0EAFF02C0AC
:10179000EFFF07017C51050DF450016EF3CF00F00F
:1017A000000E0026050E012200C0E9FF01C0EAFF7D
:1017B000EF6A7C51050DF450016EF3CF00F0000E7E
:1017C0000026050E0122004A012A00C0E9FF01C0DF
:1017D000EAFFEF6A7C51050DF450016EF3CF00F083
:1017E000000E0026050E0122020E0026D8B0012AA6
:1017F00000C0E9FF01C0EAFFEF6A7C51050DF4501B
:10180000016EF3CF00F0000E0026050E0122030E3C
:101810000026D8B0012A00C0E9FF01C0EAFFEF6A44
:101820007C51050DF450016EF3CF00F0000E002640
:10183000050E0122040E0026D8B0012A060E07016B
:101840007F25026E036A610E0322046A000E0422E1
:1018500002C0F6FF03C0F7FF04C0F8FF0900F5CF90
:1018600002F000C0E9FF01C0EAFF02C0EFFF010E75
:1018700007017E6F5ED0AC0E07017F25006E016A06
:10188000060E012200C0E9FF01C0EAFFEFCF00F021
:10189000CA0E07017C25016E026A060E022201C0F3
:1018A000E9FF02C0EAFFEFCF01F00050011801E0AC
:1018B00040D007017C51050DF450016EF3CF00F0CC
:1018C000000E0026050E0122040E0026D8B0012AC3
:1018D0007C51050DF450036EF3CF02F0000E02268A
:1018E000050E0322040E0226D8B0032A060E0701B5
:1018F0007F25046E056A610E0522066A000E062227
:1019000004C0F6FF05C0F7FF06C0F8FF0900F5CFD9
:1019100004F002C0E9FF03C0EAFFEFCF02F002507B
:10192000041200C0E9FF01C0EAFF04C0EFFF070195
:101930007E2B07017F2BABEF06F007017C51050DD5
:10194000F450016EF3CF00F0000E0026050E0122C8
:1019500000C0E9FF01C0EAFFEFCF00F007012F51FF
:10196000001200502F6F07017C51050DF450016EDD
:10197000F3CF00F0000E0026050E0122004A012AD6
:1019800000C0E9FF01C0EAFFEFCF00F007013051CE
:1019900000120050306F07017C51050DF450016EAC
:1019A000F3CF00F0000E0026050E0122020E0026E5
:1019B000D8B0012A00C0E9FF01C0EAFFEFCF00F074
:1019C0000701315100120050316F07017C51050DA4
:1019D000F450016EF3CF00F0000E0026050E012238
:1019E000030E0026D8B0012A00C0E9FF01C0EAFFBB
:1019F000EFCF00F00701325100120050326F0701A3
:101A00007C51050DF450016EF3CF00F0000E00265E
:101A1000050E0122040E0026D8B0012A00C0E9FFFD
:101A200001C0EAFFEFCF00F0070133510012005070
:101A3000336F07017E5107017D2707017C2BA0EF43
:101A400006F00601F66BE4CF06F0E4CF05F0E4CF34
:101A500004F0E4CF03F0E4CF02F0E4CF01F0E4CFF0
:101A600000F01200D9CFE5FFE1CFD9FF00C0E5FFBC
:101A700001C0E5FF02C0E5FF03C0E5FF04C0E5FFCC
:101A800005C0E5FF06C0E5FF07C0E5FF08C0E5FFAC
:101A900009C0E5FF0AC0E5FF0BC0E5FF0CC0E5FF8C
:101AA0000DC0E5FF0EC0E5FF0FC0E5FF10C0E5FF6C
:101AB00011C0E5FF12C0E5FF13C0E5FF14C0E5FF4C
:101AC00015C0E5FF16C0E5FF17C0E5FF18C0E5FF2C
:101AD00019C0E5FF020EDBCF00F0030EDBCF01F0F3
:101AE000040EDBCF02F0050EDBCF03F0060EDBCFDA
:101AF00004F0070EDBCF05F0080EDBCF06F0090E71
:101B0000DBCF07F00A0EDBCF08F0096A020E0A6E7F
:101B100003C0E9FF04C0F3FF0550DDEC3AF00B6EA3
:101B20000B50D8B409EF12F00C6A0B50250A02E0F2
:101B3000F0EF11F00B6A0D6A032A02E3044A052A4A
:101B400003C0E9FF04C0F3FF0550DDEC3AF00E6E70
:101B50000E50D8B409EF12F00E50250A02E1F0EF52
:101B600011F00E502D0A06E1032A02E3044A052A69
:101B7000010E0B6E03C00EF004C00FF005C010F094
:101B80000EC0E9FF0FC0F3FF1050DDEC3AF0300A51
:101B90000AE10E2A02E30F4A102A0BC011F011824B
:101BA00011500B6EEDD70EC0E9FF0FC0F3FF1050C0
:101BB000DDEC3AF0116E300E115C13E33A0E115C5D
:101BC00010E20D500A0DF3CF0DF0D00E11260D507E
:101BD000126E115012240D6E0E2A02E30F4A102AC3
:101BE000E2D70EC003F00FC004F010C005F00EC025
:101BF000E9FF0FC0F3FF1050DDEC3AF02E0A34E19C
:101C00000E50010F036E000E0F20046E000E102008
:101C1000056E0A6A03C00EF004C00FF005C010F094
:101C20000EC0E9FF0FC0F3FF1050DDEC3AF0116E6B
:101C3000300E115C13E33A0E115C10E20A500A0DEB
:101C4000F3CF0AF0D00E11260A50126E1150122452
:101C50000A6E0E2A02E30F4A102AE2D70EC003F0E2
:101C60000FC004F010C005F003C0E9FF04C0F3FF8B
:101C70000550DDEC3AF00E6E660A01E040D00650E9
:101C8000040F0F6E000E0720106E000E0820116E5C
:101C90000FC006F010C007F011C008F0FC0E0F26B0
:101CA000FF0E102211220FC0E9FF10C0F3FF1150E8
:101CB00065EC39F00F6EF3CF10F0F4CF11F0E9CFEF
:101CC00012F00A50E56EE56A0B50E56E0D50E56EB8
:101CD0001250E56E1150E56E1050E56E0F50E56E36
:101CE0000250E56E0150E56E0050E56E5FEC16F0B7
:101CF0000F6E0B0EE1260F50092603EF12F00E5067
:101D0000730A01E052D00650030F0F6E000E072039
:101D1000106E000E0820116E0FC006F010C007F004
:101D200011C008F0FD0E0F26FF0E102211220FC069
:101D3000E9FF10C0F3FF1150FCEC39F00F6EF3CF48
:101D400010F0F4CF11F00FC012F010C013F011C05A
:101D500014F01010111007E012C00FF013C010F0B3
:101D600014C011F006D0000E116E610E106E420EFE
:101D70000F6E0B50E56E0D50E56E1150E56E105074
:101D8000E56E0F50E56E0250E56E0150E56E0050B5
:101D9000E56EF6EC27F00F6E080EE1260950106E86
:101DA0000F501024096E03EF12F00E506C0A06E17A
:101DB000032A02E3044A052A010E0C6E03C0E9FF60
:101DC00004C0F3FF0550DDEC3AF00E6E750A01E039
:101DD0006CD00C5023E00650040F0F6E000E07204D
:101DE000106E000E0820116E0FC006F010C007F034
:101DF00011C008F0FC0E0F26FF0E102211220FC09A
:101E0000E9FF10C0F3FF115065EC39F00F6EF3CF0E
:101E100010F0F4CF11F0E9CF12F024D00650020FE9
:101E2000136E000E0720146E000E0820156E13C0EE
:101E300006F014C007F015C008F0FE0E1326FF0EC2
:101E40001422152213C0E9FF14C0F3FF15508AECC9
:101E50003AF0136EF3CF14F013C00FF014C010F06B
:101E6000116A126A610EE56EE56A0B50E56E0D505F
:101E7000E56EE56A0A0EE56E0C50E56E1250E56EF1
:101E80001150E56E1050E56E0F50E56E0250E56E94
:101E90000150E56E0050E56EB6EC1CF0136E0E0EB0
:101EA000E1261350092603EF12F00E50640A04E0F5
:101EB0000E50690A01E075D00C5023E00650040F63
:101EC000136E000E0720146E000E0820156E13C04E
:101ED00006F014C007F015C008F0FC0E1326FF0E24
:101EE0001422152213C0E9FF14C0F3FF155065EC4E
:101EF00039F0136EF3CF14F0F4CF15F0E9CF16F0EC
:101F000024D00650020F176E000E0720186E000E28
:101F10000820196E17C006F018C007F019C008F0A5
:101F2000FE0E1726FF0E1822192217C0E9FF18C04F
:101F3000F3FF19508AEC3AF0176EF3CF18F017C080
:101F400013F018C014F0156A166A13C00FF014C00D
:101F500010F015C011F016C012F0610EE56EE56AC2
:101F60000B50E56E0D50E56E010EE56E0A0EE56E46
:101F70000C50E56E1250E56E1150E56E1050E56E96
:101F80000F50E56E0250E56E0150E56E0050E56EB3
:101F9000B6EC1CF0136E0E0EE1261350092603EF6B
:101FA00012F00E50780A04E00E50700A01E073D06F
:101FB0000C5023E00650040F136E000E0720146E21
:101FC000000E0820156E13C006F014C007F015C0EF
:101FD00008F0FC0E1326FF0E1422152213C0E9FF91
:101FE00014C0F3FF155065EC39F0136EF3CF14F005
:101FF000F4CF15F0E9CF16F024D00650020F176E7B
:10200000000E0720186E000E0820196E17C006F08B
:1020100018C007F019C008F0FE0E1726FF0E182290
:10202000192217C0E9FF18C0F3FF19508AEC3AF0E3
:10203000176EF3CF18F017C013F018C014F0156A1C
:10204000166A13C00FF014C010F015C011F016C0BE
:1020500012F0610EE56EE56A0B50E56E0D50E56E0F
:10206000E56A100EE56E0C50E56E1250E56E1150EB
:10207000E56E1050E56E0F50E56E0250E56E0150B2
:10208000E56E0050E56EB6EC1CF0136E0E0EE12608
:1020900013500926B8D10E50580A04E00E50500AC9
:1020A00001E073D00C5023E00650040F136E000EB5
:1020B0000720146E000E0820156E13C006F014C021
:1020C00007F015C008F0FC0E1326FF0E142215228F
:1020D00013C0E9FF14C0F3FF155065EC39F0136E1F
:1020E000F3CF14F0F4CF15F0E9CF16F024D006505A
:1020F000020F176E000E0720186E000E0820196ED2
:1021000017C006F018C007F019C008F0FE0E172619
:10211000FF0E1822192217C0E9FF18C0F3FF19504B
:102120008AEC3AF0176EF3CF18F017C013F018C00E
:1021300014F0156A166A13C00FF014C010F015C021
:1021400011F016C012F0410EE56EE56A0B50E56E17
:102150000D50E56EE56A100EE56E0C50E56E1250FE
:10216000E56E1150E56E1050E56E0F50E56E0250B1
:10217000E56E0150E56E0050E56EB6EC1CF0136E96
:102180000E0EE126135009263ED10E50620A01E0E0
:1021900073D00C5023E00650040F136E000E07207E
:1021A000146E000E0820156E13C006F014C007F060
:1021B00015C008F0FC0E1326FF0E1422152213C0C2
:1021C000E9FF14C0F3FF155065EC39F0136EF3CF3F
:1021D00014F0F4CF15F0E9CF16F024D00650020F1A
:1021E000176E000E0720186E000E0820196E17C01B
:1021F00006F018C007F019C008F0FE0E1726FF0EF3
:102200001822192217C0E9FF18C0F3FF19508AECF1
:102210003AF0176EF3CF18F017C013F018C014F08F
:10222000156A166A13C00FF014C010F015C011F033
:1022300016C012F0610EE56EE56A0B50E56E0D50AA
:10224000E56EE56A020EE56E0C50E56E1250E56E25
:102250001150E56E1050E56E0F50E56E0250E56EC0
:102260000150E56E0050E56EB6EC1CF0136E0E0EDC
:10227000E12613500926C7D00E506F0A01E073D033
:102280000C5023E00650040F136E000E0720146E4E
:10229000000E0820156E13C006F014C007F015C01C
:1022A00008F0FC0E1326FF0E1422152213C0E9FFBE
:1022B00014C0F3FF155065EC39F0136EF3CF14F032
:1022C000F4CF15F0E9CF16F024D00650020F176EA8
:1022D000000E0720186E000E0820196E17C006F0B9
:1022E00018C007F019C008F0FE0E1726FF0E1822BE
:1022F000192217C0E9FF18C0F3FF19508AEC3AF011
:10230000176EF3CF18F017C013F018C014F0156A49
:10231000166A13C00FF014C010F015C011F016C0EB
:1023200012F0610EE56EE56A0B50E56E0D50E56E3C
:10233000E56A080EE56E0C50E56E1250E56E115020
:10234000E56E1050E56E0F50E56E0250E56E0150DF
:10235000E56E0050E56EB6EC1CF00C6E0E0EE1263C
:102360000C50092650D00E50630A01E04CD00650A4
:10237000020F0C6E000E07200E6E000E08200F6E6E
:102380000CC006F00EC007F00FC008F0FE0E0C26C1
:10239000FF0E0E220F220CC0E9FF0EC0F3FF0F50FC
:1023A0008AEC3AF00501FE6FFF6B0B50E56E0D50A5
:1023B000E56E800EE56E050EE56EFE0EE56E0250D2
:1023C000E56E0150E56E0050E56EF6EC27F00B6E01
:1023D000080EE12609500C6E0B500C24096E13D028
:1023E00003C0E9FF04C0F3FF0550DDEC3AF0E56EF1
:1023F0000250E56E0150E56E0050E56E99EC2EF04E
:10240000040EE126092A032A02E3044A052A88EF7A
:102410000DF000500110021014E000C0E9FF01C0EF
:10242000F3FF0250FCEC39F0006EF3CF01F0F4CF73
:1024300002F0E56A00C0E9FF01C0F3FF025035EC8D
:102440003BF00950E4CF19F0E4CF18F0E4CF17F0D7
:10245000E4CF16F0E4CF15F0E4CF14F0E4CF13F09E
:10246000E4CF12F0E4CF11F0E4CF10F0E4CF0FF09E
:10247000E4CF0EF0E4CF0DF0E4CF0CF0E4CF0BF09E
:10248000E4CF0AF0E4CF09F0E4CF08F0E4CF07F09E
:10249000E4CF06F0E4CF05F0E4CF04F0E4CF03F09E
:1024A000E4CF02F0E4CF01F0E4CF00F0E4CFD9FFB5
:1024B0001200D9CFE5FFE1CFD9FF00C0E5FF01C091
:1024C000E5FF02C0E5FF03C0E5FF04C0E5FF05C06E
:1024D000E5FF06C0E5FF07C0E5FF08C0E5FF09C04E
:1024E000E5FF0AC0E5FF0BC0E5FF0CC0E5FF0DC02E
:1024F000E5FF0EC0E5FF0FC0E5FF10C0E5FF11C00E
:10250000E5FF12C0E5FF13C0E5FF14C0E5FF15C0ED
:10251000E5FF16C0E5FF17C0E5FF18C0E5FF19C0CD
:10252000E5FF1AC0E5FF1BC0E5FF1CC0E5FF1DC0AD
:10253000E5FF1EC0E5FF020EDBCF00F0030EDBCF90
:1025400001F0040EDBCF02F0050EDBCF03F0060E28
:10255000DBCF04F0070EDBCF05F0080EDBCF06F073
:10256000090EDBCF07F00A0EDBCF08F0096A0A6A12
:1025700002C00DF00D50800A0DE102500701726F8C
:102580000150716F0050706F070E016E700E006E7B
:10259000800E026E03C0E9FF04C0F3FF0550DDECBE
:1025A0003AF00B6E0B50D8B415EF16F00B50250A0D
:1025B00002E0FCEF15F00C6A0D6A0E6A0F6A106AF1
:1025C0000A0E116E126A136A146A200E156E1668CE
:1025D000176A2B0E186E032A02E3044A052A03C069
:1025E000E9FF04C0F3FF0550DDEC3AF0196E250A4F
:1025F00013E11950E56E0250E56E0150E56E005092
:10260000E56E10EC2EF0040EE126094A0A2A032A90
:1026100002E3044A052ABED71950300A06E1300EFB
:10262000156E032A02E3044A052A03C0E9FF04C029
:10263000F3FF0550DDEC3AF02D0A06E1010E146EB1
:10264000032A02E3044A052A03C0E9FF04C0F3FF9A
:102650000550DDEC3AF0200A08E1010E176E200E5D
:10266000186E032A02E3044A052A03C0E9FF04C0E6
:10267000F3FF0550DDEC3AF02B0A06E1010E176E70
:10268000032A02E3044A052A03C0E9FF04C0F3FF5A
:102690000550DDEC3AF0196E800F4F0F2DE3195005
:1026A000800F460F29E203C019F004C01AF005C0DC
:1026B0001BF019C0E9FF1AC0F3FF1B50DDEC3AF024
:1026C0001C6E800F500F12E31C50800F460F0EE25D
:1026D00013500A0DF3CF1DF01D501C26D00E1C24E4
:1026E000136E192A02E31A4A1B2AE3D719C003F012
:1026F0001AC004F01BC005F003C0E9FF04C0F3FFDB
:102700000550DDEC3AF02E0A2EE1032A02E3044ADA
:10271000052A166A03C019F004C01AF005C01BF0A0
:1027200019C0E9FF1AC0F3FF1B50DDEC3AF01C6E34
:10273000800F500F12E31C50800F460F0EE2165010
:102740000A0DF3CF1DF01D501C26D00E1C24166E52
:10275000192A02E31A4A1B2AE3D719C003F01AC048
:1027600004F01BC005F003C0E9FF04C0F3FF0550EF
:10277000DDEC3AF0196E6C0A07E1010E0C6E032ACB
:1027800002E3044A052A09D01950680A06E1010E3D
:102790000E6E032A02E3044A052A03C0E9FF04C0BF
:1027A000F3FF0550DDEC3AF0750A06E1010E106EFC
:1027B000032A02E3044A052A03C0E9FF04C0F3FF29
:1027C0000550DDEC3AF0196E730A05E1010E0D6E4D
:1027D000200E156E3FD01950780A03E1100E116ECD
:1027E00039D01950580A05E1100E116E010E126E03
:1027F00031D01950630A02E1116A2CD019506F0AC6
:1028000003E1080E116E26D01950660A03E1010E8D
:102810000F6E20D01950640A1DE01950690A1AE0A1
:10282000105005E0FF0E03260422052213D0195094
:10283000E56E0250E56E0150E56E0050E56E10EC5D
:102840002EF0040EE126094A0A2A032A02E3044A6A
:10285000052AA0D60D5021E00650030F0D6E000E84
:102860000720196E000E08201A6E0DC006F019C060
:1028700007F01AC008F0FD0E0D26FF0E19221A22CD
:102880000DC0E9FF19C0F3FF1A50FCEC39F00D6ED2
:10289000F3CF19F0F4CF1AF000D10F500DE0000E75
:1028A0001A6E2C0E196EB20E0D6E040E0626000E58
:1028B000072208221668F1D016680C5023E0065053
:1028C000040F0C6E000E07200F6E000E08201B6E0A
:1028D0000CC006F00FC007F01BC008F0FC0E0C2661
:1028E000FF0E0F221B220CC0E9FF0FC0F3FF1B508D
:1028F00065EC39F00C6EF3CF0FF0F4CF1BF0E9CF9D
:102900001CF06AD00E5032E00650020F0E6E000E20
:1029100007201D6E000E08201E6E0EC006F01DC0A2
:1029200007F01EC008F0FE0E0E26FF0E1D221E220E
:102930000EC0E9FF1DC0F3FF1E508AEC3AF00E6E88
:102940000EC00CF0E86A0EBEFF0E0F6E1B6E1C6E02
:1029500011500A0A03E11050D8B43ED00C500E6E4C
:102960000EC00CF00F6A1B6A1C6A36D00650020FAC
:102970000E6E000E07201D6E000E08201E6E0EC08B
:1029800006F01DC007F01EC008F0FE0E0E26FF0E5A
:102990001D221E220EC0E9FF1DC0F3FF1E508AEC4F
:1029A0003AF00E6EF3CF1DF00EC00CF01DC00FF00C
:1029B000E86A1DBEFF0E1B6E1C6E11500A0A02E172
:1029C00010500AE00C500E6E0F501D6E0EC00CF031
:1029D0001DC00FF01B6A1C6A060E196EE90E0D6E03
:1029E000800E1A6E1150D8B440D0105013E0115020
:1029F000E56E060EE56EE90EE56E1C50E56E1B50A9
:102A0000E56E0F50E56E0C50E56E1AEC27F0070EE0
:102A1000E12612D01150E56E060EE56EE90EE56E68
:102A20001C50E56E1B50E56E0F50E56E0C50E56EC8
:102A3000D4EC30F0070EE12617502FE00DC0E9FF6F
:102A400019C0F3FF1A50DDEC3AF02D0A26E0FF0E14
:102A50000D2619221A2218C0E5FF0DC0E9FF19C082
:102A6000F3FF1A5035EC3BF018D00CC0E5FF0DC059
:102A7000E9FF19C0F3FF1A5035EC3BF00D50010F80
:102A80000C6E000E19200E6E000E1A20E56A0CC0A6
:102A9000E9FF0EC0F3FF35EC3BF00DC00CF019C0A0
:102AA0000EF01AC00FF013C010F0105010E00CC060
:102AB000E9FF0EC0F3FF0F50DDEC3AF0176E175030
:102AC00006E00C2A02E30E4A0F2A1006EED710C0C9
:102AD00013F014501EE109C00CF00AC00EF010C033
:102AE0000FF00F5010E01550E56E0250E56E0150EA
:102AF000E56E0050E56E10EC2EF0040EE1260C4A57
:102B00000E2A0F06EED70CC009F00EC00AF00FC057
:102B100013F016C00CF00DC00DF019C00EF01AC065
:102B20000FF009C010F00AC015F00DC0E9FF0EC08B
:102B3000F3FF0F50DDEC3AF0166E1650D8B43ED0CD
:102B40000CC016F0176A161E171E1650171005E057
:102B50000CC016F00C06165031E00DC0E9FF0EC097
:102B6000F3FF0F50DDEC3AF0116E125010E01150EF
:102B7000E56E47EC3AF0166EE652165004E011503E
:102B8000166E169A02D011C016F016C011F0115030
:102B9000E56E0250E56E0150E56E0050E56E10ECFA
:102BA0002EF0040EE1260D2A02E30E4A0F2A104AE7
:102BB000152A1350D8B4B9D71306B7D710C009F0E7
:102BC00015C00AF014502BE010C00CF015C00DF029
:102BD00013C00EF00E501FE0200EE56E0250E56EA1
:102BE0000150E56E0050E56E10EC2EF0040EE1266B
:102BF0000C4A0D2A0E06EED70B50E56E0250E56E1C
:102C00000150E56E0050E56E10EC2EF0040EE1264A
:102C1000094A0A2A04D00CC009F00DC00AF0032AA0
:102C200002E3044A052ACAEF12F00AC0F3FF095072
:102C3000E4CF1EF0E4CF1DF0E4CF1CF0E4CF1BF096
:102C4000E4CF1AF0E4CF19F0E4CF18F0E4CF17F096
:102C5000E4CF16F0E4CF15F0E4CF14F0E4CF13F096
:102C6000E4CF12F0E4CF11F0E4CF10F0E4CF0FF096
:102C7000E4CF0EF0E4CF0DF0E4CF0CF0E4CF0BF096
:102C8000E4CF0AF0E4CF09F0E4CF08F0E4CF07F096
:102C9000E4CF06F0E4CF05F0E4CF04F0E4CF03F096
:102CA000E4CF02F0E4CF01F0E4CF00F0E4CFD9FFAD
:102CB00012003C4E4F20464C4F41543E0000D9CFAD
:102CC000E5FFE1CFD9FF00C0E5FF01C0E5FF02C08D
:102CD000E5FF03C0E5FF04C0E5FF05C0E5FF06C052
:102CE000E5FF07C0E5FF08C0E5FF09C0E5FF0AC032
:102CF000E5FF0BC0E5FF0CC0E5FF0DC0E5FF0EC012
:102D0000E5FF0FC0E5FF10C0E5FF11C0E5FF12C0F1
:102D1000E5FF13C0E5FF14C0E5FF15C0E5FF16C0D1
:102D2000E5FF17C0E5FF18C0E5FF19C0E5FF1AC0B1
:102D3000E5FF1BC0E5FF1CC0E5FF1DC0E5FF1EC091
:102D4000E5FF1FC0E5FF020EDBCF00F0030EDBCF77
:102D500001F0040EDBCF02F0050EDBCF03F0060E10
:102D6000DBCF04F0070EDBCF05F0080EDBCF06F05B
:102D7000090EDBCF07F00A0EDBCF08F00C0EDBCF1D
:102D800009F00A6A0B6A0C6A0D6A0E6A0F6A106A09
:102D9000116A050E136EF20E126E800E146E070E7F
:102DA000166E000E156E800E176E186A0B0E196ED9
:102DB00003500701386F0450396F05503A6F0650C1
:102DC0003B6FD8803BAFD89025E3075014E008C094
:102DD00003F003A210D02D0EE56E0250E56E0150F7
:102DE000E56E0050E56E99EC2EF0040EE126010E22
:102DF000186E07060FD02D0EE56E12C0E9FF13C046
:102E0000F3FF145035EC3BF0122A02E3134A142A64
:102E10000A0E196E07013A353B35036E046A810EBE
:102E200003263851046E3951056E7F0E3A15066E31
:102E30001A6A068E0350800F610F21E32B0E0501E5
:102E4000F26F690EF36F6E0EF46F660EF56FF66B30
:102E50000850E56E0750E56E800EE56E050EE56ED6
:102E6000F20EE56E0250E56E0150E56E0050E56E23
:102E7000F6EC27F01B6E080EE1261B5093D1035091
:102E8000800F970F09E20A6A0B6A0C6A0D6A0E6AD4
:102E90000F6A106A116A75D00350800F690F17E32B
:102EA00003501B6EE90E1B2604C00AF005C00BF090
:102EB00006C00CF01AC00DF01B5008E0E86CD8906A
:102EC0000A360B360C360D36010FFAE35AD0D8808D
:102ED00003AED89031E203501B6E17081C6E04C07D
:102EE0000AF005C00BF006C00CF01AC00DF01C5023
:102EF00008E0E86CD8900D320C320B320A32010F28
:102F0000FAE31B2A04C01CF005C01DF006C01EF029
:102F10001AC01FF01B5008E0E86CD8901C361D3614
:102F20001E361F36010FFAE31C500E6E1D500F6E39
:102F30001E50106E116A25D01A6A1B6A03BE1B68E8
:102F4000034A1B2A1B1E036CD8B41B2A04C00EF0B4
:102F500005C00FF006C010F01AC011F0035011E0C8
:102F600009E6E86CD890113210320F320E32010FA0
:102F7000FAE307D0D8900E360F3610361136010F0F
:102F8000FAE30A500B100C100D100FE1300EE56E35
:102F900012C0E9FF13C0F3FF145035EC3BF0122AC6
:102FA00002E3134A142A190678D015C003F016C09C
:102FB00004F017C005F0066A19C015F00A500B108E
:102FC0000C100D10D8B43CD0E56AE56AE56A0A0E2B
:102FD000E56E0D50E56E0C50E56E0B50E56E0A5037
:102FE000E56E5DEC2CF0166E080EE126300E16260E
:102FF00016C0E5FF03C0E9FF04C0F3FF055035EC40
:103000003BF0032A02E3044A052AE56AE56AE56A19
:103010000A0EE56E0D50E56E0C50E56E0B50E56E38
:103020000A50E56EFAEC2CF00A6EF3CF0BF0F4CFF9
:103030000CF0E9CF0DF0080EE126062A1506BED7E2
:1030400015C019F012C00AF013C00BF014C00CF038
:1030500006C00DF006060D501AE0FF0E03260422EE
:10306000052203C0E9FF04C0F3FF0550DDEC3AF090
:103070000D6E0DC0E5FF0AC0E9FF0BC0F3FF0C5059
:1030800035EC3BF00A2AE4E30B4A0C2AE1D70AC0EC
:1030900012F00BC013F00CC014F0070E095C02E331
:1030A000060E096E0950195CD8A019C009F0010E6E
:1030B000095CD8A057D02E0EE56E12C0E9FF13C0F0
:1030C000F3FF145035EC3BF0122A02E3134A142AA2
:1030D00012C003F013C004F014C005F0066A0950D2
:1030E000065C3AE20E500E240A6E0F340B6E10345A
:1030F0000C6E11340D6E0A500A260B360C360D3646
:103100000A500A260B360C360D360E500E24156E5C
:103110000F34166E1034176E1134196E15500A24C0
:103120000E6E16500B200F6E17500C20106E19509B
:103130000D200A6E300E0A260AC0E5FF03C0E9FF23
:1031400004C0F3FF055035EC3BF0032A02E3044AC8
:10315000052A116A062AC3D703C012F004C013F06F
:1031600005C014F0E56A12C0E9FF13C0F3FF145064
:1031700035EC3BF00850E56E0750E56E800EE56ECD
:10318000050EE56EF20EE56E0250E56E0150E56E3D
:103190000050E56EF6EC27F0006E080EE1261850A0
:1031A00000260050E4CF1FF0E4CF1EF0E4CF1DF066
:1031B000E4CF1CF0E4CF1BF0E4CF1AF0E4CF19F019
:1031C000E4CF18F0E4CF17F0E4CF16F0E4CF15F019
:1031D000E4CF14F0E4CF13F0E4CF12F0E4CF11F019
:1031E000E4CF10F0E4CF0FF0E4CF0EF0E4CF0DF019
:1031F000E4CF0CF0E4CF0BF0E4CF0AF0E4CF09F019
:10320000E4CF08F0E4CF07F0E4CF06F0E4CF05F018
:10321000E4CF04F0E4CF03F0E4CF02F0E4CF01F018
:10322000E4CF00F0E4CFD9FF1200D9CFE5FFE1CF22
:10323000D9FF00C0E5FF01C0E5FF02C0E5FF03C004
:10324000E5FF04C0E5FF05C0E5FF06C0E5FF07C0D8
:10325000E5FF08C0E5FF09C0E5FF0AC0E5FF0BC0B8
:10326000E5FF0CC0E5FF0DC0E5FF0EC0E5FF0FC098
:10327000E5FF10C0E5FF020EDBCF00F0030EDBCF51
:1032800001F0040EDBCF02F0050EDBCF03F0060EDB
:10329000DBCF04F0070EDBCF05F0080EDBCF06F026
:1032A000090EDBCF07F0086A096A0A6A0B6A005048
:1032B00007013C6F01503D6F02503E6F03503F6F5E
:1032C00004500701406F0550416F0650426F075090
:1032D000436F07013C513D113E113F1109E143C7C6
:1032E000E9FF42C7F4FF41C7F3FF070140514FD147
:1032F0000701405141114211431109E13FC7E9FF64
:103300003EC7F4FF3DC7F3FF07013C5140D1070121
:103310003E353F35006E016A0136026A036A016A72
:10332000026A036A070142354335026E190F046EC3
:10333000000E0320800FF36E0150800FF35C02E15A
:103340000050045C09E23FC7E9FF3EC7F4FF3DC7F8
:10335000F3FF07013C511BD10050190F046E000E02
:103360000120800FF36E0350800FF35C02E10250E6
:10337000045C09E243C7E9FF42C7F4FF41C7F3FF1A
:103380000701405104D107013C51046E3D51056EC7
:103390007F0E3E15066E076A068E070140510C6EC1
:1033A00041510D6E7F0E42150E6E0F6A0E8E070193
:1033B0003F51800BE844106E10500AE0071E061EB5
:1033C000051E046C05E1052A03E1062AD8B4072A84
:1033D00007014351800BE844106E10500AE00F1EA5
:1033E0000E1E0D1E0C6C05E10D2A03E10E2AD8B449
:1033F0000F2A0350800FF36E0150800FF35C02E13F
:103400000050025C1BE20250005C106E0350015839
:10341000105032E00BE6E86CD8900FBED8800F3227
:103420000E320D320C32010FF8E326D0D8900C3654
:103430000D360E360F36010FFAE31ED00050025C37
:10344000106E01500358105013E00BE6E86CD89052
:1034500007BED8800732063205320432010FF8E386
:1034600007D0D8900436053606360736010FFAE342
:1034700002C000F003C001F00C5004260D500522DC
:103480000E5006220F500722D88007AED89010E3C6
:10349000071E061E051E046C05E1052A03E1062A27
:1034A000D8B4072A086A096A0A6A800E0B6E0AD025
:1034B000045005100610071005E1E96AF46AF36A82
:1034C000E86A65D00450026E0550036E06500C6E1B
:1034D00007500D6E000E0D5C08E1800E0C5C05E1DE
:1034E000000E035C02E1000E025C09E204500426B7
:1034F000053606360736FF0E00260122E3D70450B4
:10350000026E0550036E06500C6E07500D6E10E0F3
:1035100004A006D0020E0426000E05220622072271
:1035200007340732063205320432004A012AE7D74F
:103530000250046E0350056E7F0E0C14066E0D5083
:10354000076EE86A013000300F6E0E6A0E320C6AA8
:103550000C50081209120E500A120F500B12045090
:1035600008120550091206500A1207500B12085093
:1035700007013C6F09503D6F0A503E6F0B503F6F83
:103580003FC7E9FF3EC7F4FF3DC7F3FF3C51E4CF1F
:1035900010F0E4CF0FF0E4CF0EF0E4CF0DF0E4CF65
:1035A0000CF0E4CF0BF0E4CF0AF0E4CF09F0E4CF65
:1035B00008F0E4CF07F0E4CF06F0E4CF05F0E4CF65
:1035C00004F0E4CF03F0E4CF02F0E4CF01F0E4CF65
:1035D00000F0E4CFD9FF1200D9CFE5FFE1CFD9FF4A
:1035E00000C0E5FF01C0E5FF02C0E5FF03C0E5FF45
:1035F00004C0E5FF05C0E5FF06C0E5FF07C0E5FF25
:1036000008C0E5FF09C0E5FF0AC0E5FF0BC0E5FF04
:103610000CC0E5FF0EC0E5FF0FC0E5FF020EDBCFDB
:1036200000F0030EDBCF01F0040EDBCF02F0050E3D
:10363000DBCF03F0060EDBCF04F0070EDBCF05F087
:10364000080EDBCF06F0090EDBCF07F000500701B4
:10365000446F0150456F0250466F0350476F04504E
:103660000701486F0550496F06504A6F07504B6F6E
:103670000701445145114611471106E00701485121
:1036800049114A114B1105E1E96AF46AF36AE86AE3
:103690004CD107014751800BE844006E07014B51A4
:1036A000800BE844001A070146354735016E036A6E
:1036B000046A026A820E0126FF0E022203220422FD
:1036C00007014A354B35036E046A01C007F002C09A
:1036D00008F007500326085004220350016E0450DE
:1036E000026E07014451036E4551046E7F0E46156C
:1036F000056E058E0350446F0450456F0550466FAC
:10370000476B07014851036E4951046E7F0E4A15FD
:10371000056E058E0350486F0450496F05504A6F7F
:103720004B6B07014551036E4651046E4751056EC0
:1037300007014951076E4A51086E4B51E56AE56E23
:103740000850E56E0750E56EE56A0550E56E0450D9
:10375000E56E0350E56E23EC22F0036EF3CF04F028
:10376000F4CF05F0E9CF06F0080EE1260701445139
:10377000076E070149510B6E4A510C6E4B51E56AB9
:10378000E56E0C50E56E0B50E56EE56AE56AE56A9C
:103790000750E56E23EC22F0F3CF08F0F4CF09F0E8
:1037A000E9CF0AF0080EE1260850076E0950086EAE
:1037B0000A50096E0A6A075003260850042209506D
:1037C00005220A50062207014851076E070145519C
:1037D0000B6E46510C6E4751E56AE56E0C50E56E76
:1037E0000B50E56EE56AE56AE56A0750E56E23EC85
:1037F00022F0F3CF08F0F4CF09F0E9CF0AF0080E79
:10380000E1260850076E0950086E0A50096E0A6AD0
:103810000750032608500422095005220A500622A8
:10382000400E0326000E04220522062206AE0ED00C
:10383000400E0326000E0422052206220450036EC9
:103840000550046E0650056E066A11D00334043428
:10385000036E046A04360550E844FE0B0412053476
:103860000634056E066A0636FF0E01260222059E04
:103870000250800F7F0F02E1000E015C19E300503F
:1038800006E0076A086A096A800E0A6E04D0076AB1
:10389000086A096A0A6A098E7F0E0A120750070130
:1038A000446F0850456F0950466F0A50476F35D036
:1038B000D88002AED89006E30701446B456B466B97
:1038C000476B2BD0005006E0006A076A086A800E3A
:1038D000096E04D0006A076A086A096AE86A023059
:1038E00001300F6E0E6A0E320C6A0C500012071275
:1038F0000E5008120F500912005003120750041204
:10390000085005120950061203500701446F045075
:10391000456F0550466F0650476F47C7E9FF46C7DA
:10392000F4FF45C7F3FF07014451E4CF0FF0E4CFA4
:103930000EF0E4CF0CF0E4CF0BF0E4CF0AF0E4CFCC
:1039400009F0E4CF08F0E4CF07F0E4CF06F0E4CFCD
:1039500005F0E4CF04F0E4CF03F0E4CF02F0E4CFCD
:1039600001F0E4CF00F0E4CFD9FF1200D9CFE5FF9A
:10397000E1CFD9FF00C0E5FF01C0E5FF02C0E5FFD0
:1039800003C0E5FF04C0E5FF05C0E5FF06C0E5FF95
:1039900007C0E5FF08C0E5FF09C0E5FF0AC0E5FF75
:1039A0000BC0E5FF0CC0E5FF0DC0E5FF0EC0E5FF55
:1039B0000FC0E5FF10C0E5FF11C0E5FF12C0E5FF35
:1039C00013C0E5FF14C0E5FF15C0E5FF16C0E5FF15
:1039D00017C0E5FF18C0E5FF19C0E5FF1AC0E5FFF5
:1039E0001BC0E5FF020EDBCF00F0030EDBCF01F0C2
:1039F000040EDBCF02F0050EDBCF03F0060EDBCFAB
:103A000004F0070EDBCF05F0080EDBCF06F0090E41
:103A1000DBCF07F00A0EDBCF08F00B0EDBCF09F08F
:103A20000C0EDBCF0AF00D0EDBCF0BF00F0EDBCF51
:103A30000CF00D6A0E6A03C00FF004C010F005C050
:103A400011F006C012F003500410051006101BE11F
:103A5000300E0501E66FE76B0B50E56E0A50E56E20
:103A6000800EE56E050EE56EE60EE56E0250E56E23
:103A70000150E56E0050E56EF6EC27F0136E080E6F
:103A8000E1261350EED0095036E008500A0A33E11F
:103A900007501CE00350096E0450136E0550146E5D
:103AA0000650156ED88015AED89010E3010E0D6E3D
:103AB000151C126E141C116E131C106E091C0F6E57
:103AC0000F2A04E1102A02E1114A122A075013E1D9
:103AD000D88004AED8900FE3010E0D6E041E036C67
:103AE000D8B4042A03C00FF004C010F0E86A04BE82
:103AF000FF0E116E126E050E046EF10E036E800E37
:103B0000056EE56A03C0E9FF04C0F3FF35EC3BF046
:103B100003C006F004C007F005C009F00F501010F4
:103B200011101210D8B45AD008C013F0146A156AD4
:103B3000166AE56AE56AE56A1350E56E1250E56EAD
:103B40001150E56E1050E56E0F50E56E5DEC2CF0F7
:103B5000176EF3CF18F0F4CF19F0E9CF1AF0080E72
:103B6000E126000E1A5C08E1000E195C05E1000E6A
:103B7000185C02E10A0E175C06E30CC01BF0C60ECF
:103B80001B261B501726FF0E062607220922300E81
:103B9000172617C0E5FF06C0E9FF07C0F3FF09506D
:103BA00035EC3BF01650E56E1550E56E1450E56EA1
:103BB0001350E56E1250E56E1150E56E1050E56E33
:103BC0000F50E56EFAEC2CF00F6EF3CF10F0F4CF3F
:103BD00011F0E9CF12F0080EE126A0D706C003F0DD
:103BE00007C004F009C005F00D5023E00A5014E0AE
:103BF0000BC006F006A210D02D0EE56E0250E56E49
:103C00000150E56E0050E56E99EC2EF0040EE126B1
:103C1000010E0E6E0A060DD0FF0E032604220522A9
:103C20002D0EE56E03C0E9FF04C0F3FF055035EC2F
:103C30003BF00B50E56E0A50E56E0550E56E045002
:103C4000E56E0350E56E0250E56E0150E56E0050E2
:103C5000E56EF6EC27F0006E080EE1260E50002609
:103C60000050E4CF1BF0E4CF1AF0E4CF19F0E4CF1A
:103C700018F0E4CF17F0E4CF16F0E4CF15F0E4CF5E
:103C800014F0E4CF13F0E4CF12F0E4CF11F0E4CF5E
:103C900010F0E4CF0FF0E4CF0EF0E4CF0DF0E4CF5E
:103CA0000CF0E4CF0BF0E4CF0AF0E4CF09F0E4CF5E
:103CB00008F0E4CF07F0E4CF06F0E4CF05F0E4CF5E
:103CC00004F0E4CF03F0E4CF02F0E4CF01F0E4CF5E
:103CD00000F0E4CFD9FF1200D9CFE5FFE1CFD9FF43
:103CE00000C0E5FF01C0E5FF02C0E5FF03C0E5FF3E
:103CF00004C0E5FF020EDBCF00F0030EDBCF01F0C6
:103D0000240E0024026E036A610E0322046A000E70
:103D1000042202C0F6FF03C0F7FF04C0F8FF090049
:103D2000F5CF02F0050E025CD8B011D1FA6AFB6A39
:103D30000234FA36E834FA36FC0B4A0FE56E3D0ED3
:103D4000FA22000EFB22E450F96EAFEF1EF0E1EF15
:103D50001EF013EF1FF045EF1FF077EF1FF001503B
:103D600015E0060E0024026E036A610E0322046A47
:103D7000000E042202C0F6FF03C0F7FF04C0F8FFE4
:103D80000900F5CF02F002508912E1D0060E00249E
:103D9000026E036A610E0322046A000E042202C04E
:103DA000F6FF03C0F7FF04C0F8FF0900F5CF02F0EB
:103DB0000250FF08026E8950036E02500314896E90
:103DC000C6D0015015E0060E0024026E036A610E93
:103DD0000322046A000E042202C0F6FF03C0F7FFAC
:103DE00004C0F8FF0900F5CF02F002508A12AFD0EC
:103DF000060E0024026E036A610E0322046A000E9E
:103E0000042202C0F6FF03C0F7FF04C0F8FF090058
:103E1000F5CF02F00250FF08026E8A50036E025086
:103E200003148A6E94D0015015E0060E0024026E31
:103E3000036A610E0322046A000E042202C0F6FF28
:103E400003C0F7FF04C0F8FF0900F5CF02F00250ED
:103E50008B127DD0060E0024026E036A610E0322CF
:103E6000046A000E042202C0F6FF03C0F7FF04C07C
:103E7000F8FF0900F5CF02F00250FF08026E8B50E8
:103E8000036E025003148B6E62D0015015E0060ED3
:103E90000024026E036A610E0322046A000E0422EB
:103EA00002C0F6FF03C0F7FF04C0F8FF0900F5CF1A
:103EB00002F002508C124BD0060E0024026E036AF0
:103EC000610E0322046A000E042202C0F6FF03C042
:103ED000F7FF04C0F8FF0900F5CF02F00250FF0819
:103EE000026E8C50036E025003148C6E30D0015061
:103EF00015E0060E0024016E026A610E0222036ABA
:103F0000000E032201C0F6FF02C0F7FF03C0F8FF56
:103F10000900F5CF01F001508D1219D0016A026A33
:103F2000060E0026610E0122000E022200C0F6FFDE
:103F300001C0F7FF02C0F8FF0900F5CF00F0005004
:103F4000FF08006E8D50016E005001148D6EE4CF9D
:103F500004F0E4CF03F0E4CF02F0E4CF01F0E4CFCB
:103F600000F0E4CFD9FF1200D9CFE5FFE1CFD9FFB0
:103F700000C0E5FF01C0E5FF02C0E5FF03C0E5FFAB
:103F800004C0E5FF020EDBCF00F0030EDBCF01F033
:103F9000240E0024026E036A610E0322046A000EDE
:103FA000042202C0F6FF03C0F7FF04C0F8FF0900B7
:103FB000F5CF02F0050E025CD8B011D1FA6AFB6AA7
:103FC0000234FA36E834FA36FC0BDA0FE56E3F0EAF
:103FD000FA22000EFB22E450F96EF7EF1FF029EFF2
:103FE00020F05BEF20F08DEF20F0BFEF20F00150CC
:103FF00015E0060E0024026E036A610E0322046AB5
:10400000000E042202C0F6FF03C0F7FF04C0F8FF51
:104010000900F5CF02F002509212E1D0060E002402
:10402000026E036A610E0322046A000E042202C0BB
:10403000F6FF03C0F7FF04C0F8FF0900F5CF02F058
:104040000250FF08026E9250036E02500314926EEB
:10405000C6D0015015E0060E0024026E036A610E00
:104060000322046A000E042202C0F6FF03C0F7FF19
:1040700004C0F8FF0900F5CF02F002509312AFD050
:10408000060E0024026E036A610E0322046A000E0B
:10409000042202C0F6FF03C0F7FF04C0F8FF0900C6
:1040A000F5CF02F00250FF08026E9350036E0250EB
:1040B0000314936E94D0015015E0060E0024026E96
:1040C000036A610E0322046A000E042202C0F6FF96
:1040D00003C0F7FF04C0F8FF0900F5CF02F002505B
:1040E00094127DD0060E0024026E036A610E032234
:1040F000046A000E042202C0F6FF03C0F7FF04C0EA
:10410000F8FF0900F5CF02F00250FF08026E94504C
:10411000036E02500314946E62D0015015E0060E37
:104120000024026E036A610E0322046A000E042258
:1041300002C0F6FF03C0F7FF04C0F8FF0900F5CF87
:1041400002F0025095124BD0060E0024026E036A54
:10415000610E0322046A000E042202C0F6FF03C0AF
:10416000F7FF04C0F8FF0900F5CF02F00250FF0886
:10417000026E9550036E02500314956E30D00150BC
:1041800015E0060E0024016E026A610E0222036A27
:10419000000E032201C0F6FF02C0F7FF03C0F8FFC4
:1041A0000900F5CF01F00150961219D0016A026A98
:1041B000060E0026610E0122000E022200C0F6FF4C
:1041C00001C0F7FF02C0F8FF0900F5CF00F0005072
:1041D000FF08006E9650016E00500114966EE4CFF9
:1041E00004F0E4CF03F0E4CF02F0E4CF01F0E4CF39
:1041F00000F0E4CFD9FF1200D9CFE5FFE1CFD9FF1E
:1042000000C0E5FF01C0E5FF02C0E5FF03C0E5FF18
:1042100004C0E5FF05C0E5FF06C0E5FF07C0E5FFF8
:1042200008C0E5FF09C0E5FF020EDBCF00F0030E7A
:10423000DBCF01F00050026EE56AE56EB4EC1FF0D2
:10424000E652E652E56A0250E56E6CEC1EF0E6526C
:10425000E652E56A140EE56E37EC31F0E652E652AE
:10426000010EE56E0250E56E6CEC1EF0E652E65271
:10427000E56A1E0EE56E4BEC38F0E652E652010E92
:10428000E56E0250E56EB4EC1FF0E652E652E56AC8
:10429000280EE56E4BEC38F0E652E6520250E56E21
:1042A00027EC26F0036EE652046AE56A500EE56ECE
:1042B0004BEC38F0E652E6520250E56E27EC26F061
:1042C000026EE652056AE56A280EE56E4BEC38F0A0
:1042D000E652E65203500410D8A48DD00250010AD1
:1042E00002E1055001E087D0026A036A046A056AA8
:1042F000180E0424066E070E0520076E0150E56EA9
:104300000050E56EBCEC2BF0086EF3CF09F0E652DE
:10431000E65206C0E9FF07C0EAFF08C0EEFF09C089
:10432000EFFF020E0426D8B0052A024A032A0350E2
:10433000800F800F02E1050E025CDAE318C700F07F
:1043400019C701F007011A510024026E1C51022600
:104350001E5102261F51036A2051021803E1215108
:10436000031801E036D0005007010C6F01500D6FAB
:1043700007011A5107010E6F07011B5107010F6F4B
:1043800007011C510701106F07011D510701116F33
:1043900007011E510701126F07011F510701136F1B
:1043A000070120510701146F070121510701156F03
:1043B0004A0EF66E610EF76E000EF86E0900F5CF2C
:1043C00000F00900F5CF01F00050166F0150176F93
:1043D00023D04C0EF66E610EF76E000EF86E0900DB
:1043E000F5CF00F00900F5CF01F000500701166F7E
:1043F0000150176F11D04E0EF66E610EF76E000E63
:10440000F86E0900F5CF00F00900F5CF01F000507B
:104410000701166F0150176FE4CF09F0E4CF08F0E1
:10442000E4CF07F0E4CF06F0E4CF05F0E4CF04F0EA
:10443000E4CF03F0E4CF02F0E4CF01F0E4CF00F0EA
:10444000E4CFD9FF1200D9CFE5FFE1CFD9FF00C0FB
:10445000E5FF01C0E5FF02C0E5FF03C0E5FF04C0C2
:10446000E5FF05C0E5FF06C0E5FF07C0E5FF020E5A
:10447000DBCF00F0030EDBCF01F0040EDBCF02F048
:10448000050EDBCF03F0060EDBCF04F0070EDBCF0B
:1044900005F0080EDBCF06F0090EDBCF07F0005069
:1044A00007014C6F01504D6F02504E6F03504F6F1C
:1044B00004500701506F0550516F0650526F07505E
:1044C000536F07014C5107015203F4CF01F0F3CFB2
:1044D00000F000500701566F0150576F07014C5113
:1044E00007015003F4CF01F0F3CF00F000500701B3
:1044F000546F0150556F07014F5107015003F3CF1F
:1045000000F00701575100260050576F07014E5128
:1045100007015103F3CF00F0070157510026005067
:10452000576F07014E5107015003F4CF01F0F3CF4D
:1045300000F0070156510026575101220050566FD6
:104540000150576F07014D5107015103F4CF01F09E
:10455000F3CF00F0070156510026575101220050B9
:10456000566F0150576F07014D5107015203F3CFAA
:1045700000F0005007015B6F07014D510701500328
:10458000F4CF01F0F3CF00F000500701596F015054
:104590005A6F07014C5107015303F3CF00F000504D
:1045A00007015F6F07014C5107015103F4CF01F080
:1045B000F3CF00F0005007015D6F01505E6F0701FF
:1045C000586B07015C6B0701585107015425006EB9
:1045D0000701595107015521016E07015A51070181
:1045E0005621026E07015B5107015721036E0050EF
:1045F000546F0150556F0250566F0350576F0701AB
:104600005C5107015425006E07015D5107015521DA
:10461000016E07015E5107015621026E07015F51CD
:1046200007015721036E03C0E9FF02C0F4FF01C078
:10463000F3FF0050E4CF07F0E4CF06F0E4CF05F03D
:10464000E4CF04F0E4CF03F0E4CF02F0E4CF01F0D4
:10465000E4CF00F0E4CFD9FF120000C0E5FF01C0B5
:10466000E5FF02C0E5FF03C0E5FF270EE56E020E81
:10467000E56E100EE56E07EC30F0030EE12673ECEC
:1046800038F0E56A020EE56EF0EC37F0E652E652DD
:10469000E56A020EE56E37EC31F0E652E65210C7DD
:1046A00000F011C701F0E56A640EE56E07011351D1
:1046B000E56E1251E56E90EC2FF0026EF3CF03F031
:1046C000040EE12602500026035001220150E56E3F
:1046D0000050E56E44EC37F0006EF3CF01F0F4CFFC
:1046E00002F0E9CF03F0E652E6520350E56E0250C5
:1046F000E56E0150E56E0050E56E3F0EE56EE60E8C
:10470000E56E660EE56EE56EECEC1AF0006EF3CF2A
:1047100001F0F4CF02F0E9CF03F0080EE126420EDB
:10472000E56EE56AE56AE56A0350E56E0250E56EFE
:104730000150E56E0050E56E15EC19F00601FB6FB7
:10474000F3CFFCF6F4CFFDF6E9CFFEF6080EE12636
:10475000070EE56ED00EE56E37EC31F0E652E6520C
:10476000500EF66E610EF76E000EF86E0900F5CF72
:1047700000F00900F5CF01F00150E56E0050E56E44
:10478000FCEC20F0E652E6524A0EF66E610EF76E31
:10479000000EF86E0900F5CF00F00900F5CF01F02A
:1047A00007011651001803E11751011801E069D7FC
:1047B00007011351E56E1251E56E1151E56E10516E
:1047C000E56E000EE56E610EE56E520EE56E800E32
:1047D000E56E050EE56E960EE56E86EC2DF00A0E82
:1047E000E12607010F51E56E0E51E56E0D51E56EA4
:1047F0000C51E56E000EE56E610EE56E5E0EE56E27
:10480000800EE56E060EE56E000EE56E86EC2DF070
:104810000A0EE126800EE56E050EE56E960EE56E3B
:10482000B7EC37F0030EE126010EE56E000EE56AE7
:1048300043EC34F0E652E652800EE56E060EE56E6D
:10484000000EE56EB7EC37F0030EE1261AD7E4CF81
:1048500003F0E4CF02F0E4CF01F0E4CF00F0120067
:10486000D9CFE5FFE1CFD9FF00C0E5FF01C0E5FFEB
:1048700002C0E5FF03C0E5FF04C0E5FF020EDBCF89
:1048800000F01E0E005CD8B0E1D0240E0024016EB2
:10489000026A610E0222036A000E032201C0F6FFC3
:1048A00002C0F7FF03C0F8FF0900F5CF01F0050EC5
:1048B000015CD8B0CBD0FA6AFB6A0134FA36E8342E
:1048C000FA36FC0BD40FE56E480EFA22000EFB22DE
:1048D000E450F96E74EF24F098EF24F0BCEF24F06C
:1048E000E0EF24F004EF25F0060E0024016E026ACA
:1048F000610E0222036A000E032201C0F6FF02C00D
:10490000F7FF03C0F8FF0900F5CF04F007012A51B3
:10491000041204502A6F01C0F6FF02C0F7FF03C063
:10492000F8FF0900F5CF01F0011E015092168ED05C
:10493000060E0024016E026A610E0222036A000E56
:10494000032201C0F6FF02C0F7FF03C0F8FF090011
:10495000F5CF04F007012B51041204502B6F01C056
:10496000F6FF02C0F7FF03C0F8FF0900F5CF01F022
:10497000011E015093166AD0060E0024016E026AD1
:10498000610E0222036A000E032201C0F6FF02C07C
:10499000F7FF03C0F8FF0900F5CF04F007012C5121
:1049A000041204502C6F01C0F6FF02C0F7FF03C0D1
:1049B000F8FF0900F5CF01F0011E0150941646D012
:1049C000060E0024016E026A610E0222036A000EC6
:1049D000032201C0F6FF02C0F7FF03C0F8FF090081
:1049E000F5CF04F007012D51041204502D6F01C0C2
:1049F000F6FF02C0F7FF03C0F8FF0900F5CF01F092
:104A0000011E0150951622D0016A026A060E002688
:104A1000610E0122000E022200C0F6FF01C0F7FF66
:104A200002C0F8FF0900F5CF03F007012E51031271
:104A300003502E6F00C0F6FF01C0F7FF02C0F8FF61
:104A40000900F5CF00F0001E00509616E4CF04F0E8
:104A5000E4CF03F0E4CF02F0E4CF01F0E4CF00F0C4
:104A6000E4CFD9FF120000C0E5FF01C0E5FF02C09E
:104A7000E5FF03C0E5FF04C0E5FF05C0E5FFD35037
:104A8000030B006E0050D8A491D0E56A300EE56E9D
:104A9000000EE56AE56A9FEC32F0006E040EE12636
:104AA000180E0016016AD89001320032D8900132F7
:104AB0000032D89001320032E20E0024016E026A08
:104AC000600E0222036A000E032201C0F6FF02C03C
:104AD000F7FF03C0F8FF0900F5CF01F0E56A300EDB
:104AE000E56EE56A010EE56E9FEC32F0026E040E93
:104AF000E1260F0E0216DE0E0024036E046A600E1D
:104B00000422056A000E052203C0F6FF04C0F7FF69
:104B100005C0F8FF0900F5CF00F0D890023202502E
:104B200006E00250020A03E00250060A1FE1E56AAD
:104B3000E56AE56A0150E56EE56A7A0EE56E120EE9
:104B4000E56E000EE56ACAEC28F0016EF3CF02F0C4
:104B5000F4CF03F0E9CF04F0080EE12604C0E9FF2A
:104B600003C0F4FF02C0F3FF015064D0E56AE56AB8
:104B7000E56A0050E56E050EE56EB80EE56ED80EDE
:104B8000E56E000EE56AFAEC2CF0006EF3CF01F052
:104B9000F4CF02F0E9CF03F0080EE12603C0E9FFED
:104BA00002C0F4FF01C0F3FF005044D0D350030B08
:104BB000010A06E1E96AF46A800EF36EE86A3AD007
:104BC000D350030B006E020E005C30E3D350E83884
:104BD000070BE56AE56EE56A040EE56ED6EC35F086
:104BE000006EF3CF01F0040EE126026AE60E002605
:104BF000600E0122000E022200C0F6FF01C0F7FF86
:104C000002C0F8FF0900F5CF00F00900F5CF01F070
:104C10000900F5CF02F00900F5CF03F003C0E9FF6A
:104C200002C0F4FF01C0F3FF005004D0E96AF46A47
:104C3000F36AE86AE4CF05F0E4CF04F0E4CF03F0D0
:104C4000E4CF02F0E4CF01F0E4CF00F01200D9CFBE
:104C5000E5FFE1CFD9FF00C0E5FF01C0E5FF02C0DD
:104C6000E5FF03C0E5FF020EDBCF00F0240E0024B9
:104C7000016E026A610E0222036A000E032201C065
:104C8000F6FF02C0F7FF03C0F8FF0900F5CF01F0FF
:104C9000050E015CD8B0C2D0FA6AFB6A0134FA365C
:104CA000E834FA36FC0BB60FE56E4C0EFA22000E15
:104CB000FB22E450F96E65EF26F087EF26F0A9EFAE
:104CC00026F0CBEF26F0EDEF26F0060E0024016E65
:104CD000026A610E0222036A000E032201C0F6FF7F
:104CE00002C0F7FF03C0F8FF0900F5CF01F08050C4
:104CF00001160150D880E866D890016A013601504B
:104D0000D880E866D890016A0136015088D0060E36
:104D10000024016E026A610E0222036A000E032261
:104D200001C0F6FF02C0F7FF03C0F8FF0900F5CF8E
:104D300001F0815001160150D880E866D890016AD0
:104D400001360150D880E866D890016A01360150DA
:104D500066D0060E0024016E026A610E0222036A0A
:104D6000000E032201C0F6FF02C0F7FF03C0F8FFE8
:104D70000900F5CF01F0825001160150D880E86695
:104D8000D890016A01360150D880E866D890016A4F
:104D90000136015044D0060E0024016E026A610EF5
:104DA0000222036A000E032201C0F6FF02C0F7FFD1
:104DB00003C0F8FF0900F5CF01F083500116015040
:104DC000D880E866D890016A01360150D880E8663C
:104DD000D890016A0136015022D0016A026A060E9B
:104DE0000026610E0122000E022200C0F6FF01C063
:104DF000F7FF02C0F8FF0900F5CF00F0845000165D
:104E00000050D880E866D890006A00360050D880FC
:104E1000E866D890006A0036005001D0E86AE4CF16
:104E200003F0E4CF02F0E4CF01F0E4CF00F0E4CFF0
:104E3000D9FF1200D9CFE5FFE1CFD9FF00C0E5FFD0
:104E400001C0E5FF02C0E5FF03C0E5FF04C0E5FFC8
:104E500005C0E5FF06C0E5FF07C0E5FF08C0E5FFA8
:104E600009C0E5FF0AC0E5FF0BC0E5FF0CC0E5FF88
:104E70000DC0E5FF0EC0E5FF0FC0E5FF020EDBCF62
:104E800000F0030EDBCF01F0040EDBCF02F0050EC5
:104E9000DBCF03F0060EDBCF04F0070EDBCF05F00F
:104EA000080EDBCF06F0200E076E086A06C009F078
:104EB0000A6A0B6A0C6AE56AE56AE56A0950E56EFA
:104EC0000350E56E0250E56E0150E56E0050E56E50
:104ED0005DEC2CF00D6E080EE126300E0D263A0E1C
:104EE0000D5C05E30D500E6E270E0E240D6EFF0EA9
:104EF000072608228C0E07240E6E060E08200F6E61
:104F00000EC0E9FF0FC0EAFF0DC0EFFF0C50E56EC9
:104F10000B50E56E0A50E56E0950E56E0350E56EE4
:104F20000250E56E0150E56E0050E56EFAEC2CF093
:104F3000006EF3CF01F0F4CF02F0E9CF03F0080EDA
:104F4000E1260050011002100310D8A4AFD707C00B
:104F500000F008C001F004C002F005C003F000C07A
:104F600004F001C005F0004A012A8C0E0426060E4A
:104F7000052204C0E9FF05C0EAFFEFCF04F002C03C
:104F8000E9FF03C0EAFF04C0EFFF024A032A000E54
:104F9000015C02E1200E005CE2E302C0E9FF03C015
:104FA000EAFF000EEF6AE4CF0FF0E4CF0EF0E4CF9B
:104FB0000DF0E4CF0CF0E4CF0BF0E4CF0AF0E4CF37
:104FC00009F0E4CF08F0E4CF07F0E4CF06F0E4CF37
:104FD00005F0E4CF04F0E4CF03F0E4CF02F0E4CF37
:104FE00001F0E4CF00F0E4CFD9FF1200D9CFE5FF04
:104FF000E1CFD9FF00C0E5FF01C0E5FF02C0E5FF3A
:1050000003C0E5FF04C0E5FF05C0E5FF06C0E5FFFE
:1050100007C0E5FF08C0E5FF09C0E5FF0AC0E5FFDE
:105020000BC0E5FF0CC0E5FF0DC0E5FF0EC0E5FFBE
:10503000020EDBCF00F0030EDBCF01F0040EDBCF5E
:1050400002F0050EDBCF03F0060EDBCF04F0070EF7
:10505000DBCF05F0080EDBCF06F0090EDBCF07F043
:10506000086A200E096E065024E00A6A03C00BF09D
:1050700004C00CF005C00DF00BC0E9FF0CC0F3FF3D
:105080000D50DDEC3AF00E6E0E5006E00A2A0B2AA7
:10509000F3E30C4A0D2AF0D706500A5C02E3066AD5
:1050A00002D00A50065E07C00AF00AA202D0300EF3
:1050B000096E07B019D0076A06C00AF00A5005E168
:1050C00007C008F00AC006F00FD00950E56E025084
:1050D000E56E0150E56E0050E56E99EC2EF0040E81
:1050E000E126072A0A06EAD708C007F003C0E9FF4D
:1050F00004C0F3FF0550DDEC3AF0086E085012E0F2
:105100000850E56E0250E56E0150E56E0050E56E08
:1051100099EC2EF0040EE126072A032AE7E3044A5D
:10512000052AE4D707C003F006C004F004500FE0DE
:105130000950E56E0250E56E0150E56E0050E56ED7
:1051400099EC2EF0040EE126032A0406EFD7F36A49
:105150000350E4CF0EF0E4CF0DF0E4CF0CF0E4CF39
:105160000BF0E4CF0AF0E4CF09F0E4CF08F0E4CF8D
:1051700007F0E4CF06F0E4CF05F0E4CF04F0E4CF8D
:1051800003F0E4CF02F0E4CF01F0E4CF00F0E4CF8D
:10519000D9FF1200D9CFE5FFE1CFD9FF00C0E5FF6D
:1051A00001C0E5FF02C0E5FF03C0E5FF04C0E5FF65
:1051B00005C0E5FF06C0E5FF07C0E5FF08C0E5FF45
:1051C00009C0E5FF0AC0E5FF0BC0E5FF0CC0E5FF25
:1051D0000DC0E5FF020EDBCF00F0030EDBCF01F0C8
:1051E000040EDBCF02F0050EDBCF03F0060EDBCFA3
:1051F00004F0070EDBCF05F0080EDBCF06F0090E3A
:10520000DBCF07F0D88003AED890086A0836085084
:105210000FE0031C0C6E021C0B6E011C0A6E001CBE
:10522000096E092A0DE10A2A0BE10B4A0C2A08D063
:1052300000C009F001C00AF002C00BF003C00CF07E
:10524000D88007AED890006A003600500FE0071CE7
:105250000D6E061C036E051C026E041C016E012AF5
:105260000DE1022A0BE1034A0D2A08D004C001F027
:1052700005C002F006C003F007C00DF00D50E56E4A
:105280000350E56E0250E56E0150E56E0C50E56E80
:105290000B50E56E0A50E56E0950E56EFAEC2CF005
:1052A000016EF3CF02F0F4CF03F0E9CF04F0080E63
:1052B000E1260050081A085016E0041C076E031C73
:1052C000066E021C056E011C006E002A04E1052A10
:1052D00002E1064A072A07C0E9FF06C0F4FF05C03D
:1052E000F3FF005007D004C0E9FF03C0F4FF02C081
:1052F000F3FF0150E4CF0DF0E4CF0CF0E4CF0BF05E
:10530000E4CF0AF0E4CF09F0E4CF08F0E4CF07F0EF
:10531000E4CF06F0E4CF05F0E4CF04F0E4CF03F0EF
:10532000E4CF02F0E4CF01F0E4CF00F0E4CFD9FF06
:105330001200D9CFE5FFE1CFD9FF00C0E5FF01C0E2
:10534000E5FF02C0E5FF03C0E5FF020EDBCF00F082
:105350001E0E005CD8B0A5D0240E0024016E026A97
:10536000610E0222036A000E032201C0F6FF02C092
:10537000F7FF03C0F8FF0900F5CF01F0050E015C4F
:10538000D8B08FD0FA6AFB6A0134FA36E834FA36BC
:10539000FC0BA20FE56E530EFA22000EFB22E45026
:1053A000F96EDBEF29F0F3EF29F00BEF2AF023EF92
:1053B0002AF03BEF2AF0060E0024016E026A610E0D
:1053C0000222036A000E032201C0F6FF02C0F7FFAB
:1053D00003C0F8FF0900F5CF01F007012A51011AB7
:1053E00001502A6F5ED0060E0024016E026A610E23
:1053F0000222036A000E032201C0F6FF02C0F7FF7B
:1054000003C0F8FF0900F5CF01F007012B51011A85
:1054100001502B6F46D0060E0024016E026A610E09
:105420000222036A000E032201C0F6FF02C0F7FF4A
:1054300003C0F8FF0900F5CF01F007012C51011A54
:1054400001502C6F2ED0060E0024016E026A610EF0
:105450000222036A000E032201C0F6FF02C0F7FF1A
:1054600003C0F8FF0900F5CF01F007012D51011A23
:1054700001502D6F16D0016A026A060E0026610ED9
:105480000122000E022200C0F6FF01C0F7FF02C099
:10549000F8FF0900F5CF00F007012E51001A005067
:1054A0002E6FE4CF03F0E4CF02F0E4CF01F0E4CFBD
:1054B00000F0E4CFD9FF1200D9CFE5FFE1CFD9FF4B
:1054C00000C0E5FF01C0E5FF02C0E5FF03C0E5FF46
:1054D00004C0E5FF05C0E5FF06C0E5FF07C0E5FF26
:1054E00008C0E5FF09C0E5FF0AC0E5FF0BC0E5FF06
:1054F000020EDBCF00F0030EDBCF01F0040EDBCF9A
:1055000002F0050EDBCF03F0005001100210031073
:1055100005E1E96AF46AF36AE86A6ED0960E046EF1
:10552000056A035008E0D89003320232013200329B
:10553000044A052AF6D704C006F005C007F0000E9D
:10554000035C08E1800E025C05E1000E015C02E1F3
:10555000000E005C18E200500026013602360336C9
:10556000FF0E04260522000E035C08E1800E025C9B
:1055700005E1000E015C02E1000E005CECE304C0FA
:1055800006F005C007F00050046E0150056E7F0E56
:105590000214086E096A0450FF0A08E10550FF0A68
:1055A00005E108507F0A02E1095001E006D0006AD7
:1055B000016A026A036A064A072A029EE86A0730FD
:1055C00006300B6E0A6A0A32086A0850001201128D
:1055D0000A5002120B50031200500701606F015075
:1055E000616F0250626F0350636F63C7E9FF62C768
:1055F000F4FF61C7F3FF6051E4CF0BF0E4CF0AF092
:10560000E4CF09F0E4CF08F0E4CF07F0E4CF06F0F0
:10561000E4CF05F0E4CF04F0E4CF03F0E4CF02F0F0
:10562000E4CF01F0E4CF00F0E4CFD9FF1200D9CFEE
:10563000E5FFE1CFD9FF00C0E5FF01C0E5FF0701AD
:105640007B6B0601F76BCA0E07017B25006E016AB2
:10565000060E012200C0E9FF01C0EAFFEFCF00F013
:1056600000500601F71901E06AD007017B51050DD2
:10567000F450016EF3CF00F0000E0026050E01225B
:1056800000C0E9FF01C0EAFFEFCF00F00050801A30
:105690007B51050DF450016EF3CF00F0000E002693
:1056A000050E0122004A012A00C0E9FF01C0EAFFFD
:1056B000EFCF00F00050811A7B51050DF450016EC0
:1056C000F3CF00F0000E0026050E0122020E002688
:1056D000D8B0012A00C0E9FF01C0EAFFEFCF00F017
:1056E0000050821A7B51050DF450016EF3CF00F08B
:1056F000000E0026050E0122030E0026D8B0012A56
:1057000000C0E9FF01C0EAFFEFCF00F00050831AAC
:105710007B51050DF450016EF3CF00F0000E002612
:10572000050E0122040E0026D8B0012A00C0E9FFB0
:1057300001C0EAFFEFCF00F00050841A7B2B070E68
:105740007A6F000000000000000000000000000070
:1057500000000000000000007A2FA1EF2BF00601EE
:10576000F72BFB0EF75DD8A06ED7E4CF01F0E4CFA6
:1057700000F0E4CFD9FF1200D9CFE5FFE1CFD9FF88
:1057800000C0E5FF01C0E5FF02C0E5FF03C0E5FF83
:1057900004C0E5FF05C0E5FF06C0E5FF07C0E5FF63
:1057A00008C0E5FF09C0E5FF020EDBCF00F0030EE5
:1057B000DBCF01F0026A036A046A056A010EE56E36
:1057C0000050E56EB4EC1FF0E652E652016A066A3C
:1057D0000050E56E27EC26F0076EE65207500DE10B
:1057E000024A032A0350800F800F02E1650E025C1B
:1057F000EFE305C0F3FF045049D0E56A230EE56EE0
:105800004BEC38F0E652E6520050E56E27EC26F0FD
:10581000E652010A2EE101500708076E010E086EDC
:10582000096A075006E0E86CD89008360936010F7F
:10583000FCE30850041209500512026A036A076A61
:10584000086A0050E56E27EC26F0E652010A11E1E5
:10585000074A082A07C002F008C003F00850800F6A
:10586000800F02E1650E075CECE305C0F3FF045016
:105870000DD0014A062A0650800F800F02E1080E63
:10588000015CD8A0A5D705C0F3FF0450E4CF09F010
:10589000E4CF08F0E4CF07F0E4CF06F0E4CF05F062
:1058A000E4CF04F0E4CF03F0E4CF02F0E4CF01F062
:1058B000E4CF00F0E4CFD9FF1200D9CFE5FFE1CF6C
:1058C000D9FF00C0E5FF01C0E5FF02C0E5FF03C04E
:1058D000E5FF04C0E5FF05C0E5FF06C0E5FF07C022
:1058E000E5FF08C0E5FF09C0E5FF0AC0E5FF020EBD
:1058F000DBCF00F0030EDBCF01F0040EDBCF02F0B4
:10590000050EDBCF03F0060EDBCF04F0070EDBCF76
:1059100005F0080EDBCF06F0090EDBCF07F0086AB2
:10592000045005100610071005E1E968F468F368F3
:10593000E86847D0096A0750800BE8440A6E0A50AD
:105940001BE1045004260536063607360750035C73
:1059500008E10650025C05E10550015C02E10450DB
:10596000005C06E2D890073206320532043204D0D9
:10597000092A09C008F0DFD70750035C08E1065088
:10598000025C05E10550015C02E10450005C08E3A3
:105990000450005E0550015A0650025A0750035A3F
:1059A000D890073206320532043208C009F00806E2
:1059B0000950E2E103C0E9FF02C0F4FF01C0F3FFB8
:1059C0000050E4CF0AF0E4CF09F0E4CF08F0E4CFD0
:1059D00007F0E4CF06F0E4CF05F0E4CF04F0E4CF25
:1059E00003F0E4CF02F0E4CF01F0E4CF00F0E4CF25
:1059F000D9FF1200D9CFE5FFE1CFD9FF00C0E5FF05
:105A000001C0E5FF02C0E5FF03C0E5FF04C0E5FFFC
:105A100005C0E5FF06C0E5FF07C0E5FF08C0E5FFDC
:105A200009C0E5FF0AC0E5FF0BC0E5FF0CC0E5FFBC
:105A30000DC0E5FF020EDBCF00F0030EDBCF01F05F
:105A4000040EDBCF02F0050EDBCF03F0060EDBCF3A
:105A500004F0070EDBCF05F0080EDBCF06F0090ED1
:105A6000DBCF07F0086A096A0A6A0B6A200E0C6E1F
:105A70000350800BE8440D6E0050002601360236BC
:105A800003360850082609360A360B360D50D8A4BE
:105A9000088007500B5C08E106500A5C05E10550E0
:105AA000095C02E10450085C09E30450085E0550FB
:105AB000095A06500A5A07500B5A00800C2ED8D7A4
:105AC00003C0E9FF02C0F4FF01C0F3FF0050E4CFC0
:105AD0000DF0E4CF0CF0E4CF0BF0E4CF0AF0E4CF0C
:105AE00009F0E4CF08F0E4CF07F0E4CF06F0E4CF0C
:105AF00005F0E4CF04F0E4CF03F0E4CF02F0E4CF0C
:105B000001F0E4CF00F0E4CFD9FF1200D9CFE5FFD8
:105B1000E1CFD9FF00C0E5FF01C0E5FF02C0E5FF0E
:105B200003C0E5FF04C0E5FF05C0E5FF050ED9246D
:105B3000006E000EDA20016E800E026E030E00264B
:105B4000000E0122022206C0E5FF07C0E5FF08C0E3
:105B5000E5FF020EDBCF06F0030EDBCF07F0040EED
:105B6000DBCF08F00850056E0750046E0650036E38
:105B7000E4CF08F0E4CF07F0E4CF06F00250E56E82
:105B80000150E56E0050E56E070EDBCFE5FF060E17
:105B9000DBCFE5FF050EDBCFE5FF0550E56E0450DA
:105BA000E56E0350E56E59EC12F0006EF3CF01F094
:105BB000090EE12606C0E5FF07C0E5FF08C0E5FFC6
:105BC000020EDBCF06F0030EDBCF07F0040EDBCFB7
:105BD00008F000500624026E01500720036EE86AA8
:105BE0000820E4CF08F0E4CF07F0E4CF06F0E56A40
:105BF00002C0E9FF03C0F3FF35EC3BF001C0F3FF47
:105C00000050E4CF05F0E4CF04F0E4CF03F0E4CF9C
:105C100002F0E4CF01F0E4CF00F0E4CFD9FF1200AE
:105C2000D9CFE5FFE1CFD9FF00C0E5FF01C0E5FF17
:105C300002C0E5FF03C0E5FF04C0E5FF05C0E5FFC6
:105C400006C0E5FF07C0E5FF020EDBCF00F0030E44
:105C5000DBCF01F0040EDBCF02F0050EDBCF03F04B
:105C600002C006F00650046E800A33E100C0E9FF6E
:105C700001C0F3FF0250FCEC39F0056EF3CF06F0E3
:105C8000F4CF07F003C0E5FF05C0E9FF06C0F3FF4E
:105C9000075035EC3BF000C0E9FF01C0F3FF0250B4
:105CA000FCEC39F0056EF3CF06F0F4CF07F0052ACF
:105CB00002E3064A072A05C0E5FF06C0F4FF07C055
:105CC000F6FF00C0E9FF01C0F3FF02500EEC3BF00D
:105CD0001DD004AA1BD0047A045004E1035088ECC0
:105CE0003BF014D00450010A04E1035002EC06F02A
:105CF0000DD004500F0A04E103509BEC3BF006D09A
:105D000004500E0A03E103508CEC3BF0E4CF07F0A3
:105D1000E4CF06F0E4CF05F0E4CF04F0E4CF03F0E5
:105D2000E4CF02F0E4CF01F0E4CF00F0E4CFD9FFFC
:105D30001200D9CFE5FFE1CFD9FF00C0E5FF01C0D8
:105D4000E5FF02C0E5FF03C0E5FF04C0E5FF05C0B5
:105D5000E5FF06C0E5FF020EDBCF00F0030EDBCF50
:105D600001F0040EDBCF02F0050EDBCF03F0005094
:105D70000110021033E000C0E9FF01C0F3FF025040
:105D8000FCEC39F0046EF3CF05F0F4CF06F003C05D
:105D9000E5FF04C0E9FF05C0F3FF065035EC3BF01A
:105DA00000C0E9FF01C0F3FF0250FCEC39F0046EC3
:105DB000F3CF05F0F4CF06F0042A02E3054A062AE1
:105DC00004C0E5FF05C0F4FF06C0F6FF00C0E9FF10
:105DD00001C0F3FF02500EEC3BF016D00350E56E0D
:105DE000F2CFE5FFF29E0500060EFD6E5E0EFE6E22
:105DF000000EFF6EE4BEF28E66C7FBFF65C7FAFFBA
:105E000007016451F96EE652E4CF06F0E4CF05F0E5
:105E1000E4CF04F0E4CF03F0E4CF02F0E4CF01F0EC
:105E2000E4CF00F0E4CFD9FF1200D9CFE5FFE1CFF6
:105E3000D9FF00C0E5FF01C0E5FF02C0E5FF03C0D8
:105E4000E5FF04C0E5FF05C0E5FF06C0E5FF07C0AC
:105E5000E5FF020EDBCF00F0030EDBCF01F0040EF6
:105E6000DBCF02F0050EDBCF03F0D88003AED89075
:105E70002AE3031C076E021C066E011C056E001C43
:105E8000046E042A04E1052A02E1064A072A0750A3
:105E9000E56E0650E56E0550E56E0450E56E5CEC6F
:105EA0002AF0046EF3CF05F0F4CF06F0E9CF07F047
:105EB000040EE126077E07C0E9FF06C0F4FF05C017
:105EC000F3FF04501AD00350E56E0250E56E015006
:105ED000E56E0050E56E5CEC2AF0006EF3CF01F049
:105EE000F4CF02F0E9CF03F0040EE12603C0E9FF8E
:105EF00002C0F4FF01C0F3FF0050E4CF07F0E4CF8D
:105F000006F0E4CF05F0E4CF04F0E4CF03F0E4CFF3
:105F100002F0E4CF01F0E4CF00F0E4CFD9FF1200AB
:105F2000D9CFE5FFE1CFD9FF00C0E5FF01C0E5FF14
:105F300002C0E5FF03C0E5FF04C0E5FF05C0E5FFC3
:105F400006C0E5FF07C0E5FF020EDBCF00F0030E41
:105F5000DBCF01F0040EDBCF02F0050EDBCF03F048
:105F6000D88001AED890046A0436045007E0011CC2
:105F7000066E001C056E054A062A04D000C005F016
:105F800001C006F0D88003AED890006A00360050F9
:105F900007E0031C076E021C016E014A072A04D0A9
:105FA00002C001F003C007F00750E56E0150E56E36
:105FB0000650E56E0550E56E4BEC33F0016EF3CF05
:105FC00002F0040EE1260050041A04500AE0021CFC
:105FD000036E011C006E004A032A03C0F3FF005049
:105FE00003D002C0F3FF0150E4CF07F0E4CF06F086
:105FF000E4CF05F0E4CF04F0E4CF03F0E4CF02F007
:10600000E4CF01F0E4CF00F0E4CFD9FF1200D9CF04
:10601000E5FFE1CFD9FF00C0E5FF01C0E5FF020EBB
:10602000DBCF00F0030EDBCF01F0040EDBCF81F7F6
:1060300000040701836F01040701826F0701806B71
:10604000E56A640EE56E000EE56AF6EC32F0030ECA
:10605000E126E56A300EE56E75EC36F0E652E65262
:10606000E56A300EE56E75EC36F0E652E652E56A0A
:10607000300EE56E75EC36F0E652E652E56A200E1B
:10608000E56E75EC36F0E652E652E56A280EE56EEE
:10609000F0EC37F0E652E652E56A0C0EE56EF0ECF5
:1060A00037F0E652E652E56A010EE56EF0EC37F0A5
:1060B000E652E652E56A020EE56E37EC31F0E65242
:1060C000E652E56A060EE56EF0EC37F0E652E6526F
:1060D000E4CF01F0E4CF00F0E4CFD9FF12000203D7
:1060E000040601020304127A000048E8010090D07F
:1060F000030020A1070040420F0080841E00000919
:106100003D0000127A000102040810204080408007
:106110000102040102040820010204010204081023
:10612000204080100101010101010101020202026F
:10613000020000000000040404030303030303033C
:106140000300286E756C6C2900000000010002003D
:106150000F0074656D703A2025692E2569006875F9
:106160006D3A2025692E25690000E806E56E090EC6
:10617000C8EC30F0E4500BE000D0E56E090EC8EC3E
:1061800030F000D0E450000000D0E82EF6D7120026
:10619000E8060000E85007E000D000D000D000D0B2
:1061A0000000E82EFAD71200D9CFE5FFE1CFD9FFE2
:1061B00000C0E5FF01C0E5FF02C0E5FF03C0E5FF49
:1061C00004C0E5FF05C0E5FF06C0E5FF020EDBCF1A
:1061D00000F0030EDBCF01F0040EDBCF02F0050E62
:1061E000DBCF03F0060EDBCF04F0070EDBCF05F0AC
:1061F000080EDBCF06F0D88003AED89015E306502A
:106200000A0A12E104C0E9FF05C0EAFF2D0EEF6E95
:10621000044A052A031E021E011E006C05E1012A24
:1062200003E1022AD8B4032A0650E56E0550E56E54
:106230000450E56E0350E56E0250E56E0150E56EC8
:106240000050E56E1AEC27F0070EE126E4CF06F0C9
:10625000E4CF05F0E4CF04F0E4CF03F0E4CF02F0A4
:10626000E4CF01F0E4CF00F0E4CFD9FF1200D9CFA2
:10627000E5FFE1CFD9FF00C0E5FF01C0E5FF02C0A7
:10628000E5FF03C0E5FF04C0E5FF05C0E5FF020E22
:10629000DBCF00F0030EDBCF01F033EC25F0026E14
:1062A000F3CF03F0F4CF04F0E9CF05F0D890053236
:1062B000043203320232D890053204320332023201
:1062C000E56A010EE56E860EE56EA00EE56E0550E0
:1062D000E56E0450E56E0350E56E0250E56EFAEC93
:1062E0002CF0026E080EE12600C004F001C005F09B
:1062F000FF0E002601220450051008E002C004F041
:10630000FD0E04260450B5EC30F0EED7E4CF05F0D6
:10631000E4CF04F0E4CF03F0E4CF02F0E4CF01F0E7
:10632000E4CF00F0E4CFD9FF1200D9CFE5FFE1CFF1
:10633000D9FF00C0E5FF01C0E5FF02C0E5FF03C0D3
:10634000E5FF04C0E5FF05C0E5FF06C0E5FF020E5E
:10635000DBCF00F0030EDBCF01F0040EDBCF02F049
:10636000050EDBCF03F00338E840F80B046E04C0E1
:1063700003F0038C046AE56A0350E56EF0EC37F035
:10638000E652E65204500024056EE86A0120066ECB
:10639000E86A022005C0E9FF06C0F3FFDDEC3AF031
:1063A000056E010EE56E0550E56EF0EC37F0E65235
:1063B000E652032A042A080E045CDDE3E4CF06F06B
:1063C000E4CF05F0E4CF04F0E4CF03F0E4CF02F033
:1063D000E4CF01F0E4CF00F0E4CFD9FF1200936ADC
:1063E000816A836A010EE56E150EE56EB4EC1FF04E
:1063F000E652E652010EE56E160EE56EB4EC1FF0A5
:10640000E652E652010EE56E170EE56EB4EC1FF093
:10641000E652E652010EE56E180EE56EB4EC1FF082
:10642000E652E652E56A190EE56EB4EC1FF0E6524C
:10643000E652E56A1A0EE56EB4EC1FF0E652E6523B
:10644000E56A1B0EE56EB4EC1FF0E652E652E56A13
:106450001C0EE56EB4EC1FF0E652E6520A0EE56E35
:1064600030EC24F0E6520B0EE56E30EC24F0E652F0
:106470000C0EE56E30EC24F0E652090EE56E30ECC1
:1064800024F0E652080EE56E30EC24F0E6521200DD
:1064900014EEFFF024EEFFF0F86AA68EA69CBF0E65
:1064A000E96E0E0EEA6E0068ED6A0050FDE1C40E62
:1064B000F66E760EF76E000EF86E0900F5CF05F059
:1064C0000900F5CF06F034D00900F5CF00F009003F
:1064D000F5CF01F00900F5CF02F009000900F5CF72
:1064E000E9FF0900F5CFEAFF090009000900F5CF2F
:1064F00003F00900F5CF04F009000900F6CF07F01A
:10650000F7CF08F0F8CF09F000C0F6FF01C0F7FFA1
:1065100002C0F8FF03D00900F5CFEEFF0306FBE24F
:106520000406F9E207C0F6FF08C0F7FF09C0F8FF4C
:106530000506CAE20606C8E25EEC3AF0FFD7D9CFFC
:10654000E5FFE1CFD9FF00C0E5FF01C0E5FF02C0D4
:10655000E5FF03C0E5FF04C0E5FF05C0E5FF06C099
:10656000E5FF07C0E5FF020EDBCF00F0030EDBCF37
:1065700001F0040EDBCF02F0050EDBCF03F002507A
:10658000046E0350056E066A076A0450F86E0050E8
:10659000046E0150056E046E056A0450F76E0050DB
:1065A000F66E0900F5CF00F00900F5CF01F0026AA0
:1065B0000150046E036A056A005003260550042248
:1065C00004C0F3FF0350E4CF07F0E4CF06F0E4CFBC
:1065D00005F0E4CF04F0E4CF03F0E4CF02F0E4CF21
:1065E00001F0E4CF00F0E4CFD9FF1200D9CFE5FFEE
:1065F000E1CFD9FF00C0E5FF01C0E5FF02C0E5FF24
:10660000020EDBCF00F0030EDBCF01F0040EDBCF78
:1066100002F093809382005013E00050010A10E1D1
:10662000000E025C02E1810E015C03E32F0E006E9E
:1066300002D02E0E006E00C0C6FF0150C86E1FD0E3
:10664000280EC66E0150640A02E1025015E00150A6
:10665000900A03E10250010A0BE00150E80A03E14D
:106660000250030A01E008D0C78E0B0EC86E07D097
:10667000C79E1D0EC86E03D0C78E770EC86EC56A42
:106680009E96A196E4CF02F0E4CF01F0E4CF00F0B3
:10669000E4CFD9FF1200D9CFE5FFE1CFD9FF00C089
:1066A000E5FF01C0E5FF02C0E5FF03C0E5FF04C050
:1066B000E5FF05C0E5FF06C0E5FF07C0E5FF020EE8
:1066C000DBCF00F0030EDBCF01F0040EDBCF02F0D6
:1066D000050EDBCF03F0046A056A100E066E01504A
