:020000040000FA
:100C000084EF33F010EF3CF070EF38F00F0EC16E50
:060C1000070EB46E120095
:080C1800E5EF38F000C0E5FF34
:100C200001C0E5FF02C0E5FF03C0E5FF04C0E5FF2A
:100C300005C0E5FF06C0E5FF0501D76B1E0E0501E7
:100C4000D75DD8B066D01E0ED725006E016A050E9E
:100C5000012200C0E9FF01C0EAFFEF68D751050D8E
:100C6000F450016EF3CF00F0000E0026040E0122B6
:100C700000C0E9FF01C0EAFFEF6AD751050DF4504B
:100C8000016EF3CF00F0000E0026040E0122004A90
:100C9000012A00C0E9FF01C0EAFFEF6AD751050D44
:100CA000F450016EF3CF00F0000E0026040E012276
:100CB000020E0026D8B0012A00C0E9FF01C0EAFFF9
:100CC000EF6AD751050DF450016EF3CF00F0000E1E
:100CD0000026040E0122030E0026D8B0012A00C00F
:100CE000E9FF01C0EAFFEF6AD751050DF450016E2C
:100CF000F3CF00F0000E0026040E0122040E0026A1
:100D0000D8B0012A00C0E9FF01C0EAFFEF6AD72B83
:100D100095D70501D76B050E0501D75D0DE26D0E68
:100D2000D725006E016A050E012200C0E9FF01C04F
:100D3000EAFFEF6AD72BEFD70501D86B0501D76B18
:100D40001E0E0501D85DD8B021EF0DF0010E050192
:100D5000D96F0501DA6B1E0E0501DA5DD8B09DEF83
:100D60000CF0D40EDA25006E016A5D0E0122026AD3
:100D7000000E022200C0F6FF01C0F7FF02C0F8FF1C
:100D80000900F5CF00F0050E005CD8B099EF0CF02B
:100D9000FA6AFB6A0034FA36E834FA36FC0BAE0F16
:100DA000E56E0D0EFA22000EFB22E450F96EE1EF23
:100DB00006F002EF08F027EF09F050EF0AF076EFA7
:100DC0000BF0B60E0501DA25006E016A5D0E0122F8
:100DD000026A000E022200C0F6FF01C0F7FF02C047
:100DE000F8FF0900F5CF00F005016D51001605016F
:100DF000685100160050D8A499EF0CF0000E0501C0
:100E0000DA25006E016A050E012200C0E9FF01C06B
:100E1000EAFFEFCF00F01E0E0501D725016E026A32
:100E2000050E022201C0E9FF02C0EAFFEFCF01F088
:100E30000150005CD8B08DD01E0ED725006E016A1F
:100E4000050E0122000E0501DA25026E036A050E69
:100E5000032202C0E9FF03C0EAFFEFCF02F000C0A7
:100E6000E9FF01C0EAFF02C0EFFF0501D751050D00
:100E7000F450016EF3CF00F0000E0026040E0122A4
:100E8000B60E0501DA25026E036A5D0E0322046ABE
:100E9000000E042202C0F6FF03C0F7FF04C0F8FFF3
:100EA0000900F5CF02F000C0E9FF01C0EAFF02C06F
:100EB000EFFF0501D751050DF450016EF3CF00F09F
:100EC000000E0026040E0122004A012A00C0E9FF9C
:100ED00001C0EAFFEF6AD751050DF450016EF3CF60
:100EE00000F0000E0026040E0122020E0026D8B0EB
:100EF000012A00C0E9FF01C0EAFFEF6AD751050DE2
:100F0000F450016EF3CF00F0000E0026040E012213
:100F1000030E0026D8B0012A00C0E9FF01C0EAFF95
:100F2000EF6AD751050DF450016EF3CF00F0000EBB
:100F30000026040E0122040E0026D8B0012A00C0AB
:100F4000E9FF01C0EAFFEF6A010E0501D96F99EFD1
:100F50000CF0000E0501DA25006E016A050E012273
:100F600000C0E9FF01C0EAFFEFCF00F01E0E05014F
:100F7000D725016E026A050E022201C0E9FF02C0F8
:100F8000EAFFEFCF01F00050011802E099EF0CF0FA
:100F90000501D751050DF450016EF3CF00F0000E9E
:100FA0000026040E0122D751050DF450036EF3CF35
:100FB00002F0000E0226040E0322B60E0501DA2509
:100FC000046E056A5D0E0522066A000E062204C044
:100FD000F6FF05C0F7FF06C0F8FF0900F5CF04F0E3
:100FE00002C0E9FF03C0EAFFEFCF02F00250041293
:100FF00000C0E9FF01C0EAFF04C0EFFF0501D92BE3
:1010000099EF0CF0B60E0501DA25006E016A5D0E4F
:101010000122026A000E022200C0F6FF01C0F7FFA3
:1010200002C0F8FF0900F5CF00F005016E5100166F
:101030000501695100160050D8A499EF0CF0000E7C
:101040000501DA25006E016A050E012200C0E9FFE4
:1010500001C0EAFFEFCF00F01E0E0501D725016E9B
:10106000026A050E022201C0E9FF02C0EAFFEFCFCB
:1010700001F00150005CD8B08DD01E0ED725006E57
:10108000016A050E0122000E0501DA25026E036ACF
:10109000050E032202C0E9FF03C0EAFFEFCF02F012
:1010A00000C0E9FF01C0EAFF02C0EFFF0501D75110
:1010B000050DF450016EF3CF00F0000E0026040E73
:1010C000012200C0E9FF01C0EAFFEF6AD751050D18
:1010D000F450016EF3CF00F0000E0026040E012242
:1010E000004A012AB60E0501DA25026E036A5D0E7A
:1010F0000322046A000E042202C0F6FF03C0F7FFB9
:1011000004C0F8FF0900F5CF02F000C0E9FF01C0FC
:10111000EAFF02C0EFFF0501D751050DF450016E43
:10112000F3CF00F0000E0026040E0122020E00266E
:10113000D8B0012A00C0E9FF01C0EAFFEF6AD75129
:10114000050DF450016EF3CF00F0000E0026040EE2
:101150000122030E0026D8B0012A00C0E9FF01C019
:10116000EAFFEF6AD751050DF450016EF3CF00F09E
:10117000000E0026040E0122040E0026D8B0012A1B
:1011800000C0E9FF01C0EAFFEF6A010E0501D96F57
:1011900099EF0CF0000E0501DA25006E016A050ECC
:1011A000012200C0E9FF01C0EAFFEFCF00F01E0EF0
:1011B0000501D725016E026A050E022201C0E9FF72
:1011C00002C0EAFFEFCF01F00050011802E099EFF2
:1011D0000CF00501D751050DF450016EF3CF00F06E
:1011E000000E0026040E0122004A012AD751050DE7
:1011F000F450036EF3CF02F0000E0226040E032219
:10120000024A032AB60E0501DA25046E056A5D0E50
:101210000522066A000E062204C0F6FF05C0F7FF8D
:1012200006C0F8FF0900F5CF04F002C0E9FF03C0D3
:10123000EAFFEFCF02F00250041200C0E9FF01C044
:10124000EAFF04C0EFFF0501D92B99EF0CF0B60EB1
:101250000501DA25006E016A5D0E0122026A000EA8
:10126000022200C0F6FF01C0F7FF02C0F8FF09002C
:10127000F5CF00F005016F51001605016A51001607
:101280000050D8A499EF0CF0000E0501DA25006E8D
:10129000016A050E012200C0E9FF01C0EAFFEFCF9D
:1012A00000F01E0E0501D725016E026A050E02220E
:1012B00001C0E9FF02C0EAFFEFCF01F00150005C7E
:1012C000D8B08DD01E0ED725006E016A050E012202
:1012D000000E0501DA25026E036A050E032202C024
:1012E000E9FF03C0EAFFEFCF02F000C0E9FF01C051
:1012F000EAFF02C0EFFF0501D751050DF450016E62
:10130000F3CF00F0000E0026040E012200C0E9FF1A
:1013100001C0EAFFEF6AD751050DF450016EF3CF1B
:1013200000F0000E0026040E0122004A012A00C02F
:10133000E9FF01C0EAFFEF6AD751050DF450016ED5
:10134000F3CF00F0000E0026040E0122020E00264C
:10135000D8B0012AB60E0501DA25026E036A5D0EC9
:101360000322046A000E042202C0F6FF03C0F7FF46
:1013700004C0F8FF0900F5CF02F000C0E9FF01C08A
:10138000EAFF02C0EFFF0501D751050DF450016ED1
:10139000F3CF00F0000E0026040E0122030E0026FB
:1013A000D8B0012A00C0E9FF01C0EAFFEF6AD751B7
:1013B000050DF450016EF3CF00F0000E0026040E70
:1013C0000122040E0026D8B0012A00C0E9FF01C0A6
:1013D000EAFFEF6A010E0501D96F99EF0CF0000EDC
:1013E0000501DA25006E016A050E012200C0E9FF41
:1013F00001C0EAFFEFCF00F01E0E0501D725016EF8
:10140000026A050E022201C0E9FF02C0EAFFEFCF27
:1014100001F00050011802E099EF0CF00501D751DE
:10142000050DF450016EF3CF00F0000E0026040EFF
:101430000122020E0026D8B0012AD751050DF45022
:10144000036EF3CF02F0000E0226040E0322020EFA
:101450000226D8B0032AB60E0501DA25046E056A05
:101460005D0E0522066A000E062204C0F6FF05C0C6
:10147000F7FF06C0F8FF0900F5CF04F002C0E9FF4E
:1014800003C0EAFFEFCF02F00250041200C0E9FFF0
:1014900001C0EAFF04C0EFFF0501D92B99EF0CF062
:1014A000B60E0501DA25006E016A5D0E0122026AA0
:1014B000000E022200C0F6FF01C0F7FF02C0F8FFD5
:1014C0000900F5CF00F005017051001605016B51C0
:1014D00000160050D8A499EF0CF0000E0501DA2593
:1014E000006E016A050E012200C0E9FF01C0EAFF9B
:1014F000EFCF00F01E0E0501D725016E026A050E22
:10150000022201C0E9FF02C0EAFFEFCF01F0015063
:10151000005CD8B08CD01E0ED725006E016A050E77
:101520000122000E0501DA25026E036A050E032270
:1015300002C0E9FF03C0EAFFEFCF02F000C0E9FFFD
:1015400001C0EAFF02C0EFFF0501D751050DF450BD
:10155000016EF3CF00F0000E0026040E012200C041
:10156000E9FF01C0EAFFEF6AD751050DF450016EA3
:10157000F3CF00F0000E0026040E0122004A012ADB
:1015800000C0E9FF01C0EAFFEF6AD751050DF45032
:10159000016EF3CF00F0000E0026040E0122020EB1
:1015A0000026D8B0012A00C0E9FF01C0EAFFEF6AB7
:1015B000D751050DF450016EF3CF00F0000E002658
:1015C000040E0122030E0026D8B0012AB60E050132
:1015D000DA25026E036A5D0E0322046A000E0422FD
:1015E00002C0F6FF03C0F7FF04C0F8FF0900F5CF03
:1015F00002F000C0E9FF01C0EAFF02C0EFFF0501F1
:10160000D751050DF450016EF3CF00F0000E002607
:10161000040E0122040E0026D8B0012A00C0E9FF02
:1016200001C0EAFFEF6A010E0501D96F82D1000EF9
:101630000501DA25006E016A050E012200C0E9FFEE
:1016400001C0EAFFEFCF00F01E0E0501D725016EA5
:10165000026A050E022201C0E9FF02C0EAFFEFCFD5
:1016600001F00050011801E064D10501D751050DCA
:10167000F450016EF3CF00F0000E0026040E01229C
:10168000030E0026D8B0012AD751050DF450036E81
:10169000F3CF02F0000E0226040E0322030E0226F0
:1016A000D8B0032AB60E0501DA25046E056A5D0E70
:1016B0000522066A000E062204C0F6FF05C0F7FFE9
:1016C00006C0F8FF0900F5CF04F002C0E9FF03C02F
:1016D000EAFFEFCF02F00250041200C0E9FF01C0A0
:1016E000EAFF04C0EFFF0501D92B23D1B60E050197
:1016F000DA25006E016A5D0E0122026A000E0222E6
:1017000000C0F6FF01C0F7FF02C0F8FF0900F5CFE7
:1017100000F005017151001605016C5100160050D2
:10172000D8A407D1000E0501DA25006E016A050E66
:10173000012200C0E9FF01C0EAFFEFCF00F01E0E5A
:101740000501D725016E026A050E022201C0E9FFDC
:1017500002C0EAFFEFCF01F00150005CD8B08BD09F
:101760001E0ED725006E016A050E0122000E05012E
:10177000DA25026E036A050E032202C0E9FF03C0E8
:10178000EAFFEFCF02F000C0E9FF01C0EAFF02C0AC
:10179000EFFF0501D751050DF450016EF3CF00F0B6
:1017A000000E0026040E012200C0E9FF01C0EAFF7E
:1017B000EF6AD751050DF450016EF3CF00F0000E23
:1017C0000026040E0122004A012A00C0E9FF01C0E0
:1017D000EAFFEF6AD751050DF450016EF3CF00F028
:1017E000000E0026040E0122020E0026D8B0012AA7
:1017F00000C0E9FF01C0EAFFEF6AD751050DF450C0
:10180000016EF3CF00F0000E0026040E0122030E3D
:101810000026D8B0012A00C0E9FF01C0EAFFEF6A44
:10182000D751050DF450016EF3CF00F0000E0026E5
:10183000040E0122040E0026D8B0012AB60E0501BE
:10184000DA25026E036A5D0E0322046A000E04228A
:1018500002C0F6FF03C0F7FF04C0F8FF0900F5CF90
:1018600002F000C0E9FF01C0EAFF02C0EFFF010E75
:101870000501D96F5ED0000E0501DA25006E016A00
:10188000050E012200C0E9FF01C0EAFFEFCF00F022
:101890001E0E0501D725016E026A050E022201C047
:1018A000E9FF02C0EAFFEFCF01F00050011801E0AC
:1018B00040D00501D751050DF450016EF3CF00F073
:1018C000000E0026040E0122040E0026D8B0012AC4
:1018D000D751050DF450036EF3CF02F0000E02262F
:1018E000040E0322040E0226D8B0032AB60E050108
:1018F000DA25046E056A5D0E0522066A000E0622D0
:1019000004C0F6FF05C0F7FF06C0F8FF0900F5CFD9
:1019100004F002C0E9FF03C0EAFFEFCF02F002507B
:10192000041200C0E9FF01C0EAFF04C0EFFF050197
:10193000D92B0501DA2BABEF06F00501D751050DC8
:10194000F450016EF3CF00F0000E0026040E0122C9
:1019500000C0E9FF01C0EAFFEFCF00F005016D51C3
:10196000001200506D6F0501D751050DF450016E46
:10197000F3CF00F0000E0026040E0122004A012AD7
:1019800000C0E9FF01C0EAFFEFCF00F005016E5192
:10199000001200506E6F0501D751050DF450016E15
:1019A000F3CF00F0000E0026040E0122020E0026E6
:1019B000D8B0012A00C0E9FF01C0EAFFEFCF00F074
:1019C00005016F51001200506F6F0501D751050DD1
:1019D000F450016EF3CF00F0000E0026040E012239
:1019E000030E0026D8B0012A00C0E9FF01C0EAFFBB
:1019F000EFCF00F00501705100120050706F05012B
:101A0000D751050DF450016EF3CF00F0000E002603
:101A1000040E0122040E0026D8B0012A00C0E9FFFE
:101A200001C0EAFFEFCF00F0050171510012005034
:101A3000716F0501D9510501D8270501D72BA0EFFA
:101A400006F00401F36BE4CF06F0E4CF05F0E4CF39
:101A500004F0E4CF03F0E4CF02F0E4CF01F0E4CFF0
:101A600000F01200D9CFE5FFE1CFD9FF00C0E5FFBC
:101A700001C0E5FF02C0E5FF03C0E5FF04C0E5FFCC
:101A800005C0E5FF06C0E5FF07C0E5FF08C0E5FFAC
:101A900009C0E5FF0AC0E5FF0BC0E5FF0CC0E5FF8C
:101AA0000DC0E5FF0EC0E5FF0FC0E5FF10C0E5FF6C
:101AB00011C0E5FF12C0E5FF13C0E5FF14C0E5FF4C
:101AC00015C0E5FF16C0E5FF17C0E5FF18C0E5FF2C
:101AD00019C0E5FF020EDBCF00F0030EDBCF01F0F3
:101AE000040EDBCF02F0050EDBCF03F0060EDBCFDA
:101AF00004F0070EDBCF05F0080EDBCF06F0090E71
:101B0000DBCF07F00A0EDBCF08F0096A020E0A6E7F
:101B100003C0E9FF04C0F3FF0550EFEC3BF00B6E90
:101B20000B50D8B405EF12F00C6A0B50250A02E0F6
:101B3000ECEF11F00B6A0D6A032A02E3044A052A4E
:101B400003C0E9FF04C0F3FF0550EFEC3BF00E6E5D
:101B50000E50D8B405EF12F00E50250A02E1ECEF5A
:101B600011F00E502D0A06E1032A02E3044A052A69
:101B7000010E0B6E03C00EF004C00FF005C010F094
:101B80000EC0E9FF0FC0F3FF1050EFEC3BF0300A3E
:101B900006E10E2A02E30F4A102A0B82F1D70EC08B
:101BA000E9FF0FC0F3FF1050EFEC3BF0116E300E69
:101BB000115C13E33A0E115C10E20D500A0DF3CFE5
:101BC0000DF0D00E11260D50126E115012240D6E14
:101BD0000E2A02E30F4A102AE2D70EC003F00FC00C
:101BE00004F010C005F00EC0E9FF0FC0F3FF105065
:101BF000EFEC3BF02E0A34E10E50010F036E000EA5
:101C00000F20046E000E1020056E0A6A03C00EF04D
:101C100004C00FF005C010F00EC0E9FF0FC0F3FFC5
:101C20001050EFEC3BF0116E300E115C13E33A0EE6
:101C3000115C10E20A500A0DF3CF0AF0D00E112603
:101C40000A50126E115012240A6E0E2A02E30F4A35
:101C5000102AE2D70EC003F00FC004F010C005F048
:101C600003C0E9FF04C0F3FF0550EFEC3BF00E6E3C
:101C7000660A01E040D00650040F0F6E000E0720E8
:101C8000106E000E0820116E0FC006F010C007F095
:101C900011C008F0FC0E0F26FF0E102211220FC0FB
:101CA000E9FF10C0F3FF1150E0EC3AF00F6EF3CFF4
:101CB00010F0F4CF11F0E9CF12F00A50E56EE56AAA
:101CC0000B50E56E0D50E56E1250E56E1150E56E4D
:101CD0001050E56E0F50E56E0250E56E0150E56E56
:101CE0000050E56E55EC12F00F6E0B0EE1260F5012
:101CF0000926FFEF11F00E50730A01E052D0065092
:101D0000030F0F6E000E0720106E000E0820116EDC
:101D10000FC006F010C007F011C008F0FD0E0F262E
:101D2000FF0E102211220FC0E9FF10C0F3FF115067
:101D300000EC3BF00F6EF3CF10F0F4CF11F00FC0BA
:101D400012F010C013F011C014F01010111007E0C1
:101D500012C00FF013C010F014C011F006D0000E26
:101D6000116E5D0E106EF20E0F6E0B50E56E0D5083
:101D7000E56E1150E56E1050E56E0F50E56E0250A5
:101D8000E56E0150E56E0050E56EABEC23F00F6E92
:101D9000080EE1260950106E0F501024096EFFEF57
:101DA00011F00E506C0A06E1032A02E3044A052AE8
:101DB000010E0C6E03C0E9FF04C0F3FF0550EFEC09
:101DC0003BF00E6E750A01E06CD00C5023E006501B
:101DD000040F0F6E000E0720106E000E0820116E0B
:101DE0000FC006F010C007F011C008F0FC0E0F265F
:101DF000FF0E102211220FC0E9FF10C0F3FF115097
:101E0000E0EC3AF00F6EF3CF10F0F4CF11F0E9CF21
:101E100012F024D00650020F136E000E0720146E2D
:101E2000000E0820156E13C006F014C007F015C090
:101E300008F0FE0E1326FF0E1422152213C0E9FF30
:101E400014C0F3FF155061EC3BF0136EF3CF14F0A8
:101E500013C00FF014C010F0116A126A610EE56E23
:101E6000E56A0B50E56E0D50E56EE56A0A0EE56E0B
:101E70000C50E56E1250E56E1150E56E1050E56E97
:101E80000F50E56E0250E56E0150E56E0050E56EB4
:101E90007EEC1AF0136E0E0EE12613500926FFEFAA
:101EA00011F00E50640A04E00E50690A01E075D08A
:101EB0000C5023E00650040F136E000E0720146E22
:101EC000000E0820156E13C006F014C007F015C0F0
:101ED00008F0FC0E1326FF0E1422152213C0E9FF92
:101EE00014C0F3FF1550E0EC3AF0136EF3CF14F08A
:101EF000F4CF15F0E9CF16F024D00650020F176E7C
:101F0000000E0720186E000E0820196E17C006F08C
:101F100018C007F019C008F0FE0E1726FF0E182291
:101F2000192217C0E9FF18C0F3FF195061EC3BF00C
:101F3000176EF3CF18F017C013F018C014F0156A1D
:101F4000166A13C00FF014C010F015C011F016C0BF
:101F500012F0610EE56EE56A0B50E56E0D50E56E10
:101F6000010EE56E0A0EE56E0C50E56E1250E56E40
:101F70001150E56E1050E56E0F50E56E0250E56EA3
:101F80000150E56E0050E56E7EEC1AF0136E0E0EF9
:101F9000E12613500926FFEF11F00E50780A04E0F5
:101FA0000E50700A01E073D00C5023E00650040F6D
:101FB000136E000E0720146E000E0820156E13C05D
:101FC00006F014C007F015C008F0FC0E1326FF0E33
:101FD0001422152213C0E9FF14C0F3FF1550E0ECE2
:101FE0003AF0136EF3CF14F0F4CF15F0E9CF16F0FA
:101FF00024D00650020F176E000E0720186E000E38
:102000000820196E17C006F018C007F019C008F0B4
:10201000FE0E1726FF0E1822192217C0E9FF18C05E
:10202000F3FF195061EC3BF0176EF3CF18F017C0B7
:1020300013F018C014F0156A166A13C00FF014C01C
:1020400010F015C011F016C012F0610EE56EE56AD1
:102050000B50E56E0D50E56EE56A100EE56E0C5006
:10206000E56E1250E56E1150E56E1050E56E0F50A2
:10207000E56E0250E56E0150E56E0050E56E7EECB7
:102080001AF0136E0E0EE12613500926B8D10E5029
:10209000580A04E00E50500A01E073D00C5023E0BF
:1020A0000650040F136E000E0720146E000E082059
:1020B000156E13C006F014C007F015C008F0FC0E32
:1020C0001326FF0E1422152213C0E9FF14C0F3FFDC
:1020D0001550E0EC3AF0136EF3CF14F0F4CF15F096
:1020E000E9CF16F024D00650020F176E000E07201D
:1020F000186E000E0820196E17C006F018C007F001
:1021000019C008F0FE0E1726FF0E1822192217C05C
:10211000E9FF18C0F3FF195061EC3BF0176EF3CFE5
:1021200018F017C013F018C014F0156A166A13C01F
:102130000FF014C010F015C011F016C012F0410ECF
:10214000E56EE56A0B50E56E0D50E56EE56A100E22
:10215000E56E0C50E56E1250E56E1150E56E1050B4
:10216000E56E0F50E56E0250E56E0150E56E0050D1
:10217000E56E7EEC1AF0136E0E0EE1261350092662
:102180003ED10E50620A01E073D00C5023E006509D
:10219000040F136E000E0720146E000E0820156E3B
:1021A00013C006F014C007F015C008F0FC0E13268B
:1021B000FF0E1422152213C0E9FF14C0F3FF1550BF
:1021C000E0EC3AF0136EF3CF14F0F4CF15F0E9CF52
:1021D00016F024D00650020F176E000E0720186E5E
:1021E000000E0820196E17C006F018C007F019C0BD
:1021F00008F0FE0E1726FF0E1822192217C0E9FF5D
:1022000018C0F3FF195061EC3BF0176EF3CF18F0D4
:1022100017C013F018C014F0156A166A13C00FF037
:1022200014C010F015C011F016C012F0610EE56E6A
:10223000E56A0B50E56E0D50E56EE56A020EE56E3F
:102240000C50E56E1250E56E1150E56E1050E56EC3
:102250000F50E56E0250E56E0150E56E0050E56EE0
:102260007EEC1AF0136E0E0EE12613500926C7D02D
:102270000E506F0A01E073D00C5023E00650040F9B
:10228000136E000E0720146E000E0820156E13C08A
:1022900006F014C007F015C008F0FC0E1326FF0E60
:1022A0001422152213C0E9FF14C0F3FF1550E0EC0F
:1022B0003AF0136EF3CF14F0F4CF15F0E9CF16F027
:1022C00024D00650020F176E000E0720186E000E65
:1022D0000820196E17C006F018C007F019C008F0E2
:1022E000FE0E1726FF0E1822192217C0E9FF18C08C
:1022F000F3FF195061EC3BF0176EF3CF18F017C0E5
:1023000013F018C014F0156A166A13C00FF014C049
:1023100010F015C011F016C012F0610EE56EE56AFE
:102320000B50E56E0D50E56EE56A080EE56E0C503B
:10233000E56E1250E56E1150E56E1050E56E0F50CF
:10234000E56E0250E56E0150E56E0050E56E7EECE4
:102350001AF00C6E0E0EE1260C50092650D00E50CD
:10236000630A01E04CD00650020F0C6E000E0720ED
:102370000E6E000E08200F6E0CC006F00EC007F0A7
:102380000FC008F0FE0E0C26FF0E0E220F220CC00E
:10239000E9FF0EC0F3FF0F5061EC3BF00501C86F81
:1023A000C96B0B50E56E0D50E56E800EE56E050EA7
:1023B000E56EC80EE56E0250E56E0150E56E005008
:1023C000E56EABEC23F00B6E080EE12609500C6EA7
:1023D0000B500C24096E13D003C0E9FF04C0F3FFB7
:1023E0000550EFEC3BF0E56E0250E56E0150E56EF6
:1023F0000050E56ED8EC2FF0040EE126092A032ADE
:1024000002E3044A052A88EF0DF000500110021083
:1024100014E000C0E9FF01C0F3FF025000EC3BF004
:10242000006EF3CF01F0F4CF02F0E56A00C0E9FFDF
:1024300001C0F3FF025061EC3CF00950E4CF19F009
:10244000E4CF18F0E4CF17F0E4CF16F0E4CF15F0A6
:10245000E4CF14F0E4CF13F0E4CF12F0E4CF11F0A6
:10246000E4CF10F0E4CF0FF0E4CF0EF0E4CF0DF0A6
:10247000E4CF0CF0E4CF0BF0E4CF0AF0E4CF09F0A6
:10248000E4CF08F0E4CF07F0E4CF06F0E4CF05F0A6
:10249000E4CF04F0E4CF03F0E4CF02F0E4CF01F0A6
:1024A000E4CF00F0E4CFD9FF1200D9CFE5FFE1CFB0
:1024B000D9FF00C0E5FF01C0E5FF02C0E5FF03C092
:1024C000E5FF04C0E5FF05C0E5FF06C0E5FF07C066
:1024D000E5FF08C0E5FF09C0E5FF0AC0E5FF0BC046
:1024E000E5FF0CC0E5FF0DC0E5FF0EC0E5FF0FC026
:1024F000E5FF10C0E5FF11C0E5FF12C0E5FF13C006
:10250000E5FF14C0E5FF15C0E5FF16C0E5FF17C0E5
:10251000E5FF18C0E5FF19C0E5FF1AC0E5FF1BC0C5
:10252000E5FF1CC0E5FF1DC0E5FF1EC0E5FF1FC0A5
:10253000E5FF20C0E5FF020EDBCF00F0030EDBCF8E
:1025400001F0040EDBCF02F0050EDBCF03F0060E28
:10255000DBCF04F0070EDBCF05F0080EDBCF06F073
:10256000090EDBCF07F00A0EDBCF08F00C0EDBCF35
:1025700009F00A6A0B6A0C6A0D6A0E6A0F6A106A21
:10258000116A050E136E480E126E800E146E050E43
:10259000166E540E156E800E176E186A0B0E196E9D
:1025A00003500501766F0450776F0550786F065021
:1025B000796FD88079AFD89023E3075012E008A252
:1025C00010D02D0EE56E0250E56E0150E56E005004
:1025D000E56ED8EC2FF0040EE126010E186E07060A
:1025E0000FD02D0EE56E12C0E9FF13C0F3FF14509B
:1025F00061EC3CF0122A02E3134A142A0A0E196E07
:10260000050178357935036E046A810E032676510B
:10261000046E7751056E7F0E7815066E1A6A068E67
:102620000350800F610F21E32B0E0501486F690EE7
:10263000496F6E0E4A6F660E4B6F4C6B0850E56E1D
:102640000750E56E800EE56E050EE56E480EE56EF0
:102650000250E56E0150E56E0050E56EABEC23F0E4
:102660001B6E080EE1261B50BBD10350800F970F45
:1026700009E20A6A0B6A0C6A0D6A0E6A0F6A106A2E
:10268000116A9DD00350800F690F25E303C01BF032
:102690001C6A03BE1C68E90E1B26D8A01C0604C0D9
:1026A0000AF005C00BF006C00CF01AC00DF01B506C
:1026B00011E009E6E86CD8900A360B360C360D3678
:1026C000010FFAE37CD0D8900D320C320B320A3273
:1026D000010FFAE374D0D88003AED890D8B04AD0B6
:1026E00003C01BF01C6A03BE1C681B5017081D6E3C
:1026F000000E1C5404C00AF005C00BF006C00CF01C
:102700001AC00DF01D5011E009E6E86CD8900D32AA
:102710000C320B320A32010FFAE307D0D8900A3696
:102720000B360C360D36010FFAE31B4A1C2A04C087
:102730001DF005C01EF006C01FF01AC020F01B508F
:1027400011E009E6E86CD8901D361E361F3620369B
:10275000010FFAE307D0D89020321F321E321D320B
:10276000010FFAE31D500E6E1E500F6E1F50106EBB
:10277000116A25D01A6A1B6A03BE1B68034A1B2A0A
:102780001B1E036CD8B41B2A04C00EF005C00FF04A
:1027900006C010F01AC011F0035011E009E6E86C11
:1027A000D890113210320F320E32010FFAE307D0F7
:1027B000D8900E360F3610361136010FFAE30A5054
:1027C0000B100C100D100FE1300EE56E12C0E9FF7A
:1027D00013C0F3FF145061EC3CF0122A02E3134AD9
:1027E000142A190678D015C003F016C004F017C0DB
:1027F00005F0066A19C015F00A500B100C100D10E8
:10280000D8B43CD0E56AE56AE56A0A0EE56E0D507B
:10281000E56E0C50E56E0B50E56E0A50E56E75ECFA
:102820002CF0166E080EE126300E162616C0E5FFB7
:1028300003C0E9FF04C0F3FF055061EC3CF0032A3C
:1028400002E3044A052AE56AE56AE56A0A0EE56ECE
:102850000D50E56E0C50E56E0B50E56E0A50E56EBE
:10286000A8EC2DF00A6EF3CF0BF0F4CF0CF0E9CF0B
:102870000DF0080EE126062A1506BED715C019F080
:1028800012C00AF013C00BF014C00CF006C00DF01B
:1028900006060D501AE0FF0E03260422052203C08F
:1028A000E9FF04C0F3FF0550EFEC3BF00D6E0DC0E7
:1028B000E5FF0AC0E9FF0BC0F3FF0C5061EC3CF0F0
:1028C0000A2AE4E30B4A0C2AE1D70AC012F00BC033
:1028D00013F00CC014F0070E095C02E3060E096E3B
:1028E0000950195CD8A019C009F0010E095CD8A0E4
:1028F00057D02E0EE56E12C0E9FF13C0F3FF14503F
:1029000061EC3CF0122A02E3134A142A12C003F0CD
:1029100013C004F014C005F0066A0950065C3AE2E0
:102920000E500E240A6E0F340B6E10340C6E1134E0
:102930000D6E0A500A260B360C360D360A500A2642
:102940000B360C360D360E500E24156E0F34166EE7
:102950001034176E1134196E15500A240E6E16506D
:102960000B200F6E17500C20106E19500D200A6EA0
:10297000300E0A260AC0E5FF03C0E9FF04C0F3FFDA
:10298000055061EC3CF0032A02E3044A052A116A6F
:10299000062AC3D703C012F004C013F005C014F018
:1029A000E56A12C0E9FF13C0F3FF145061EC3CF07C
:1029B0000850E56E0750E56E800EE56E050EE56E7B
:1029C000480EE56E0250E56E0150E56E0050E56E72
:1029D000ABEC23F0006E080EE126185000260050E4
:1029E000E4CF20F0E4CF1FF0E4CF1EF0E4CF1DF0E1
:1029F000E4CF1CF0E4CF1BF0E4CF1AF0E4CF19F0E1
:102A0000E4CF18F0E4CF17F0E4CF16F0E4CF15F0E0
:102A1000E4CF14F0E4CF13F0E4CF12F0E4CF11F0E0
:102A2000E4CF10F0E4CF0FF0E4CF0EF0E4CF0DF0E0
:102A3000E4CF0CF0E4CF0BF0E4CF0AF0E4CF09F0E0
:102A4000E4CF08F0E4CF07F0E4CF06F0E4CF05F0E0
:102A5000E4CF04F0E4CF03F0E4CF02F0E4CF01F0E0
:102A6000E4CF00F0E4CFD9FF1200D9CFE5FFE1CFEA
:102A7000D9FF00C0E5FF01C0E5FF02C0E5FF03C0CC
:102A8000E5FF04C0E5FF05C0E5FF06C0E5FF07C0A0
:102A9000E5FF08C0E5FF09C0E5FF0AC0E5FF0BC080
:102AA000E5FF0CC0E5FF0EC0E5FF0FC0E5FF020E1D
:102AB000DBCF00F0030EDBCF01F0040EDBCF02F022
:102AC000050EDBCF03F0060EDBCF04F0070EDBCFE5
:102AD00005F0080EDBCF06F0090EDBCF07F0005043
:102AE0000501866F0150876F0250886F0350896F10
:102AF000045005018A6F05508B6F06508C6F07508C
:102B00008D6F0501865187118811891106E0050135
:102B10008A518B118C118D1105E1E96AF46AF36A0F
:102B2000E86A4CD105018951800BE844006E05012B
:102B30008D51800BE844001A050188358935016EF6
:102B4000036A046A026A820E0126FF0E0222032231
:102B5000042205018C358D35036E046A01C007F02F
:102B600002C008F007500326085004220350016EEB
:102B70000450026E05018651036E8751046E7F0E6C
:102B80008815056E058E0350866F0450876F0550BB
:102B9000886F896B05018A51036E8B51046E7F0E1D
:102BA0008C15056E058E03508A6F04508B6F05508F
:102BB0008C6F8D6B05018751036E8851046E8951AE
:102BC000056E05018B51076E8C51086E8D51E56ABB
:102BD000E56E0850E56E0750E56EE56A0550E56E56
:102BE0000450E56E0350E56ED6EC1FF0036EF3CF94
:102BF00004F0F4CF05F0E9CF06F0080EE126050158
:102C00008651076E05018B510B6E8C510C6E8D51E8
:102C1000E56AE56E0C50E56E0B50E56EE56AE56A17
:102C2000E56A0750E56ED6EC1FF0F3CF08F0F4CF5D
:102C300009F0E9CF0AF0080EE1260850076E0950A6
:102C4000086E0A50096E0A6A0750032608500422CB
:102C5000095005220A50062205018A51076E050116
:102C600087510B6E88510C6E8951E56AE56E0C50E8
:102C7000E56E0B50E56EE56AE56AE56A0750E56EBC
:102C8000D6EC1FF0F3CF08F0F4CF09F0E9CF0AF04B
:102C9000080EE1260850076E0950086E0A50096EAA
:102CA0000A6A0750032608500422095005220A50D8
:102CB0000622400E0326000E04220522062206AE3E
:102CC0000ED0400E0326000E0422052206220450D8
:102CD000036E0550046E0650056E066A11D003346B
:102CE0000434036E046A04360550E844FE0B0412F3
:102CF00005340634056E066A0636FF0E01260222EA
:102D0000059E0250800F7F0F02E1000E015C19E367
:102D1000005006E0076A086A096A800E0A6E04D04D
:102D2000076A086A096A0A6A098E7F0E0A12075042
:102D30000501866F0850876F0950886F0A50896FA8
:102D400035D0D88002AED89006E30501866B876B3C
:102D5000886B896B2BD0005006E0006A076A086A0E
:102D6000800E096E04D0006A076A086A096AE86A78
:102D7000023001300F6E0E6A0E320C6A0C500012D7
:102D800007120E5008120F5009120050031207507C
:102D90000412085005120950061203500501866FEF
:102DA0000450876F0550886F0650896F89C5E9FF09
:102DB00088C5F4FF87C5F3FF05018651E4CF0FF006
:102DC000E4CF0EF0E4CF0CF0E4CF0BF0E4CF0AF048
:102DD000E4CF09F0E4CF08F0E4CF07F0E4CF06F049
:102DE000E4CF05F0E4CF04F0E4CF03F0E4CF02F049
:102DF000E4CF01F0E4CF00F0E4CFD9FF1200D9CF47
:102E0000E5FFE1CFD9FF00C0E5FF01C0E5FF02C04B
:102E1000E5FF03C0E5FF04C0E5FF05C0E5FF06C010
:102E2000E5FF07C0E5FF08C0E5FF09C0E5FF0AC0F0
:102E3000E5FF0BC0E5FF0CC0E5FF0DC0E5FF0EC0D0
:102E4000E5FF0FC0E5FF10C0E5FF020EDBCF00F08D
:102E5000030EDBCF01F0040EDBCF02F0050EDBCF5B
:102E600003F0060EDBCF04F0070EDBCF05F0080EF3
:102E7000DBCF06F0090EDBCF07F0086A096A0A6AA1
:102E80000B6A00500501BA6F0150BB6F0250BC6F56
:102E90000350BD6F04500501BE6F0550BF6F065053
:102EA000C06F0750C16F0501BA51BB11BC11BD11F4
:102EB00009E1C1C5E9FFC0C5F4FFBFC5F3FF0501C6
:102EC000BE5140D10501BE51BF11C011C11109E170
:102ED000BDC5E9FFBCC5F4FFBBC5F3FF0501BA5191
:102EE00031D10501BC35BD35006E016A0136026A7B
:102EF000036A016A026A036A0501C035C135026EC0
:102F0000190F046E000E0320800FF36E0150800F26
:102F1000F35C02E10050045C09E2BDC5E9FFBCC5F9
:102F2000F4FFBBC5F3FF0501BA510CD10050190FD6
:102F3000046E000E0120800FF36E0350800FF35CCF
:102F400002E10250045C09E2C1C5E9FFC0C5F4FF1B
:102F5000BFC5F3FF0501BE51F5D00501BA51046E9E
:102F6000BB51056E7F0EBC15066E076A068E050105
:102F7000BE510C6EBF510D6E7F0EC0150E6E0F6AE6
:102F80000E8E0501BD51800BE844106E10500AE012
:102F9000071E061E051E046C05E1052A03E1062A2C
:102FA000D8B4072A0501C151800BE844106E1050B7
:102FB0000AE00F1E0E1E0D1E0C6C05E10D2A03E12A
:102FC0000E2AD8B40F2A0350800FF36E0150800FE1
:102FD000F35C02E10050025C1BE20250005C106EE8
:102FE00003500158105032E00BE6E86CD8900FBE49
:102FF000D8800F320E320D320C32010FF8E326D09A
:10300000D8900C360D360E360F36010FFAE31ED06F
:103010000050025C106E01500358105013E00BE694
:10302000E86CD89007BED8800732063205320432E9
:10303000010FF8E307D0D890043605360636073678
:10304000010FFAE302C000F003C001F00C500426A7
:103050000D5005220E5006220F500722D88007AED1
:10306000D89010E3071E061E051E046C05E1052A14
:1030700003E1062AD8B4072A086A096A0A6A800E98
:103080000B6E0AD0045005100610071005E1E96A1E
:10309000F46AF36AE86A56D00450026E0550036E73
:1030A00006500C6E07500D6E000E0D5C08E1800E90
:1030B0000C5C05E1000E035C02E1000E025C09E21B
:1030C00004500426053606360736FF0E0026012278
:1030D000E3D7075010E004A006D0020E0426000E2D
:1030E000052206220722073407320632053204324F
:1030F000004A012AEED7069EE86A013000300F6EC2
:103100000E6A0E320C6A0C50081209120E500A1286
:103110000F500B12045008120550091206500A12E3
:1031200007500B1208500501BA6F0950BB6F0A50C7
:10313000BC6F0B50BD6FBDC5E9FFBCC5F4FFBBC57F
:10314000F3FFBA51E4CF10F0E4CF0FF0E4CF0EF06C
:10315000E4CF0DF0E4CF0CF0E4CF0BF0E4CF0AF0B5
:10316000E4CF09F0E4CF08F0E4CF07F0E4CF06F0B5
:10317000E4CF05F0E4CF04F0E4CF03F0E4CF02F0B5
:10318000E4CF01F0E4CF00F0E4CFD9FF1200D9CFB3
:10319000E5FFE1CFD9FF00C0E5FF01C0E5FF02C0B8
:1031A000E5FF03C0E5FF04C0E5FF05C0E5FF06C07D
:1031B000E5FF07C0E5FF08C0E5FF09C0E5FF0AC05D
:1031C000E5FF0BC0E5FF0CC0E5FF0DC0E5FF0EC03D
:1031D000E5FF0FC0E5FF10C0E5FF11C0E5FF12C01D
:1031E000E5FF13C0E5FF14C0E5FF15C0E5FF16C0FD
:1031F000E5FF020EDBCF00F0030EDBCF01F0040E83
:10320000DBCF02F0050EDBCF03F0060EDBCF04F0C0
:10321000070EDBCF05F0080EDBCF06F0090EDBCF83
:1032200007F0005005018E6F01508F6F0250906FB4
:103230000350916F04500501926F0550936F065033
:10324000946F0750956F05019051026E9151036E76
:1032500002340334006E016A0136026A036A016AAD
:10326000026A036A05019451046E9551056E043497
:10327000053400C006F0076A065C026E035007586A
:10328000036E0250006E0350016E7E0E0026D8B011
:10329000012A05019151800BE844026E0501955108
:1032A000800BE844021A92519311941195110EE18A
:1032B000926B936BC00E946F7F0E956F95C5E9FF6F
:1032C00094C5F4FF93C5F3FF9251E7D005018E51E9
:1032D0008F119011911105E1E96AF46AF36AE86AC5
:1032E000DCD005018E51036E8F51046E7F0E901558
:1032F000056E066A058E05019251076E9351086EA0
:103300007F0E9415096E0A6A098E0650800FF36EBF
:103310000A50800FF35C08E10950055C05E1085094
:10332000045C02E10750035C08E203500326043604
:1033300005360636FF0E002601220B6A0C6A0D6A5E
:10334000010E0E6E0F6A106A116A126A0B500C1091
:103350000D100E1037E00650800FF36E0A50800FEC
:10336000F35C08E10950055C05E10850045C02E1EA
:103370000750035C1CE30F50136E1050146E115075
:10338000156E1250166E0B5013100F6E0C50141059
:10339000106E0D501510116E0E501610126E075053
:1033A000035E0850045A0950055A0A50065A035041
:1033B0000326043605360636D8900E320D320C320E
:1033C0000B32C4D70F2A04E3102A02E3114A122A4F
:1033D000004A012A12341232113210320F32119E79
:1033E0000150800F7F0F02E1000E005C19E30250D4
:1033F00006E0036A046A056A800E066E04D0036A5A
:10340000046A056A066A058E7F0E061203500501DE
:103410008E6F04508F6F0550906F0650916F35D0AE
:10342000D88001AED89006E305018E6B8F6B906B50
:10343000916B2BD0025006E0026A036A046A800E88
:10344000056E04D0026A036A046A056AE86A0130FC
:1034500000300B6E0A6A0A32086A08500212031220
:103460000A5004120B5005120F5002121050031292
:103470001150041212500512025005018E6F0350B4
:103480008F6F0450906F0550916F91C5E9FF90C503
:10349000F4FF8FC5F3FF05018E51E4CF16F0E4CFA2
:1034A00015F0E4CF14F0E4CF13F0E4CF12F0E4CF42
:1034B00011F0E4CF10F0E4CF0FF0E4CF0EF0E4CF42
:1034C0000DF0E4CF0CF0E4CF0BF0E4CF0AF0E4CF42
:1034D00009F0E4CF08F0E4CF07F0E4CF06F0E4CF42
:1034E00005F0E4CF04F0E4CF03F0E4CF02F0E4CF42
:1034F00001F0E4CF00F0E4CFD9FF1200D9CFE5FF0F
:10350000E1CFD9FF00C0E5FF01C0E5FF02C0E5FF44
:1035100003C0E5FF04C0E5FF05C0E5FF06C0E5FF09
:1035200007C0E5FF08C0E5FF09C0E5FF0AC0E5FFE9
:103530000BC0E5FF0CC0E5FF0DC0E5FF0EC0E5FFC9
:103540000FC0E5FF10C0E5FF11C0E5FF12C0E5FFA9
:1035500013C0E5FF14C0E5FF15C0E5FF16C0E5FF89
:1035600017C0E5FF18C0E5FF19C0E5FF1AC0E5FF69
:103570001BC0E5FF020EDBCF00F0030EDBCF01F036
:10358000040EDBCF02F0050EDBCF03F0060EDBCF1F
:1035900004F0070EDBCF05F0080EDBCF06F0090EB6
:1035A000DBCF07F00A0EDBCF08F00B0EDBCF09F004
:1035B0000C0EDBCF0AF00D0EDBCF0BF00F0EDBCFC6
:1035C0000CF00D6A0E6A03C00FF004C010F005C0C5
:1035D00011F006C012F003500410051006101BE194
:1035E000300E05013C6F3D6B0B50E56E0A50E56EE9
:1035F000800EE56E050EE56E3C0EE56E0250E56E42
:103600000150E56E0050E56EABEC23F0136E080E32
:10361000E1261350ECD0095036E008500A0A33E195
:1036200007501CE00350096E0450136E0550146ED1
:103630000650156ED88015AED89010E3010E0D6EB1
:10364000151C126E141C116E131C106E091C0F6ECB
:103650000F2A04E1102A02E1114A122A075013E14D
:10366000D88004AED8900FE3010E0D6E041E036CDB
:10367000D8B4042A03C00FF004C010F0E86A04BEF6
:10368000FF0E116E126E050E046E470E036E800E55
:10369000056EE56A03C0E9FF04C0F3FF61EC3CF08E
:1036A00003C006F004C007F005C009F00F50101069
:1036B00011101210D8B45AD008C013F0146A156A49
:1036C000166AE56AE56AE56A1350E56E1250E56E22
:1036D0001150E56E1050E56E0F50E56E75EC2CF054
:1036E000176EF3CF18F0F4CF19F0E9CF1AF0080EE7
:1036F000E126000E1A5C08E1000E195C05E1000EDF
:10370000185C02E10A0E175C06E30CC01BF0C60E43
:103710001B261B501726FF0E062607220922300EF5
:10372000172617C0E5FF06C0E9FF07C0F3FF0950E1
:1037300061EC3CF01650E56E1550E56E1450E56EE8
:103740001350E56E1250E56E1150E56E1050E56EA7
:103750000F50E56EA8EC2DF00F6EF3CF10F0F4CF04
:1037600011F0E9CF12F0080EE126A0D706C003F051
:1037700007C004F009C005F00D5021E00A5012E026
:103780000BA210D02D0EE56E0250E56E0150E56ED5
:103790000050E56ED8EC2FF0040EE126010E0E6EFF
:1037A0000A060DD0FF0E0326042205222D0EE56E1B
:1037B00003C0E9FF04C0F3FF055061EC3CF00B507F
:1037C000E56E0A50E56E0550E56E0450E56E035057
:1037D000E56E0250E56E0150E56E0050E56EABEC13
:1037E00023F0006E080EE1260E5000260050E4CFB4
:1037F0001BF0E4CF1AF0E4CF19F0E4CF18F0E4CFD7
:1038000017F0E4CF16F0E4CF15F0E4CF14F0E4CFD6
:1038100013F0E4CF12F0E4CF11F0E4CF10F0E4CFD6
:103820000FF0E4CF0EF0E4CF0DF0E4CF0CF0E4CFD6
:103830000BF0E4CF0AF0E4CF09F0E4CF08F0E4CFD6
:1038400007F0E4CF06F0E4CF05F0E4CF04F0E4CFD6
:1038500003F0E4CF02F0E4CF01F0E4CF00F0E4CFD6
:10386000D9FF1200D9CFE5FFE1CFD9FF00C0E5FFB6
:1038700001C0E5FF02C0E5FF03C0E5FF04C0E5FFAE
:1038800005C0E5FF06C0E5FF07C0E5FF08C0E5FF8E
:1038900009C0E5FF0AC0E5FF020EDBCF00F0030E12
:1038A000DBCF01F0040EDBCF02F0050EDBCF03F01F
:1038B000060EDBCF04F0E56AE56AE56AE56A0350C7
:1038C000E56E0250E56E0150E56E0050E56E38EC95
:1038D0002EF0056E080EE126055006E02D0EE56E71
:1038E0004BEC3BF0E652037E056A066A076A3F0E20
:1038F000086E096A0450095C1BE2410EE56E200E59
:10390000E56EE56AE56A0850E56E0750E56E06501B
:10391000E56E0550E56EC7EC18F0056EF3CF06F0C6
:10392000F4CF07F0E9CF08F0080EE126092AE2D724
:103930000850E56E0750E56E0650E56E0550E56EE1
:103940000350E56E0250E56E0150E56E0050E56EE5
:10395000FFEC16F0006EF3CF01F0F4CF02F0E9CFE8
:1039600003F0080EE1260350E56E0250E56E0150AB
:10397000E56E0050E56EA4EC36F0056EF3CF06F070
:10398000040EE1260650E56E0550E56E57EC39F061
:10399000076EF3CF08F0F4CF09F0E9CF0AF0E65252
:1039A000E6520A50E56E0950E56E0850E56E075084
:1039B000E56E0350E56E0250E56E0150E56E005075
:1039C000E56EE1EC29F0006EF3CF01F0F4CF02F0E8
:1039D000E9CF03F0080EE1260A0EE56E0650E56E0B
:1039E0000550E56ED8EC2BF0030EE126045005E0FF
:1039F0002E0EE56E4BEC3BF0E65204C005F00406DB
:103A00000550D8B45CD00350E56E0250E56E01500D
:103A1000E56E0050E56E410EE56E200EE56E000E7F
:103A2000E56AE56A35EC15F0006EF3CF01F0F4CFEE
:103A300002F0E9CF03F0080EE1260350E56E0250D4
:103A4000E56E0150E56E0050E56EA4EC36F0056EB3
:103A5000040EE12605C006F00A0EE56EE56A065082
:103A6000E56ED8EC2BF0030EE126E56A0550E56E15
:103A7000ABEC38F0056EF3CF06F0F4CF07F0E9CFEA
:103A800008F0E652E6520850E56E0750E56E065023
:103A9000E56E0550E56E0350E56E0250E56E01508F
:103AA000E56E0050E56EE1EC29F0006EF3CF01F019
:103AB000F4CF02F0E9CF03F0080EE1269ED7E4CF61
:103AC0000AF0E4CF09F0E4CF08F0E4CF07F0E4CF48
:103AD00006F0E4CF05F0E4CF04F0E4CF03F0E4CF48
:103AE00002F0E4CF01F0E4CF00F0E4CFD9FF120000
:103AF000D9CFE5FFE1CFD9FF00C0E5FF01C0E5FF69
:103B000002C0E5FF03C0E5FF04C0E5FF020EDBCF06
:103B100000F0030EDBCF01F0D40E0024026E036A26
:103B20005D0E0322046A000E042202C0F6FF03C0E9
:103B3000F7FF04C0F8FF0900F5CF02F0050E025CA4
:103B4000D8B0F8D0FA6AFB6A0234FA36E834FA36AA
:103B5000FC0B620FE56E3B0EFA22000EFB22E450D6
:103B6000F96EBBEF1DF0E8EF1DF015EF1EF042EF10
:103B70001EF06FEF1EF0015015E0B60E0024026E2D
:103B8000036A5D0E0322046A000E042202C0F6FFDF
:103B900003C0F7FF04C0F8FF0900F5CF02F00250A0
:103BA0008912C8D0B60E0024026E036A5D0E03228D
:103BB000046A000E042202C0F6FF03C0F7FF04C02F
:103BC000F8FF0900F5CF02F00250FF088916B2D0C5
:103BD000015015E0B60E0024026E036A5D0E03224A
:103BE000046A000E042202C0F6FF03C0F7FF04C0FF
:103BF000F8FF0900F5CF02F002508A129BD0B60EF2
:103C00000024026E036A5D0E0322046A000E042281
:103C100002C0F6FF03C0F7FF04C0F8FF0900F5CFAC
:103C200002F00250FF088A1685D0015015E0B60E4A
:103C30000024026E036A5D0E0322046A000E042251
:103C400002C0F6FF03C0F7FF04C0F8FF0900F5CF7C
:103C500002F002508B126ED0B60E0024026E036A80
:103C60005D0E0322046A000E042202C0F6FF03C0A8
:103C7000F7FF04C0F8FF0900F5CF02F00250FF087B
:103C80008B1658D0015015E0B60E0024026E036A60
:103C90005D0E0322046A000E042202C0F6FF03C078
:103CA000F7FF04C0F8FF0900F5CF02F002508C12B4
:103CB00041D0B60E0024026E036A5D0E0322046A30
:103CC000000E042202C0F6FF03C0F7FF04C0F8FF95
:103CD0000900F5CF02F00250FF088C162BD00150DE
:103CE00015E0B60E0024016E026A5D0E0222036A20
:103CF000000E032201C0F6FF02C0F7FF03C0F8FF69
:103D00000900F5CF01F001508D1214D0016A026A4A
:103D1000B60E00265D0E0122000E022200C0F6FF44
:103D200001C0F7FF02C0F8FF0900F5CF00F0005016
:103D3000FF088D16E4CF04F0E4CF03F0E4CF02F0E7
:103D4000E4CF01F0E4CF00F0E4CFD9FF1200D9CFE7
:103D5000E5FFE1CFD9FF00C0E5FF01C0E5FF02C0EC
:103D6000E5FF03C0E5FF04C0E5FF020EDBCF00F076
:103D7000030EDBCF01F0D40E0024026E036A5D0E49
:103D80000322046A000E042202C0F6FF03C0F7FFFC
:103D900004C0F8FF0900F5CF02F0050E025CD8B0B0
:103DA000F8D0FA6AFB6A0234FA36E834FA36FC0BC9
:103DB000C00FE56E3D0EFA22000EFB22E450F96EB4
:103DC000EAEF1EF017EF1FF044EF1FF071EF1FF046
:103DD0009EEF1FF0015015E0B60E0024026E036A3C
:103DE0005D0E0322046A000E042202C0F6FF03C027
:103DF000F7FF04C0F8FF0900F5CF02F0025092125D
:103E0000C8D0B60E0024026E036A5D0E0322046A57
:103E1000000E042202C0F6FF03C0F7FF04C0F8FF43
:103E20000900F5CF02F00250FF089216B2D00150FF
:103E300015E0B60E0024026E036A5D0E0322046ACA
:103E4000000E042202C0F6FF03C0F7FF04C0F8FF13
:103E50000900F5CF02F0025093129BD0B60E002459
:103E6000026E036A5D0E0322046A000E042202C081
:103E7000F6FF03C0F7FF04C0F8FF0900F5CF02F01A
:103E80000250FF08931685D0015015E0B60E0024AD
:103E9000026E036A5D0E0322046A000E042202C051
:103EA000F6FF03C0F7FF04C0F8FF0900F5CF02F0EA
:103EB000025094126ED0B60E0024026E036A5D0E9C
:103EC0000322046A000E042202C0F6FF03C0F7FFBB
:103ED00004C0F8FF0900F5CF02F00250FF08941665
:103EE00058D0015015E0B60E0024026E036A5D0E34
:103EF0000322046A000E042202C0F6FF03C0F7FF8B
:103F000004C0F8FF0900F5CF02F00250951241D02D
:103F1000B60E0024026E036A5D0E0322046A000ED0
:103F2000042202C0F6FF03C0F7FF04C0F8FF090037
:103F3000F5CF02F00250FF0895162BD0015015E086
:103F4000B60E0024016E026A5D0E0222036A000EA4
:103F5000032201C0F6FF02C0F7FF03C0F8FF09000B
:103F6000F5CF01F00150961214D0016A026AB60E24
:103F700000265D0E0122000E022200C0F6FF01C0E5
:103F8000F7FF02C0F8FF0900F5CF00F00050FF086E
:103F90009616E4CF04F0E4CF03F0E4CF02F0E4CFD0
:103FA00001F0E4CF00F0E4CFD9FF1200D9CFE5FF54
:103FB000E1CFD9FF00C0E5FF01C0E5FF02C0E5FF8A
:103FC00003C0E5FF04C0E5FF05C0E5FF06C0E5FF4F
:103FD00007C0E5FF020EDBCF00F0030EDBCF01F0E0
:103FE000040EDBCF02F0050EDBCF03F0060EDBCFB5
:103FF00004F0070EDBCF05F0080EDBCF06F0090E4C
:10400000DBCF07F000500501A26F0150A36F0250F3
:10401000A46F0350A56F04500501A66F0550A76F4C
:104020000650A86F0750A96F0501A2510501A8030A
:10403000F4CF01F0F3CF00F000500501AC6F015058
:10404000AD6F0501A2510501A603F4CF01F0F3CF36
:1040500000F000500501AA6F0150AB6F0501A5519A
:104060000501A603F3CF00F00501AD510026005075
:10407000AD6F0501A4510501A703F3CF00F00501C1
:10408000AD5100260050AD6F0501A4510501A603F6
:10409000F4CF01F0F3CF00F00501AC510026AD5193
:1040A00001220050AC6F0150AD6F0501A351050115
:1040B000A703F4CF01F0F3CF00F00501AC510026C7
:1040C000AD5101220050AC6F0150AD6F0501A351FD
:1040D0000501A803F3CF00F000500501B16F050101
:1040E000A3510501A603F4CF01F0F3CF00F0005077
:1040F0000501AF6F0150B06F0501A2510501A90381
:10410000F3CF00F000500501B56F0501A251050184
:10411000A703F4CF01F0F3CF00F000500501B36F17
:104120000150B46F0501AE6B0501B26B0501AE51D4
:104130000501AA25006E0501AF510501AB21016EF5
:104140000501B0510501AC21026E0501B151050117
:10415000AD21036E0050AA6F0150AB6F0250AC6FDF
:104160000350AD6F0501B2510501AA25006E05018E
:10417000B3510501AB21016E0501B4510501AC211C
:10418000026E0501B5510501AD21036E03C0E9FFC3
:1041900002C0F4FF01C0F3FF0050E4CF07F0E4CF0A
:1041A00006F0E4CF05F0E4CF04F0E4CF03F0E4CF71
:1041B00002F0E4CF01F0E4CF00F0E4CFD9FF120029
:1041C000D9CFE5FFE1CFD9FF00C0E5FF01C0E5FF92
:1041D00002C0E5FF03C0E5FF04C0E5FF020EDBCF30
:1041E00000F01E0E005CD8B0E1D0D40E0024016EA9
:1041F000026A5D0E0222036A000E032201C0F6FF6E
:1042000002C0F7FF03C0F8FF0900F5CF01F0050E6B
:10421000015CD8B0CBD0FA6AFB6A0134FA36E834D4
:10422000FA36FC0B340FE56E420EFA22000EFB222A
:10423000E450F96E24EF21F048EF21F06CEF21F00B
:1042400090EF21F0B4EF21F0B60E0024016E026A67
:104250005D0E0222036A000E032201C0F6FF02C0B7
:10426000F7FF03C0F8FF0900F5CF04F0050168511E
:1042700004120450686F01C0F6FF02C0F7FF03C0CC
:10428000F8FF0900F5CF01F0011E015092168ED003
:10429000B60E0024016E026A5D0E0222036A000E51
:1042A000032201C0F6FF02C0F7FF03C0F8FF0900B8
:1042B000F5CF04F00501695104120450696F01C083
:1042C000F6FF02C0F7FF03C0F8FF0900F5CF01F0C9
:1042D000011E015093166AD0B60E0024016E026AC8
:1042E0005D0E0222036A000E032201C0F6FF02C027
:1042F000F7FF03C0F8FF0900F5CF04F005016A518C
:10430000041204506A6F01C0F6FF02C0F7FF03C039
:10431000F8FF0900F5CF01F0011E0150941646D0B8
:10432000B60E0024016E026A5D0E0222036A000EC0
:10433000032201C0F6FF02C0F7FF03C0F8FF090027
:10434000F5CF04F005016B51041204506B6F01C0EE
:10435000F6FF02C0F7FF03C0F8FF0900F5CF01F038
:10436000011E0150951622D0016A026AB60E00267F
:104370005D0E0122000E022200C0F6FF01C0F7FF11
:1043800002C0F8FF0900F5CF03F005016C510312DC
:1043900003506C6F00C0F6FF01C0F7FF02C0F8FFCA
:1043A0000900F5CF00F0001E00509616E4CF04F08F
:1043B000E4CF03F0E4CF02F0E4CF01F0E4CF00F06B
:1043C000E4CFD9FF120000C0E5FF01C0E5FF02C045
:1043D000E5FF03C0E5FF04C0E5FF05C0E5FFD350DE
:1043E000030B006E0050D8A491D0E56A300EE56E44
:1043F000000EE56AE56AD4EC32F0006E040EE126A8
:10440000180E0016016AD89001320032D89001329D
:104410000032D89001320032920E0024016E026AFE
:104420005D0E0222036A000E032201C0F6FF02C0E5
:10443000F7FF03C0F8FF0900F5CF01F0E56A300E81
:10444000E56EE56A010EE56ED4EC32F0026E040E04
:10445000E1260F0E02168E0E0024036E046A5D0E16
:104460000422056A000E052203C0F6FF04C0F7FF10
:1044700005C0F8FF0900F5CF00F0D89002320250D5
:1044800006E00250020A03E00250060A1FE1E56A54
:10449000E56AE56A0150E56EE56A7A0EE56E120E90
:1044A000E56E000EE56A4DEC25F0016EF3CF02F0EB
:1044B000F4CF03F0E9CF04F0080EE12604C0E9FFD1
:1044C00003C0F4FF02C0F3FF015063D0E56AE56A60
:1044D000E56A0050E56E050EE56EB80EE56ED80E85
:1044E000E56E000EE56AA8EC2DF0006EF3CF01F04A
:1044F000F4CF02F0E9CF03F0080EE12603C0E9FF94
:1045000002C0F4FF01C0F3FF005043D0D350030BAF
:10451000010A06E1E96AF46A800EF36EE86A39D0AE
:10452000D350030B800F7E0F30E3D350E838070BD6
:10453000E56AE56EE56A040EE56E71EC35F0006E35
:10454000F3CF01F0040EE126026A960E00265D0EFE
:104550000122000E022200C0F6FF01C0F7FF02C0D8
:10456000F8FF0900F5CF00F00900F5CF01F00900D0
:10457000F5CF02F00900F5CF03F003C0E9FF02C058
:10458000F4FF01C0F3FF005004D0E96AF46AF36A53
:10459000E86AE4CF05F0E4CF04F0E4CF03F0E4CF21
:1045A00002F0E4CF01F0E4CF00F01200D9CFE5FF34
:1045B000E1CFD9FF00C0E5FF01C0E5FF02C0E5FF84
:1045C00003C0E5FF020EDBCF00F0D40E0024016E25
:1045D000026A5D0E0222036A000E032201C0F6FF8A
:1045E00002C0F7FF03C0F8FF0900F5CF01F0050E88
:1045F000015CD8B0A4D0FA6AFB6A0134FA36E83418
:10460000FA36FC0B140FE56E460EFA22000EFB2262
:10461000E450F96E14EF23F030EF23F04CEF23F069
:1046200068EF23F084EF23F0B60E0024016E026AD7
:104630005D0E0222036A000E032201C0F6FF02C0D3
:10464000F7FF03C0F8FF0900F5CF01F08050011615
:10465000015003E0010E016E01D0016A015070D0DB
:10466000B60E0024016E026A5D0E0222036A000E7D
:10467000032201C0F6FF02C0F7FF03C0F8FF0900E4
:10468000F5CF01F081500116015003E0010E016EDB
:1046900001D0016A015054D0B60E0024016E026AA6
:1046A0005D0E0222036A000E032201C0F6FF02C063
:1046B000F7FF03C0F8FF0900F5CF01F082500116A3
:1046C000015003E0010E016E01D0016A015038D0A3
:1046D000B60E0024016E026A5D0E0222036A000E0D
:1046E000032201C0F6FF02C0F7FF03C0F8FF090074
:1046F000F5CF01F083500116015003E0010E016E69
:1047000001D0016A01501CD0016A026AB60E00266F
:104710005D0E0122000E022200C0F6FF01C0F7FF6D
:1047200002C0F8FF0900F5CF00F0845000160050D9
:1047300003E0010E006E01D0006A005001D0E86A6B
:10474000E4CF03F0E4CF02F0E4CF01F0E4CF00F0D7
:10475000E4CFD9FF1200D9CFE5FFE1CFD9FF00C0E8
:10476000E5FF01C0E5FF02C0E5FF03C0E5FF04C0AF
:10477000E5FF05C0E5FF06C0E5FF07C0E5FF08C08F
:10478000E5FF09C0E5FF0AC0E5FF0BC0E5FF0CC06F
:10479000E5FF0DC0E5FF0EC0E5FF020EDBCF00F028
:1047A000030EDBCF01F0040EDBCF02F0050EDBCFF2
:1047B00003F0060EDBCF04F0070EDBCF05F0080E8A
:1047C000DBCF06F0090EDBCF07F0086A200E096E7A
:1047D000065022E00A6A03C00BF004C00CF005C0CA
:1047E0000DF00BC0E9FF0CC0F3FF0D50EFEC3BF0F8
:1047F0000E6E0E5006E00A2A0B2AF3E30C4A0D2A2D
:10480000F0D706500A5C02E3066A02D00A50065E40
:1048100007A202D0300E096E07B019D0076A06C091
:104820000AF00A5005E107C008F00AC006F00FD0F0
:104830000950E56E0250E56E0150E56E0050E56EE0
:10484000D8EC2FF0040EE126072A0A06EAD708C0A2
:1048500007F003C0E9FF04C0F3FF0550EFEC3BF0A5
:10486000086E085012E00850E56E0250E56E0150E7
:10487000E56E0050E56ED8EC2FF0040EE126072A15
:10488000032AE7E3044A052AE4D707C003F006C079
:1048900004F004500FE00950E56E0250E56E01503F
:1048A000E56E0050E56ED8EC2FF0040EE126032AE9
:1048B0000406EFD7F36A0350E4CF0EF0E4CF0DF017
:1048C000E4CF0CF0E4CF0BF0E4CF0AF0E4CF09F032
:1048D000E4CF08F0E4CF07F0E4CF06F0E4CF05F032
:1048E000E4CF04F0E4CF03F0E4CF02F0E4CF01F032
:1048F000E4CF00F0E4CFD9FF120000C0E5FF01C013
:10490000E5FF02C0E5FF03C0E5FF0E0EE56EC1EC5A
:1049100035F0006EF3CF01F0E6520F0EE56EC1ECFC
:1049200035F0026EF3CF03F0E6520050011018E1AB
:104930002FEC3CF00401FA3F01D0FB2BE56A0A0E94
:10494000E56EC1EC31F0E652E6520401FB51800FF6
:10495000800F02E1050EFA5D03E30401FA6BFB6BC5
:10496000000EE56E5E0EE56E360EE56E32EC37F04B
:10497000030EE126E56A060EE56EF3EC37F0E6522B
:10498000E6520A0EE56E0401FB51E56EFA51E56E42
:10499000D8EC2BF0030EE126010EE56E000EE56E5D
:1049A000F3EC37F0E652E652D8800401FBAFD89022
:1049B000D8B059D0FB51800F800F02E1050EFA5D8F
:1049C000D8B051D0FA6AFB6A0401FA35FA36E834F5
:1049D000FA36FC0BE40FE56E490EFA22000EFB22BC
:1049E000E450F96EFCEF24F007EF25F012EF25F00C
:1049F0001DEF25F028EF25F0000EE56E5E0EE56E4A
:104A00003C0EE56E32EC37F0030EE12637D0000E97
:104A1000E56E5E0EE56E420EE56E32EC37F0030E8B
:104A2000E1262CD0000EE56E5E0EE56E4C0EE56EB6
:104A300032EC37F0030EE12621D0000EE56E5E0E5B
:104A4000E56E540EE56E32EC37F0030EE12616D01B
:104A5000000EE56E5E0EE56E5E0EE56E32EC37F032
:104A6000030EE1260BD00A0EE56E0401FB51E56E44
:104A7000FA51E56ED8EC2BF0030EE1263CEC3CF04D
:104A800002500310D8A441D7E4CF03F0E4CF02F0E2
:104A9000E4CF01F0E4CF00F01200D9CFE5FFE1CF81
:104AA000D9FF00C0E5FF01C0E5FF02C0E5FF03C07C
:104AB000E5FF04C0E5FF05C0E5FF06C0E5FF07C050
:104AC000E5FF08C0E5FF09C0E5FF0AC0E5FF0BC030
:104AD000E5FF0CC0E5FF0DC0E5FF020EDBCF00F0E7
:104AE000030EDBCF01F0040EDBCF02F0050EDBCFAF
:104AF00003F0060EDBCF04F0070EDBCF05F0080E47
:104B0000DBCF06F0090EDBCF07F0D88003AED890DC
:104B1000086A083608500FE0031C0C6E021C0B6E6E
:104B2000011C0A6E001C096E092A0DE10A2A0BE11C
:104B30000B4A0C2A08D000C009F001C00AF002C0DC
:104B40000BF003C00CF0D88007AED890006A003696
:104B500000500FE0071C0D6E061C036E051C026E54
:104B6000041C016E012A0DE1022A0BE1034A0D2A01
:104B700008D004C001F005C002F006C003F007C071
:104B80000DF00D50E56E0350E56E0250E56E0150DC
:104B9000E56E0C50E56E0B50E56E0A50E56E09505F
:104BA000E56EA8EC2DF0016EF3CF02F0F4CF03F028
:104BB000E9CF04F0080EE1260050081A085016E06C
:104BC000041C076E031C066E021C056E011C006EA1
:104BD000002A04E1052A02E1064A072A07C0E9FF84
:104BE00006C0F4FF05C0F3FF005007D004C0E9FF82
:104BF00003C0F4FF02C0F3FF0150E4CF0DF0E4CF97
:104C00000CF0E4CF0BF0E4CF0AF0E4CF09F0E4CFEE
:104C100008F0E4CF07F0E4CF06F0E4CF05F0E4CFEE
:104C200004F0E4CF03F0E4CF02F0E4CF01F0E4CFEE
:104C300000F0E4CFD9FF120000C0E5FF01C0E5FF9E
:104C400002C0E5FF03C0E5FF04C0E5FF05C0E5FFC6
:104C5000006A016A026A036A3CEC3CF00A0EE56EE7
:104C60000350E56E0250E56ED8EC2BF0030EE12602
:104C7000E56EE80EE56EC1EC31F0E652E652024A0E
:104C8000032A0350800F800F02E1060E025CE4E36A
:104C90000F0EE56EC1EC35F0F3CF03F0E6520310D2
:104CA000D8B489D032EC38F0026EF3CF03F034EC94
:104CB0003AF0300E836EE56A010EE56EC1EC31F01C
:104CC000E652E652004A012A0150800F800F02E1AD
:104CD000330E005C04E32FEC3CF0006A016A0350E1
:104CE000800F800F02E1170E025CD2E20350800FAA
:104CF000800F02E1010E025CCBE33CEC3CF0000EC5
:104D0000E56E5E0EE56E2E0EE56E32EC37F0030EAC
:104D1000E126026A036A0350800F800F02E10A0E47
:104D2000025CD8B0B5D73CEC3CF0000EE56E5E0EF0
:104D3000E56E2E0EE56E32EC37F0030EE126010E25
:104D4000E56E000EE56AF3EC37F0E652E6520A0E25
:104D5000E56E0350E56E0250E56ED8EC2BF0030EC5
:104D6000E1260D0EE56EC1EC35F0046EF3CF05F0D3
:104D7000E652600E836E0550800F800F02E18D0EAB
:104D8000045CC9E3900E836E010EE56E2C0EE56E99
:104D9000C1EC31F0E652E652300E836E020EE56E43
:104DA000580EE56EC1EC31F0E652E652024A032A93
:104DB0002FEC3CF0B0D7E4CF05F0E4CF04F0E4CF23
:104DC00003F0E4CF02F0E4CF01F0E4CF00F01200F2
:104DD00000C0E5FF01C0E5FF02C0E5FF03C0E5FF3D
:104DE00004C0E5FF05C0E5FF006A016A026A036AC4
:104DF0003CEC3CF00A0EE56E0350E56E0250E56EA9
:104E0000D8EC2BF0030EE126E56EE80EE56EC1EC62
:104E100031F0E652E652024A032A0350800F800F17
:104E200002E1060E025CE4E30F0EE56EC1EC35F024
:104E3000F3CF03F0E6520310D8B489D032EC38F047
:104E4000026EF3CF03F034EC3AF0300E836EE56A75
:104E5000010EE56EC1EC31F0E652E652004A012A3D
:104E60000150800F800F02E1330E005C04E32FEC51
:104E70003CF0006A016A0350800F800F02E1170EB8
:104E8000025CD2E20350800F800F02E1010E025C4F
:104E9000CBE33CEC3CF0000EE56E5E0EE56E2E0EB4
:104EA000E56E32EC37F0030EE126026A036A035026
:104EB000800F800F02E10A0E025CD8B0B5D73CEC3F
:104EC0003CF0000EE56E5E0EE56E2E0EE56E32ECE9
:104ED00037F0030EE126010EE56E000EE56AF3ECF5
:104EE00037F0E652E6520A0EE56E0350E56E0250C8
:104EF000E56ED8EC2BF0030EE1260D0EE56EC1EC4D
:104F000035F0046EF3CF05F0E652600E836E055067
:104F1000800F800F02E1320E045CC9E2900E836EB6
:104F2000010EE56E2C0EE56EC1EC31F0E652E65254
:104F3000300E836E020EE56E580EE56EC1EC31F058
:104F4000E652E652024A032A2FEC3CF0B0D7E4CFF7
:104F500005F0E4CF04F0E4CF03F0E4CF02F0E4CFB7
:104F600001F0E4CF00F01200D9CFE5FFE1CFD9FF87
:104F700000C0E5FF01C0E5FF02C0E5FF03C0E5FF9B
:104F8000020EDBCF00F01E0E005CD8B0A5D0D40E10
:104F90000024016E026A5D0E0222036A000E0322E3
:104FA00001C0F6FF02C0F7FF03C0F8FF0900F5CF0C
:104FB00001F0050E015CD8B08FD0FA6AFB6A0134AB
:104FC000FA36E834FA36FC0BD80FE56E4F0EFA22AB
:104FD000000EFB22E450F96EF6EF27F00EEF28F0FA
:104FE00026EF28F03EEF28F056EF28F0B60E00240A
:104FF000016E026A5D0E0222036A000E032201C0E6
:10500000F6FF02C0F7FF03C0F8FF0900F5CF01F07B
:1050100005016851011A0150686F5ED0B60E002478
:10502000016E026A5D0E0222036A000E032201C0B5
:10503000F6FF02C0F7FF03C0F8FF0900F5CF01F04B
:1050400005016951011A0150696F46D0B60E00245E
:10505000016E026A5D0E0222036A000E032201C085
:10506000F6FF02C0F7FF03C0F8FF0900F5CF01F01B
:1050700005016A51011A01506A6F2ED0B60E002444
:10508000016E026A5D0E0222036A000E032201C055
:10509000F6FF02C0F7FF03C0F8FF0900F5CF01F0EB
:1050A00005016B51011A01506B6F16D0016A026A3B
:1050B000B60E00265D0E0122000E022200C0F6FF91
:1050C00001C0F7FF02C0F8FF0900F5CF00F00501AD
:1050D0006C51001A00506C6FE4CF03F0E4CF02F083
:1050E000E4CF01F0E4CF00F0E4CFD9FF1200D9CF34
:1050F000E5FFE1CFD9FF00C0E5FF01C0E5FF02C039
:10510000E5FF03C0E5FF04C0E5FF05C0E5FF06C0FD
:10511000E5FF07C0E5FF08C0E5FF09C0E5FF0AC0DD
:10512000E5FF0BC0E5FF020EDBCF00F0030EDBCF87
:1051300001F0040EDBCF02F0050EDBCF03F00050D0
:1051400001100210031005E1E96AF46AF36AE86AE3
:105150006ED0960E046E056A035008E0D8900332B4
:10516000023201320032044A052AF6D704C006F0A2
:1051700005C007F0000E035C08E1800E025C05E14B
:10518000000E015C02E1000E005C18E200500026F7
:10519000013602360336FF0E04260522000E035C9C
:1051A00008E1800E025C05E1000E015C02E1000EE8
:1051B000005CECE304C006F005C007F00050046E8C
:1051C0000150056E7F0E0214086E096A0450FF0A32
:1051D00008E10550FF0A05E108507F0A02E1095085
:1051E00001E006D0006A016A026A036A064A072AD9
:1051F000029EE86A073006300B6E0A6A0A32086AB5
:105200000850001201120A5002120B5003120050F3
:105210000501B66F0150B76F0250B86F0350B96FF8
:10522000B9C5E9FFB8C5F4FFB7C5F3FFB651E4CF80
:105230000BF0E4CF0AF0E4CF09F0E4CF08F0E4CFBC
:1052400007F0E4CF06F0E4CF05F0E4CF04F0E4CFBC
:1052500003F0E4CF02F0E4CF01F0E4CF00F0E4CFBC
:10526000D9FF1200D9CFE5FFE1CFD9FF00C0E5FF9C
:1052700001C0E5FF020EDBCF00F0030EDBCF01F033
:10528000020E005C02E30501DB8700C0DCF50501CE
:10529000D56B015005E00050010A02E10501DB85F4
:1052A000E56A0F0EE56EC1EC31F0E652E652E56AB2
:1052B0000401F551E56E78EC1DF0E652E652E56A20
:1052C0000401F751E56E78EC1DF0E652E652050157
:1052D000DBB92AD0030EE56EB3EC37F0E652E56A8F
:1052E000050EE56EC1EC31F0E652E652030EE56EB6
:1052F000B3EC37F0E652E56A960EE56EE8EC39F06D
:10530000E652E652030EE56EB3EC37F0E652E56A7C
:10531000960EE56EE8EC39F0E652E652020EE56EC6
:10532000B3EC37F0E65223D0200E0501DB11E56E19
:105330008CEC3BF0E652E56A050EE56EC1EC31F00F
:10534000E652E652200E0501DB11E56E8CEC3BF0D7
:10535000E652E56A050EE56EC1EC31F0E652E65222
:10536000200E0501DB11E56E8CEC3BF0E652200EC1
:105370000501DB11E56E8CEC3BF0E652040E0501F5
:10538000D26F0C0EE56E8CEC3BF0E652010EE56E32
:105390008CEC3BF0E652E56A020EE56EC1EC31F0B2
:1053A000E652E652020E0501D36F060EE56E8CEC56
:1053B0003BF0E652E4CF01F0E4CF00F0E4CFD9FFB8
:1053C0001200D9CFE5FFE1CFD9FF00C0E5FF01C052
:1053D000E5FF02C0E5FF03C0E5FF04C0E5FF05C02F
:1053E000E5FF06C0E5FF07C0E5FF020EDBCF00F0DA
:1053F000030EDBCF01F0040EDBCF02F0050EDBCF96
:1054000003F0060EDBCF04F0070EDBCF05F0080E2D
:10541000DBCF06F0090EDBCF07F0005005019A6FD5
:1054200001509B6F02509C6F03509D6F045005010B
:105430009E6F05509F6F0650A06F0750A16F9E5141
:105440009F11A011A11109E19DC5E9FF9CC5F4FFC1
:105450009BC5F3FF05019A514BD005019A519B1151
:105460009C119D1111E19EC500F09FC501F0A0C5E2
:1054700002F0A1C503F0037E03C0E9FF02C0F4FF00
:1054800001C0F3FF005034D005019E51006E9F51C2
:10549000016EA051026E800EA119036E00509E6F26
:1054A00001509F6F0250A06F0350A16FE56EA05195
:1054B000E56E9F51E56E9E51E56E05019D51E56ECD
:1054C0009C51E56E9B51E56E9A51E56EFFEC16F02E
:1054D000006EF3CF01F0F4CF02F0E9CF03F0080E35
:1054E000E12603C0E9FF02C0F4FF01C0F3FF005052
:1054F000E4CF07F0E4CF06F0E4CF05F0E4CF04F00A
:10550000E4CF03F0E4CF02F0E4CF01F0E4CF00F009
:10551000E4CFD9FF1200D9CFE5FFE1CFD9FF00C01A
:10552000E5FF01C0E5FF02C0E5FF03C0E5FF04C0E1
:10553000E5FF05C0E5FF06C0E5FF07C0E5FF08C0C1
:10554000E5FF020EDBCF00F0030EDBCFF5F4040E17
:10555000DBCFF6F4050EDBCFF7F4060EDBCF01F060
:10556000070EDBCF02F0080EDBCF03F0090EDBCF16
:1055700004F00A0EDBCF05F00B0EDBCF06F00C0EAD
:10558000DBCF07F00D0EDBCF08F001500501606F97
:105590000250616F0350626F0450636F0550646F77
:1055A0000650656F0750666F0850676FE56A040123
:1055B000F551E56EA7EC1EF0E652E652E56A0401ED
:1055C000F751E56EA7EC1EF0E652E65200501BE0E4
:1055D0000501DB6B006A600E0024016E026A050E95
:1055E000022201C0E9FF02C0EAFFEFCF01F0E56A45
:1055F0000150E56EA7EC1EF0E652E652002A040EBA
:10560000005CE9E31BD0100E0501DB6F006A600E41
:105610000024016E026A050E022201C0E9FF02C0E9
:10562000EAFFEFCF01F0E56A0150E56EA7EC1EF04E
:10563000E652E652002A080E005CE9E3E4CF08F0E7
:10564000E4CF07F0E4CF06F0E4CF05F0E4CF04F0B8
:10565000E4CF03F0E4CF02F0E4CF01F0E4CF00F0B8
:10566000E4CFD9FF1200D9CFE5FFE1CFD9FF00C0C9
:10567000E5FF01C0E5FF0501D66B0401F46B1E0ECA
:105680000501D625006E016A050E012200C0E9FF62
:1056900001C0EAFFEFCF00F000500401F41901E06F
:1056A0006AD00501D651050DF450016EF3CF00F01C
:1056B000000E0026040E012200C0E9FF01C0EAFF2F
:1056C000EFCF00F00050801AD651050DF450016E56
:1056D000F3CF00F0000E0026040E0122004A012A3A
:1056E00000C0E9FF01C0EAFFEFCF00F00050811ACF
:1056F000D651050DF450016EF3CF00F0000E0026D8
:10570000040E0122020E0026D8B0012A00C0E9FFD3
:1057100001C0EAFFEFCF00F00050821AD651050D0C
:10572000F450016EF3CF00F0000E0026040E0122AB
:10573000030E0026D8B0012A00C0E9FF01C0EAFF2D
:10574000EFCF00F00050831AD651050DF450016ED2
:10575000F3CF00F0000E0026040E0122040E0026F6
:10576000D8B0012A00C0E9FF01C0EAFFEFCF00F086
:105770000050841AD62B070ED16F000000000000E5
:105780000000000000000000000000000000000019
:10579000D12FBDEF2BF00401F42BFB0EF45DD8A04C
:1057A0006ED7E4CF01F0E4CF00F0E4CFD9FF1200D0
:1057B000D9CFE5FFE1CFD9FF00C0E5FF01C0E5FF8C
:1057C00002C0E5FF03C0E5FF04C0E5FF05C0E5FF3B
:1057D00006C0E5FF07C0E5FF08C0E5FF09C0E5FF1B
:1057E000020EDBCF00F0030EDBCF01F0040EDBCFA7
:1057F00002F00050011006E1300EE56E4BEC3BF07C
:10580000E6525CD0036A046A005001102FE003C026
:1058100005F004C006F0034A042AD20E0526040E41
:10582000062202C007F0086AE56A0750E56E0150DB
:10583000E56E0050E56E1FEC32F0096E040EE126B5
:1058400005C0E9FF06C0EAFF09C0EFFF0850E56E9A
:105850000750E56E0150E56E0050E56E2CEC33F01C
:10586000006EF3CF01F0040EE126CED703C000F0A6
:1058700004C001F00050011021E00004026E036A30
:10588000D20E0226040E032202C0E9FF03C0EAFF83
:10589000EFCF02F00A0E025C05E20250036E300EFA
:1058A000032603D0370E0224036E0350E56E4BEC43
:1058B0003BF0E652FF0E00260122DCD7E4CF09F0D0
:1058C000E4CF08F0E4CF07F0E4CF06F0E4CF05F032
:1058D000E4CF04F0E4CF03F0E4CF02F0E4CF01F032
:1058E000E4CF00F0E4CFD9FF1200D9CFE5FFE1CF3C
:1058F000D9FF00C0E5FF01C0E5FF02C0E5FF03C01E
:10590000E5FF04C0E5FF05C0E5FF06C0E5FF07C0F1
:10591000E5FF08C0E5FF09C0E5FF0AC0E5FF020E8C
:10592000DBCF00F0030EDBCF01F0040EDBCF02F083
:10593000050EDBCF03F0060EDBCF04F0070EDBCF46
:1059400005F0080EDBCF06F0090EDBCF07F0086A82
:10595000045005100610071005E1E968F468F368C3
:10596000E86847D0096A0750800BE8440A6E0A507D
:105970001BE1045004260536063607360750035C43
:1059800008E10650025C05E10550015C02E10450AB
:10599000005C06E2D890073206320532043204D0A9
:1059A000092A09C008F0DFD70750035C08E1065058
:1059B000025C05E10550015C02E10450005C08E373
:1059C0000450005E0550015A0650025A0750035A0F
:1059D000D890073206320532043208C009F00806B2
:1059E0000950E2E103C0E9FF02C0F4FF01C0F3FF88
:1059F0000050E4CF0AF0E4CF09F0E4CF08F0E4CFA0
:105A000007F0E4CF06F0E4CF05F0E4CF04F0E4CFF4
:105A100003F0E4CF02F0E4CF01F0E4CF00F0E4CFF4
:105A2000D9FF1200D9CFE5FFE1CFD9FF00C0E5FFD4
:105A300001C0E5FF02C0E5FF03C0E5FF04C0E5FFCC
:105A400005C0E5FF06C0E5FF07C0E5FF08C0E5FFAC
:105A500009C0E5FF0AC0E5FF0BC0E5FF0CC0E5FF8C
:105A60000DC0E5FF020EDBCF00F0030EDBCF01F02F
:105A7000040EDBCF02F0050EDBCF03F0060EDBCF0A
:105A800004F0070EDBCF05F0080EDBCF06F0090EA1
:105A9000DBCF07F00A0EDBCF08F00B0EDBCF09F0EF
:105AA00006C00AF00B6A07C00CF00D6A0C500A26FB
:105AB0000D500B2208C00CF00C500A260D500B2282
:105AC00009C00CF00C500A260D500B220A5005E1BB
:105AD0000B5003E10A6A0A2A01D00A6A0950E56EEE
:105AE0000850E56E0750E56E0650E56E0550E56E10
:105AF0000450E56E0350E56E0250E56E0150E56E10
:105B0000E5680050E56E0A50E56E8BEC2AF00C0E4D
:105B1000E126E4CF0DF0E4CF0CF0E4CF0BF0E4CFBE
:105B20000AF0E4CF09F0E4CF08F0E4CF07F0E4CFC7
:105B300006F0E4CF05F0E4CF04F0E4CF03F0E4CFC7
:105B400002F0E4CF01F0E4CF00F0E4CFD9FF12007F
:105B5000D9CFE5FFE1CFD9FF00C0E5FF01C0E5FFE8
:105B600002C0E5FF03C0E5FF04C0E5FF05C0E5FF97
:105B700006C0E5FF07C0E5FF08C0E5FF09C0E5FF77
:105B80000AC0E5FF0BC0E5FF0CC0E5FF0DC0E5FF57
:105B9000020EDBCF00F0030EDBCF01F0040EDBCFF3
:105BA00002F0050EDBCF03F0060EDBCF04F0070E8C
:105BB000DBCF05F0080EDBCF06F0090EDBCF07F0D8
:105BC000086A096A0A6A0B6A200E0C6E0350800B81
:105BD000E8440D6E005000260136023603360850A8
:105BE000082609360A360B360D50D8A4088007500F
:105BF0000B5C08E106500A5C05E10550095C02E116
:105C00000450085C09E30450085E0550095A065028
:105C10000A5A07500B5A00800C040D6E0DC00CF090
:105C20000D50D4E103C0E9FF02C0F4FF01C0F3FF4F
:105C30000050E4CF0DF0E4CF0CF0E4CF0BF0E4CF54
:105C40000AF0E4CF09F0E4CF08F0E4CF07F0E4CFA6
:105C500006F0E4CF05F0E4CF04F0E4CF03F0E4CFA6
:105C600002F0E4CF01F0E4CF00F0E4CFD9FF12005E
:105C7000D9CFE5FFE1CFD9FF00C0E5FF01C0E5FFC7
:105C800002C0E5FF03C0E5FF04C0E5FF05C0E5FF76
:105C900006C0E5FF07C0E5FF020EDBCF00F0030EF4
:105CA000DBCF01F0040EDBCF02F0050EDBCF03F0FB
:105CB000060EDBCF04F0070EDBCF05F0080EDBCFBE
:105CC00006F0090EDBCF07F0005005017E6F015092
:105CD0007F6F0250806F0350816F04500501826F07
:105CE0000550836F0650846F0750856FD88005017B
:105CF00081AFD8901FE3D880050185AFD8901AE313
:105D00008551800FF36E05018151800FF35C0DE129
:105D100080510501845D09E105017F510501835D25
:105D200004E105017E510501825D02E2010E1CD0F5
:105D3000E86A1AD005018151800FF36E0501855183
:105D4000800FF35C0DE184510501805D09E10501DF
:105D5000835105017F5D04E10501825105017E5DEE
:105D600002E2010E01D0E86AE4CF07F0E4CF06F0CA
:105D7000E4CF05F0E4CF04F0E4CF03F0E4CF02F089
:105D8000E4CF01F0E4CF00F0E4CFD9FF120002032A
:105D9000040601020304127A000048E8010090D0D2
:105DA000030020A1070040420F0080841E0000096C
:105DB0003D0000127A00010204081020408040805B
:105DC0000102040102040820010204010204081077
:105DD00020408010010101010101010102020202C3
:105DE0000200000000000404040303030303030390
:105DF0000300286E756C6C290000203C2E3E3C2E62
:105E00003E200000202023232323202000002028E0
:105E10002E29282E2920000020202D2D2D2D202058
:105E2000000061313A0068633A006E6E6E006D6189
:105E30007461722100007072673A20006D656E75A2
:105E4000200073756D6F20626C20000073756D6F9C
:105E5000206E67007365675F6C696E65200074650E
:105E600073740000E806E56E090E45EC2FF0E4506F
:105E70000BE000D0E56E090E45EC2FF000D0E450A9
:105E8000000000D0E82EF6D71200E8060000E85027
:105E900007E000D000D000D000D00000E82EFAD7F4
:105EA000120000C0E5FF01C0E5FF010EE56EF40E33
:105EB000E56EC1EC31F0E652E6520F0EE56EC1EC34
:105EC00035F0F3CF01F0E6520110D8B46CD03CECC1
:105ED0003CF0000EE56E5E0EE56E220EE56E32ECD5
:105EE00037F0030EE126E56AE56EF3EC37F0E65293
:105EF000E6520D0EE56EC1EC35F0006EF3CF01F009
:105F0000E6520A0EE56E0150E56E0050E56ED8ECE3
:105F10002BF0030EE126010EE56E000EE56AF3ECB0
:105F200037F0E652E652000EE56E5E0EE56E260E86
:105F3000E56E32EC37F0030EE126010EE56E030E3E
:105F4000E56EF3EC37F0E652E65232EC38F004013D
:105F5000FC6FF3CFFDF4FD51800F800F02E1100EB6
:105F6000FC5D0CE20A0EE56E0401FD51E56EFC518C
:105F7000E56ED8EC2BF0030EE1260AD0000EE56E9C
:105F80005E0EE56E2A0EE56E32EC37F0030EE1266A
:105F9000010EE56E2C0EE56EC1EC31F0E652E652D4
:105FA0002FEC3CF08AD7E4CF01F0E4CF00F01200F0
:105FB000D9CFE5FFE1CFD9FF00C0E5FF01C0E5FF84
:105FC00002C0E5FF03C0E5FF04C0E5FF05C0E5FF33
:105FD00006C0E5FF020EDBCF00F0030EDBCF01F0C1
:105FE000040EDBCF02F0050EDBCF03F000500110F2
:105FF000021033E000C0E9FF01C0F3FF025000ECE3
:106000003BF0046EF3CF05F0F4CF06F003C0E5FFDC
:1060100004C0E9FF05C0F3FF065061EC3CF000C08E
:10602000E9FF01C0F3FF025000EC3BF0046EF3CF38
:1060300005F0F4CF06F0042A02E3054A062A04C05C
:10604000E5FF05C0F4FF06C0F6FF00C0E9FF01C090
:10605000F3FF025020EC3CF016D00350E56EF2CF77
:10606000E5FFF29E0500840EFD6E600EFE6E000ED2
:10607000FF6EE4BEF28EC4C5FBFFC3C5FAFF050187
:10608000C251F96EE652E4CF06F0E4CF05F0E4CF5A
:1060900004F0E4CF03F0E4CF02F0E4CF01F0E4CF6A
:1060A00000F0E4CFD9FF1200D9CFE5FFE1CFD9FF4F
:1060B00000C0E5FF01C0E5FF02C0E5FF03C0E5FF4A
:1060C00004C0E5FF05C0E5FF06C0E5FF07C0E5FF2A
:1060D000020EDBCF00F0030EDBCF01F0040EDBCFAE
:1060E00002F0050EDBCF03F0D88003AED8902AE390
:1060F000031C076E021C066E011C056E001C046E5C
:10610000042A04E1052A02E1064A072A0750E56E3F
:106110000650E56E0550E56E0450E56E77EC28F00C
:10612000046EF3CF05F0F4CF06F0E9CF07F0040ECC
:10613000E126077E07C0E9FF06C0F4FF05C0F3FFB4
:1061400004501AD00350E56E0250E56E0150E56E22
:106150000050E56E77EC28F0006EF3CF01F0F4CF3D
:1061600002F0E9CF03F0040EE12603C0E9FF02C00C
:10617000F4FF01C0F3FF0050E4CF07F0E4CF06F0D6
:10618000E4CF05F0E4CF04F0E4CF03F0E4CF02F075
:10619000E4CF01F0E4CF00F0E4CFD9FF1200936A1E
:1061A000816A836A010EE56E150EE56EA7EC1EF09E
:1061B000E652E652010EE56E160EE56EA7EC1EF0F5
:1061C000E652E652E56A170EE56EA7EC1EF0E652BF
:1061D000E652010EE56E180EE56EA7EC1EF0E652D3
:1061E000E652E56A190EE56EA7EC1EF0E652E6529D
:1061F000E56A1A0EE56EA7EC1EF0E652E652E56A75
:106200001B0EE56EA7EC1EF0E652E652E56A1C0E88
:10621000E56EA7EC1EF0E652E6520A0EE56EE0ECE3
:1062200020F0E6520B0EE56EE0EC20F0E6520C0E8C
:10623000E56EE0EC20F0E652090EE56EE0EC20F0B1
:10624000E652080EE56EE0EC20F0E652E56AE56AFB
:10625000E56AE56A030EE56E020EE56E010EE56E77
:10626000E56A060EE56E050EE56E040EE56E010E9E
:10627000E56E8BEC2AF00C0EE126020EE56E080EA0
:10628000E56E32EC29F0E652E6523CEC3CF01200AE
:10629000D9CFE5FFE1CFD9FF00C0E5FF01C0E5FFA1
:1062A00002C0E5FF03C0E5FF04C0E5FF05C0E5FF50
:1062B000020EDBCF00F0030EDBCF01F0040EDBCFCC
:1062C00002F0050EDBCF03F000500501966F015080
:1062D000976F0250986F0350996F965197119811CC
:1062E000991106E09951800BE844006E005005E0DA
:1062F000E96AF46AF36AE86A35D005019651985163
:10630000026E9951036E02340334006E016A6A0E04
:106310000026FF0E01229651026E9751036E7F0EEA
:106320009815046E056A048E011E006CD8B4012A0B
:10633000005011E009E6E86CD890053204320332CF
:106340000232010FFAE307D0D89002360336043642
:106350000536010FFAE305C0E9FF04C0F4FF03C0EE
:10636000F3FF0250E4CF05F0E4CF04F0E4CF03F0F4
:10637000E4CF02F0E4CF01F0E4CF00F0E4CFD9FFA6
:106380001200D9CFE5FFE1CFD9FF00C0E5FF01C082
:10639000E5FF02C0E5FF03C0E5FF04C0E5FF05C05F
:1063A000E5FF020EDBCF00F0030EDBCF01F0E3ECE4
:1063B00021F0026EF3CF03F0F4CF04F0E9CF05F043
:1063C000D8900532043203320232D89005320432BA
:1063D00003320232E56A010EE56E860EE56EA00E0E
:1063E000E56E0550E56E0450E56E0350E56E025013
:1063F000E56EA8EC2DF0026E080EE12600C004F058
:1064000001C005F0FF0E002601220450051008E02F
:106410000250046EFD0E0426045032EC2FF0EED72D
:10642000E4CF05F0E4CF04F0E4CF03F0E4CF02F0D2
:10643000E4CF01F0E4CF00F0E4CFD9FF1200D9CFD0
:10644000E5FFE1CFD9FF00C0E5FF01C0E5FF02C0D5
:10645000E5FF03C0E5FF04C0E5FF05C0E5FF06C09A
:10646000E5FF020EDBCF00F0030EDBCF01F0040EE0
:10647000DBCF02F0050EDBCF03F0046A056A0350A0
:10648000800BE844066E065011E1025002260336E6
:106490000350015C02E10250005C04E2D890033238
:1064A000023204D0052A05C004F0E9D70350015C8C
:1064B00002E10250005C04E30250005E0350015A06
:1064C000D8900332023204C005F004060550EEE114
:1064D00001C0F3FF0050E4CF06F0E4CF05F0E4CFB5
:1064E00004F0E4CF03F0E4CF02F0E4CF01F0E4CF16
:1064F00000F0E4CFD9FF120000C0E5FF7DEC24F0EE
:106500000401FB51800F800F02E1010EFA5DD8A05B
:1065100046D00401FB51800F800F02E1050EFA5DA9
:10652000D8B03DD00401FA05006EFA6AFB6A003467
:10653000FA36E834FA36FC0B480FE56E650EFA229F
:10654000000EFB22E450F96EACEF32F0B5EF32F002
:10655000BEEF32F0C7EF32F02FEC3CF01CEC26F02F
:106560000401FA6BFB6B836A1CD02FEC3CF0E8EC67
:1065700026F00401FA6BFB6B836A13D02FEC3CF01E
:10658000ECEC36F0836A0401FA6BFB6B0AD02FEC5B
:106590003CF051EC2FF00401FA6BFB6B02D07DEC68
:1065A00024F0E4CF00F01200D9CFE5FFE1CFD9FF0E
:1065B00000C0E5FF01C0E5FF02C0E5FF03C0E5FF45
:1065C00004C0E5FF05C0E5FF06C0E5FF07C0E5FF25
:1065D000020EDBCF00F0030EDBCF01F0040EDBCFA9
:1065E00002F0050EDBCF03F00250046E0350056E7F
:1065F000066A076A0450F86E0150046E0250056E78
:106600000350066E076A0450F76E0050F66E0900DC
:10661000F5CF00F00900F5CF01F0026A0150046ED9
:10662000036A056A005003260550042204C0F3FFE4
:106630000350E4CF07F0E4CF06F0E4CF05F0E4CF59
:1066400004F0E4CF03F0E4CF02F0E4CF01F0E4CFB4
:1066500000F0E4CFD9FF1200D9CFE5FFE1CFD9FF99
:1066600000C0E5FF01C0E5FF02C0E5FF03C0E5FF94
:1066700004C0E5FF05C0E5FF06C0E5FF07C0E5FF74
:10668000020EDBCF00F0030EDBCF01F0040EDBCFF8
:1066900002F0050EDBCF03F0046A056A100E066EE9
:1066A0000150800BE844076E00500026013604506C
:1066B000042605360750D8A404800350055C02E187
:1066C0000250045C05E30250045E0350055A00804A
:1066D0000604076E07C006F00750E2E101C0F3FFB1
