:020000040000FA
:040C000066EF17F094
:080C0800ECEF19F00F0EC16EB4
:100C1000070EB46E1200120027EF1AF000C0E5FFB5
:100C200001C0E5FF02C0E5FF03C0E5FF04C0E5FF2A
:100C300005C0E5FF06C0E5FF05012B6B1E0E050193
:100C40002B5DD8B066D0000E2B25006E016A050E14
:100C5000012200C0E9FF01C0EAFFEF682B51050D3A
:100C6000F450016EF3CF00F0000E0026040E0122B6
:100C700000C0E9FF01C0EAFFEF6A2B51050DF450F7
:100C8000016EF3CF00F0000E0026040E0122004A90
:100C9000012A00C0E9FF01C0EAFFEF6A2B51050DF0
:100CA000F450016EF3CF00F0000E0026040E012276
:100CB000020E0026D8B0012A00C0E9FF01C0EAFFF9
:100CC000EF6A2B51050DF450016EF3CF00F0000ECA
:100CD0000026040E0122030E0026D8B0012A00C00F
:100CE000E9FF01C0EAFFEF6A2B51050DF450016ED8
:100CF000F3CF00F0000E0026040E0122040E0026A1
:100D0000D8B0012A00C0E9FF01C0EAFFEF6A2B2B2F
:100D100095D705012B6B050E05012B5D0DE2FB0E32
:100D20002B25006E016A040E012200C0E9FF01C0FC
:100D3000EAFFEF6A2B2BEFD705012C6B05012B6B1C
:100D40001E0E05012C5DD8B021EF0DF0010E05013E
:100D50002D6F05012E6B1E0E05012E5DD8B09DEF87
:100D60000CF0A80E2E25006E016A310E0122026AD7
:100D7000000E022200C0F6FF01C0F7FF02C0F8FF1C
:100D80000900F5CF00F0050E005CD8B099EF0CF02B
:100D9000FA6AFB6A0034FA36E834FA36FC0BAE0F16
:100DA000E56E0D0EFA22000EFB22E450F96EE1EF23
:100DB00006F002EF08F027EF09F050EF0AF076EFA7
:100DC0000BF08A0E05012E25006E016A310E0122FC
:100DD000026A000E022200C0F6FF01C0F7FF02C047
:100DE000F8FF0900F5CF00F00401FB5100160401E3
:100DF000F65100160050D8A499EF0CF0D20E050160
:100E00002E25006E016A040E012200C0E9FF01C018
:100E1000EAFFEFCF00F0000E05012B25016E026AFC
:100E2000050E022201C0E9FF02C0EAFFEFCF01F088
:100E30000150005CD8B08DD0000E2B25006E016AE9
:100E4000050E0122D20E05012E25026E036A040E44
:100E5000032202C0E9FF03C0EAFFEFCF02F000C0A7
:100E6000E9FF01C0EAFF02C0EFFF05012B51050DAC
:100E7000F450016EF3CF00F0000E0026040E0122A4
:100E80008A0E05012E25026E036A310E0322046AC2
:100E9000000E042202C0F6FF03C0F7FF04C0F8FFF3
:100EA0000900F5CF02F000C0E9FF01C0EAFF02C06F
:100EB000EFFF05012B51050DF450016EF3CF00F04B
:100EC000000E0026040E0122004A012A00C0E9FF9C
:100ED00001C0EAFFEF6A2B51050DF450016EF3CF0C
:100EE00000F0000E0026040E0122020E0026D8B0EB
:100EF000012A00C0E9FF01C0EAFFEF6A2B51050D8E
:100F0000F450016EF3CF00F0000E0026040E012213
:100F1000030E0026D8B0012A00C0E9FF01C0EAFF95
:100F2000EF6A2B51050DF450016EF3CF00F0000E67
:100F30000026040E0122040E0026D8B0012A00C0AB
:100F4000E9FF01C0EAFFEF6A010E05012D6F99EF7D
:100F50000CF0D20E05012E25006E016A040E01224E
:100F600000C0E9FF01C0EAFFEFCF00F0000E05016D
:100F70002B25016E026A050E022201C0E9FF02C0A4
:100F8000EAFFEFCF01F00050011802E099EF0CF0FA
:100F900005012B51050DF450016EF3CF00F0000E4A
:100FA0000026040E01222B51050DF450036EF3CFE1
:100FB00002F0000E0226040E03228A0E05012E25E1
:100FC000046E056A310E0522066A000E062204C070
:100FD000F6FF05C0F7FF06C0F8FF0900F5CF04F0E3
:100FE00002C0E9FF03C0EAFFEFCF02F00250041293
:100FF00000C0E9FF01C0EAFF04C0EFFF05012D2B8F
:1010000099EF0CF08A0E05012E25006E016A310E53
:101010000122026A000E022200C0F6FF01C0F7FFA3
:1010200002C0F8FF0900F5CF00F00401FC510016E2
:101030000401F75100160050D8A499EF0CF0D20E1D
:1010400005012E25006E016A040E012200C0E9FF91
:1010500001C0EAFFEFCF00F0000E05012B25016E65
:10106000026A050E022201C0E9FF02C0EAFFEFCFCB
:1010700001F00150005CD8B08DD0000E2B25006E21
:10108000016A050E0122D20E05012E25026E036AA9
:10109000040E032202C0E9FF03C0EAFFEFCF02F013
:1010A00000C0E9FF01C0EAFF02C0EFFF05012B51BC
:1010B000050DF450016EF3CF00F0000E0026040E73
:1010C000012200C0E9FF01C0EAFFEF6A2B51050DC4
:1010D000F450016EF3CF00F0000E0026040E012242
:1010E000004A012A8A0E05012E25026E036A310E7E
:1010F0000322046A000E042202C0F6FF03C0F7FFB9
:1011000004C0F8FF0900F5CF02F000C0E9FF01C0FC
:10111000EAFF02C0EFFF05012B51050DF450016EEF
:10112000F3CF00F0000E0026040E0122020E00266E
:10113000D8B0012A00C0E9FF01C0EAFFEF6A2B51D5
:10114000050DF450016EF3CF00F0000E0026040EE2
:101150000122030E0026D8B0012A00C0E9FF01C019
:10116000EAFFEF6A2B51050DF450016EF3CF00F04A
:10117000000E0026040E0122040E0026D8B0012A1B
:1011800000C0E9FF01C0EAFFEF6A010E05012D6F03
:1011900099EF0CF0D20E05012E25006E016A040EA7
:1011A000012200C0E9FF01C0EAFFEFCF00F0000E0E
:1011B00005012B25016E026A050E022201C0E9FF1E
:1011C00002C0EAFFEFCF01F00050011802E099EFF2
:1011D0000CF005012B51050DF450016EF3CF00F01A
:1011E000000E0026040E0122004A012A2B51050D93
:1011F000F450036EF3CF02F0000E0226040E032219
:10120000024A032A8A0E05012E25046E056A310E54
:101210000522066A000E062204C0F6FF05C0F7FF8D
:1012200006C0F8FF0900F5CF04F002C0E9FF03C0D3
:10123000EAFFEFCF02F00250041200C0E9FF01C044
:10124000EAFF04C0EFFF05012D2B99EF0CF08A0E89
:1012500005012E25006E016A310E0122026A000E80
:10126000022200C0F6FF01C0F7FF02C0F8FF09002C
:10127000F5CF00F00401FD5100160401F8510016ED
:101280000050D8A499EF0CF0D20E05012E25006E67
:10129000016A040E012200C0E9FF01C0EAFFEFCF9E
:1012A00000F0000E05012B25016E026A050E0222D8
:1012B00001C0E9FF02C0EAFFEFCF01F00150005C7E
:1012C000D8B08DD0000E2B25006E016A050E0122CC
:1012D000D20E05012E25026E036A040E032202C0FF
:1012E000E9FF03C0EAFFEFCF02F000C0E9FF01C051
:1012F000EAFF02C0EFFF05012B51050DF450016E0E
:10130000F3CF00F0000E0026040E012200C0E9FF1A
:1013100001C0EAFFEF6A2B51050DF450016EF3CFC7
:1013200000F0000E0026040E0122004A012A00C02F
:10133000E9FF01C0EAFFEF6A2B51050DF450016E81
:10134000F3CF00F0000E0026040E0122020E00264C
:10135000D8B0012A8A0E05012E25026E036A310ECD
:101360000322046A000E042202C0F6FF03C0F7FF46
:1013700004C0F8FF0900F5CF02F000C0E9FF01C08A
:10138000EAFF02C0EFFF05012B51050DF450016E7D
:10139000F3CF00F0000E0026040E0122030E0026FB
:1013A000D8B0012A00C0E9FF01C0EAFFEF6A2B5163
:1013B000050DF450016EF3CF00F0000E0026040E70
:1013C0000122040E0026D8B0012A00C0E9FF01C0A6
:1013D000EAFFEF6A010E05012D6F99EF0CF0D20EB6
:1013E00005012E25006E016A040E012200C0E9FFEE
:1013F00001C0EAFFEFCF00F0000E05012B25016EC2
:10140000026A050E022201C0E9FF02C0EAFFEFCF27
:1014100001F00050011802E099EF0CF005012B518A
:10142000050DF450016EF3CF00F0000E0026040EFF
:101430000122020E0026D8B0012A2B51050DF450CE
:10144000036EF3CF02F0000E0226040E0322020EFA
:101450000226D8B0032A8A0E05012E25046E056ADD
:10146000310E0522066A000E062204C0F6FF05C0F2
:10147000F7FF06C0F8FF0900F5CF04F002C0E9FF4E
:1014800003C0EAFFEFCF02F00250041200C0E9FFF0
:1014900001C0EAFF04C0EFFF05012D2B99EF0CF00E
:1014A0008A0E05012E25006E016A310E0122026AA4
:1014B000000E022200C0F6FF01C0F7FF02C0F8FFD5
:1014C0000900F5CF00F00401FE5100160401F951A6
:1014D00000160050D8A499EF0CF0D20E05012E256D
:1014E000006E016A040E012200C0E9FF01C0EAFF9C
:1014F000EFCF00F0000E05012B25016E026A050EEC
:10150000022201C0E9FF02C0EAFFEFCF01F0015063
:10151000005CD8B08CD0000E2B25006E016A050E41
:101520000122D20E05012E25026E036A040E03224B
:1015300002C0E9FF03C0EAFFEFCF02F000C0E9FFFD
:1015400001C0EAFF02C0EFFF05012B51050DF45069
:10155000016EF3CF00F0000E0026040E012200C041
:10156000E9FF01C0EAFFEF6A2B51050DF450016E4F
:10157000F3CF00F0000E0026040E0122004A012ADB
:1015800000C0E9FF01C0EAFFEF6A2B51050DF450DE
:10159000016EF3CF00F0000E0026040E0122020EB1
:1015A0000026D8B0012A00C0E9FF01C0EAFFEF6AB7
:1015B0002B51050DF450016EF3CF00F0000E002604
:1015C000040E0122030E0026D8B0012A8A0E05015E
:1015D0002E25026E036A310E0322046A000E0422D5
:1015E00002C0F6FF03C0F7FF04C0F8FF0900F5CF03
:1015F00002F000C0E9FF01C0EAFF02C0EFFF0501F1
:101600002B51050DF450016EF3CF00F0000E0026B3
:10161000040E0122040E0026D8B0012A00C0E9FF02
:1016200001C0EAFFEF6A010E05012D6F82D1D20ED3
:1016300005012E25006E016A040E012200C0E9FF9B
:1016400001C0EAFFEFCF00F0000E05012B25016E6F
:10165000026A050E022201C0E9FF02C0EAFFEFCFD5
:1016600001F00050011801E064D105012B51050D76
:10167000F450016EF3CF00F0000E0026040E01229C
:10168000030E0026D8B0012A2B51050DF450036E2D
:10169000F3CF02F0000E0226040E0322030E0226F0
:1016A000D8B0032A8A0E05012E25046E056A310E74
:1016B0000522066A000E062204C0F6FF05C0F7FFE9
:1016C00006C0F8FF0900F5CF04F002C0E9FF03C02F
:1016D000EAFFEFCF02F00250041200C0E9FF01C0A0
:1016E000EAFF04C0EFFF05012D2B23D18A0E05016F
:1016F0002E25006E016A310E0122026A000E0222BE
:1017000000C0F6FF01C0F7FF02C0F8FF0900F5CFE7
:1017100000F00401FF5100160401FA5100160050B8
:10172000D8A407D1D20E05012E25006E016A040E41
:10173000012200C0E9FF01C0EAFFEFCF00F0000E78
:1017400005012B25016E026A050E022201C0E9FF88
:1017500002C0EAFFEFCF01F00150005CD8B08BD09F
:10176000000E2B25006E016A050E0122D20E050126
:101770002E25026E036A040E032202C0E9FF03C095
:10178000EAFFEFCF02F000C0E9FF01C0EAFF02C0AC
:10179000EFFF05012B51050DF450016EF3CF00F062
:1017A000000E0026040E012200C0E9FF01C0EAFF7E
:1017B000EF6A2B51050DF450016EF3CF00F0000ECF
:1017C0000026040E0122004A012A00C0E9FF01C0E0
:1017D000EAFFEF6A2B51050DF450016EF3CF00F0D4
:1017E000000E0026040E0122020E0026D8B0012AA7
:1017F00000C0E9FF01C0EAFFEF6A2B51050DF4506C
:10180000016EF3CF00F0000E0026040E0122030E3D
:101810000026D8B0012A00C0E9FF01C0EAFFEF6A44
:101820002B51050DF450016EF3CF00F0000E002691
:10183000040E0122040E0026D8B0012A8A0E0501EA
:101840002E25026E036A310E0322046A000E042262
:1018500002C0F6FF03C0F7FF04C0F8FF0900F5CF90
:1018600002F000C0E9FF01C0EAFF02C0EFFF010E75
:1018700005012D6F5ED0D20E05012E25006E016A86
:10188000040E012200C0E9FF01C0EAFFEFCF00F023
:10189000000E05012B25016E026A050E022201C011
:1018A000E9FF02C0EAFFEFCF01F00050011801E0AC
:1018B00040D005012B51050DF450016EF3CF00F01F
:1018C000000E0026040E0122040E0026D8B0012AC4
:1018D0002B51050DF450036EF3CF02F0000E0226DB
:1018E000040E0322040E0226D8B0032A8A0E050134
:1018F0002E25046E056A310E0522066A000E0622A8
:1019000004C0F6FF05C0F7FF06C0F8FF0900F5CFD9
:1019100004F002C0E9FF03C0EAFFEFCF02F002507B
:10192000041200C0E9FF01C0EAFF04C0EFFF050197
:101930002D2B05012E2BABEF06F005012B51050DCC
:10194000F450016EF3CF00F0000E0026040E0122C9
:1019500000C0E9FF01C0EAFFEFCF00F00401FB5136
:1019600000120050FB6F05012B51050DF450016E64
:10197000F3CF00F0000E0026040E0122004A012AD7
:1019800000C0E9FF01C0EAFFEFCF00F00401FC5105
:1019900000120050FC6F05012B51050DF450016E33
:1019A000F3CF00F0000E0026040E0122020E0026E6
:1019B000D8B0012A00C0E9FF01C0EAFFEFCF00F074
:1019C0000401FD5100120050FD6F05012B51050D62
:1019D000F450016EF3CF00F0000E0026040E012239
:1019E000030E0026D8B0012A00C0E9FF01C0EAFFBB
:1019F000EFCF00F00401FE5100120050FE6F050110
:101A00002B51050DF450016EF3CF00F0000E0026AF
:101A1000040E0122040E0026D8B0012A00C0E9FFFE
:101A200001C0EAFFEFCF00F00401FF5100120050A7
:101A3000FF6F05012D5105012C2705012B2BA0EF70
:101A400006F00401F16BE4CF06F0E4CF05F0E4CF3B
:101A500004F0E4CF03F0E4CF02F0E4CF01F0E4CFF0
:101A600000F01200D9CFE5FFE1CFD9FF00C0E5FFBC
:101A700001C0E5FF02C0E5FF03C0E5FF04C0E5FFCC
:101A8000020EDBCF00F0030EDBCF01F0A80E002426
:101A9000026E036A310E0322046A000E042202C0A1
:101AA000F6FF03C0F7FF04C0F8FF0900F5CF02F00E
:101AB000050E025CD8B0F8D0FA6AFB6A0234FA3636
:101AC000E834FA36FC0BD60FE56E1A0EFA22000E39
:101AD000FB22E450F96E75EF0DF0A2EF0DF0CFEFA1
:101AE0000DF0FCEF0DF029EF0EF0015015E08A0E1D
:101AF0000024026E036A310E0322046A000E0422DF
:101B000002C0F6FF03C0F7FF04C0F8FF0900F5CFDD
:101B100002F002508912C8D08A0E0024026E036AB5
:101B2000310E0322046A000E042202C0F6FF03C035
:101B3000F7FF04C0F8FF0900F5CF02F00250FF08DC
:101B40008916B2D0015015E08A0E0024026E036A95
:101B5000310E0322046A000E042202C0F6FF03C005
:101B6000F7FF04C0F8FF0900F5CF02F002508A1217
:101B70009BD08A0E0024026E036A310E0322046A8F
:101B8000000E042202C0F6FF03C0F7FF04C0F8FFF6
:101B90000900F5CF02F00250FF088A1685D00150E7
:101BA00015E08A0E0024026E036A310E0322046AD5
:101BB000000E042202C0F6FF03C0F7FF04C0F8FFC6
:101BC0000900F5CF02F002508B126ED08A0E00246D
:101BD000026E036A310E0322046A000E042202C060
:101BE000F6FF03C0F7FF04C0F8FF0900F5CF02F0CD
:101BF0000250FF088B1658D0015015E08A0E0024C1
:101C0000026E036A310E0322046A000E042202C02F
:101C1000F6FF03C0F7FF04C0F8FF0900F5CF02F09C
:101C200002508C1241D08A0E0024026E036A310EDB
:101C30000322046A000E042202C0F6FF03C0F7FF6D
:101C400004C0F8FF0900F5CF02F00250FF088C161F
:101C50002BD0015015E08A0E0024016E026A310E6D
:101C60000222036A000E032201C0F6FF02C0F7FF42
:101C700003C0F8FF0900F5CF01F001508D1214D018
:101C8000016A026A8A0E0026310E0122000E02222B
:101C900000C0F6FF01C0F7FF02C0F8FF0900F5CF52
:101CA00000F00050FF088D16E4CF04F0E4CF03F0FD
:101CB000E4CF02F0E4CF01F0E4CF00F0E4CFD9FFAD
:101CC0001200D9CFE5FFE1CFD9FF00C0E5FF01C089
:101CD000E5FF02C0E5FF03C0E5FF04C0E5FF020E1B
:101CE000DBCF00F0030EDBCF01F0A80E0024026E64
:101CF000036A310E0322046A000E042202C0F6FFBA
:101D000003C0F7FF04C0F8FF0900F5CF02F0050E8D
:101D1000025CD8B0F8D0FA6AFB6A0234FA36E834CA
:101D2000FA36FC0B340FE56E1D0EFA22000EFB2274
:101D3000E450F96EA4EF0EF0D1EF0EF0FEEF0EF0CE
:101D40002BEF0FF058EF0FF0015015E08A0E002432
:101D5000026E036A310E0322046A000E042202C0DE
:101D6000F6FF03C0F7FF04C0F8FF0900F5CF02F04B
:101D700002509212C8D08A0E0024026E036A310EFD
:101D80000322046A000E042202C0F6FF03C0F7FF1C
:101D900004C0F8FF0900F5CF02F00250FF089216C8
:101DA000B2D0015015E08A0E0024026E036A310E93
:101DB0000322046A000E042202C0F6FF03C0F7FFEC
:101DC00004C0F8FF0900F5CF02F0025093129BD037
:101DD0008A0E0024026E036A310E0322046A000E8A
:101DE000042202C0F6FF03C0F7FF04C0F8FF090099
:101DF000F5CF02F00250FF08931685D0015015E090
:101E00008A0E0024026E036A310E0322046A000E59
:101E1000042202C0F6FF03C0F7FF04C0F8FF090068
:101E2000F5CF02F0025094126ED08A0E0024026E9A
:101E3000036A310E0322046A000E042202C0F6FF78
:101E400003C0F7FF04C0F8FF0900F5CF02F002500D
:101E5000FF08941658D0015015E08A0E0024026E37
:101E6000036A310E0322046A000E042202C0F6FF48
:101E700003C0F7FF04C0F8FF0900F5CF02F00250DD
:101E8000951241D08A0E0024026E036A310E03229D
:101E9000046A000E042202C0F6FF03C0F7FF04C06C
:101EA000F8FF0900F5CF02F00250FF0895162BD07D
:101EB000015015E08A0E0024016E026A310E0222E2
:101EC000036A000E032201C0F6FF02C0F7FF03C041
:101ED000F8FF0900F5CF01F00150961214D0016A05
:101EE000026A8A0E0026310E0122000E022200C074
:101EF000F6FF01C0F7FF02C0F8FF0900F5CF00F0C0
:101F00000050FF089616E4CF04F0E4CF03F0E4CFCE
:101F100002F0E4CF01F0E4CF00F0E4CFD9FF1200EB
:101F2000D9CFE5FFE1CFD9FF00C0E5FF01C0E5FF54
:101F300002C0E5FF03C0E5FF04C0E5FF020EDBCFF2
:101F400000F01E0E005CD8B0E1D0A80E0024016E97
:101F5000026A310E0222036A000E032201C0F6FF5C
:101F600002C0F7FF03C0F8FF0900F5CF01F0050E2E
:101F7000015CD8B0CBD0FA6AFB6A0134FA36E83497
:101F8000FA36FC0B940FE56E1F0EFA22000EFB22B0
:101F9000E450F96ED4EF0FF0F8EF0FF01CEF10F0F3
:101FA00040EF10F064EF10F08A0E0024016E026A18
:101FB000310E0222036A000E032201C0F6FF02C0A6
:101FC000F7FF03C0F8FF0900F5CF04F00401F65154
:101FD00004120450F66F01C0F6FF02C0F7FF03C001
:101FE000F8FF0900F5CF01F0011E015092168ED0C6
:101FF0008A0E0024016E026A310E0222036A000E6C
:10200000032201C0F6FF02C0F7FF03C0F8FF09007A
:10201000F5CF04F00401F75104120450F76F01C02A
:10202000F6FF02C0F7FF03C0F8FF0900F5CF01F08B
:10203000011E015093166AD08A0E0024016E026AB6
:10204000310E0222036A000E032201C0F6FF02C015
:10205000F7FF03C0F8FF0900F5CF04F00401F851C1
:1020600004120450F86F01C0F6FF02C0F7FF03C06E
:10207000F8FF0900F5CF01F0011E0150941646D07B
:102080008A0E0024016E026A310E0222036A000EDB
:10209000032201C0F6FF02C0F7FF03C0F8FF0900EA
:1020A000F5CF04F00401F95104120450F96F01C096
:1020B000F6FF02C0F7FF03C0F8FF0900F5CF01F0FB
:1020C000011E0150951622D0016A026A8A0E00266E
:1020D000310E0122000E022200C0F6FF01C0F7FF00
:1020E00002C0F8FF0900F5CF03F00401FA51031212
:1020F0000350FA6F00C0F6FF01C0F7FF02C0F8FFFF
:102100000900F5CF00F0001E00509616E4CF04F051
:10211000E4CF03F0E4CF02F0E4CF01F0E4CF00F02D
:10212000E4CFD9FF120000C0E5FF01C0E5FF02C007
:10213000E5FF03C0E5FF04C0E5FF05C0E5FFD350A0
:10214000030B006E0050D8A491D0E56A300EE56E06
:10215000000EE56AE56AB6EC16F0006E040EE126A4
:10216000180E0016016AD89001320032D890013260
:102170000032D89001320032660E0024016E026AED
:10218000310E0222036A000E032201C0F6FF02C0D4
:10219000F7FF03C0F8FF0900F5CF01F0E56A300E44
:1021A000E56EE56A010EE56EB6EC16F0026E040E01
:1021B000E1260F0E0216620E0024036E046A310E31
:1021C0000422056A000E052203C0F6FF04C0F7FFD3
:1021D00005C0F8FF0900F5CF00F0D8900232025098
:1021E00006E00250020A03E00250060A1FE1E56A17
:1021F000E56AE56A0150E56EE56A7A0EE56E120E53
:10220000E56E000EE56A5BEC12F0016EF3CF02F0B2
:10221000F4CF03F0E9CF04F0080EE12604C0E9FF93
:1022200003C0F4FF02C0F3FF015063D0E56AE56A22
:10223000E56A0050E56E050EE56EB80EE56ED80E47
:10224000E56E000EE56A8EEC14F0006EF3CF01F03F
:10225000F4CF02F0E9CF03F0080EE12603C0E9FF56
:1022600002C0F4FF01C0F3FF005043D0D350030B72
:10227000010A06E1E96AF46A800EF36EE86A39D071
:10228000D350030B800F7E0F30E3D350E838070B99
:10229000E56AE56EE56A040EE56E02EC19F0006E83
:1022A000F3CF01F0040EE126026A6A0E0026310E19
:1022B0000122000E022200C0F6FF01C0F7FF02C09B
:1022C000F8FF0900F5CF00F00900F5CF01F0090093
:1022D000F5CF02F00900F5CF03F003C0E9FF02C01B
:1022E000F4FF01C0F3FF005004D0E96AF46AF36A16
:1022F000E86AE4CF05F0E4CF04F0E4CF03F0E4CFE4
:1023000002F0E4CF01F0E4CF00F01200D9CFE5FFF6
:10231000E1CFD9FF00C0E5FF01C0E5FF02C0E5FF46
:1023200003C0E5FF020EDBCF00F0A80E0024016E13
:10233000026A310E0222036A000E032201C0F6FF78
:1023400002C0F7FF03C0F8FF0900F5CF01F0050E4A
:10235000015CD8B0A4D0FA6AFB6A0134FA36E834DA
:10236000FA36FC0B740FE56E230EFA22000EFB22E8
:10237000E450F96EC4EF11F0E0EF11F0FCEF11F052
:1023800018EF12F034EF12F08A0E0024016E026A88
:10239000310E0222036A000E032201C0F6FF02C0C2
:1023A000F7FF03C0F8FF0900F5CF01F080500116D8
:1023B000015003E0010E016E01D0016A015070D09E
:1023C0008A0E0024016E026A310E0222036A000E98
:1023D000032201C0F6FF02C0F7FF03C0F8FF0900A7
:1023E000F5CF01F081500116015003E0010E016E9E
:1023F00001D0016A015054D08A0E0024016E026A95
:10240000310E0222036A000E032201C0F6FF02C051
:10241000F7FF03C0F8FF0900F5CF01F08250011665
:10242000015003E0010E016E01D0016A015038D065
:102430008A0E0024016E026A310E0222036A000E27
:10244000032201C0F6FF02C0F7FF03C0F8FF090036
:10245000F5CF01F083500116015003E0010E016E2B
:1024600001D0016A01501CD0016A026A8A0E00265E
:10247000310E0122000E022200C0F6FF01C0F7FF5C
:1024800002C0F8FF0900F5CF00F08450001600509C
:1024900003E0010E006E01D0006A005001D0E86A2E
:1024A000E4CF03F0E4CF02F0E4CF01F0E4CF00F09A
:1024B000E4CFD9FF1200D9CFE5FFE1CFD9FF00C0AB
:1024C000E5FF01C0E5FF02C0E5FF03C0E5FF04C072
:1024D000E5FF05C0E5FF06C0E5FF07C0E5FF08C052
:1024E000E5FF09C0E5FF0AC0E5FF0BC0E5FF0CC032
:1024F000E5FF0DC0E5FF020EDBCF00F0030EDBCFE2
:1025000001F0040EDBCF02F0050EDBCF03F0060E68
:10251000DBCF04F0070EDBCF05F0080EDBCF06F0B3
:10252000090EDBCF07F0D88003AED890086A0836D2
:1025300008500FE0031C0C6E021C0B6E011C0A6E8F
:10254000001C096E092A0DE10A2A0BE10B4A0C2A2C
:1025500008D000C009F001C00AF002C00BF003C0AF
:102560000CF0D88007AED890006A003600500FE01B
:10257000071C0D6E061C036E051C026E041C016E0A
:10258000012A0DE1022A0BE1034A0D2A08D004C0FA
:1025900001F005C002F006C003F007C00DF00D50B9
:1025A000E56E0350E56E0250E56E0150E56E0C508D
:1025B000E56E0B50E56E0A50E56E0950E56E8EEC47
:1025C00014F0016EF3CF02F0F4CF03F0E9CF04F082
:1025D000080EE1260050081A085016E0041C076E89
:1025E000031C066E021C056E011C006E002A04E12D
:1025F000052A02E1064A072A07C0E9FF06C0F4FFE0
:1026000005C0F3FF005007D004C0E9FF03C0F4FF8A
:1026100002C0F3FF0150E4CF0DF0E4CF0CF0E4CFA3
:102620000BF0E4CF0AF0E4CF09F0E4CF08F0E4CFF8
:1026300007F0E4CF06F0E4CF05F0E4CF04F0E4CFF8
:1026400003F0E4CF02F0E4CF01F0E4CF00F0E4CFF8
:10265000D9FF1200D9CFE5FFE1CFD9FF00C0E5FFD8
:1026600001C0E5FF02C0E5FF03C0E5FF020EDBCFBE
:1026700000F01E0E005CD8B0A5D0A80E0024016E9C
:10268000026A310E0222036A000E032201C0F6FF25
:1026900002C0F7FF03C0F8FF0900F5CF01F0050EF7
:1026A000015CD8B08FD0FA6AFB6A0134FA36E8349C
:1026B000FA36FC0BC40FE56E260EFA22000EFB2242
:1026C000E450F96E6CEF13F084EF13F09CEF13F00D
:1026D000B4EF13F0CCEF13F08A0E0024016E026AFF
:1026E000310E0222036A000E032201C0F6FF02C06F
:1026F000F7FF03C0F8FF0900F5CF01F00401F65120
:10270000011A0150F66F5ED08A0E0024016E026A33
:10271000310E0222036A000E032201C0F6FF02C03E
:10272000F7FF03C0F8FF0900F5CF01F00401F751EE
:10273000011A0150F76F46D08A0E0024016E026A1A
:10274000310E0222036A000E032201C0F6FF02C00E
:10275000F7FF03C0F8FF0900F5CF01F00401F851BD
:10276000011A0150F86F2ED08A0E0024016E026A01
:10277000310E0222036A000E032201C0F6FF02C0DE
:10278000F7FF03C0F8FF0900F5CF01F00401F9518C
:10279000011A0150F96F16D0016A026A8A0E0026EA
:1027A000310E0122000E022200C0F6FF01C0F7FF29
:1027B00002C0F8FF0900F5CF00F00401FA51001A39
:1027C0000050FA6FE4CF03F0E4CF02F0E4CF01F061
:1027D000E4CF00F0E4CFD9FF1200D9CFE5FFE1CF7D
:1027E000D9FF00C0E5FF01C0E5FF05012A6B040128
:1027F000F26B000E05012A25006E016A050E01220A
:1028000000C0E9FF01C0EAFFEFCF00F00050040173
:10281000F21901E06AD005012A51050DF450016E4C
:10282000F3CF00F0000E0026040E012200C0E9FFE5
:1028300001C0EAFFEFCF00F00050801A2A51050DC9
:10284000F450016EF3CF00F0000E0026040E0122BA
:10285000004A012A00C0E9FF01C0EAFFEFCF00F003
:102860000050811A2A51050DF450016EF3CF00F08B
:10287000000E0026040E0122020E0026D8B0012A06
:1028800000C0E9FF01C0EAFFEFCF00F00050821A5C
:102890002A51050DF450016EF3CF00F0000E002612
:1028A000040E0122030E0026D8B0012A00C0E9FF61
:1028B00001C0EAFFEFCF00F00050831A2A51050D46
:1028C000F450016EF3CF00F0000E0026040E01223A
:1028D000040E0026D8B0012A00C0E9FF01C0EAFFBB
:1028E000EFCF00F00050841A2A2B070E296F00004A
:1028F000000000000000000000000000292F77EF1A
:1029000014F00401F22BFB0EF25DD8A072D7E4CFD5
:1029100001F0E4CF00F0E4CFD9FF1200D9CFE5FFFA
:10292000E1CFD9FF00C0E5FF01C0E5FF02C0E5FF30
:1029300003C0E5FF04C0E5FF05C0E5FF06C0E5FFF5
:1029400007C0E5FF08C0E5FF09C0E5FF0AC0E5FFD5
:102950000BC0E5FF0CC0E5FF0DC0E5FF020EDBCFAD
:1029600000F0030EDBCF01F0040EDBCF02F0050E0A
:10297000DBCF03F0060EDBCF04F0070EDBCF05F054
:10298000080EDBCF06F0090EDBCF07F0086A096AF4
:102990000A6A0B6A200E0C6E0350800BE8440D6E21
:1029A0000050002601360236033608500826093644
:1029B0000A360B360D50D8A4088007500B5C08E18E
:1029C00006500A5C05E10550095C02E10450085C10
:1029D00009E30450085E0550095A06500A5A075088
:1029E0000B5A00800C040D6E0DC00CF00D50D4E19C
:1029F00003C0E9FF02C0F4FF01C0F3FF0050E4CFC1
:102A00000DF0E4CF0CF0E4CF0BF0E4CF0AF0E4CF0C
:102A100009F0E4CF08F0E4CF07F0E4CF06F0E4CF0C
:102A200005F0E4CF04F0E4CF03F0E4CF02F0E4CF0C
:102A300001F0E4CF00F0E4CFD9FF1200D9CFE5FFD9
:102A4000E1CFD9FF00C0E5FF01C0E5FF02C0E5FF0F
:102A500003C0E5FF04C0E5FF05C0E5FF06C0E5FFD4
:102A600007C0E5FF020EDBCF00F0030EDBCF01F065
:102A7000040EDBCF02F0050EDBCF03F0D88001AEF1
:102A8000D890046A0436045007E0011C066E001C4E
:102A9000056E054A062A04D000C005F001C006F004
:102AA000D88003AED890006A0036005007E0031CBF
:102AB000076E021C016E014A072A04D002C001F011
:102AC00003C007F00750E56E0150E56E0650E56E55
:102AD0000550E56E0EEC17F0016EF3CF02F0040E18
:102AE000E1260050041A04500AE0021C036E011C87
:102AF000006E004A032A03C0F3FF005003D002C057
:102B0000F3FF0150E4CF07F0E4CF06F0E4CF05F087
:102B1000E4CF04F0E4CF03F0E4CF02F0E4CF01F01F
:102B2000E4CF00F0E4CFD9FF1200D9CFE5FFE1CF29
:102B3000D9FF00C0E5FF01C0E5FF02C0E5FF03C00B
:102B4000E5FF04C0E5FF05C0E5FF020EDBCF00F0A6
:102B5000030EDBCF01F01E0E005CD8B041D0B50EE5
:102B6000015C02E3B40E016EB40E0024026E036A2F
:102B7000040E0322960E0024046E056A040E05223C
:102B800004C0E9FF05C0EAFFEFCF04F002C0E9FF8F
:102B900003C0EAFFEFCF02F00450025E01500202D0
:102BA000F4CF03F0F3CF01F0E56AB40EE56E035005
:102BB000E56E0150E56E1EEC15F0016E040EE12687
:102BC00004500126026AD20E0026040E022200C022
:102BD000E9FF02C0EAFF01C0EFFF010E0401F16F3F
:102BE000E4CF05F0E4CF04F0E4CF03F0E4CF02F04B
:102BF000E4CF01F0E4CF00F0E4CFD9FF1200D9CF49
:102C0000E5FFE1CFD9FF00C0E5FF01C0E5FF02C04D
:102C1000E5FF03C0E5FF04C0E5FF05C0E5FF020EC8
:102C2000DBCF00F0030EDBCF01F093EC10F0026E6F
:102C3000F3CF03F0F4CF04F0E9CF05F0D8900532DC
:102C4000043203320232D8900532043203320232A7
:102C5000E56A010EE56E860EE56EA00EE56E055086
:102C6000E56E0450E56E0350E56E0250E56E8EECA5
:102C700014F0026E080EE12600C004F001C005F059
:102C8000FF0E002601220450051008E00250046ED9
:102C9000FD0E04260450E3EC18F0EED7E4CF05F067
:102CA000E4CF04F0E4CF03F0E4CF02F0E4CF01F08E
:102CB000E4CF00F0E4CFD9FF1200936A816A836AFF
:102CC000010EE56E150EE56E61EC0EF0E652E65271
:102CD000010EE56E160EE56E61EC0EF0E652E65260
:102CE000010EE56E170EE56E61EC0EF0E652E6524F
:102CF000010EE56E180EE56E61EC0EF0E652E6523E
:102D0000E56A190EE56E61EC0EF0E652E652E56AF0
:102D10001A0EE56E61EC0EF0E652E652E56A1B0E05
:102D2000E56E61EC0EF0E652E652E56A1C0EE56EC9
:102D300061EC0EF0E652E6520A0EE56E90EC0FF0F2
:102D4000E6520B0EE56E90EC0FF0E6520C0EE56EBF
:102D500090EC0FF0E652090EE56E90EC0FF0E652A3
:102D6000080EE56E90EC0FF0E6521200D9CFE5FFA9
:102D7000E1CFD9FF00C0E5FF01C0E5FF02C0E5FFDC
:102D800003C0E5FF04C0E5FF05C0E5FF06C0E5FFA1
:102D900007C0E5FF020EDBCF00F0030EDBCF01F032
:102DA000040EDBCF02F0050EDBCF03F00250046E01
:102DB0000350056E066A076A0450F86E0150046EEF
:102DC0000250056E0350066E076A0450F76E0050FD
:102DD000F66E0900F5CF00F00900F5CF01F0026AA8
:102DE0000150046E036A056A005003260550042250
:102DF00004C0F3FF0350E4CF07F0E4CF06F0E4CFC4
:102E000005F0E4CF04F0E4CF03F0E4CF02F0E4CF28
:102E100001F0E4CF00F0E4CFD9FF1200D9CFE5FFF5
:102E2000E1CFD9FF00C0E5FF01C0E5FF02C0E5FF2B
:102E300003C0E5FF04C0E5FF05C0E5FF06C0E5FFF0
:102E400007C0E5FF020EDBCF00F0030EDBCF01F081
:102E5000040EDBCF02F0050EDBCF03F0046A056A37
:102E6000100E066E0150800BE844076E00500026DD
:102E700001360450042605360750D8A404800350B8
:102E8000055C02E10250045C05E30250045E03505D
:102E9000055A00800604076E07C006F00750E2E1FD
:102EA00001C0F3FF0050E4CF07F0E4CF06F0E4CF19
:102EB00005F0E4CF04F0E4CF03F0E4CF02F0E4CF78
:102EC00001F0E4CF00F0E4CFD9FF120017EEFFF0DD
:102ED00027EEFFF0F86AA68EA69CBF0EE96E0E0ED6
:102EE000EA6E0068ED6A0050FDE16E0EF66E360E79
:102EF000F76E000EF86E0900F5CF05F00900F5CF6A
:102F000006F034D00900F5CF00F00900F5CF01F04C
:102F10000900F5CF02F009000900F5CFE9FF09002B
:102F2000F5CFEAFF090009000900F5CF03F0090019
:102F3000F5CF04F009000900F6CF07F0F7CF08F04D
:102F4000F8CF09F000C0F6FF01C0F7FF02C0F8FF9C
:102F500003D00900F5CFEEFF0306FBE20406F9E219
:102F600007C0F6FF08C0F7FF09C0F8FF0506CAE270
:102F70000606C8E210EC1BF0FFD700C0E5FF01C059
:102F8000E5FF02C0E5FF006AD20E0024016E026A6E
:102F9000040E022201C0E9FF02C0EAFFEF68960EAC
:102FA0000024016E026A040E022201C0E9FF02C081
:102FB000EAFF400EEF6EB40E0024016E026A040EAA
:102FC000022201C0E9FF02C0EAFFC00EEF6E002A34
:102FD0001E0E005CD9E3006AF60E0024016E026A40
:102FE000040E022201C0E9FF02C0EAFFEF6A002AD4
:102FF000050E005CF1E3F29EF29C010ECD6EFF0E19
:10300000CF68CE6A9F809E909D80CD80F28EF28C9C
:10301000E4CF02F0E4CF01F0E4CF00F01200D9CF0A
:10302000E5FFE1CFD9FF00C0E5FF01C0E5FF02C029
:10303000E5FF03C0E5FF020EDBCF00F0030EDBCFA0
:1030400001F0040EDBCF02F01E0E005C2EE20250F7
:10305000800F7B0F02E1DC0E015C04E2DC0E016EEE
:10306000050E026E0250800F770F02E1C50E015C63
:1030700004E3C40E016E090E026E036AB40E00264C
:10308000040E03220C0E0126FE0E0222023402322E
:10309000013202340232013202340232013200C003
:1030A000E9FF03C0EAFF01C0EFFFE4CF03F0E4CF84
:1030B00002F0E4CF01F0E4CF00F0E4CFD9FF12003A
:1030C000D9CFE5FFE1CFD9FF00C0E5FF01C0E5FFA3
:1030D00002C0E5FF03C0E5FF020EDBCF00F0030EE8
:1030E000DBCF01F0040EDBCF02F01E0E005C2EE2FF
:1030F0000250800F7F0F02E1F40E015C04E2F40E37
:10310000016E010E026E0250800F7B0F02E1DD0E98
:10311000015C04E3DC0E016E050E026E036A960E7E
:103120000026040E03220C0E0126FE0E022202349B
:1031300002320132023402320132023402320132EE
:1031400000C0E9FF03C0EAFF01C0EFFFE4CF03F0D6
:10315000E4CF02F0E4CF01F0E4CF00F0E4CFD9FFF8
:1031600012000203040601020304127A000048E878
:10317000010090D0030020A1070040420F0080848E
:103180001E0000093D0000127A0001020408102010
:103190004080408001020401020408200102040171
:1031A0000204081020408010010101010101010109
:1031B00002020202020000000000040404030303F0
:1031C000030303030300E806E56E090EF6EC18F0AE
:1031D000E4500BE000D0E56E090EF6EC18F000D0DC
:1031E000E450000000D0E82EF6D71200E8060000F8
:1031F000E85007E000D000D000D000D00000E82E5A
:10320000FAD71200D9CFE5FFE1CFD9FF00C0E5FF23
:1032100001C0E5FF02C0E5FF03C0E5FF020EDBCF02
:1032200000F0030EDBCF01F0040EDBCF02F0050E41
:10323000DBCF03F000500501226F0150236F0250D5
:103240000501246F0350256F050122510501240358
:10325000F4CF01F0F3CF00F000500501266F0150CC
:10326000276F0501225105012503F3CF00F0050169
:10327000235105012403F3CF01F00150002605017D
:10328000275100260050276F27C5F3FF2651E4CFB2
:1032900003F0E4CF02F0E4CF01F0E4CF00F0E4CF9C
:1032A000D9FF1200D9CFE5FFE1CFD9FF00C0E5FF7C
:1032B00001C0E5FF02C0E5FF03C0E5FF020EDBCF62
:1032C00000F00D0E005C0BE3150E005C08E2F30E3F
:1032D0000024016E0144E844FC0BC26E07D0060EC8
:1032E000005C04E20044E844FC0BC26EC280090E9C
:1032F000006E016A0000FF0E00260122005001103E
:10330000F9E1C282C2B2FED7C4CF00F0016A005018
:10331000036E026AC3CF00F0016A0050022601501A
:103320000322C29003C0F3FF0250E4CF03F0E4CFC6
:1033300002F0E4CF01F0E4CF00F0E4CFD9FF1200B7
:10334000D9CFE5FFE1CFD9FF00C0E5FF01C0E5FF20
:1033500002C0E5FF03C0E5FF020EDBCF00F0030E65
:10336000DBCF01F0040EDBCF02F000500B0A17E0B8
:1033700000500C0A25E10C0EBD6ED8900230036E91
:103380000130006ED890033200320050BE6E015002
:10339000006E030E00160038F00BBD1211D00C0E9B
:1033A000BA6ED8900230036E0130006ED8900332AE
:1033B00000320050BB6E030E01160138F00BBA123A
:1033C0009E92E4CF03F0E4CF02F0E4CF01F0E4CF2B
:1033D00000F0E4CFD9FF1200D8CFE5FFE0CFE5FF42
:1033E000E56EF3CFE5FFF4CFE5FFE9CFE5FFEACFE8
:1033F000E5FFFACFE5FFFBCFE5FFD9CFE5FFE1CF52
:10340000D9FFF6CFE5FFF7CFE5FFF8CFE5FFF5CF22
:10341000E5FFA5EC1AF0E4CFF5FFE4CFF8FFE4CF29
:10342000F7FFE4CFF6FFE4CFD9FFE4CFFBFFE4CF13
:10343000FAFFE4CFEAFFE4CFE9FFE4CFF4FFE4CF03
:10344000F3FFE450E4CFE0FFE4CFD8FF1000D8CF83
:10345000E5FFE0CFE5FFE56EF3CFE5FFF4CFE5FF55
:10346000E9CFE5FFEACFE5FFFACFE5FFFBCFE5FFC8
:10347000D9CFE5FFE1CFD9FFF6CFE5FFF7CFE5FFE5
:10348000F8CFE5FFF5CFE5FFE4CFF5FFE4CFF8FF98
:10349000E4CFF7FFE4CFF6FFE4CFD9FFE4CFFBFFA3
:1034A000E4CFFAFFE4CFEAFFE4CFE9FFE4CFF4FF93
:1034B000E4CFF3FFE450E4CFE0FFE4CFD8FF100007
:1034C000D9CFE5FFE1CFD9FF00C0E5FF01C0E5FF9F
:1034D000020EDBCF00F01E0E005C02E3E86A0CD0A7
:1034E000016AD20E0026040E012200C0E9FF01C0CD
:1034F000EAFFEFCF00F00050E4CF01F0E4CF00F09E
:10350000E4CFD9FF1200D9CFE5FFE1CFD9FF00C04A
:10351000E5FF01C0E5FF020EDBCF00F0030EDBCFBD
:1035200001F00050E56E86EC11F0006EE65200509E
:1035300003E1F36A010E02D0F36AE86AE4CF01F016
:10354000E4CF00F0E4CFD9FF12009EA01FD0040109
:10355000F0510BE023EC1BF0E90ECF6E590ECE6E4E
:10356000010ECD6E0401F06B10D0EDEC13F0320EB5
:10357000CF6EEB0ECE6E0401F151D8A40EEC06F026
:10358000210ECD6E010E0401F06F9E901200D9CF76
:10359000E5FFE1CFD9FF00C0E5FF01C0E5FF020E66
:1035A000DBCF00F00050E56E86EC11F0016EE652C4
:1035B00001700150E56E0050E56E32EC0DF0E65200
:1035C000E652E4CF01F0E4CF00F0E4CFD9FF1200DF
:1035D000896A8A6A8B6A8C6A8D6A926A936A949005
:1035E00094929494949C949E956A966A806A816A57
:1035F000826A836A846A1200D9CFE5FFE1CFD9FFDE
:1036000000C0E5FF020EDBCF00F0005004E00050E8
:10361000010A01E1C188E4CF00F0E4CFD9FF120034
:10362000D350030B800F7E0F02E3D3A4FED7E8EC48
:103630001AF006EC06F0BDEC17F05DEC16F00BECA2
:1036400006F0FDD712000401F6518012F7518112E5
:10365000F8518212F9518312FA51841212002F0E7E
:103660009212070E9612C16EBD0EC06E12000100BE
:1036700084360000F004000006000000CB68040E51
:0A368000CA6E1200000000000000F6
:00000001FF
