:020000040000FA
:040C000026EF16F0D5
:080C080008EF19F00F0EC16E98
:060C1000070EB46E120095
:080C180043EF19F000C0E5FFF5
:100C200001C0E5FF02C0E5FF03C0E5FF04C0E5FF2A
:100C300005C0E5FF06C0E5FF06012B6B1E0E060191
:100C40002B5DD8B066D0000E2B25006E016A060E13
:100C5000012200C0E9FF01C0EAFFEF682B51050D3A
:100C6000F450016EF3CF00F0000E0026050E0122B5
:100C700000C0E9FF01C0EAFFEF6A2B51050DF450F7
:100C8000016EF3CF00F0000E0026050E0122004A8F
:100C9000012A00C0E9FF01C0EAFFEF6A2B51050DF0
:100CA000F450016EF3CF00F0000E0026050E012275
:100CB000020E0026D8B0012A00C0E9FF01C0EAFFF9
:100CC000EF6A2B51050DF450016EF3CF00F0000ECA
:100CD0000026050E0122030E0026D8B0012A00C00E
:100CE000E9FF01C0EAFFEF6A2B51050DF450016ED8
:100CF000F3CF00F0000E0026050E0122040E0026A0
:100D0000D8B0012A00C0E9FF01C0EAFFEF6A2B2B2F
:100D100095D706012B6B050E06012B5D0DE2FB0E30
:100D20002B25006E016A050E012200C0E9FF01C0FB
:100D3000EAFFEF6A2B2BEFD706012C6B06012B6B1A
:100D40001E0E06012C5DD8B021EF0DF0010E06013C
:100D50002D6F06012E6B1E0E06012E5DD8B09DEF85
:100D60000CF0D60E2E25006E016A2F0E0122026AAB
:100D7000000E022200C0F6FF01C0F7FF02C0F8FF1C
:100D80000900F5CF00F0050E005CD8B099EF0CF02B
:100D9000FA6AFB6A0034FA36E834FA36FC0BAE0F16
:100DA000E56E0D0EFA22000EFB22E450F96EE1EF23
:100DB00006F002EF08F027EF09F050EF0AF076EFA7
:100DC0000BF0B80E06012E25006E016A2F0E0122CF
:100DD000026A000E022200C0F6FF01C0F7FF02C047
:100DE000F8FF0900F5CF00F00501FB5100160501E1
:100DF000F65100160050D8A499EF0CF0D20E06015F
:100E00002E25006E016A050E012200C0E9FF01C017
:100E1000EAFFEFCF00F0000E06012B25016E026AFB
:100E2000060E022201C0E9FF02C0EAFFEFCF01F087
:100E30000150005CD8B08DD0000E2B25006E016AE9
:100E4000060E0122D20E06012E25026E036A050E41
:100E5000032202C0E9FF03C0EAFFEFCF02F000C0A7
:100E6000E9FF01C0EAFF02C0EFFF06012B51050DAB
:100E7000F450016EF3CF00F0000E0026050E0122A3
:100E8000B80E06012E25026E036A2F0E0322046A95
:100E9000000E042202C0F6FF03C0F7FF04C0F8FFF3
:100EA0000900F5CF02F000C0E9FF01C0EAFF02C06F
:100EB000EFFF06012B51050DF450016EF3CF00F04A
:100EC000000E0026050E0122004A012A00C0E9FF9B
:100ED00001C0EAFFEF6A2B51050DF450016EF3CF0C
:100EE00000F0000E0026050E0122020E0026D8B0EA
:100EF000012A00C0E9FF01C0EAFFEF6A2B51050D8E
:100F0000F450016EF3CF00F0000E0026050E012212
:100F1000030E0026D8B0012A00C0E9FF01C0EAFF95
:100F2000EF6A2B51050DF450016EF3CF00F0000E67
:100F30000026050E0122040E0026D8B0012A00C0AA
:100F4000E9FF01C0EAFFEF6A010E06012D6F99EF7C
:100F50000CF0D20E06012E25006E016A050E01224C
:100F600000C0E9FF01C0EAFFEFCF00F0000E06016C
:100F70002B25016E026A060E022201C0E9FF02C0A3
:100F8000EAFFEFCF01F00050011802E099EF0CF0FA
:100F900006012B51050DF450016EF3CF00F0000E49
:100FA0000026050E01222B51050DF450036EF3CFE0
:100FB00002F0000E0226050E0322B80E06012E25B1
:100FC000046E056A2F0E0522066A000E062204C072
:100FD000F6FF05C0F7FF06C0F8FF0900F5CF04F0E3
:100FE00002C0E9FF03C0EAFFEFCF02F00250041293
:100FF00000C0E9FF01C0EAFF04C0EFFF06012D2B8E
:1010000099EF0CF0B80E06012E25006E016A2F0E26
:101010000122026A000E022200C0F6FF01C0F7FFA3
:1010200002C0F8FF0900F5CF00F00501FC510016E1
:101030000501F75100160050D8A499EF0CF0D20E1C
:1010400006012E25006E016A050E012200C0E9FF8F
:1010500001C0EAFFEFCF00F0000E06012B25016E64
:10106000026A060E022201C0E9FF02C0EAFFEFCFCA
:1010700001F00150005CD8B08DD0000E2B25006E21
:10108000016A060E0122D20E06012E25026E036AA7
:10109000050E032202C0E9FF03C0EAFFEFCF02F012
:1010A00000C0E9FF01C0EAFF02C0EFFF06012B51BB
:1010B000050DF450016EF3CF00F0000E0026050E72
:1010C000012200C0E9FF01C0EAFFEF6A2B51050DC4
:1010D000F450016EF3CF00F0000E0026050E012241
:1010E000004A012AB80E06012E25026E036A2F0E51
:1010F0000322046A000E042202C0F6FF03C0F7FFB9
:1011000004C0F8FF0900F5CF02F000C0E9FF01C0FC
:10111000EAFF02C0EFFF06012B51050DF450016EEE
:10112000F3CF00F0000E0026050E0122020E00266D
:10113000D8B0012A00C0E9FF01C0EAFFEF6A2B51D5
:10114000050DF450016EF3CF00F0000E0026050EE1
:101150000122030E0026D8B0012A00C0E9FF01C019
:10116000EAFFEF6A2B51050DF450016EF3CF00F04A
:10117000000E0026050E0122040E0026D8B0012A1A
:1011800000C0E9FF01C0EAFFEF6A010E06012D6F02
:1011900099EF0CF0D20E06012E25006E016A050EA5
:1011A000012200C0E9FF01C0EAFFEFCF00F0000E0E
:1011B00006012B25016E026A060E022201C0E9FF1C
:1011C00002C0EAFFEFCF01F00050011802E099EFF2
:1011D0000CF006012B51050DF450016EF3CF00F019
:1011E000000E0026050E0122004A012A2B51050D92
:1011F000F450036EF3CF02F0000E0226050E032218
:10120000024A032AB80E06012E25046E056A2F0E27
:101210000522066A000E062204C0F6FF05C0F7FF8D
:1012200006C0F8FF0900F5CF04F002C0E9FF03C0D3
:10123000EAFFEFCF02F00250041200C0E9FF01C044
:10124000EAFF04C0EFFF06012D2B99EF0CF0B80E5A
:1012500006012E25006E016A2F0E0122026A000E81
:10126000022200C0F6FF01C0F7FF02C0F8FF09002C
:10127000F5CF00F00501FD5100160501F8510016EB
:101280000050D8A499EF0CF0D20E06012E25006E66
:10129000016A050E012200C0E9FF01C0EAFFEFCF9D
:1012A00000F0000E06012B25016E026A060E0222D6
:1012B00001C0E9FF02C0EAFFEFCF01F00150005C7E
:1012C000D8B08DD0000E2B25006E016A060E0122CB
:1012D000D20E06012E25026E036A050E032202C0FD
:1012E000E9FF03C0EAFFEFCF02F000C0E9FF01C051
:1012F000EAFF02C0EFFF06012B51050DF450016E0D
:10130000F3CF00F0000E0026050E012200C0E9FF19
:1013100001C0EAFFEF6A2B51050DF450016EF3CFC7
:1013200000F0000E0026050E0122004A012A00C02E
:10133000E9FF01C0EAFFEF6A2B51050DF450016E81
:10134000F3CF00F0000E0026050E0122020E00264B
:10135000D8B0012AB80E06012E25026E036A2F0EA0
:101360000322046A000E042202C0F6FF03C0F7FF46
:1013700004C0F8FF0900F5CF02F000C0E9FF01C08A
:10138000EAFF02C0EFFF06012B51050DF450016E7C
:10139000F3CF00F0000E0026050E0122030E0026FA
:1013A000D8B0012A00C0E9FF01C0EAFFEF6A2B5163
:1013B000050DF450016EF3CF00F0000E0026050E6F
:1013C0000122040E0026D8B0012A00C0E9FF01C0A6
:1013D000EAFFEF6A010E06012D6F99EF0CF0D20EB5
:1013E00006012E25006E016A050E012200C0E9FFEC
:1013F00001C0EAFFEFCF00F0000E06012B25016EC1
:10140000026A060E022201C0E9FF02C0EAFFEFCF26
:1014100001F00050011802E099EF0CF006012B5189
:10142000050DF450016EF3CF00F0000E0026050EFE
:101430000122020E0026D8B0012A2B51050DF450CE
:10144000036EF3CF02F0000E0226050E0322020EF9
:101450000226D8B0032AB80E06012E25046E056AAE
:101460002F0E0522066A000E062204C0F6FF05C0F4
:10147000F7FF06C0F8FF0900F5CF04F002C0E9FF4E
:1014800003C0EAFFEFCF02F00250041200C0E9FFF0
:1014900001C0EAFF04C0EFFF06012D2B99EF0CF00D
:1014A000B80E06012E25006E016A2F0E0122026A77
:1014B000000E022200C0F6FF01C0F7FF02C0F8FFD5
:1014C0000900F5CF00F00501FE5100160501F951A4
:1014D00000160050D8A499EF0CF0D20E06012E256C
:1014E000006E016A050E012200C0E9FF01C0EAFF9B
:1014F000EFCF00F0000E06012B25016E026A060EEA
:10150000022201C0E9FF02C0EAFFEFCF01F0015063
:10151000005CD8B08CD0000E2B25006E016A060E40
:101520000122D20E06012E25026E036A050E032249
:1015300002C0E9FF03C0EAFFEFCF02F000C0E9FFFD
:1015400001C0EAFF02C0EFFF06012B51050DF45068
:10155000016EF3CF00F0000E0026050E012200C040
:10156000E9FF01C0EAFFEF6A2B51050DF450016E4F
:10157000F3CF00F0000E0026050E0122004A012ADA
:1015800000C0E9FF01C0EAFFEF6A2B51050DF450DE
:10159000016EF3CF00F0000E0026050E0122020EB0
:1015A0000026D8B0012A00C0E9FF01C0EAFFEF6AB7
:1015B0002B51050DF450016EF3CF00F0000E002604
:1015C000050E0122030E0026D8B0012AB80E06012E
:1015D0002E25026E036A2F0E0322046A000E0422D7
:1015E00002C0F6FF03C0F7FF04C0F8FF0900F5CF03
:1015F00002F000C0E9FF01C0EAFF02C0EFFF0601F0
:101600002B51050DF450016EF3CF00F0000E0026B3
:10161000050E0122040E0026D8B0012A00C0E9FF01
:1016200001C0EAFFEF6A010E06012D6F82D1D20ED2
:1016300006012E25006E016A050E012200C0E9FF99
:1016400001C0EAFFEFCF00F0000E06012B25016E6E
:10165000026A060E022201C0E9FF02C0EAFFEFCFD4
:1016600001F00050011801E064D106012B51050D75
:10167000F450016EF3CF00F0000E0026050E01229B
:10168000030E0026D8B0012A2B51050DF450036E2D
:10169000F3CF02F0000E0226050E0322030E0226EF
:1016A000D8B0032AB80E06012E25046E056A2F0E47
:1016B0000522066A000E062204C0F6FF05C0F7FFE9
:1016C00006C0F8FF0900F5CF04F002C0E9FF03C02F
:1016D000EAFFEFCF02F00250041200C0E9FF01C0A0
:1016E000EAFF04C0EFFF06012D2B23D1B80E06013F
:1016F0002E25006E016A2F0E0122026A000E0222C0
:1017000000C0F6FF01C0F7FF02C0F8FF0900F5CFE7
:1017100000F00501FF5100160501FA5100160050B6
:10172000D8A407D1D20E06012E25006E016A050E3F
:10173000012200C0E9FF01C0EAFFEFCF00F0000E78
:1017400006012B25016E026A060E022201C0E9FF86
:1017500002C0EAFFEFCF01F00150005CD8B08BD09F
:10176000000E2B25006E016A060E0122D20E060124
:101770002E25026E036A050E032202C0E9FF03C094
:10178000EAFFEFCF02F000C0E9FF01C0EAFF02C0AC
:10179000EFFF06012B51050DF450016EF3CF00F061
:1017A000000E0026050E012200C0E9FF01C0EAFF7D
:1017B000EF6A2B51050DF450016EF3CF00F0000ECF
:1017C0000026050E0122004A012A00C0E9FF01C0DF
:1017D000EAFFEF6A2B51050DF450016EF3CF00F0D4
:1017E000000E0026050E0122020E0026D8B0012AA6
:1017F00000C0E9FF01C0EAFFEF6A2B51050DF4506C
:10180000016EF3CF00F0000E0026050E0122030E3C
:101810000026D8B0012A00C0E9FF01C0EAFFEF6A44
:101820002B51050DF450016EF3CF00F0000E002691
:10183000050E0122040E0026D8B0012AB80E0601BA
:101840002E25026E036A2F0E0322046A000E042264
:1018500002C0F6FF03C0F7FF04C0F8FF0900F5CF90
:1018600002F000C0E9FF01C0EAFF02C0EFFF010E75
:1018700006012D6F5ED0D20E06012E25006E016A84
:10188000050E012200C0E9FF01C0EAFFEFCF00F022
:10189000000E06012B25016E026A060E022201C00F
:1018A000E9FF02C0EAFFEFCF01F00050011801E0AC
:1018B00040D006012B51050DF450016EF3CF00F01E
:1018C000000E0026050E0122040E0026D8B0012AC3
:1018D0002B51050DF450036EF3CF02F0000E0226DB
:1018E000050E0322040E0226D8B0032AB80E060104
:1018F0002E25046E056A2F0E0522066A000E0622AA
:1019000004C0F6FF05C0F7FF06C0F8FF0900F5CFD9
:1019100004F002C0E9FF03C0EAFFEFCF02F002507B
:10192000041200C0E9FF01C0EAFF04C0EFFF060196
:101930002D2B06012E2BABEF06F006012B51050DCA
:10194000F450016EF3CF00F0000E0026050E0122C8
:1019500000C0E9FF01C0EAFFEFCF00F00501FB5135
:1019600000120050FB6F06012B51050DF450016E63
:10197000F3CF00F0000E0026050E0122004A012AD6
:1019800000C0E9FF01C0EAFFEFCF00F00501FC5104
:1019900000120050FC6F06012B51050DF450016E32
:1019A000F3CF00F0000E0026050E0122020E0026E5
:1019B000D8B0012A00C0E9FF01C0EAFFEFCF00F074
:1019C0000501FD5100120050FD6F06012B51050D60
:1019D000F450016EF3CF00F0000E0026050E012238
:1019E000030E0026D8B0012A00C0E9FF01C0EAFFBB
:1019F000EFCF00F00501FE5100120050FE6F06010E
:101A00002B51050DF450016EF3CF00F0000E0026AF
:101A1000050E0122040E0026D8B0012A00C0E9FFFD
:101A200001C0EAFFEFCF00F00501FF5100120050A6
:101A3000FF6F06012D5106012C2706012B2BA0EF6D
:101A400006F00501F16BE4CF06F0E4CF05F0E4CF3A
:101A500004F0E4CF03F0E4CF02F0E4CF01F0E4CFF0
:101A600000F01200D9CFE5FFE1CFD9FF00C0E5FFBC
:101A700001C0E5FF02C0E5FF03C0E5FF04C0E5FFCC
:101A8000020EDBCF00F0030EDBCF01F0D60E0024F8
:101A9000026E036A2F0E0322046A000E042202C0A3
:101AA000F6FF03C0F7FF04C0F8FF0900F5CF02F00E
:101AB000050E025CD8B011D1FA6AFB6A0234FA361C
:101AC000E834FA36FC0BD60FE56E1A0EFA22000E39
:101AD000FB22E450F96E75EF0DF0A7EF0DF0D9EF92
:101AE0000DF00BEF0EF03DEF0EF0015015E0B80ECB
:101AF0000024026E036A2F0E0322046A000E0422E1
:101B000002C0F6FF03C0F7FF04C0F8FF0900F5CFDD
:101B100002F002508912E1D0B80E0024026E036A6E
:101B20002F0E0322046A000E042202C0F6FF03C037
:101B3000F7FF04C0F8FF0900F5CF02F00250FF08DC
:101B4000026E8950036E02500314896EC6D0015094
:101B500015E0B80E0024026E036A2F0E0322046AF9
:101B6000000E042202C0F6FF03C0F7FF04C0F8FF16
:101B70000900F5CF02F002508A12AFD0B80E00244F
:101B8000026E036A2F0E0322046A000E042202C0B2
:101B9000F6FF03C0F7FF04C0F8FF0900F5CF02F01D
:101BA0000250FF08026E8A50036E025003148A6EC0
:101BB00094D0015015E0B80E0024026E036A2F0E77
:101BC0000322046A000E042202C0F6FF03C0F7FFDE
:101BD00004C0F8FF0900F5CF02F002508B127DD04F
:101BE000B80E0024026E036A2F0E0322046A000E50
:101BF000042202C0F6FF03C0F7FF04C0F8FF09008B
:101C0000F5CF02F00250FF08026E8B50036E0250B7
:101C100003148B6E62D0015015E0B80E0024026EE2
:101C2000036A2F0E0322046A000E042202C0F6FF8C
:101C300003C0F7FF04C0F8FF0900F5CF02F002501F
:101C40008C124BD0B80E0024026E036A2F0E0322B2
:101C5000046A000E042202C0F6FF03C0F7FF04C0AE
:101C6000F8FF0900F5CF02F00250FF08026E8C5019
:101C7000036E025003148C6E30D0015015E0B80E84
:101C80000024016E026A2F0E0222036A000E032254
:101C900001C0F6FF02C0F7FF03C0F8FF0900F5CF4F
:101CA00001F001508D1219D0016A026AB80E0026A7
:101CB0002F0E0122000E022200C0F6FF01C0F7FF26
:101CC00002C0F8FF0900F5CF00F00050FF08006ED9
:101CD0008D50016E005001148D6EE4CF04F0E4CFFE
:101CE00003F0E4CF02F0E4CF01F0E4CF00F0E4CF62
:101CF000D9FF1200D9CFE5FFE1CFD9FF00C0E5FF42
:101D000001C0E5FF02C0E5FF03C0E5FF04C0E5FF39
:101D1000020EDBCF00F0030EDBCF01F0D60E002465
:101D2000026E036A2F0E0322046A000E042202C010
:101D3000F6FF03C0F7FF04C0F8FF0900F5CF02F07B
:101D4000050E025CD8B011D1FA6AFB6A0234FA3689
:101D5000E834FA36FC0B660FE56E1D0EFA22000E13
:101D6000FB22E450F96EBDEF0EF0EFEF0EF021EF25
:101D70000FF053EF0FF085EF0FF0015015E0B80EA4
:101D80000024026E036A2F0E0322046A000E04224E
:101D900002C0F6FF03C0F7FF04C0F8FF0900F5CF4B
:101DA00002F002509212E1D0B80E0024026E036AD3
:101DB0002F0E0322046A000E042202C0F6FF03C0A5
:101DC000F7FF04C0F8FF0900F5CF02F00250FF084A
:101DD000026E9250036E02500314926EC6D00150F0
:101DE00015E0B80E0024026E036A2F0E0322046A67
:101DF000000E042202C0F6FF03C0F7FF04C0F8FF84
:101E00000900F5CF02F002509312AFD0B80E0024B3
:101E1000026E036A2F0E0322046A000E042202C01F
:101E2000F6FF03C0F7FF04C0F8FF0900F5CF02F08A
:101E30000250FF08026E9350036E02500314936E1B
:101E400094D0015015E0B80E0024026E036A2F0EE4
:101E50000322046A000E042202C0F6FF03C0F7FF4B
:101E600004C0F8FF0900F5CF02F0025094127DD0B3
:101E7000B80E0024026E036A2F0E0322046A000EBD
:101E8000042202C0F6FF03C0F7FF04C0F8FF0900F8
:101E9000F5CF02F00250FF08026E9450036E02501C
:101EA0000314946E62D0015015E0B80E0024026E47
:101EB000036A2F0E0322046A000E042202C0F6FFFA
:101EC00003C0F7FF04C0F8FF0900F5CF02F002508D
:101ED00095124BD0B80E0024026E036A2F0E032217
:101EE000046A000E042202C0F6FF03C0F7FF04C01C
:101EF000F8FF0900F5CF02F00250FF08026E95507E
:101F0000036E02500314956E30D0015015E0B80EE8
:101F10000024016E026A2F0E0222036A000E0322C1
:101F200001C0F6FF02C0F7FF03C0F8FF0900F5CFBC
:101F300001F00150961219D0016A026AB80E00260B
:101F40002F0E0122000E022200C0F6FF01C0F7FF93
:101F500002C0F8FF0900F5CF00F00050FF08006E46
:101F60009650016E00500114966EE4CF04F0E4CF59
:101F700003F0E4CF02F0E4CF01F0E4CF00F0E4CFCF
:101F8000D9FF1200D9CFE5FFE1CFD9FF00C0E5FFAF
:101F900001C0E5FF02C0E5FF03C0E5FF04C0E5FFA7
:101FA000020EDBCF00F01E0E005CD8B0E1D0D60EE2
:101FB0000024016E026A2F0E0222036A000E032221
:101FC00001C0F6FF02C0F7FF03C0F8FF0900F5CF1C
:101FD00001F0050E015CD8B0CBD0FA6AFB6A01347F
:101FE000FA36E834FA36FC0BF80FE56E1F0EFA22CB
:101FF000000EFB22E450F96E06EF10F02AEF10F00D
:102000004EEF10F072EF10F096EF10F0B80E0024C3
:10201000016E026A2F0E0222036A000E032201C023
:10202000F6FF02C0F7FF03C0F8FF0900F5CF04F088
:102030000501F65104120450F66F01C0F6FF02C00C
:10204000F7FF03C0F8FF0900F5CF01F0011E0150B2
:1020500092168ED0B80E0024016E026A2F0E022254
:10206000036A000E032201C0F6FF02C0F7FF03C09F
:10207000F8FF0900F5CF04F00501F75104120450F0
:10208000F76F01C0F6FF02C0F7FF03C0F8FF0900B9
:10209000F5CF01F0011E015093166AD0B80E00244E
:1020A000016E026A2F0E0222036A000E032201C093
:1020B000F6FF02C0F7FF03C0F8FF0900F5CF04F0F8
:1020C0000501F85104120450F86F01C0F6FF02C078
:1020D000F7FF03C0F8FF0900F5CF01F0011E015022
:1020E000941646D0B80E0024016E026A2F0E02220A
:1020F000036A000E032201C0F6FF02C0F7FF03C00F
:10210000F8FF0900F5CF04F00501F951041204505D
:10211000F96F01C0F6FF02C0F7FF03C0F8FF090026
:10212000F5CF01F0011E0150951622D0016A026A16
:10213000B80E00262F0E0122000E022200C0F6FF6C
:1021400001C0F7FF02C0F8FF0900F5CF03F0050159
:10215000FA5103120350FA6F00C0F6FF01C0F7FFF7
:1021600002C0F8FF0900F5CF00F0001E00509616DF
:10217000E4CF04F0E4CF03F0E4CF02F0E4CF01F0C9
:10218000E4CF00F0E4CFD9FF120000C0E5FF01C0AA
:10219000E5FF02C0E5FF03C0E5FF04C0E5FF05C0A1
:1021A000E5FFD350030B006E0050D8A491D0E56A30
:1021B000300EE56E000EE56AE56A7DEC16F0006E05
:1021C000040EE126180E0016016AD8900132003282
:1021D000D89001320032D89001320032940E00249F
:1021E000016E026A2F0E0222036A000E032201C052
:1021F000F6FF02C0F7FF03C0F8FF0900F5CF01F0BA
:10220000E56A300EE56EE56A010EE56E7DEC16F0CE
:10221000026E040EE1260F0E0216900E0024036ECD
:10222000046A2F0E0422056A000E052203C0F6FF81
:1022300004C0F7FF05C0F8FF0900F5CF00F0D89003
:102240000232025006E00250020A03E00250060A7F
:102250001FE1E56AE56AE56A0150E56EE56A7A0E16
:10226000E56E120EE56E000EE56AACEC12F0016E42
:10227000F3CF02F0F4CF03F0E9CF04F0080EE1262B
:1022800004C0E9FF03C0F4FF02C0F3FF015064D0B3
:10229000E56AE56AE56A0050E56E050EE56EB80E82
:1022A000E56ED80EE56E000EE56AE3EC14F0006E04
:1022B000F3CF01F0F4CF02F0E9CF03F0080EE126EE
:1022C00003C0E9FF02C0F4FF01C0F3FF005044D097
:1022D000D350030B010A06E1E96AF46A800EF36E3B
:1022E000E86A3AD0D350030B006E020E005C30E374
:1022F000D350E838070BE56AE56EE56A040EE56E33
:1023000069EC18F0006EF3CF01F0040EE126026ACA
:10231000980E00262F0E0122000E022200C0F6FFAA
:1023200001C0F7FF02C0F8FF0900F5CF00F0090077
:10233000F5CF01F00900F5CF02F00900F5CF03F069
:1023400003C0E9FF02C0F4FF01C0F3FF005004D056
:10235000E96AF46AF36AE86AE4CF05F0E4CF04F0CE
:10236000E4CF03F0E4CF02F0E4CF01F0E4CF00F0DB
:102370001200D9CFE5FFE1CFD9FF00C0E5FF01C0D2
:10238000E5FF02C0E5FF03C0E5FF020EDBCF00F072
:10239000D60E0024016E026A2F0E0222036A000E7E
:1023A000032201C0F6FF02C0F7FF03C0F8FF0900D7
:1023B000F5CF01F0050E015CD8B0C2D0FA6AFB6A15
:1023C0000134FA36E834FA36FC0BDA0FE56E230EE8
:1023D000FA22000EFB22E450F96EF7EF11F019EF2C
:1023E00012F03BEF12F05DEF12F07FEF12F0B80E3B
:1023F0000024016E026A2F0E0222036A000E0322DD
:1024000001C0F6FF02C0F7FF03C0F8FF0900F5CFD7
:1024100001F0805001160150D880E866D890016A1A
:1024200001360150D880E866D890016A0136015023
:1024300088D0B80E0024016E026A2F0E0222036AB1
:10244000000E032201C0F6FF02C0F7FF03C0F8FF31
:102450000900F5CF01F0815001160150D880E866DF
:10246000D890016A01360150D880E866D890016A98
:102470000136015066D0B80E0024016E026A2F0E9C
:102480000222036A000E032201C0F6FF02C0F7FF1A
:1024900003C0F8FF0900F5CF01F08250011601508A
:1024A000D880E866D890016A01360150D880E86685
:1024B000D890016A0136015044D0B80E0024016E54
:1024C000026A2F0E0222036A000E032201C0F6FFE9
:1024D00002C0F7FF03C0F8FF0900F5CF01F08350F9
:1024E00001160150D880E866D890016A0136015083
:1024F000D880E866D890016A0136015022D0016A7E
:10250000026AB80E00262F0E0122000E022200C021
:10251000F6FF01C0F7FF02C0F8FF0900F5CF00F099
:10252000845000160050D880E866D890006A0036C3
:102530000050D880E866D890006A0036005001D07C
:10254000E86AE4CF03F0E4CF02F0E4CF01F0E4CF97
:1025500000F0E4CFD9FF1200D9CFE5FFE1CFD9FFDA
:1025600000C0E5FF01C0E5FF02C0E5FF03C0E5FFD5
:1025700004C0E5FF05C0E5FF06C0E5FF07C0E5FFB5
:1025800008C0E5FF09C0E5FF0AC0E5FF0BC0E5FF95
:102590000CC0E5FF0DC0E5FF020EDBCF00F0030E1F
:1025A000DBCF01F0040EDBCF02F0050EDBCF03F032
:1025B000060EDBCF04F0070EDBCF05F0080EDBCFF5
:1025C00006F0090EDBCF07F0D88003AED890086A7A
:1025D000083608500FE0031C0C6E021C0B6E011C29
:1025E0000A6E001C096E092A0DE10A2A0BE10B4A4A
:1025F0000C2A08D000C009F001C00AF002C00BF09C
:1026000003C00CF0D88007AED890006A00360050A6
:102610000FE0071C0D6E061C036E051C026E041CE9
:10262000016E012A0DE1022A0BE1034A0D2A08D0AE
:1026300004C001F005C002F006C003F007C00DF0B1
:102640000D50E56E0350E56E0250E56E0150E56EEB
:102650000C50E56E0B50E56E0A50E56E0950E56EC4
:10266000E3EC14F0016EF3CF02F0F4CF03F0E9CF06
:1026700004F0080EE1260050081A085016E0041C69
:10268000076E031C066E021C056E011C006E002AFC
:1026900004E1052A02E1064A072A07C0E9FF06C04D
:1026A000F4FF05C0F3FF005007D004C0E9FF03C0EA
:1026B000F4FF02C0F3FF0150E4CF0DF0E4CF0CF0C3
:1026C000E4CF0BF0E4CF0AF0E4CF09F0E4CF08F058
:1026D000E4CF07F0E4CF06F0E4CF05F0E4CF04F058
:1026E000E4CF03F0E4CF02F0E4CF01F0E4CF00F058
:1026F000E4CFD9FF1200D9CFE5FFE1CFD9FF00C069
:10270000E5FF01C0E5FF02C0E5FF03C0E5FF020EE3
:10271000DBCF00F01E0E005CD8B0A5D0D60E002492
:10272000016E026A2F0E0222036A000E032201C00C
:10273000F6FF02C0F7FF03C0F8FF0900F5CF01F074
:10274000050E015CD8B08FD0FA6AFB6A0134FA3604
:10275000E834FA36FC0B660FE56E270EFA22000EFF
:10276000FB22E450F96EBDEF13F0D5EF13F0EDEF5F
:1027700013F005EF14F01DEF14F0B80E0024016EF5
:10278000026A2F0E0222036A000E032201C0F6FF26
:1027900002C0F7FF03C0F8FF0900F5CF01F0050103
:1027A000F651011A0150F66F5ED0B80E0024016E8A
:1027B000026A2F0E0222036A000E032201C0F6FFF6
:1027C00002C0F7FF03C0F8FF0900F5CF01F00501D3
:1027D000F751011A0150F76F46D0B80E0024016E70
:1027E000026A2F0E0222036A000E032201C0F6FFC6
:1027F00002C0F7FF03C0F8FF0900F5CF01F00501A3
:10280000F851011A0150F86F2ED0B80E0024016E55
:10281000026A2F0E0222036A000E032201C0F6FF95
:1028200002C0F7FF03C0F8FF0900F5CF01F0050172
:10283000F951011A0150F96F16D0016A026AB80EF7
:1028400000262F0E0122000E022200C0F6FF01C05A
:10285000F7FF02C0F8FF0900F5CF00F00501FA51BB
:10286000001A0050FA6FE4CF03F0E4CF02F0E4CF97
:1028700001F0E4CF00F0E4CFD9FF1200D9CFE5FF9B
:10288000E1CFD9FF00C0E5FF01C0E5FF06012A6BDB
:102890000501F26B000E06012A25006E016A060E84
:1028A000012200C0E9FF01C0EAFFEFCF00F00050B5
:1028B0000501F21901E06AD006012A51050DF45014
:1028C000016EF3CF00F0000E0026050E012200C0BD
:1028D000E9FF01C0EAFFEFCF00F00050801A2A5153
:1028E000050DF450016EF3CF00F0000E0026050E2A
:1028F0000122004A012A00C0E9FF01C0EAFFEFCF30
:1029000000F00050811A2A51050DF450016EF3CFEA
:1029100000F0000E0026050E0122020E0026D8B09F
:10292000012A00C0E9FF01C0EAFFEFCF00F000502C
:10293000821A2A51050DF450016EF3CF00F0000EFB
:102940000026050E0122030E0026D8B0012A00C081
:10295000E9FF01C0EAFFEFCF00F00050831A2A51CF
:10296000050DF450016EF3CF00F0000E0026050EA9
:102970000122040E0026D8B0012A00C0E9FF01C0E0
:10298000EAFFEFCF00F00050841A2A2B070E296FC0
:102990000000000000000000000000000000000037
:1029A000000000000000292FC8EF14F00501F22BF1
:1029B000FB0EF25DD8A06ED7E4CF01F0E4CF00F0BB
:1029C000E4CFD9FF1200D9CFE5FFE1CFD9FF00C096
:1029D000E5FF01C0E5FF02C0E5FF03C0E5FF04C05D
:1029E000E5FF05C0E5FF06C0E5FF07C0E5FF08C03D
:1029F000E5FF09C0E5FF0AC0E5FF0BC0E5FF0CC01D
:102A0000E5FF0DC0E5FF020EDBCF00F0030EDBCFCC
:102A100001F0040EDBCF02F0050EDBCF03F0060E53
:102A2000DBCF04F0070EDBCF05F0080EDBCF06F09E
:102A3000090EDBCF07F0086A096A0A6A0B6A200EE2
:102A40000C6E0350800BE8440D6E005000260136DA
:102A5000023603360850082609360A360B360D5062
:102A6000D8A4088007500B5C08E106500A5C05E119
:102A70000550095C02E10450085C09E30450085E5B
:102A80000550095A06500A5A07500B5A00800C2E5E
:102A9000D8D703C0E9FF02C0F4FF01C0F3FF005024
:102AA000E4CF0DF0E4CF0CF0E4CF0BF0E4CF0AF06C
:102AB000E4CF09F0E4CF08F0E4CF07F0E4CF06F06C
:102AC000E4CF05F0E4CF04F0E4CF03F0E4CF02F06C
:102AD000E4CF01F0E4CF00F0E4CFD9FF1200D9CF6A
:102AE000E5FFE1CFD9FF00C0E5FF01C0E5FF02C06F
:102AF000E5FF03C0E5FF04C0E5FF05C0E5FF020EEA
:102B0000DBCF00F0030EDBCF01F0C5EC10F0026E5E
:102B1000F3CF03F0F4CF04F0E9CF05F0D8900532FD
:102B2000043203320232D8900532043203320232C8
:102B3000E56A010EE56E860EE56EA00EE56E0550A7
:102B4000E56E0450E56E0350E56E0250E56EE3EC71
:102B500014F0026E080EE12600C004F001C005F07A
:102B6000FF0E002601220450051008E002C004F008
:102B7000FD0E04260450FAEC17F0EED7E4CF05F072
:102B8000E4CF04F0E4CF03F0E4CF02F0E4CF01F0AF
:102B9000E4CF00F0E4CFD9FF1200936A816A836A20
:102BA000010EE56E150EE56E7AEC0EF0E652E65279
:102BB000010EE56E160EE56E7AEC0EF0E652E65268
:102BC000010EE56E170EE56E7AEC0EF0E652E65257
:102BD000010EE56E180EE56E7AEC0EF0E652E65246
:102BE000E56A190EE56E7AEC0EF0E652E652E56AF9
:102BF0001A0EE56E7AEC0EF0E652E652E56A1B0E0E
:102C0000E56E7AEC0EF0E652E652E56A1C0EE56ED1
:102C10007AEC0EF0E652E6520A0EE56EC2EC0FF0C8
:102C2000E6520B0EE56EC2EC0FF0E6520C0EE56EAE
:102C3000C2EC0FF0E652090EE56EC2EC0FF0E65260
:102C4000080EE56EC2EC0FF0E652120014EEFFF033
:102C500024EEFFF0F86AA68EA69CBF0EE96E0E0E5B
:102C6000EA6E0068ED6A0050FDE1CE0EF66E350E9C
:102C7000F76E000EF86E0900F5CF05F00900F5CFEC
:102C800006F034D00900F5CF00F00900F5CF01F0CF
:102C90000900F5CF02F009000900F5CFE9FF0900AE
:102CA000F5CFEAFF090009000900F5CF03F009009C
:102CB000F5CF04F009000900F6CF07F0F7CF08F0D0
:102CC000F8CF09F000C0F6FF01C0F7FF02C0F8FF1F
:102CD00003D00900F5CFEEFF0306FBE20406F9E29C
:102CE00007C0F6FF08C0F7FF09C0F8FF0506CAE2F3
:102CF0000606C8E29CEC1AF0FFD7D9CFE5FFE1CF7A
:102D0000D9FF00C0E5FF01C0E5FF02C0E5FF03C039
:102D1000E5FF04C0E5FF05C0E5FF06C0E5FF07C00D
:102D2000E5FF020EDBCF00F0030EDBCF01F0040E57
:102D3000DBCF02F0050EDBCF03F00250046E035030
:102D4000056E066A076A0450F86E0050046E015062
:102D5000056E046E056A0450F76E0050F66E0900A9
:102D6000F5CF00F00900F5CF01F0026A0150046EC2
:102D7000036A056A005003260550042204C0F3FFCD
:102D80000350E4CF07F0E4CF06F0E4CF05F0E4CF42
:102D900004F0E4CF03F0E4CF02F0E4CF01F0E4CF9D
:102DA00000F0E4CFD9FF120000C0E5FF01C0E5FF4D
:102DB00002C0E5FF006AD20E0024016E026A050E11
:102DC000022201C0E9FF02C0EAFFEF68960E00246C
:102DD000016E026A050E022201C0E9FF02C0EAFF8D
:102DE000400EEF6EB40E0024016E026A050E022240
:102DF00001C0E9FF02C0EAFFC00EEF6E002A1E0EFE
:102E0000005CD9E3006AF60E0024016E026A050E2A
:102E1000022201C0E9FF02C0EAFFEF6A002A050EA4
:102E2000005CF1E3F29EF29C010ECD6EFF0ECF68C6
:102E3000CE6A9F809E909D80CD80F28EF28CE4CFF2
:102E400002F0E4CF01F0E4CF00F01200D9CFE5FFAB
:102E5000E1CFD9FF00C0E5FF01C0E5FF02C0E5FFFB
:102E600003C0E5FF020EDBCF00F0030EDBCF01F065
:102E7000040EDBCF02F01E0E005C2EE20250800F2B
:102E80007B0F02E1DC0E015C04E2DC0E016E050E3C
:102E9000026E0250800F770F02E1C50E015C04E361
:102EA000C40E016E090E026E036AB40E0026050EF2
:102EB00003220C0E0126FE0E0222023402320132DF
:102EC00002340232013202340232013200C0E9FF20
:102ED00003C0EAFF01C0EFFFE4CF03F0E4CF02F04C
:102EE000E4CF01F0E4CF00F0E4CFD9FF1200D9CF56
:102EF000E5FFE1CFD9FF00C0E5FF01C0E5FF02C05B
:102F0000E5FF03C0E5FF020EDBCF00F0030EDBCFD1
:102F100001F0040EDBCF02F01E0E005C2EE2025028
:102F2000800F7F0F02E1F40E015C04E2F40E016EEB
:102F3000010E026E0250800F7B0F02E1DD0E015C7C
:102F400004E3DC0E016E050E026E036A960E002687
:102F5000050E03220C0E0126FE0E0222023402325E
:102F6000013202340232013202340232013200C034
:102F7000E9FF03C0EAFF01C0EFFFE4CF03F0E4CFB5
:102F800002F0E4CF01F0E4CF00F0E4CFD9FF12006B
:102F90000203040601020304127A000048E801005B
:102FA00090D0030020A1070040420F0080841E0043
:102FB00000093D0000127A00010204081020408040
:102FC00040800102040102040820010204010204FD
:102FD00008102040801001010101010101010202DD
:102FE00002020200000000000404040303030303C0
:102FF00003030300E806E56E090E0DEC18F0E4503B
:103000000BE000D0E56E090E0DEC18F000D0E45096
:10301000000000D0E82EF6D71200E8060000E850C5
:1030200007E000D000D000D000D00000E82EFAD792
:103030001200D9CFE5FFE1CFD9FF00C0E5FF01C005
:10304000E5FF02C0E5FF03C0E5FF020EDBCF00F0A5
:10305000030EDBCF01F0040EDBCF02F000500B0AB1
:1030600019E000500C0A29E10C0EBD6ED890023018
:10307000036E0130006ED890033200320050BE6EF5
:103080000150006E030E00160038F00B036EBD10E9
:10309000BD6E13D00C0EBA6ED8900230036E0130A4
:1030A000006ED890033200320050BB6E030E011642
:1030B0000138F00B006EBA10BA6E9E92E4CF03F0A6
:1030C000E4CF02F0E4CF01F0E4CF00F0E4CFD9FF89
:1030D0001200D9CFE5FFE1CFD9FF00C0E5FF01C065
:1030E000E5FF02C0E5FF03C0E5FF020EDBCF00F005
:1030F000030EDBCF01F0040EDBCF02F0050EDBCFB9
:1031000003F000500601226F0150236F02500601A8
:10311000246F0350256F0601225106012403F4CFCA
:1031200001F0F3CF00F000500601266F0150276F29
:103130000601225106012503F3CF00F006012351B9
:1031400006012403F3CF01F00150002606012751A8
:1031500000260050276F27C6F3FF2651E4CF03F067
:10316000E4CF02F0E4CF01F0E4CF00F0E4CFD9FFE8
:103170001200D9CFE5FFE1CFD9FF00C0E5FF01C0C4
:10318000E5FF02C0E5FF03C0E5FF020EDBCF00F064
:103190000D0E005C0CE3150E005C09E20050016EA0
:1031A000F30E01260144E844FC0BC26E07D0060E64
:1031B000005C04E20044E844FC0BC26EC280090ECD
:1031C000006E016A0000FF0E00260122005001106F
:1031D000F9E1C282C2B2FED7C4CF00F0016A00504A
:1031E000036E026AC3CF00F0016A0050022601504C
:1031F0000322C29003C0F3FF0250E4CF03F0E4CFF8
:1032000002F0E4CF01F0E4CF00F0E4CFD9FF1200E8
:10321000D8CFE5FFE0CFE5FFE56EF3CFE5FFF4CFD4
:10322000E5FFE9CFE5FFEACFE5FFFACFE5FFFBCF0A
:10323000E5FFD9CFE5FFE1CFD9FFF6CFE5FFF7CF27
:10324000E5FFF8CFE5FFF5CFE5FF38EC1AF0E4CF66
:10325000F5FFE4CFF8FFE4CFF7FFE4CFF6FFE4CFCC
:10326000D9FFE4CFFBFFE4CFFAFFE4CFEAFFE4CFDE
:10327000E9FFE4CFF4FFE4CFF3FFE450E4CFE0FF55
:10328000E4CFD8FF1000D8CFE5FFE0CFE5FFE56E33
:10329000F3CFE5FFF4CFE5FFE9CFE5FFEACFE5FFA8
:1032A000FACFE5FFFBCFE5FFD9CFE5FFE1CFD9FFAF
:1032B000F6CFE5FFF7CFE5FFF8CFE5FFF5CFE5FF68
:1032C000E4CFF5FFE4CFF8FFE4CFF7FFE4CFF6FF5C
:1032D000E4CFD9FFE4CFFBFFE4CFFAFFE4CFEAFF6E
:1032E000E4CFE9FFE4CFF4FFE4CFF3FFE450E4CF11
:1032F000E0FFE4CFD8FF1000D9CFE5FFE1CFD9FF41
:1033000000C0E5FF01C0E5FF02C0E5FF020EDBCF14
:1033100000F0030EDBCF01F01E0E005C0EE2026A2D
:10332000D20E0026050E022200C0E9FF02C0EAFF0D
:1033300001C0EFFF010E0501F16FE4CF02F0E4CF11
:1033400001F0E4CF00F0E4CFD9FF1200D9CFE5FFC0
:10335000E1CFD9FF00C0E5FF01C0E5FF02C0E5FFF6
:1033600003C0E5FF020EDBCF00F0030EDBCF01F060
:10337000026A036A0150035C02E10050025C03E24E
:10338000024A032AF7D7E4CF03F0E4CF02F0E4CFF8
:1033900001F0E4CF00F0E4CFD9FF120000C0E5FF58
:1033A00001C0E5FF0501F36BF46B006A016A005090
:1033B000816EE56A640EE56E6FEC15F0E652E6523A
:1033C000004A012A0501F33F01D0F42B0501F45115
:1033D000800F800F02E1FF0EF35DE9E3E4CF01F01F
:1033E000E4CF00F01200D9CFE5FFE1CFD9FF00C054
:1033F000E5FF01C0E5FF020EDBCF00F01E0E005C12
:1034000002E3E86A0CD0016AD20E0026050E012202
:1034100000C0E9FF01C0EAFFEFCF00F00050E4CFA9
:1034200001F0E4CF00F0E4CFD9FF1200D9CFE5FFDF
:10343000E1CFD9FF00C0E5FF01C0E5FF020EDBCF01
:1034400000F0030EDBCF01F00050E56EB9EC11F097
:10345000006EE652005003E1F36A010E02D0F36AF7
:10346000E86AE4CF01F0E4CF00F0E4CFD9FF120026
:103470009EA01FD00501F0510BE0DBEC1AF0E90E25
:10348000CF6E590ECE6E010ECD6E0501F06B10D0D1
:103490003EEC14F0320ECF6EEB0ECE6E0501F15104
:1034A000D8A40EEC06F0210ECD6E010E0501F06FD2
:1034B0009E901200D9CFE5FFE1CFD9FF00C0E5FF14
:1034C00001C0E5FF020EDBCF00F0005005E1C1CFE7
:1034D00001F00150C16E08D00050010A05E1C1CFD2
:1034E00000F000880050C16EE4CF01F0E4CF00F09E
:1034F000E4CFD9FF1200D9CFE5FFE1CFD9FF00C05B
:10350000E5FF01C0E5FF020EDBCF00F00050E56EE5
:10351000B9EC11F0016EE65201700150E56E0050F9
:10352000E56E32EC0DF0E652E652E4CF01F0E4CF66
:1035300000F0E4CFD9FF1200D350030B006E020E4F
:10354000005C02E3D3A4FED7C7EC1AF006EC06F049
:10355000B2EC1AF0D4EC16F0CDEC15F0CEEC19F07C
:10356000FDD7120000C0E5FF92CF00F02F0E001231
:103570000050926E96CF00F0070E00120050966E2B
:10358000070EC16EBD0EC06EE4CF00F01200896A56
:103590008A6A8B6A8C6A8D6A926A936A9490949212
:1035A0009494949C949E956A966A806A816A826AD1
:1035B000836A846A12000501F6518012F751811264
:1035C000F8518212F9518312FA518412120001004B
:1035D000E4350000F005000006000000CB68040E92
:0A35E000CA6E120000000000000097
:00000001FF
